:100000000C9466000C948E000C948E000C94530992
:100010000C9453090C9453090C948E000C943908D9
:100020000C948E000C948E000C948E000C948E0018
:100030000C948E000C948E000C948E000C948E0008
:100040000C94E40A0C948E000C948E000C948E0098
:100050000C948E000C948E000C948E000C948E00E8
:100060000C9418060C948E00000000080002010099
:100070000003040700000000000000000102040863
:100080001020408001020408102001020408102002
:10009000040404040404040402020202020203032E
:1000A00003030303000000002300260029000000D2
:1000B0000000250028002B0000000000240027007D
:1000C0002A00AC00DB013605B700F20111241FBE87
:1000D000CFEFD8E0DEBFCDBF11E0A0E0B1E0ECEAA9
:1000E000FFE102C005900D92A635B107D9F722E0D5
:1000F000A6E5B1E001C01D92A93DB207E1F710E00D
:10010000C8ECD0E004C02297FE010E94810EC23CE0
:10011000D107C9F70E948F0C0C94C90F0C940000F2
:1001200086EC91E00E94FC0461E08DE00E94F40BFB
:1001300061E08DE00E942D0C0E94780260E08DE06D
:100140000C942D0C80E691E00E94BE0168EE73E0F5
:1001500080E090E00C945D0B80E691E00E949F01AE
:1001600021E041E06CE086E591E00C94C10080E183
:1001700091E0909361018093600180E691E00C949E
:100180007501FC01608341832283138214821682ED
:10019000158210861782118608956F927F928F9232
:1001A0009F92AF92BF92CF92DF92EF92FF920F9306
:1001B0001F93CF93DF93EC018B018A859B85892B5D
:1001C00009F474C0D12C8C85D816E8F4ED2CF12CF0
:1001D0008E859F85F701EE0FFF1FE00FF11F9183C2
:1001E0008083EA85FB85EE0DFF1D61E080810E9422
:1001F0002D0CEA85FB85EE0DFF1D61E080810E94DC
:10020000F40BD394E0CF8AE090E00E94850BD12CD0
:100210008C85D816A0F4ED2CF12CEA85FB85EE0D2B
:10022000FF1D60E080810E94F40BEA85FB85EE0DE6
:10023000FF1D60E080810E942D0CD394E9CF0E94C5
:100240003A0B6B017C010E943A0B6C197D098E09F7
:100250009F092E853F854901A12CB12C6815790590
:100260008A059B0518F50E943A0B3B016C187D0826
:10027000912C8C85981638F7A92CB12CAA85BB85B2
:10028000AA0DBB1D8C910E94630C892B51F4F501C2
:10029000EE0FFF1FE00FF11F808191816816790634
:1002A00010F09394E6CF71826082FBCFDF91CF9103
:1002B0001F910F91FF90EF90DF90CF90BF90AF9084
:1002C0009F908F907F906F900895FC0180E191E066
:1002D0009183808313821282158214821782168280
:1002E00011861086138612860895CF93DF93EC0152
:1002F0008AE091E0998388838A859B85009711F035
:100300000E94350F8C819D81009711F00E94350F5E
:1003100088859985009711F00E94350F8A819B810D
:10032000009711F00E94350F8E819F81009721F078
:10033000DF91CF910C94350FDF91CF910895CF933A
:10034000DF93EC010E94650183E291E09983888349
:1003500040E855E260E070E08DE791E00E94560AC7
:100360001C8EDF91CF9108958CE991E00E940A08DC
:1003700069E370E00E94F30CCB0108950F931F9383
:10038000CF93DF938C01C4E0D0E0C8010E94B40198
:100390001816190644F462E171E08DE791E00E94BD
:1003A000E00C81E003C0219781F780E0DF91CF91DD
:1003B0001F910F9108958FEA91E00E94D4028EEA76
:1003C00091E00E94450722E330E04CE06BE08CE9CD
:1003D00091E00E94460720E041E060E08DE791E077
:1003E0000C94260A8DE791E00C94CD090E943A0BFB
:1003F0007093BD016093BC011092C2011092C301C1
:100400001092C4011092C50108958F929F92AF92ED
:10041000BF92CF92DF92EF92FF920F931F938FEADA
:1004200091E00E942E038091B3019091B40120913C
:10043000BE013091BF01821B930B9093C101809349
:10044000C0010E943A0B2091BC013091BD01AB016B
:10045000421B530B9A017093BD016093BC01A091A4
:10046000C001B091C1010E945C0D20E030E040EE7F
:1004700050E00E946E0DEDE8AE2EF8E3BF2EACE02A
:10048000CA2EDD24D394E12CF12C00E010E00E9470
:10049000AA0D49015A018091C2019091C301A09116
:1004A000C401B091C501880D991DAA1DBB1D809383
:1004B000C2019093C301A093C401B093C5019D01F3
:1004C000552737FD5095452FA8E6B1E00E94630DF2
:1004D000BC01992777FD9095892F1F910F91FF906F
:1004E000EF90DF90CF90BF90AF909F908F90089546
:1004F000CF92DF92EF92FF92CF93DF9386EC91E061
:100500000E94FC0442E050E063E070E08FEA91E07A
:100510000E94D8034FEF60E28FEA91E00E94DD0273
:1005200040E263E28FEA91E00E94DD0240E064E293
:100530008FEA91E00E94DD0264EF71E080E090E0DC
:100540000E945D0BC0E0D4E0C12CD12C760167E2A3
:100550008FEA91E00E9406038FEA91E00E942E0349
:100560008091B3019091B401AA2797FDA095BA2F6D
:10057000C80ED91EEA1EFB1E219749F7C701B60116
:1005800020E034E040E050E00E943D0D3093BF0198
:100590002093BE010E94F601DF91CF91FF90EF9072
:1005A000DF90CF900C940502FC0183E090E09087EF
:1005B00087831386128614860895EF92FF921F9305
:1005C000CF93DF931F92CDB7DEB77C01162FFC01CE
:1005D000618586EC91E049830E941605612F86ECC7
:1005E00091E00E94BD044981642F86EC91E00E9455
:1005F000BD0486EC91E00E943305F70186830F90DD
:10060000DF91CF911F91FF90EF9008951F93CF93AB
:10061000DF93EC01162F698586EC91E00E941605A8
:10062000612F86EC91E00E94BD0486EC91E00E946F
:1006300033058E8341E0698586EC91E00E941305C5
:1006400086EC91E00E946D04C82F86EC91E00E9438
:1006500033058C2FDF91CF911F9108959F92AF9218
:10066000BF92CF92DF92EF92FF920F931F93CF939F
:10067000DF93EC01698586EC91E00E941605E0911C
:10068000C601F091C7010190F081E02D68EA86EC87
:1006900091E0099586EC91E00E94330546E069857A
:1006A00086EC91E00E9413050E942E0B7B0186ECE4
:1006B00091E00E946504069784F48A859B85892BC6
:1006C000B1F30E942E0B6E197F098A859B858617D0
:1006D000970768F781E08C872CC086EC91E00E9438
:1006E0006D04A82E86EC91E00E946D04982E86EC95
:1006F00091E00E946D04E82E86EC91E00E946D046A
:10070000B82E86EC91E00E946D04F82E86EC91E004
:100710000E946D04D92CC12CCA28D982C8821B2DF5
:1007200000E00E291B830A83982F88278F299D8339
:100730008C83DF91CF911F910F91FF90EF90DF900D
:10074000CF90BF90AF909F9008951F93CF93DF936A
:100750001F92CDB7DEB7162F86EC91E049830E9439
:1007600016054981642F86EC91E00E94BD0486EC59
:1007700091E00E943305811114C041E0612F86ECA5
:1007800091E00E94130586EC91E00E946504892B9C
:1007900041F086EC91E00F90DF91CF911F910C9486
:1007A0006D048FEF9FEF0F90DF91CF911F91089510
:1007B000EF92FF920F931F93CF93DF937C01EB0196
:1007C0008A016330710521F04230510509F051C0B2
:1007D000CE010197039758F50115110581F04FE0FF
:1007E00050E06BE6C7010E94A5038F3F2FEF9207F1
:1007F00019F001E010E013C00130110551F04FE095
:1008000050E06AE6C7010E94A5038F3FEFEF9E0705
:1008100021F4C330D10569F027C000E010E0C330F7
:10082000D10529F4873D9105F1F5C2E0D0E020978C
:10083000D9F40115110561F04FE050E069E6C701F8
:100840000E94A503833D910589F10130110549F00E
:100850004FE050E068E6C7010E94A503833D910583
:1008600041F1C330D10519F00230110511F480E0D7
:1008700025C0F701D087C783209759F0D7FD11C055
:1008800023977CF40130110511F48BE608C08AE649
:1008900006C00130110511F489E601C088E6F701B0
:1008A000818781E00BC0C1E0D0E0C1CF01E010E062
:1008B00002C000E010E0C0E0D0E0D6CFDF91CF91E1
:1008C0001F910F91FF90EF9008958091F60190E0B5
:1008D0002091F701821B910908952091F7018091E1
:1008E000F601281750F4E22FF0E0E850FE4F808127
:1008F00090E02F5F2093F70108958FEF9FEF089509
:10090000E091F7018091F601E81730F4F0E0E8504B
:10091000FE4F808190E008958FEF9FEF0895089536
:10092000CF92DF92EF92FF920F931F93CF93DF93BB
:100930007C01CB018A012091D201222389F0EB01B5
:100940006B01C40ED51ECC15DD0569F06991D70188
:10095000ED91FC910190F081E02DC7010995F3CF55
:10096000642F0E94EF05C801DF91CF911F910F9175
:10097000FF90EF90DF90CF900895CF93DF931F9279
:10098000CDB7DEB769832091D2012223D1F0209127
:10099000D301203240F021E030E0FC013383228398
:1009A00080E090E015C08091D401E82FF0E0EB5298
:1009B000FE4F998190838F5F8093D4018093D30100
:1009C00005C061E0CE0101960E94EF0581E090E054
:1009D0000F90DF91CF910895FC011382128248EEAF
:1009E00053E060E070E0448355836683778389E257
:1009F00091E09183808308951092F7011092F6019F
:100A00001092D4011092D3010C943A05862F4132F2
:100A100008F040E268EF71E00E9458051092F7017B
:100A20008093F601089521E00C94060581E08093FF
:100A3000D2016093F5011092D4011092D301089570
:100A40000F93062F21E04091D30165ED71E0809175
:100A5000F5010E949C051092D4011092D3011092CE
:100A6000D2010F91089561E00C94200586EC91E08D
:100A70000C94EC041092850281E080938302109222
:100A8000820261E082E10E942D0C61E083E10E941C
:100A90002D0CE9EBF0E080818E7F808380818D7F5B
:100AA000808388E48093B80085E48093BC00089537
:100AB000413208F03FC0909185029111FCCF91E046
:100AC00090938502209383022FEF209318021092B7
:100AD0005D02240F20935C02909384029091840223
:100AE000880F892B8093840280918202813041F4A7
:100AF00010928202809184028093BB0085EC01C039
:100B000085EE8093BC00809185028130E1F3809175
:100B10005D02841710F440915D022EE532E0FB0186
:100B2000D9018A2F821B841718F48D918193F9CFF4
:100B3000842F089580E008950F93413208F046C055
:100B4000909185029111FCCF92E0909385020093E1
:100B500083029FEF9093180210925D0240935C0213
:100B6000FB016EE572E0DB019A2F961B941718F4D7
:100B700091919D93F9CF1092840290918402880FF5
:100B8000892B8093840280918202813041F41092FB
:100B90008202809184028093BB0085EC01C085EEC7
:100BA0008093BC00222321F0809185028230E1F302
:100BB000809118028F3F61F080911802803251F0CD
:100BC00080911802803341F483E007C081E005C0C2
:100BD00080E003C082E001C084E00F91089561329B
:100BE00098F420918502243089F460933A02FC0144
:100BF0008CE392E0DC012A2F281B261718F42191A0
:100C00002D93F9CF80E0089581E0089582E0089562
:100C100085ED8093BC008091BC0084FDFCCF1092D8
:100C20008502089585EC8093BC001092850208959A
:100C30001F920F920FB60F9211242F933F934F9351
:100C40005F936F937F938F939F93AF93BF93EF9334
:100C5000FF938091B900887F803609F49CC068F5C5
:100C6000883209F45BC090F4803109F454C038F440
:100C7000882309F4F5C0883009F44DC0F5C08831E7
:100C800009F44CC0803209F45DC0EEC0803409F430
:100C900068C048F4803309F455C0883309F0E4C0D3
:100CA00080931802A8C0803509F44FC0883509F434
:100CB0005DC0883409F0D8C0D5C0883909F4C6C0F1
:100CC000A8F4883709F467C038F4883609F463C09B
:100CD000803709F460C0C8C0883809F4B7C08039CB
:100CE00009F45FC0803809F0BFC05BC0803B09F4E5
:100CF00085C038F4803A09F466C0883A09F47EC0A9
:100D0000B3C0803C09F4A6C0883C09F4A3C0883B6A
:100D100009F489C0A9C08091840210C090915D023D
:100D200080915C02981770F5E0915D0281E08E0F72
:100D300080935D02F0E0E25AFD4F80818093BB001A
:100D400085EC85C0809318028DC0E0915D0281E042
:100D50008E0F80935D028091BB00F0E0E25AFD4F60
:100D6000808390915D0280915C026DC0E0915D0294
:100D700081E08E0F80935D028091BB00F0E0E25A2B
:100D8000FD4F80838091830281116CC081E080934C
:100D9000820284EA60C083E0809385021092190287
:100DA000CFCF80911902803208F050C0E091190233
:100DB00081E08E0F809319028091BB00F0E0E65E27
:100DC000FD4F8083BDCF80911902803230F4E091D5
:100DD0001902F0E0E65EFD4F10820E940806609165
:100DE000190270E0E0917E02F0917F028AE192E0C8
:100DF0000995109219020E94120636C084E0809371
:100E0000850210923B0210923A02E0918002F0912A
:100E10008102099580913A02811105C081E0809399
:100E20003A0210923C02E0913B0281E08E0F8093E7
:100E30003B02F0E0E45CFD4F80818093BB00909129
:100E40003B0280913A02981708F47ACF85E88093A4
:100E5000BC000AC085EC8093BC001092850204C0DF
:100E6000109218020E940806FF91EF91BF91AF9176
:100E70009F918F917F916F915F914F913F912F91B2
:100E80000F900FBE0F901F9018950895CF93DF938A
:100E9000DC0170E0FB01E458FF4FE4911496EC9301
:100EA0001497842F90E0FC01E458FF4FE4911596CD
:100EB000EC93159760577F4FFB01C491D0E0CC0FA6
:100EC000DD1FC255DF4FFE014591549117965C938B
:100ED0004E931697FC01E057FF4F849190E0880FE6
:100EE000991F8C559F4FFC014591549119965C9325
:100EF0004E931897FB016491E62FF0E0EE0FFF1F71
:100F0000E854FF4F859194911B969C938E931A976A
:100F10002F5F3F4F49E3429FC001439F900D112433
:100F20008E38FFE69F0710F08DE89FE61D969C9394
:100F30008E931C97DF91CF9108950F931F93CF93BA
:100F4000DF93EC01EA85FB8580819C81892B80837E
:100F5000EE81FF8190818C8180958923808384E05C
:100F600090E00E94850BEE81FF8180819C81892B1E
:100F700080838AE090E00E94850BEE81FF81908162
:100F80008C81809589238083EA85FB8590818C8183
:100F9000809589238083E885F98580819D818923D7
:100FA00011F080E032C00E943A0B4C855D858A01C9
:100FB00020E030E00855194E2F4F3F4F060F171F06
:100FC000281F391F0E871F87288B398BE885F985E5
:100FD00080819D81892361F40E943A0B0E851F85D3
:100FE00028893989061717072807390778F7D9CFCD
:100FF0000E943A0B2C853D85620F731F811D911D48
:101000006E877F87888B998B81E0DF91CF911F91CD
:101010000F9108950F931F93CF93DF93EC010E94DC
:101020009D07882389F0E885F98580819D81892342
:1010300071F00E943A0B0E851F85288939890617A1
:1010400017072807390778F720E030E00CC00E9426
:101050003A0B2C853D85255031094E855F85241B33
:10106000350B260F371FC901DF91CF911F910F91CB
:1010700008951F920F920FB60F9211242F933F9352
:101080004F935F936F937F938F939F93AF93BF9390
:10109000EF93FF93E0918602F09187020995FF910B
:1010A000EF91BF91AF919F918F917F916F915F91E0
:1010B0004F913F912F910F900FBE0F901F90189559
:1010C0002091CA023091CB0228173907B9F49091C8
:1010D000880280918902981789F0E0918802F0E0F7
:1010E000E657FD4F80812091880230E02F5F3F4F0F
:1010F0002F7333272093880290E008958FEF9FEF9E
:1011000008951F93CF93DF93DC015C968D919C91A2
:101110005D97009749F481E090E013969C938E933D
:10112000129780E090E03BC05196ED91FC91529770
:1011300050962C915097322F30951FB75E964C9158
:101140005E9741FB772770F941FD6095F8944081E7
:10115000772311F0422B01C043234083EC012197F8
:10116000F1F748E0508160FF02C0522B01C05323C9
:101170005083EC012197F1F76695415099F78081F2
:10118000772311F0832301C0822B80831FBF5C96DD
:101190008D919C915D970197F1F781E090E0DF914F
:1011A000CF911F9108952091CA023091CB02281748
:1011B000390781F49091880280918902981751F043
:1011C000E0918802F0E0E657FD4F8081992787FD86
:1011D000909508958FEF9FEF08952091CA02309166
:1011E000CB022817390771F4809189022091880277
:1011F00090E0805C9F4F821B910960E470E00E9448
:10120000070D089580E090E008952091CA02309182
:10121000CB022817390739F48FB7F8941092890256
:10122000109288028FBF0895E091CA02F091CB021C
:10123000E817F90769F4A389B4899C918589809599
:1012400089238C931092CB021092CA0281E00895F8
:1012500080E00895CF93DF93EC018A8D9B8D892BDD
:10126000F1F08091CA029091CB028C179D07B9F0E2
:10127000009711F00E9414098E8D8E7F8E8F109230
:10128000890210928802D093CB02C093CA02EB89E4
:10129000FC8980819D89892B808381E001C080E069
:1012A000DF91CF9108951F920F920FB60F921124E4
:1012B0002F933F934F935F936F937F938F939F935E
:1012C000AF93BF93EF93FF93E091CA02F091CB02EB
:1012D000309709F451C0868DA685B785958581FF25
:1012E00004C08C91892329F447C08C91892309F08B
:1012F00043C0A389B4899C918589809589238C9367
:10130000868997890197F1F7208D318DA685B7855C
:10131000758558E040E0C9010197F1F7842F90E00E
:1013200095958795482F6C91672309F04068515037
:1013300091F7868D81FD40958091890290E001961C
:101340008F73992720918802281749F0A09189026C
:10135000B0E0A657BD4F4C938093890203C0868DA1
:101360008160868F828D938D0197F1F7A389B4896F
:101370008C919589892B8C93FF91EF91BF91AF91BF
:101380009F918F917F916F915F914F913F912F919D
:101390000F900FBE0F901F90189529E331E0FC01CC
:1013A000318320830C9414091F93CF93DF93EC01B6
:1013B000162F6E8D6695617081E06827812F0E94DF
:1013C0002D0C61E0812F0E94F40B812F90E0FC0135
:1013D000E458FF4FE491E88BFC01E057FF4FE491A4
:1013E000F0E0EE0FFF1FE255FF4F859194919A8B2D
:1013F000898BDF91CF911F9108951F93CF93DF9336
:10140000EC01162F60E0812F0E94F40B8E8D81FD80
:1014100004C061E0812F0E942D0C1C87812F90E079
:10142000FC01E458FF4FE491ED87FC01E057FF4FCA
:10143000E491F0E0EE0FFF1FEC55FF4F8591949182
:101440009F878E87DF91CF911F910895FF920F9311
:101450001F93CF93DF93EC01F62E522F1B821A823B
:1014600008EE13E020E030E00C831D832E833F83E1
:1014700089E391E0998388831F8A1E8A198E188ECA
:101480001B8E1A8E1D8E1C8E8E8D8E7F50FB81F9C9
:101490008E8F642FCE010E94D4096F2DCE01DF9173
:1014A000CF911F910F91FF900C94FD09CF93DF9383
:1014B000EC019A01AB011B8E1A8E198E188E1F8AB1
:1014C0001E8A60E079E08DE390E00E943D0DC90145
:1014D0002430310520F0B9016350710902C061E088
:1014E00070E07D8F6C8FEC85E63108F068C0B90143
:1014F000769567956431710518F06351710902C0E2
:1015000061E070E07F8B6E8B069718F0C90105973C
:1015100002C081E090E0998F888FC901880F991FE0
:10152000820F931F96958795969587958D30910597
:1015300010F00C9702C081E090E09B8F8A8F209181
:101540006800E83050F091E0EE3008F490E081E07F
:1015500001C0880F9A95EAF701C084E0822B80933E
:1015600068002C85283038F02E3040F0263148F4C1
:101570008CE690E008C08DE690E005C08BE690E038
:1015800002C080E090E09C8B8B8B283030F481E0AF
:1015900001C0880F2A95EAF70DC0822F90E02E3007
:1015A00010F4089701C00E9791E001C0990F8A9539
:1015B000EAF7892F8D8B8C8D9D8D0197F1F7CE01E8
:1015C000DF91CF910C942A091F920F920FB60F92C0
:1015D00011242F933F938F939F93AF93BF93809149
:1015E000CD029091CE02A091CF02B091D002309165
:1015F000CC0223E0230F2D3720F40196A11DB11D4D
:1016000005C026E8230F0296A11DB11D2093CC0230
:101610008093CD029093CE02A093CF02B093D002DC
:101620008091D1029091D202A091D302B091D402C4
:101630000196A11DB11D8093D1029093D202A09377
:10164000D302B093D402BF91AF919F918F913F91FC
:101650002F910F900FBE0F901F9018952FB7F894F1
:101660006091CD027091CE028091CF029091D00214
:101670002FBF08953FB7F8948091D1029091D20284
:10168000A091D302B091D40226B5A89B05C02F3FEC
:1016900019F00196A11DB11D3FBF6627782F892F34
:1016A0009A2F620F711D811D911D42E0660F771FF9
:1016B000881F991F4A95D1F70895CF92DF92EF9234
:1016C000FF92CF93DF936B017C010E943A0BEB01F9
:1016D000C114D104E104F10489F00E94F20C0E94CB
:1016E0003A0B6C1B7D0B683E734090F381E0C81A87
:1016F000D108E108F108C851DC4FEACFDF91CF9162
:10170000FF90EF90DF90CF9008958230910538F0F0
:10171000880F991F880F991F05970197F1F7089572
:10172000789484B5826084BD84B5816084BD85B5BC
:10173000826085BD85B5816085BDEEE6F0E0808183
:1017400081608083E1E8F0E01082808182608083A4
:10175000808181608083E0E8F0E080818160808327
:10176000E1EBF0E0808184608083E0EBF0E0808159
:1017700081608083EAE7F0E08081846080838081FB
:1017800082608083808181608083808180688083A3
:101790001092C1000895833081F028F4813099F0CF
:1017A0008230A1F008958730A9F08830B9F08430F4
:1017B000D1F4809180008F7D03C0809180008F776D
:1017C00080938000089584B58F7702C084B58F7DA3
:1017D00084BD08958091B0008F7703C08091B000E0
:1017E0008F7D8093B0000895CF93DF9390E0FC014C
:1017F000E458FF4F2491FC01E057FF4F8491882368
:1018000049F190E0880F991FFC01E854FF4FA59122
:10181000B49182559F4FFC01C591D4919FB761113E
:1018200008C0F8948C91209582238C938881822320
:101830000AC0623051F4F8948C91322F3095832392
:101840008C938881822B888304C0F8948C91822B9E
:101850008C939FBFDF91CF9108950F931F93CF93E8
:10186000DF931F92CDB7DEB7282F30E0F901E8599A
:10187000FF4F8491F901E458FF4F1491F901E057AB
:10188000FF4F04910023C9F0882321F069830E944F
:10189000CB0B6981E02FF0E0EE0FFF1FE255FF4F09
:1018A000A591B4919FB7F8948C91611103C01095E4
:1018B000812301C0812B8C939FBF0F90DF91CF912B
:1018C0001F910F910895CF93DF93282F30E0F901F6
:1018D000E859FF4F8491F901E458FF4FD491F90181
:1018E000E057FF4FC491CC2391F081110E94CB0BA4
:1018F000EC2FF0E0EE0FFF1FEC55FF4FA591B491D8
:101900002C912D2381E090E021F480E002C080E062
:1019100090E0DF91CF9108950E94C40F08950E9436
:10192000900B0E948E0C0E949000C0E0D0E00E94BC
:10193000A2002097E1F30E940000F9CFCF92DF923E
:10194000EF92FF920F931F93CF93DF936C017A0175
:10195000EB01E60EF71E00E010E0CE15DF0561F0AA
:101960006991D601ED91FC910190F081E02DC601C5
:101970000995080F191FF1CFC801DF91CF911F9171
:101980000F91FF90EF90DF90CF9008956115710552
:1019900081F0DB010D900020E9F7AD0141505109C4
:1019A000461B570BDC01ED91FC910280F381E02D89
:1019B000099480E090E0089565E471E00C94C60C11
:1019C0000F931F93CF93DF93EC010E94C60C8C0101
:1019D000CE010E94DC0C800F911FDF91CF911F91EF
:1019E0000F9108950895AA1BBB1B51E107C0AA1FC0
:1019F000BB1FA617B70710F0A61BB70B881F991FB0
:101A00005A95A9F780959095BC01CD01089597FB53
:101A1000072E16F4009407D077FD09D00E94F30C2E
:101A200007FC05D03EF4909581959F4F08957095E1
:101A300061957F4F0895A1E21A2EAA1BBB1BFD01E1
:101A40000DC0AA1FBB1FEE1FFF1FA217B307E4079D
:101A5000F50720F0A21BB30BE40BF50B661F771FF5
:101A6000881F991F1A9469F76095709580959095D5
:101A70009B01AC01BD01CF010895052E97FB1EF41B
:101A800000940E94540D57FD07D00E941B0D07FCC7
:101A900003D04EF40C94540D5095409530952195FB
:101AA0003F4F4F4F5F4F089590958095709561958A
:101AB0007F4F8F4F9F4F08950E94850EB7FF089567
:101AC000821B930B08950E94850EA59F900DB49FD5
:101AD000900DA49F800D911D1124089597FB57FF31
:101AE0000C947E0D9F938F930E947E0D6E1B7F0B37
:101AF000AF91BF918A0B9B0B0895E894DF93CF932E
:101B0000FC01DB010E94850E7F936F93E9019A012E
:101B1000AC01BF93AF933F932F93DF010E94850EDB
:101B200026F46C1B7D0B820B930B9E01EB01FC01D9
:101B30000E94940EAF91BF912F913F910E94940EFD
:101B4000BE01CF01F9012F913F91CF91DF9108950F
:101B5000689401C0E894F92FF12B12F00C94DC0D7D
:101B6000A0E0B0E0E6EBFDE00C944E0E092E0594EB
:101B700022F40E94380E112392F4F0E80F26FFEFB2
:101B8000E094F09400951095B094C094D094A194F2
:101B9000BF0ACF0ADF0AEF0AFF0A0F0B1F0B0E94D2
:101BA000E70D07FC0E94380ECDB7DEB7ECE00C94D1
:101BB0006A0E689401C0E8948F929F92CF93DF934E
:101BC0000E94E70DDF91CF919F908F900895882418
:101BD0009924F401E401B0E49F93AA279A158B0499
:101BE0009C04ED05FE05CF05D007A10798F4AD2FA5
:101BF000DC2FCF2FFE2FE92D982C892E982F872FA1
:101C0000762F652F542F432F322F2227B85031F7CC
:101C1000BF9127C01B2EBF91BB27220F331F441F2C
:101C2000551F661F771F881F991F881C991CEE1F60
:101C3000FF1FCC1FDD1FAA1FBB1F8A149B04EC05CE
:101C4000FD05CE05DF05A007B10748F08A189B08FF
:101C5000EC09FD09CE09DF09A00BB10B21601A9434
:101C6000E1F62EF49401AF01BE01CD01000C089500
:101C700060957095809590953095409550952195FB
:101C80003F4F4F4F5F4F6F4F7F4F8F4F9F4F089585
:101C90002F923F924F925F926F927F928F929F927C
:101CA000AF92BF92CF92DF92EF92FF920F931F936A
:101CB000CF93DF93CDB7DEB7CA1BDB0B0FB6F8941B
:101CC000DEBF0FBECDBF09942A88398848885F845B
:101CD0006E847D848C849B84AA84B984C884DF80CC
:101CE000EE80FD800C811B81AA81B981CE0FD11DB0
:101CF0000FB6F894DEBF0FBECDBFED010895EE0F15
:101D0000FF1F0590F491E02D0994A29FB001B39FAD
:101D1000C001A39F700D811D1124911DB29F700DF4
:101D2000811D1124911D08950E94850E460F571F95
:101D3000C81FD91F08F431960895CF93DF938230DE
:101D4000910510F482E090E0E091D702F091D80282
:101D500020E030E0A0E0B0E0309739F140815181DF
:101D600048175907B8F04817590771F482819381D1
:101D7000109729F013969C938E9312972CC09093F2
:101D8000D8028093D70227C02115310531F04217C0
:101D9000530718F0A901DB0101C0EF019A01BD0151
:101DA000DF010280F381E02DD7CF21153105F9F055
:101DB000281B390B2430310580F48A819B81611501
:101DC000710521F0FB019383828304C09093D802B4
:101DD0008093D702FE01329644C0FE01E20FF31F4A
:101DE0008193919322503109398328833AC02091FD
:101DF000D5023091D602232B41F42091020130917B
:101E000003013093D6022093D50220910001309136
:101E100001012115310541F42DB73EB74091040170
:101E200050910501241B350BE091D502F091D602AB
:101E3000E217F307A0F42E1B3F0B2817390778F0A1
:101E4000AC014E5F5F4F2417350748F04E0F5F1F00
:101E50005093D6024093D5028193919302C0E0E063
:101E6000F0E0CF01DF91CF910895CF93DF930097FA
:101E700009F487C0FC01329713821282C091D70205
:101E8000D091D802209781F420813181280F391F09
:101E90008091D5029091D6028217930779F5F0933D
:101EA000D602E093D5026DC0DE0120E030E0AE172F
:101EB000BF0750F412964D915C9113979D01411507
:101EC000510509F1DA01F3CFB383A2834081518137
:101ED000840F951F8A179B0771F48D919C91119720
:101EE000840F951F02969183808312968D919C9109
:101EF0001397938382832115310529F4F093D80237
:101F0000E093D7023EC0D9011396FC93EE9312974B
:101F10004D915D91A40FB51FEA17FB0779F48081FD
:101F20009181840F951F0296D90111969C938E93EF
:101F30008281938113969C938E931297E0E0F0E058
:101F40008A819B81009719F0FE01EC01F9CFCE0147
:101F5000029628813981820F931F2091D5023091FA
:101F6000D6022817390769F4309729F41092D8025D
:101F70001092D70202C013821282D093D602C0936D
:101F8000D502DF91CF91089581E090E0F8940C9410
:101F9000C90F10E0C8ECD0E004C0FE010E94810E21
:0C1FA0002296CC3CD107C9F7F894FFCF83
:101FAC000000D9028000000000008C0C0000000032
:101FBC00CD00466F756E64204F626A6563740000D5
:101FCC00000000CD0000000000BD04900465046D0D
:101FDC000480048F040000000081089E0CED086052
:101FEC0008D30805090D0A006E616E00696E660063
:061FFC006F7666002E0066
:00000001FF
