:100000000C9466000C948E000C948E000C941306D5
:100010000C9413060C9413060C948E000C948E0012
:100020000C948E000C948E000C948E000C948E0018
:100030000C948E000C948E000C948E000C948E0008
:100040000C94A10F0C948E000C9490120C94C2127C
:100050000C948E000C948E000C948E000C948E00E8
:100060000C94FC0D0C948E000000000800020100AE
:100070000003040700000000000000000102040863
:100080001020408001020408102001020408102002
:10009000040404040404040402020202020203032E
:1000A00003030303000000002300260029000000D2
:1000B0000000250028002B0000000000240027007D
:1000C0002A00C7007A091A0DF212D20011241FBEAD
:1000D000CFEFD8E0DEBFCDBF11E0A0E0B1E0EAEFA6
:1000E000F1E302C005900D92AA37B107D9F723E0DA
:1000F000AAE7B1E001C01D92A038B207E1F710E015
:10010000CAECD0E004C02297FE010E94A817C23CAE
:10011000D107C9F70E9436130C94F0180C94000014
:1001200026E040E855E260E070E08FED92E00E944A
:100130002E1240E855E260E070E086E991E00E940E
:10014000160783E192E00E94E00C61E08DE00E94DE
:10015000B11061E08DE00E94EA100E94040A8AE773
:1001600091E00E94CF0760E08DE00C94EA108AE7EE
:1001700091E00E9456096CE071E08FED92E00E94E0
:10018000901368EE73E080E090E00C941A1020E089
:1001900041E060E086E991E00E94E6068AE791E0AE
:1001A0000C94A4078CE291E090937B0180937A01F8
:1001B0008AE791E00E94F60486E991E00C948D06AE
:1001C0006F927F928F929F92AF92BF92CF92DF9267
:1001D000EF92FF920F931F93CF93DF93EC018B016C
:1001E0008A859B85892B09F474C0D12C8C85D816FF
:1001F000E8F4ED2CF12C8E859F85F701EE0FFF1FA3
:10020000E00FF11F91838083EA85FB85EE0DFF1DD2
:1002100061E080810E94EA10EA85FB85EE0DFF1DFA
:1002200061E080810E94B110D394E0CF8AE090E039
:100230000E944210D12C8C85D816A0F4ED2CF12C04
:10024000EA85FB85EE0DFF1D60E080810E94B11004
:10025000EA85FB85EE0DFF1D60E080810E94EA10BB
:10026000D394E9CF0E94F70F6B017C010E94F70F36
:100270006C197D098E099F092E853F854901A12CA6
:10028000B12C681579058A059B0518F50E94F70FB2
:100290003B016C187D08912C8C85981638F7A92C99
:1002A000B12CAA85BB85AA0DBB1D8C910E94201183
:1002B000892B51F4F501EE0FFF1FE00FF11F808134
:1002C00091816816790610F09394E6CF718260826E
:1002D000FBCFDF91CF911F910F91FF90EF90DF90B7
:1002E000CF90BF90AF909F908F907F906F90089528
:1002F000EF92FF920F931F93CF93DF931F92CDB78F
:10030000DEB77C018B01DC0113961C921E921297C2
:1003100015961C921E92149717961C921E92169771
:1003200019961C921E921897413120F080E11C967C
:100330008C9302C0FC014487D7011A968D919C9141
:100340001B97892B11F030E00FC0F701848590E0F6
:1003500029830E94C417D7011B969C938E931A97EA
:100360002981892B81F715C0F7018485381780F41E
:10037000832F90E0F801E80FF91F4081D7011A960A
:10038000ED91FC911B97E80FF91F40833F5FECCF85
:1003900025870F90DF91CF911F910F91FF90EF90E4
:1003A0000895CF93DF93EC018D858F3F69F061E075
:1003B0000E94B11060E08D850E94EA1088EC90E008
:1003C000DF91CF910C944210DF91CF910895CF939C
:1003D000DF93EC018D858F3F69F061E00E94B110E1
:1003E00061E08D850E94EA1088EC90E0DF91CF916A
:1003F0000C944210DF91CF910895DF92EF92FF921B
:100400000F931F93CF93DF93CDB7DEB7A0970FB6AF
:10041000F894DEBF0FBECDBF8C017B01D42E8FEFD1
:10042000840F823020F4C8010E94E70103C0C80194
:100430000E94D101D801ED91FC910190F081E02D55
:10044000B701C8010995C8010E94D101B2E0DB12D1
:100450002FC0D801ED91FC910190F081E02DBE01FB
:100460006F5F7F4FC801099540E0F8018485481708
:10047000F8F4842F90E0880F991FF701E80FF91F17
:1004800021E030E02C0F3D1F820F931FD8011E96F4
:100490002D913C911F97DC018D919C91281B390B6C
:1004A00080819181820F931F918380834F5FDDCF85
:1004B000A0960FB6F894DEBF0FBECDBFDF91CF91EF
:1004C0001F910F91FF90EF90DF9008952F923F9230
:1004D0005F926F927F928F929F92AF92BF92CF92D4
:1004E000DF92EF92FF920F931F93CF93DF93CDB7DD
:1004F000DEB7C056D1090FB6F894DEBF0FBECDBF30
:100500008C014B015A01522EDA018D919C91892B5D
:1005100031F0F40180819181892BF1F424C0D8015C
:100520001C968C9190E0880F991F0E94C417F501CA
:1005300091838083009709F4B1C0FC0120E030E092
:10054000D8011C968C9190E02817390714F7119266
:1005500011922F5F3F4FF4CFE12CF12C6E01B1E2ED
:10056000CB0ED11C21C0F801848590E0880F991F23
:100570000E94C417D4018D939C93009709F48EC0F8
:10058000FC0120E030E0D8011C968C9190E0281707
:10059000390714F7D8011E968D919C911F9781936E
:1005A00091932F5F3F4FEFCF452DBE016F5B7F4F84
:1005B000C8010E94FD01F8016484712CFE01EF5B0B
:1005C000FF4FC6019E012F5F3F4F190120E030E031
:1005D000261537054CF5E114F10489F0DC016D9125
:1005E0007C91408151816417750748F0D1016D916C
:1005F0007C91408151814617570748F00DC04081DA
:100600005181DC014D935C93E114F10479F7408151
:100610005181D1014D935C932F5F3F4FB2E02B0E80
:10062000311C32960296D4CFEFEFEE1AFE0AFAE0B2
:10063000EF16F10409F0B8CF9E012F5F3F4F79010B
:10064000360180E090E0F801248530E082179307BE
:100650002CF5D7012D913D917D01B3016C197D09D8
:10066000D501ED91FC91E60FF71F408151814217B2
:10067000530710F431832083F301219131913F011D
:10068000D401ED91FC91E60FF71F408151812417B1
:10069000350710F4318320830196D5CFC05ADF4F40
:1006A0000FB6F894DEBF0FBECDBFDF91CF911F9183
:1006B0000F91FF90EF90DF90CF90BF90AF909F9001
:1006C0008F907F906F905F903F902F9008951F9331
:1006D000CF93DF93EC01162F8FEF860F823018F047
:1006E000662369F019C021E0AE014C5F5F4FBE0187
:1006F0006E5F7F4FCE010E946602123069F4AE0138
:10070000485F5F4FBE016A5F7F4F20E0CE01DF91FF
:10071000CF911F910C946602DF91CF911F910895A4
:10072000BF92CF92DF92EF92FF920F931F93CF93DE
:10073000DF93EC018B01B42E842F8D7F51F48E81D9
:100740009F81892B09F497C088859985892B09F4A5
:1007500092C08FEF8B0D823050F48A819B81892B60
:1007600009F489C08C819D81892B09F484C04B2DAB
:10077000B801CE010E94FD01780100E010E0C12C1B
:10078000D12C8C8590E0C816D9060CF074C081E09D
:10079000B8120AC0EC81FD81E00FF11F0190F081D9
:1007A000E02DAA81BB810DC08E819F81288539856E
:1007B000B1100CC0F901E00FF11F0190F081E02DA4
:1007C000DC01A00FB11F8D919C9128C0FC01E00FAE
:1007D000F11F40815181EA81FB81E00FF11F80818F
:1007E0009181EE85FF854817590710F4CF0104C0A9
:1007F0008E0F9F1F841B950BD901A00FB11F2D9148
:100800003C91AC81BD81A00FB11F4D915C9124172B
:10081000350720F0E40FF51FE21BF30BE81BF90B83
:10082000A9F0D7012D913C9140E050E0281B390BF5
:1008300041095109A8EEB3E00E9482169F0140E0F1
:1008400050E00E945C1637FD0AC002C020E030E094
:10085000293EB3E03B072CF028EE33E002C020E055
:1008600030E0F701219331937F01FFEFCF1ADF0AC8
:100870000E5F1F4F86CFDF91CF911F910F91FF9099
:10088000EF90DF90CF90BF9008952F923F924F92BC
:100890005F926F927F928F929F92AF92BF92CF9210
:1008A000DF92EF92FF920F931F93CF93DF93EC01B0
:1008B0008B01822E0E9490032C84E801412C512C44
:1008C000320100E010E0C12CD12C7601312C912CAA
:1008D000E8EEAE2EE3E0BE2E921421F1E991F991FB
:1008E000882021F0C5018E1B9F0BFC01E93CF1051E
:1008F00024F4E333F10574F002C033243394DF01B0
:10090000A30192010E948D16C60ED71EE81EF91E85
:100910000E0F1F1F939498EE490E93E0591E611C11
:10092000711CDACF31101EC0492D50E041505109E1
:1009300024EF31E0429FC001439F900D529F900DE4
:1009400011242091B5013091B60128173907B4F070
:1009500088EE93E0489F9001499F300D589F300DDD
:1009600011240EC0980140E050E0C701B6010E947A
:100970003A163093B6012093B50102C020E030E072
:10098000C901DF91CF911F910F91FF90EF90DF9000
:10099000CF90BF90AF909F908F907F906F905F901F
:1009A0004F903F902F900895FC018CE291E091834D
:1009B0008083138212821582148217821682118616
:1009C0001086138612860895EF92FF920F93CF93AD
:1009D000DF93EC017901202F0E947801FF86EE86DB
:1009E000DF91CF910F91FF90EF900895CF93DF9318
:1009F000EC0186E291E0998388838A859B85009744
:100A000011F00E945C188C819D81009711F00E946A
:100A10005C1888859985009711F00E945C188A817E
:100A20009B81009711F00E945C188E819F81009736
:100A300021F0DF91CF910C945C18DF91CF91089554
:100A40002091F9013091FA0128173907B9F49091F2
:100A5000B7018091B801981789F0E091B701F0E0F3
:100A6000E754FE4F80812091B70130E02F5F3F4F68
:100A70002F7333272093B70190E008958FEF9FEFF6
:100A800008951F93CF93DF93DC015C968D919C9129
:100A90005D97009749F481E090E013969C938E93C4
:100AA000129780E090E03BC05196ED91FC915297F7
:100AB00050962C915097322F30951FB75E964C91DF
:100AC0005E9741FB772770F941FD6095F89440816E
:100AD000772311F0422B01C043234083EC0121977F
:100AE000F1F748E0508160FF02C0522B01C0532350
:100AF0005083EC012197F1F76695415099F7808179
:100B0000772311F0832301C0822B80831FBF5C9663
:100B10008D919C915D970197F1F781E090E0DF91D5
:100B2000CF911F9108952091F9013091FA01281772
:100B3000390781F49091B7018091B801981751F06D
:100B4000E091B701F0E0E754FE4F8081992787FDDF
:100B5000909508958FEF9FEF08952091F9013091BE
:100B6000FA012817390771F48091B8012091B70173
:100B700090E0805C9F4F821B910960E470E00E94CE
:100B80002616089580E090E008952091F9013091B3
:100B9000FA012817390739F48FB7F8941092B80181
:100BA0001092B7018FBF0895E091F901F091FA0119
:100BB000E817F90769F4A389B4899C918589809520
:100BC00089238C931092FA011092F90181E0089523
:100BD00080E00895CF93DF93EC018A8D9B8D892B64
:100BE000F1F08091F9019091FA018C179D07B9F00D
:100BF000009711F00E94D4058E8D8E7F8E8F1092FB
:100C0000B8011092B701D093FA01C093F901EB89B2
:100C1000FC8980819D89892B808381E001C080E0EF
:100C2000DF91CF9108951F920F920FB60F9211246A
:100C30002F933F934F935F936F937F938F939F93E4
:100C4000AF93BF93EF93FF93E091F901F091FA0115
:100C5000309709F451C0868DA685B785958581FFAB
:100C600004C08C91892329F447C08C91892309F011
:100C700043C0A389B4899C918589809589238C93ED
:100C8000868997890197F1F7208D318DA685B785E3
:100C9000758558E040E0C9010197F1F7842F90E095
:100CA00095958795482F6C91672309F040685150BE
:100CB00091F7868D81FD40958091B80190E0019675
:100CC0008F7399272091B701281749F0A091B80197
:100CD000B0E0A754BE4F4C938093B80103C0868DFB
:100CE0008160868F828D938D0197F1F7A389B489F6
:100CF0008C919589892B8C93FF91EF91BF91AF9146
:100D00009F918F917F916F915F914F913F912F9123
:100D10000F900FBE0F901F90189522E331E0FC0159
:100D2000318320830C94D4051F93CF93DF93EC0180
:100D3000162F6E8D6695617081E06827812F0E9465
:100D4000EA1061E0812F0E94B110812F90E0FC0138
:100D5000E458FF4FE491E88BFC01E057FF4FE4912A
:100D6000F0E0EE0FFF1FE255FF4F859194919A8BB3
:100D7000898BDF91CF911F9108951F93CF93DF93BC
:100D8000EC01162F60E0812F0E94B1108E8D81FD45
:100D900004C061E0812F0E94EA101C87812F90E03F
:100DA000FC01E458FF4FE491ED87FC01E057FF4F51
:100DB000E491F0E0EE0FFF1FEC55FF4F8591949109
:100DC0009F878E87DF91CF911F910895FF920F9398
:100DD0001F93CF93DF93EC01F62E522F1B821A82C2
:100DE00008EE13E020E030E00C831D832E833F8368
:100DF00082E391E0998388831F8A1E8A198E188E58
:100E00001B8E1A8E1D8E1C8E8E8D8E7F50FB81F94F
:100E10008E8F642FCE010E9494066F2DCE01DF913C
:100E2000CF911F910F91FF900C94BD06CF93DF934C
:100E3000EC019A01AB011B8E1A8E198E188E1F8A37
:100E40001E8A60E079E08DE390E00E945C16C901A3
:100E50002430310520F0B9016350710902C061E00E
:100E600070E07D8F6C8FEC85E63108F068C0B901C9
:100E7000769567956431710518F06351710902C068
:100E800061E070E07F8B6E8B069718F0C9010597C3
:100E900002C081E090E0998F888FC901880F991F67
:100EA000820F931F96958795969587958D3091051E
:100EB00010F00C9702C081E090E09B8F8A8F209108
:100EC0006800E83050F091E0EE3008F490E081E006
:100ED00001C0880F9A95EAF701C084E0822B8093C5
:100EE00068002C85283038F02E3040F0263148F448
:100EF0008CE690E008C08DE690E005C08BE690E0BF
:100F000002C080E090E09C8B8B8B283030F481E035
:100F100001C0880F2A95EAF70DC0822F90E02E308D
:100F200010F4089701C00E9791E001C0990F8A95BF
:100F3000EAF7892F8D8B8C8D9D8D0197F1F7CE016E
:100F4000DF91CF910C94EA050F931F93CF93DF931A
:100F5000CDB7DEB760970FB6F894DEBF0FBECDBF3A
:100F60008C010E94D40486E491E0F801918380838F
:100F7000CE0101960E94D4048CE291E09A83898389
:100F8000CE0101960E94F60460960FB6F894DEBF7B
:100F90000FBECDBFDF91CF911F910F910895EF92BA
:100FA000FF920F931F93CF93DF9300D000D000D018
:100FB000CDB7DEB77C0186E0E6E0F1E0DE01119618
:100FC00001900D928A95E1F702E020ED37E046E0CE
:100FD000BE016F5F7F4FC7010E94E40405EF1FEF62
:100FE0000431110520F0C8018897449728F468EC73
:100FF00070E088E39FEF04C068E37FEF88EC90E047
:101000000E94970F61E0C7010E94670364E170E0EE
:1010100080E090E00E941A100F5F1F4F0534110509
:10102000F9F660E070E080E090E00E94970F26966D
:101030000FB6F894DEBF0FBECDBFDF91CF911F91E9
:101040000F91FF90EF9008954F925F926F927F9271
:101050008F929F92AF92BF92EF92FF920F931F9346
:10106000CF934B010E9482090E9491090E940215B0
:101070000E94600A0E94CF14AA2497FCA094BA2C64
:10108000680D791D8A1D9B1D0E9402150E94600A31
:101090000E94CF142B013C010E949109641975092B
:1010A000860997090E9402150E94600A4B015C01A3
:1010B0009F77E12CF12C00E81FE320E030E040E8CE
:1010C0005FEB0E94900AC82F20E030E0A901C50123
:1010D000B4010E940E1618162CF46AE67FEF86E91A
:1010E00090E004C066E970E08AE69FEF0E94970FE7
:1010F0000E949109CC2381F260E070E080E090E0F2
:10110000CF911F910F91FF90EF90BF90AF909F9064
:101110008F907F906F905F904F900C94970FCF932C
:10112000DF93EC0161E070E0888999894F9714F4AE
:1011300060E070E04AE050E08FED92E00E944514DC
:101140006EE371E08FED92E00E94831361E070E046
:101150008A899B894F9714F460E070E04AE050E080
:101160008FED92E00E9445146EE371E08FED92E006
:101170000E94831361E070E08C899D894F9714F47D
:1011800060E070E04AE050E08FED92E00E9445148C
:101190006EE371E08FED92E00E94831361E070E0F6
:1011A0008E899F894F9714F460E070E04AE050E028
:1011B0008FED92E00E9445146EE371E08FED92E0B6
:1011C0000E94831361E070E0888D998D4F9714F42D
:1011D00060E070E04AE050E08FED92E00E9445143C
:1011E0006EE371E08FED92E00E94831361E070E0A6
:1011F0008A8D9B8D4F9714F460E070E04AE050E0D8
:101200008FED92E00E944D14888999894F9774F070
:101210008A899B894F9754F0888D998D4F9734F028
:1012200081E02A8D3B8D2F3131050CF480E0DF9178
:10123000CF9108950F931F93CF93DF93EC018C010F
:10124000005F1F4F20E041E0B8010E944504CE013D
:101250000E948F08811125C020E041E0B801CE0135
:101260000E944504888999894F973CF08A899B8917
:101270004F971CF080E090E002C084E690E00E946E
:10128000510F888D998D4F9724F08A8D9B8D4F97A4
:101290001CF484E690E002C080E090E00E94740FAD
:1012A000D6CFDF91CF911F910F910895CF93DF9308
:1012B000EC0166EA7FEF0E942408CE010E941A0921
:1012C0006AE570E0CE010E9424086AE570E0CE0174
:1012D0000E942408CE010E941A0966EA7FEFCE011F
:1012E0000E94240864E670E084E690E0DF91CF91EC
:1012F0000C94970F8CEF91E00E94B80A8BEF91E06D
:101300000C94290F0E94F70F70930A026093090250
:1013100010920F02109210021092110210921202FB
:1013200008958F929F92AF92BF92CF92DF92EF92E9
:10133000FF920F931F938CEF91E00E94120B80910C
:1013400000029091010220910B0230910C02821B4D
:10135000930B90930E0280930D020E94F70F209141
:10136000090230910A02AB01421B530B9A017093A0
:101370000A0260930902A0910D02B0910E020E9430
:101380007B1620E030E040EE50E00E949516EDE83C
:10139000AE2EF8E3BF2EACE0CA2EDD24D394E12CB0
:1013A000F12C00E010E00E94D11649015A01809111
:1013B0000F0290911002A0911102B0911202880DBB
:1013C000991DAA1DBB1D80930F0290931002A0933C
:1013D0001102B09312029D01552737FD5095452FFC
:1013E000A8E6B1E00E948216BC01992777FD90958E
:1013F000892F1F910F91FF90EF90DF90CF90BF90BA
:10140000AF909F908F900895CF92DF92EF92FF92CE
:10141000CF93DF9383E192E00E94E00C42E050E042
:1014200063E070E08CEF91E00E94BC0B4FEF60E254
:101430008CEF91E00E94C10A40E263E28CEF91E000
:101440000E94C10A40E064E28CEF91E00E94C10A70
:1014500064EF71E080E090E00E941A10C0E0D4E0F8
:10146000C12CD12C760167E28CEF91E00E94EA0A50
:101470008CEF91E00E94120B80910002909101028A
:10148000AA2797FDA095BA2FC80ED91EEA1EFB1EEB
:10149000219749F7C701B60120E034E040E050E071
:1014A0000E945C1630930C0220930B020E9482096A
:1014B000DF91CF91FF90EF90DF90CF900C94910946
:1014C000CF92DF92EF92FF9220E030E044E353E4CA
:1014D0000E94671420E030E044EB53E40E9444157E
:1014E0006B017C0120E030E0A9010E94CB1487FF52
:1014F0000AC020E030E044EB53E4C701B6010E948B
:1015000067146B017C0120E030E044E353E4C70141
:10151000B6010E946614FF90EF90DF90CF9008957F
:101520008F929F92AF92BF92CF92DF92EF92FF92F3
:101530000F931F934B015C01670178010E940E1607
:10154000181654F4A7019601C501B4010E94CB14EA
:10155000881F8827881F01C080E01F910F91FF908E
:10156000EF90DF90CF90BF90AF909F908F900895B5
:10157000FC0183E090E090878783138612861486AF
:101580000895EF92FF921F93CF93DF931F92CDB7F1
:10159000DEB77C01162FFC01618583E192E049836F
:1015A0000E94FA0C612F83E192E00E94A10C498114
:1015B000642F83E192E00E94A10C83E192E00E94FB
:1015C000170DF70186830F90DF91CF911F91FF9048
:1015D000EF9008951F93CF93DF93EC01162F698549
:1015E00083E192E00E94FA0C612F83E192E00E9475
:1015F000A10C83E192E00E94170D8E8341E0698582
:1016000083E192E00E94F70C83E192E00E94510C8A
:10161000C82F83E192E00E94170D8C2FDF91CF91AC
:101620001F9108959F92AF92BF92CF92DF92EF9257
:10163000FF920F931F93CF93DF93EC01698583E1B2
:1016400092E00E94FA0CE0911302F09114020190D2
:10165000F081E02D68EA83E192E0099583E192E070
:101660000E94170D46E0698583E192E00E94F70C25
:101670000E94EB0F7B0183E192E00E94490C0697E8
:1016800084F48A859B85892BB1F30E94EB0F6E1938
:101690007F098A859B858617970768F781E08C8785
:1016A0002CC083E192E00E94510CA82E83E192E0CD
:1016B0000E94510C982E83E192E00E94510CE82E7A
:1016C00083E192E00E94510CB82E83E192E00E94E7
:1016D000510CF82E83E192E00E94510CD92CC12CC0
:1016E000CA28D982C8821B2D00E00E291B830A83D9
:1016F000982F88278F299D838C83DF91CF911F910D
:101700000F91FF90EF90DF90CF90BF90AF909F90A0
:1017100008951F93CF93DF931F92CDB7DEB7162F97
:1017200083E192E049830E94FA0C4981642F83E1AE
:1017300092E00E94A10C83E192E00E94170D8111BA
:1017400014C041E0612F83E192E00E94F70C83E135
:1017500092E00E94490C892B41F083E192E00F90C6
:10176000DF91CF911F910C94510C8FEF9FEF0F9051
:10177000DF91CF911F910895EF92FF920F931F93E6
:10178000CF93DF937C01EB018A016330710521F077
:101790004230510509F051C0CE010197039758F529
:1017A0000115110581F04FE050E06BE6C7010E9482
:1017B000890B8F3F2FEF920719F001E010E013C063
:1017C0000130110551F04FE050E06AE6C7010E9478
:1017D000890B8F3FEFEF9E0721F4C330D10569F0ED
:1017E00027C000E010E0C330D10529F4873D910502
:1017F000F1F5C2E0D0E02097D9F40115110561F0B0
:101800004FE050E069E6C7010E94890B833D9105D6
:1018100089F10130110549F04FE050E068E6C70159
:101820000E94890B833D910541F1C330D10519F028
:101830000230110511F480E025C0F701D087C7837D
:10184000209759F0D7FD11C023977CF40130110582
:1018500011F48BE608C08AE606C00130110511F4C8
:1018600089E601C088E6F701818781E00BC0C1E00D
:10187000D0E0C1CF01E010E002C000E010E0C0E025
:10188000D0E0D6CFDF91CF911F910F91FF90EF90D5
:1018900008958091430290E020914402821B9109B7
:1018A00008952091440280914302281750F4E22FBA
:1018B000F0E0EB5BFD4F808190E02F5F20934402CE
:1018C00008958FEF9FEF0895E091440280914302C5
:1018D000E81730F4F0E0EB5BFD4F808190E0089575
:1018E0008FEF9FEF08950895CF92DF92EF92FF92CE
:1018F0000F931F93CF93DF937C01CB018A0120913B
:101900001F02222389F0EB016B01C40ED51ECC15FA
:10191000DD0569F06991D701ED91FC910190F081AD
:10192000E02DC7010995F3CF642F0E94D30DC801A4
:10193000DF91CF911F910F91FF90EF90DF90CF90AB
:101940000895CF93DF931F92CDB7DEB769832091BF
:101950001F022223D1F020912002203240F021E00A
:1019600030E0FC013383228380E090E015C0809159
:101970002102E82FF0E0EE5DFD4F998190838F5FAB
:10198000809321028093200205C061E0CE01019680
:101990000E94D30D81E090E00F90DF91CF910895E8
:1019A000FC011382128248EE53E060E070E0448351
:1019B0005583668377838CE491E0918380830895D7
:1019C00010924402109243021092210210922002BF
:1019D0000C941E0D862F413208F040E265E472E05F
:1019E0000E943C0D1092440280934302089521E02E
:1019F0000C94EA0C81E080931F02609342021092E3
:101A000021021092200208950F93062F21E04091A9
:101A1000200262E272E0809142020E94800D1092E8
:101A200021021092200210921F020F91089561E08E
:101A30000C94040D83E192E00C94D00C1092D2022D
:101A400081E08093D0021092CF0261E082E10E9497
:101A5000EA1061E083E10E94EA10E9EBF0E08081A6
:101A60008E7F808380818D7F808388E48093B8001F
:101A700085E48093BC000895413208F03FC0909106
:101A8000D2029111FCCF91E09093D2022093D00228
:101A90002FEF209365021092AA02240F2093A9022F
:101AA0009093D1029091D102880F892B8093D1021B
:101AB0008091CF02813041F41092CF028091D10207
:101AC0008093BB0085EC01C085EE8093BC008091C3
:101AD000D2028130E1F38091AA02841710F4409180
:101AE000AA022BEA32E0FB01D9018A2F821B84175C
:101AF00018F48D918193F9CF842F089580E0089593
:101B00000F93413208F046C09091D2029111FCCF60
:101B100092E09093D2020093D0029FEF90936502DF
:101B20001092AA024093A902FB016BEA72E0DB016A
:101B30009A2F961B941718F491919D93F9CF1092B8
:101B4000D1029091D102880F892B8093D10280918C
:101B5000CF02813041F41092CF028091D102809364
:101B6000BB0085EC01C085EE8093BC00222321F0F0
:101B70008091D2028230E1F3809165028F3F61F063
:101B800080916502803251F080916502803341F48A
:101B900083E007C081E005C080E003C082E001C0AF
:101BA00084E00F910895613298F42091D20224309C
:101BB00089F460938702FC0189E892E0DC012A2F16
:101BC000281B261718F421912D93F9CF80E0089552
:101BD00081E0089582E0089585ED8093BC008091B6
:101BE000BC0084FDFCCF1092D202089585EC809356
:101BF000BC001092D20208951F920F920FB60F925E
:101C000011242F933F934F935F936F937F938F9301
:101C10009F93AF93BF93EF93FF938091B900887F19
:101C2000803609F49CC068F5883209F45BC090F4F2
:101C3000803109F454C038F4882309F4F5C08830A1
:101C400009F44DC0F5C0883109F44CC0803209F464
:101C50005DC0EEC0803409F468C048F4803309F4F4
:101C600055C0883309F0E4C080936502A8C0803570
:101C700009F44FC0883509F45DC0883409F0D8C034
:101C8000D5C0883909F4C6C0A8F4883709F467C0FC
:101C900038F4883609F463C0803709F460C0C8C0DE
:101CA000883809F4B7C0803909F45FC0803809F07A
:101CB000BFC05BC0803B09F485C038F4803A09F4AA
:101CC00066C0883A09F47EC0B3C0803C09F4A6C05F
:101CD000883C09F4A3C0883B09F489C0A9C080915D
:101CE000D10210C09091AA028091A902981770F5B4
:101CF000E091AA0281E08E0F8093AA02F0E0E55500
:101D0000FD4F80818093BB0085EC85C08093650288
:101D10008DC0E091AA0281E08E0F8093AA0280918B
:101D2000BB00F0E0E555FD4F80839091AA028091C1
:101D3000A9026DC0E091AA0281E08E0F8093AA02F1
:101D40008091BB00F0E0E555FD4F80838091D0028B
:101D500081116CC081E08093CF0284EA60C083E08F
:101D60008093D20210926602CFCF809166028032B9
:101D700008F050C0E091660281E08E0F8093660209
:101D80008091BB00F0E0E959FD4F8083BDCF809189
:101D90006602803230F4E0916602F0E0E959FD4FCE
:101DA00010820E94EC0D6091660270E0E091CB021F
:101DB000F091CC0287E692E00995109266020E94AB
:101DC000F60D36C084E08093D20210928802109201
:101DD0008702E091CD02F091CE02099580918702B1
:101DE000811105C081E08093870210928902E09101
:101DF000880281E08E0F80938802F0E0E757FD4F64
:101E000080818093BB00909188028091870298170F
:101E100008F47ACF85E88093BC000AC085EC8093F3
:101E2000BC001092D20204C0109265020E94EC0D18
:101E3000FF91EF91BF91AF919F918F917F916F91A2
:101E40005F914F913F912F910F900FBE0F901F9078
:101E50001895089561E08AE00E94B11061E089E080
:101E60000E94B11061E088E00E94B11061E087E05B
:101E70000E94B11080EA8093800081E1809381000C
:101E800080E991E090938700809386000895809187
:101E9000D302811105C081E08093D3020C942A0FF4
:101EA0000895CF93DF93EC010E94470FD7FF05C041
:101EB000D195C195D10981E001C080E0C13991E09F
:101EC000D90714F0C0E9D1E0D0938B00C0938A0009
:101ED0009091D502891711F061E001C060E088E0BF
:101EE000DF91CF910C94EA10CF93DF93EC010E9425
:101EF000470FD7FF05C0D195C195D10981E001C039
:101F000080E0C13991E0D90714F0C0E9D1E0D09365
:101F10008900C09388009091D402891711F061E084
:101F200001C060E087E0DF91CF910C94EA10CF937D
:101F3000DF93EB010E94510FCE01DF91CF910C9402
:101F4000740F1F920F920FB60F9211242F933F938D
:101F50008F939F93AF93BF938091D7029091D802B4
:101F6000A091D902B091DA023091D60223E0230F7A
:101F70002D3720F40196A11DB11D05C026E8230FC1
:101F80000296A11DB11D2093D6028093D702909393
:101F9000D802A093D902B093DA028091DB0290912B
:101FA000DC02A091DD02B091DE020196A11DB11DFF
:101FB0008093DB029093DC02A093DD02B093DE02FB
:101FC000BF91AF919F918F913F912F910F900FBE35
:101FD0000F901F9018952FB7F8946091D7027091C9
:101FE000D8028091D9029091DA022FBF08953FB7AD
:101FF000F8948091DB029091DC02A091DD02B09117
:10200000DE0226B5A89B05C02F3F19F00196A11D41
:10201000B11D3FBF6627782F892F9A2F620F711D40
:10202000811D911D42E0660F771F881F991F4A95F9
:10203000D1F70895CF92DF92EF92FF92CF93DF9383
:102040006B017C010E94F70FEB01C114D104E10484
:10205000F10489F00E9465140E94F70F6C1B7D0B40
:10206000683E734090F381E0C81AD108E108F10896
:10207000C851DC4FEACFDF91CF91FF90EF90DF9016
:10208000CF9008958230910538F0880F991F880FFE
:10209000991F05970197F1F70895789484B58260A8
:1020A00084BD84B5816084BD85B5826085BD85B5FC
:1020B000816085BDEEE6F0E0808181608083E1E8AB
:1020C000F0E01082808182608083808181608083E3
:1020D000E0E8F0E0808181608083E1EBF0E08081E6
:1020E00084608083E0EBF0E0808181608083EAE7B8
:1020F000F0E0808184608083808182608083808141
:10210000816080838081806880831092C1000895FF
:10211000833081F028F4813099F08230A1F0089565
:102120008730A9F08830B9F08430D1F480918000F4
:102130008F7D03C0809180008F7780938000089509
:1021400084B58F7702C084B58F7D84BD089580915A
:10215000B0008F7703C08091B0008F7D8093B00076
:102160000895CF93DF9390E0FC01E458FF4F249152
:10217000FC01E057FF4F8491882349F190E0880FDC
:10218000991FFC01E854FF4FA591B49182559F4FD0
:10219000FC01C591D4919FB7611108C0F8948C914E
:1021A000209582238C93888182230AC0623051F467
:1021B000F8948C91322F309583238C938881822BD5
:1021C000888304C0F8948C91822B8C939FBFDF91FD
:1021D000CF9108950F931F93CF93DF931F92CDB7A5
:1021E000DEB7282F30E0F901E859FF4F8491F9015B
:1021F000E458FF4F1491F901E057FF4F0491002379
:10220000C9F0882321F069830E9488106981E02F3A
:10221000F0E0EE0FFF1FE255FF4FA591B4919FB77D
:10222000F8948C91611103C01095812301C0812B1A
:102230008C939FBF0F90DF91CF911F910F910895C5
:10224000CF93DF93282F30E0F901E859FF4F8491B5
:10225000F901E458FF4FD491F901E057FF4FC491C1
:10226000CC2391F081110E948810EC2FF0E0EE0F4A
:10227000FF1FEC55FF4FA591B4912C912D2381E0C8
:1022800090E021F480E002C080E090E0DF91CF9107
:1022900008950E94EB18FC01818D228D90E0805CF6
:1022A0009F4F821B91098F7399270895FC01918D8F
:1022B000828D981731F0828DE80FF11D858D90E0A9
:1022C00008958FEF9FEF0895FC01918D828D9817EF
:1022D00061F0828DDF01A80FB11D5D968C91928D0A
:1022E0009F5F9F73928F90E008958FEF9FEF089507
:1022F00088EE92E1892B49F080E090E0892B29F06B
:102300000E94E81281110C9400000895FC01848D54
:10231000DF01A80FB11DA35ABF4F2C91848D90E00F
:1023200001968F739927848FA689B7892C93A089EA
:10233000B1898C9180648C93938D848D981306C0A1
:102340000288F389E02D80818F7D80830895CF936B
:10235000DF93EC01888D8823C9F0EA89FB898081AD
:1023600085FD05C0A889B9898C9186FD0FC00FB67F
:1023700007FCF5CF808185FFF2CFA889B9898C91C0
:1023800085FFEDCFCE010E948611E7CFDF91CF917F
:102390000895CF92DF92FF920F931F93CF93DF9315
:1023A0001F92CDB7DEB76C0181E0D60158968C93B1
:1023B00058975B969C915B975C968C915C97981371
:1023C00007C05096ED91FC915197808185FD2EC0FC
:1023D000F601038D10E00F5F1F4F0F731127F02ED2
:1023E000F601848DF81211C00FB607FCF9CFD601A3
:1023F0005096ED91FC915197808185FFF1CFC601F8
:1024000069830E9486116981EBCF838DE80FF11DEE
:10241000E35AFF4F6083D6015B960C935B9752960D
:10242000ED91FC915397808180620CC0D601569645
:10243000ED91FC91579760835096ED91FC915197E7
:1024400080818064808381E090E00F90DF91CF9164
:102450001F910F91FF90DF90CF900895BF92CF9280
:10246000DF92EF92FF92CF93DF93EC016A017B0141
:10247000B22EE889F98982E08083411581EE580700
:1024800061057105A1F060E079E08DE390E0A701BE
:1024900096010E943A162150310941095109569579
:1024A000479537952795211580E1380798F0E889F9
:1024B000F989108260E874E88EE190E0A701960146
:1024C0000E943A1621503109410951095695479504
:1024D00037952795EC85FD853083EE85FF85208334
:1024E000188EEC89FD89B082EA89FB898081806140
:1024F0008083EA89FB89808188608083EA89FB89FF
:10250000808180688083EA89FB8980818F7D8083D8
:10251000DF91CF91FF90EF90DF90CF90BF90089523
:102520001F920F920FB60F9211242F938F939F93A8
:10253000EF93FF93E091EF02F091F0028081E09140
:10254000F502F091F60282FD12C090818091F802AE
:102550008F5F8F732091F902821751F0E091F8029A
:10256000F0E0E152FD4F958F8093F80201C0808129
:10257000FF91EF919F918F912F910F900FBE0F9030
:102580001F9018951F920F920FB60F9211242F9340
:102590003F934F935F936F937F938F939F93AF93EB
:1025A000BF93EF93FF938FED92E00E948611FF910E
:1025B000EF91BF91AF919F918F917F916F915F91BB
:1025C0004F913F912F910F900FBE0F901F90189534
:1025D0008FED92E00E944B1121E0892B09F420E05D
:1025E000822F08951092E2021092E10288EE93E0A9
:1025F000A0E0B0E08093E3029093E402A093E502B0
:10260000B093E6028CE591E09093E0028093DF02C4
:1026100085EC90E09093EC028093EB0284EC90E0E8
:102620009093EE028093ED0280EC90E09093F002A4
:102630008093EF0281EC90E09093F2028093F1029C
:1026400082EC90E09093F4028093F30286EC90E0A9
:102650009093F6028093F5021092F8021092F9021C
:102660001092FA021092FB02089508950E944D10F4
:102670000E9435130E949000C8E7D1E10E94B70084
:102680002097E1F30E947811F9CFCF92DF92EF9279
:10269000FF920F931F93CF93DF936C017A01EB01AD
:1026A000E60EF71E00E010E0CE15DF0561F069913F
:1026B000D601ED91FC910190F081E02DC6010995C4
:1026C000080F191FF1CFC801DF91CF911F910F9112
:1026D000FF90EF90DF90CF9008956115710581F024
:1026E000DB010D900020E9F7AD0141505109461B77
:1026F000570BDC01ED91FC910280F381E02D0994F0
:1027000080E090E008950C946D13DC01ED91FC9154
:102710000190F081E02D099468E671E00C946D134E
:102720000F931F93CF93DF93EC010E946D138C01E5
:10273000CE010E948C13800F911FDF91CF911F91CA
:102740000F9108958F929F92AF92BF92CF92DF9296
:10275000EF92FF920F931F93CF93DF93CDB7DEB726
:10276000A1970FB6F894DEBF0FBECDBF7C01C42E7B
:10277000E52FCB01D22E19A221E02D1510F02AE071
:10278000D22E8E010F5D1F4F8D2C912CA12CB12CC0
:102790006C2D7E2FA50194010E943A168C2DD29E9D
:1027A00080191124015011098A3014F4805D01C090
:1027B000895CF8018083211531054105510521F01F
:1027C000C22EE32FCA01E4CFB801C7010E946D13E6
:1027D000A1960FB6F894DEBF0FBECDBFDF91CF91AB
:1027E0001F910F91FF90EF90DF90CF90BF90AF902F
:1027F0009F908F900895CF92DF92EF92FF920F9368
:102800001F93CF93DF93EC016A017B012115310502
:1028100079F4E881F9810190F081E02D642FDF9156
:10282000CF911F910F91FF90EF90DF90CF9009947F
:102830002A303105E9F477FF1AC06DE20E94851352
:102840008C0144275527BA014C195D096E097F098F
:102850002AE0CE010E94A213800F911FDF91CF9139
:102860001F910F91FF90EF90DF90CF9008952AE095
:10287000B701A601CE01DF91CF911F910F91FF907B
:10288000EF90DF90CF900C94A2139A01AB016627D2
:1028900057FD6095762F0C94FB130F931F93CF93E6
:1028A000DF93EC019A01AB01662757FD6095762F07
:1028B0000E94FB138C01CE010E948C13800F911F8C
:1028C000DF91CF911F910F91089508955058BB2724
:1028D000AA270ED069C15AD130F05FD120F031F46F
:1028E0009F3F11F41EF44FC10EF4E095E7FB37C192
:1028F000E92F6BD180F3BA17620773078407950736
:1029000018F071F49EF583C10EF4E0950B2EBA2FEA
:10291000A02D0B01B90190010C01CA01A0011124E5
:10292000FF27591B99F0593F50F4503E68F11A1691
:10293000F040A22F232F342F4427585FF3CF469522
:1029400037952795A795F0405395C9F77EF41F1644
:10295000BA0B620B730B840BBAF09150A1F0FF0F0E
:10296000BB1F661F771F881FC2F70EC0BA0F621FFA
:10297000731F841F48F4879577956795B795F795EA
:102980009E3F08F0B3CF9395880F08F09927EE0F7C
:10299000979587950895BFD008F481E0089504D0F5
:1029A0006894B11135C1089518D188F09F5790F0FF
:1029B000B92F9927B751A0F0D1F0660F771F881F64
:1029C000991F1AF0BA95C9F712C0B13081F01FD122
:1029D000B1E008951CC1672F782F8827B85F39F0C0
:1029E000B93FCCF3869577956795B395D9F73EF4C3
:1029F00090958095709561957F4F8F4F9F4F08956B
:102A0000E89409C097FB3EF4909580957095619588
:102A10007F4F8F4F9F4F9923A9F0F92F96E9BB273E
:102A20009395F695879577956795B795F111F8CFBA
:102A3000FAF4BB0F11F460FF1BC06F5F7F4F8F4F25
:102A40009F4F16C0882311F096E911C0772321F01B
:102A50009EE8872F762F05C0662371F096E8862FB3
:102A600070E060E02AF09A95660F771F881FDAF70A
:102A7000880F9695879597F9089588D018F011F0EA
:102A80008CD038F480C0C4C0E92F9FD0B0F3552358
:102A9000C9F3E7FB6217730784079507A8F199F359
:102AA000E92FFF2788232AF03197660F771F881FA9
:102AB000DAF7952F5527442332F091505040220FDA
:102AC000331F441FD2F7BB27E91BF50B621B730BA7
:102AD000840BB109C1F222F4620F731F841FB11D70
:102AE00031972AF0660F771F881FBB1FEFCF9150D9
:102AF00050405AF041F0882332F0660F771F881F4C
:102B000091505040C1F7939530C086957795679561
:102B10009F5FD9F7F8CF990F0008550FAA0BE0E88F
:102B2000FEEF16161706E807F907C0F0121613068F
:102B3000E407F50798F0621B730B840B950B39F4CF
:102B40000A2661F0232B242B252B21F408950A2635
:102B500009F4A140A6958FEF811D811D089597F975
:102B60009F6780E870E060E008959F3F31F09150EA
:102B700020F4879577956795B795880F911D969561
:102B8000879597F908959FEF80EC089500240A94A3
:102B90001616170618060906089500240A94121638
:102BA0001306140605060895092E0394000C11F46B
:102BB000882352F0BB0F40F4BF2B11F460FF04C018
:102BC0006F5F7F4F8F4F9F4F089557FD9058440F71
:102BD000551F59F05F3F71F04795880F97FB991F7C
:102BE00061F09F3F79F08795089512161306140639
:102BF000551FF2CF4695F1DF08C0161617061806C6
:102C0000991FF1CF86957105610508940895E894A0
:102C1000BB2766277727CB0197F908957CDF08F457
:102C20008FEF0895AA1BBB1B51E107C0AA1FBB1F52
:102C3000A617B70710F0A61BB70B881F991F5A9548
:102C4000A9F780959095BC01CD01089597FB072EBB
:102C500016F4009407D077FD09D00E94121607FCE5
:102C600005D03EF4909581959F4F0895709561959C
:102C70007F4F0895A1E21A2EAA1BBB1BFD010DC0B8
:102C8000AA1FBB1FEE1FFF1FA217B307E407F5071C
:102C900020F0A21BB30BE40BF50B661F771F881FF8
:102CA000991F1A9469F760957095809590959B018E
:102CB000AC01BD01CF010895052E97FB1EF40094D1
:102CC0000E94731657FD07D00E943A1607FC03D0E6
:102CD0004EF40C94731650954095309521953F4FC6
:102CE0004F4F5F4F089590958095709561957F4FF8
:102CF0008F4F9F4F08950E94AC17B7FF0895821B16
:102D0000930B08950E94AC17A59F900DB49F900D52
:102D1000A49F800D911D11240895B7FF0C94821675
:102D20000E948216821B930B089597FB57FF0C9409
:102D3000A5169F938F930E94A5166E1B7F0BAF91D4
:102D4000BF918A0B9B0B0895E894DF93CF93FC010E
:102D5000DB010E94AC177F936F93E9019A01AC01EC
:102D6000BF93AF933F932F93DF010E94AC1726F4DC
:102D70006C1B7D0B820B930B9E01EB01FC010E94EF
:102D8000BB17AF91BF912F913F910E94BB17BE011E
:102D9000CF01F9012F913F91CF91DF910895689470
:102DA00001C0E894F92FF12B12F00C940317A0E066
:102DB000B0E0EDEDF6E10C947517092E059422F4C0
:102DC0000E945F17112392F4F0E80F26FFEFE094C2
:102DD000F09400951095B094C094D094A194BF0A3B
:102DE000CF0ADF0AEF0AFF0A0F0B1F0B0E940E1714
:102DF00007FC0E945F17CDB7DEB7ECE00C9491178B
:102E0000689401C0E8948F929F92CF93DF930E94C1
:102E10000E17DF91CF919F908F9008958824992469
:102E2000F401E401B0E49F93AA279A158B049C0453
:102E3000ED05FE05CF05D007A10798F4AD2FDC2FD7
:102E4000CF2FFE2FE92D982C892E982F872F762FA4
:102E5000652F542F432F322F2227B85031F7BF91BF
:102E600027C01B2EBF91BB27220F331F441F551FA6
:102E7000661F771F881F991F881C991CEE1FFF1F54
:102E8000CC1FDD1FAA1FBB1F8A149B04EC05FD0588
:102E9000CE05DF05A007B10748F08A189B08EC09AA
:102EA000FD09CE09DF09A00BB10B21601A94E1F6F0
:102EB0002EF49401AF01BE01CD01000C0895609580
:102EC00070958095909530954095509521953F4F00
:102ED0004F4F5F4F6F4F7F4F8F4F9F4F08952F92F0
:102EE0003F924F925F926F927F928F929F92AF929A
:102EF000BF92CF92DF92EF92FF920F931F93CF93E7
:102F0000DF93CDB7DEB7CA1BDB0B0FB6F894DEBF7D
:102F10000FBECDBF09942A88398848885F846E84A3
:102F20007D848C849B84AA84B984C884DF80EE80ED
:102F3000FD800C811B81AA81B981CE0FD11D0FB6F6
:102F4000F894DEBF0FBECDBFED010895EE0FFF1F59
:102F50000590F491E02D0994A29FB001B39FC001A8
:102F6000A39F700D811D1124911DB29F700D811DB5
:102F70001124911D08950E94AC17460F571FC81FBA
:102F8000D91F08F431960895CF93DF9382309105CD
:102F900010F482E090E0E0917E03F0917F0320E066
:102FA00030E0A0E0B0E0309739F14081518148171E
:102FB0005907B8F04817590771F482819381109727
:102FC00029F013969C938E9312972CC090937F03B5
:102FD00080937E0327C02115310531F04217530736
:102FE00018F0A901DB0101C0EF019A01BD01DF0169
:102FF0000280F381E02DD7CF21153105F9F0281B90
:10300000390B2430310580F48A819B81611571056B
:1030100021F0FB019383828304C090937F0380930C
:103020007E03FE01329644C0FE01E20FF31F81933E
:10303000919322503109398328833AC020917C032F
:1030400030917D03232B41F4209102013091030143
:1030500030937D0320937C03209100013091010186
:103060002115310541F42DB73EB74091040150912F
:103070000501241B350BE0917C03F0917D03E217E1
:10308000F307A0F42E1B3F0B2817390778F0AC018B
:103090004E5F5F4F2417350748F04E0F5F1F509368
:1030A0007D0340937C038193919302C0E0E0F0E0C4
:1030B000CF01DF91CF910895CF93DF93009709F46B
:1030C00087C0FC01329713821282C0917E03D09197
:1030D0007F03209781F420813181280F391F80914F
:1030E0007C0390917D038217930779F5F0937D031C
:1030F000E0937C036DC0DE0120E030E0AE17BF0737
:1031000050F412964D915C9113979D014115510514
:1031100009F1DA01F3CFB383A28340815181840F97
:10312000951F8A179B0771F48D919C911197840FBD
:10313000951F02969183808312968D919C9113978F
:10314000938382832115310529F4F0937F03E09363
:103150007E033EC0D9011396FC93EE9312974D91D6
:103160005D91A40FB51FEA17FB0779F48081918167
:10317000840F951F0296D90111969C938E9382819C
:10318000938113969C938E931297E0E0F0E08A81EE
:103190009B81009719F0FE01EC01F9CFCE01029658
:1031A00028813981820F931F20917C0330917D0308
:1031B0002817390769F4309729F410927F03109289
:1031C0007E0302C013821282D0937D03C0937C03DE
:1031D000DF91CF91089581E090E0F8940C94F0187D
:1031E00010E0CAECD0E004C0FE010E94A8172296AD
:0A31F000CC3CD107C9F7F894FFCFDB
:1031FA0000008003800004110B0E10057475726EB6
:10320A0020636F6D6D616E642065786563757465A2
:10321A00640000000000491100000000E000000006
:10322A00000041054513AD0520059305C505203A63
:10323A00200000000000E00000000000A10C740C57
:10324A00490C510C640C730C00000000C9114513A1
:10325A004B1164115611A7110D0A006E616E0069B7
:0A326A006E66006F7666002E00000D
:00000001FF
