:100000000C9466000C948E000C948E000C948E0060
:100010000C948E000C948E000C948E000C94261080
:100020000C948E000C948E000C948E000C948E0018
:100030000C948E000C948E000C948E000C948E0008
:100040000C944D100C948E000C943C130C946E1375
:100050000C948E000C948E000C948E000C948E00E8
:100060000C948E0D0C948E0000000008000201001C
:100070000003040700000000000000000102040863
:100080001020408001020408102001020408102002
:10009000040404040404040402020202020203032E
:1000A00003030303000000002300260029000000D2
:1000B0000000250028002B0000000000240027007D
:1000C0002A00CD008E08AC0C9E13D80011241FBE50
:1000D000CFEFD8E0DEBFCDBF13E0A0E0B1E0EAE1B2
:1000E000F3E302C005900D92AA30B107D9F724E0DE
:1000F000AAE0B3E001C01D92A73DB207E1F710E00E
:10010000CAECD0E004C02297FE010E943818C23C1D
:10011000D107C9F70E94E2130C9480190C940000D7
:1001200026E040E855E260E070E086E394E00E945B
:10013000DA1288E693E00E94720C61E08DE00E9482
:100140005D1161E08DE00E9496110E9427096CE02C
:1001500071E086E394E00E943C148AE093E00E9400
:10016000D10B84E193E00E94300561E371E086E306
:1001700094E00E943C148AE093E00E94D10B60E07E
:100180008DE00C94961184E193E00E948C0868EE57
:1001900073E080E090E00C94C61084E193E00E944C
:1001A000220521E041E06CE08AE093E00C946C0BC6
:1001B00080E691E0909315038093140384E193E02B
:1001C0000C94F8046F927F928F929F92AF92BF929D
:1001D000CF92DF92EF92FF920F931F93CF93DF9313
:1001E000EC018B018A859B85892B09F474C0D12C85
:1001F0008C85D816E8F4ED2CF12C8E859F85F701BF
:10020000EE0FFF1FE00FF11F91838083EA85FB85CE
:10021000EE0DFF1D61E080810E949611EA85FB854D
:10022000EE0DFF1D61E080810E945D11D394E0CF4F
:100230008AE090E00E94EE10D12C8C85D816A0F4B4
:10024000ED2CF12CEA85FB85EE0DFF1D60E0808131
:100250000E945D11EA85FB85EE0DFF1D60E0808147
:100260000E949611D394E9CF0E94A3106B017C01E8
:100270000E94A3106C197D098E099F092E853F8568
:100280004901A12CB12C681579058A059B0518F543
:100290000E94A3103B016C187D08912C8C85981648
:1002A00038F7A92CB12CAA85BB85AA0DBB1D8C9152
:1002B0000E94CC11892B51F4F501EE0FFF1FE00FC6
:1002C000F11F808191816816790610F09394E6CF32
:1002D00071826082FBCFDF91CF911F910F91FF90D0
:1002E000EF90DF90CF90BF90AF909F908F907F90D6
:1002F0006F900895EF92FF920F931F93CF93DF9328
:100300001F92CDB7DEB77C018B01DC0113961C92E6
:100310001E92129715961C921E92149717961C9275
:100320001E92169719961C921E921897413120F032
:1003300080E11C968C9302C0FC014487D7011A9679
:100340008D919C911B97892B11F030E00FC0F70124
:10035000848590E029830E945418D7011B969C93B2
:100360008E931A972981892B81F715C0F70184850F
:10037000381780F4832F90E0F801E80FF91F4081CF
:10038000D7011A96ED91FC911B97E80FF91F408356
:100390003F5FECCF25870F90DF91CF911F910F9199
:1003A000FF90EF900895CF93DF93EC018D858F3F01
:1003B00069F061E00E945D1160E08D850E949611F8
:1003C00088EC90E0DF91CF910C94EE10DF91CF910B
:1003D0000895CF93DF93EC018D858F3F69F061E045
:1003E0000E945D1161E08D850E94961188EC90E07D
:1003F000DF91CF910C94EE10DF91CF910895DF92B1
:10040000EF92FF920F931F93CF93DF93CDB7DEB799
:10041000A0970FB6F894DEBF0FBECDBF8C017B0155
:10042000D42E8FEF840F823020F4C8010E94E9019E
:1004300003C0C8010E94D301D801ED91FC91019045
:10044000F081E02DB701C8010995C8010E94D301D0
:10045000B2E0DB122FC0D801ED91FC910190F08148
:10046000E02DBE016F5F7F4FC801099540E0F801A4
:1004700084854817F8F4842F90E0880F991FF701BE
:10048000E80FF91F21E030E02C0F3D1F820F931F72
:10049000D8011E962D913C911F97DC018D919C9166
:1004A000281B390B80819181820F931F9183808358
:1004B0004F5FDDCFA0960FB6F894DEBF0FBECDBF65
:1004C000DF91CF911F910F91FF90EF90DF900895F2
:1004D0002F923F925F926F927F928F929F92AF92F4
:1004E000BF92CF92DF92EF92FF920F931F93CF9321
:1004F000DF93CDB7DEB7C056D1090FB6F894DEBF93
:100500000FBECDBF8C014B015A01522EDA018D91E5
:100510009C91892B31F0F40180819181892BF1F438
:1005200024C0D8011C968C9190E0880F991F0E94DE
:100530005418F50191838083009709F4B1C0FC0140
:1005400020E030E0D8011C968C9190E02817390704
:1005500014F7119211922F5F3F4FF4CFE12CF12C41
:100560006E01B1E2CB0ED11C21C0F801848590E070
:10057000880F991F0E945418D4018D939C93009763
:1005800009F48EC0FC0120E030E0D8011C968C916B
:1005900090E02817390714F7D8011E968D919C9189
:1005A0001F97819391932F5F3F4FEFCF452DBE0152
:1005B0006F5B7F4FC8010E94FF01F8016484712CBA
:1005C000FE01EF5BFF4FC6019E012F5F3F4F1901F8
:1005D00020E030E0261537054CF5E114F10489F0F0
:1005E000DC016D917C91408151816417750748F061
:1005F000D1016D917C91408151814617570748F098
:100600000DC040815181DC014D935C93E114F104F4
:1006100079F740815181D1014D935C932F5F3F4F1A
:10062000B2E02B0E311C32960296D4CFEFEFEE1AC9
:10063000FE0AFAE0EF16F10409F0B8CF9E012F5F31
:100640003F4F7901360180E090E0F801248530E0E9
:10065000821793072CF5D7012D913D917D01B301B0
:100660006C197D09D501ED91FC91E60FF71F4081D2
:1006700051814217530710F431832083F3012191F4
:1006800031913F01D401ED91FC91E60FF71F4081BC
:1006900051812417350710F4318320830196D5CF7B
:1006A000C05ADF4F0FB6F894DEBF0FBECDBFDF914B
:1006B000CF911F910F91FF90EF90DF90CF90BF905F
:1006C000AF909F908F907F906F905F903F902F9012
:1006D00008951F93CF93DF93EC01162F8FEF860FB2
:1006E000823018F0662369F019C021E0AE014C5F3A
:1006F0005F4FBE016E5F7F4FCE010E9468021230D5
:1007000069F4AE01485F5F4FBE016A5F7F4F20E032
:10071000CE01DF91CF911F910C946802DF91CF91B0
:100720001F910895BF92CF92DF92EF92FF920F93A5
:100730001F93CF93DF93EC018B01B42E842F8D7F19
:1007400051F48E819F81892B09F497C08885998502
:10075000892B09F492C08FEF8B0D823050F48A817F
:100760009B81892B09F489C08C819D81892B09F497
:1007700084C04B2DB801CE010E94FF01780100E03A
:1007800010E0C12CD12C8C8590E0C816D9060CF055
:1007900074C081E0B8120AC0EC81FD81E00FF11F46
:1007A0000190F081E02DAA81BB810DC08E819F81D7
:1007B00028853985B1100CC0F901E00FF11F0190B7
:1007C000F081E02DDC01A00FB11F8D919C9128C01C
:1007D000FC01E00FF11F40815181EA81FB81E00FB4
:1007E000F11F80819181EE85FF854817590710F42C
:1007F000CF0104C08E0F9F1F841B950BD901A00F42
:10080000B11F2D913C91AC81BD81A00FB11F4D91C5
:100810005C912417350720F0E40FF51FE21BF30B62
:10082000E81BF90BA9F0D7012D913C9140E050E075
:10083000281B390B41095109A8EEB3E00E94121799
:100840009F0140E050E00E94EC1637FD0AC002C054
:1008500020E030E0293EB3E03B072CF028EE33E007
:1008600002C020E030E0F701219331937F01FFEFD8
:10087000CF1ADF0A0E5F1F4F86CFDF91CF911F91F6
:100880000F91FF90EF90DF90CF90BF9008952F923F
:100890003F924F925F926F927F928F929F92AF9210
:1008A000BF92CF92DF92EF92FF920F931F93CF935D
:1008B000DF93EC018B01822E0E9492032C84E801CD
:1008C000412C512C320100E010E0C12CD12C7601DA
:1008D000312C912CE8EEAE2EE3E0BE2E921421F1E5
:1008E000E991F991882021F0C5018E1B9F0BFC0135
:1008F000E93CF10524F4E333F10574F002C033243C
:100900003394DF01A30192010E941D17C60ED71E6A
:10091000E81EF91E0E0F1F1F939498EE490E93E0E8
:10092000591E611C711CDACF31101EC0492D50E0D8
:100930004150510924EF31E0429FC001439F900D87
:10094000529F900D112420913203309133032817C8
:100950003907B4F088EE93E0489F9001499F300D2D
:10096000589F300D11240EC0980140E050E0C7019F
:10097000B6010E94CA16309333032093320302C09B
:1009800020E030E0C901DF91CF911F910F91FF90DE
:10099000EF90DF90CF90BF90AF909F908F907F901F
:1009A0006F905F904F903F902F900895FC0180E6EC
:1009B00091E09183808313821282158214821782C0
:1009C000168211861086138612860895EF92FF9282
:1009D0000F93CF93DF93EC017901202F0E947A01CE
:1009E000FF86EE86DF91CF910F91FF90EF900895F3
:1009F000CF93DF93EC018AE591E0998388838A8520
:100A00009B85009711F00E94EC188C819D810097C6
:100A100011F00E94EC1888859985009711F00E94CA
:100A2000EC188A819B81009711F00E94EC188E814E
:100A30009F81009721F0DF91CF910C94EC18DF910A
:100A4000CF910895CF93DF93EC010E94D60489EDF6
:100A500092E0998388831D8E1C8EDF91CF9108953B
:100A6000EF92FF920F931F93CF93DF9300D000D0AC
:100A700000D0CDB7DEB77C0186E0E6E0F1E0DE0134
:100A8000119601900D928A95E1F702E020ED37E092
:100A900046E0BE016F5F7F4FC7010E94E60405EF8D
:100AA0001FEF0431110520F0C8018897449728F4FE
:100AB00068EC70E088E39FEF04C068E37FEF88ECA8
:100AC00090E00E94290F61E0C7010E94690364E180
:100AD00070E080E090E00E94C6100F5F1F4F053469
:100AE0001105F9F660E070E080E090E00E94290FC7
:100AF00026960FB6F894DEBF0FBECDBFDF91CF9123
:100B00001F910F91FF90EF9008954F925F926F9217
:100B10007F928F929F92AF92BF92EF92FF920F932C
:100B20001F93CF934B0162E671E086E394E00E944D
:100B30002F14181419041CF46BE671E002C06FE660
:100B400071E086E394E00E943C140E94A5080E9494
:100B5000B4080E94A6150E9483090E947315AA2456
:100B600097FCA094BA2C680D791D8A1D9B1D0E94CC
:100B7000A6150E9483090E9473152B013C010E9457
:100B8000B40864197509860997090E94A6150E9480
:100B900083094B015C019F77E12CF12C00E81FE3F6
:100BA00020E030E040E85FEB0E94B309C82F20E06E
:100BB00030E0A901C501B4010E94B21618162CF448
:100BC0006AE67FEF86E990E004C066E970E08AE6B5
:100BD0009FEF0E94290FCC2391F260E070E080E04B
:100BE00090E0CF911F910F91FF90EF90BF90AF9049
:100BF0009F908F907F906F905F904F900C94290FF3
:100C000084E393E00E94F70F69E370E00E94B61658
:100C1000CB0108950F931F93CF93DF93EC018C8D3D
:100C20009D8D01969D8F8C8F65E871E086E394E041
:100C30000E943C1405E010E0CE010E940006181648
:100C4000190674F464E971E086E394E00E942F14BD
:100C50006C8D7D8D4AE050E086E394E00E94F114B3
:100C60006AE570E0CE010E94850564EF71E080E0E6
:100C700090E00E94C61001501109F1F661EB71E09D
:100C800086E394E00E942F146C8D7D8D4AE050E045
:100C900086E394E00E94F1146EEC71E086E394E048
:100CA0000E943C1464E670E080E090E0DF91CF9118
:100CB0001F910F910C94C610FC01808991894F9768
:100CC00074F0828993894F9754F0808D918D4F975E
:100CD00034F081E0228D338D2F3131050CF480E02A
:100CE00008950F931F93CF93DF93EC018C01005F66
:100CF0001F4FCE010E945C06811111C020E041E02F
:100D0000B801CE010E944704888999894F9764F5FC
:100D10008A899B894F9744F580E090E027C08E0137
:100D2000005F1F4FCE010E945C06882389F120E0FE
:100D300041E0B801CE010E944704888999894F9704
:100D40001CF080EB9FEF02C080E090E00E94E30E79
:100D50008A8D9B8D4F971CF080EB9FEF02C080E047
:100D600090E00E94060FDECF80E590E00E94E30E47
:100D7000888D998D4F9724F48A8D9B8D4F971CF009
:100D800080E590E002C080E090E00E94060FB1CFC5
:100D9000DF91CF911F910F9108954F925F926F92C3
:100DA0007F92AF92BF92CF92DF92EF92FF920F931A
:100DB0001F93CF93DF93EC015B016CED71E086E351
:100DC00094E00E943C148E01005F1F4F20E041E040
:100DD000B801CE010E9447040E9497106B01EE24D7
:100DE000D7FCE094FE2C2501662457FC6094762CF9
:100DF000CE010E945C0681110EC00E9497106C19F2
:100E00007D098E099F09641575058605970568F0AB
:100E1000A114B10451F0CE010E945C06882351F167
:100E2000CE010E94710681E025C020E041E0B801BA
:100E3000CE010E944704888999894F973CF08A899E
:100E40009B894F971CF080E090E002C084E690E020
:100E50000E94E30E888D998D4F9724F08A8D9B8D8B
:100E60004F971CF484E690E002C080E090E00E947E
:100E7000060FBECFDF91CF911F910F91FF90EF90A2
:100E8000DF90CF90BF90AF907F906F905F904F902A
:100E90000895CF93DF93EC016EEE71E086E394E06A
:100EA0000E943C1466EA7FEFCE010E94850560ED4A
:100EB00077E0CE010E94CD06811102C0C0E022C0C1
:100EC0006AE570E0CE010E9485056AE570E0CE011A
:100ED0000E94850560ED77E0CE010E94CD06C82F07
:100EE000882361F36CE072E086E394E00E943C1496
:100EF00060E070E080E090E00E94290F84E593E0DC
:100F00000E94D10B8C2FDF91CF9108950F931F93E7
:100F1000CF93DF93EC018B0164E670E084E690E010
:100F20000E94290F60E070E0CE010E94CD060130E2
:100F3000110541F566EA7FEFCE010E94850560ED5F
:100F400077E0CE010E94CD06882339F0CE01DF91F3
:100F5000CF911F910F910C9449076AE570E0CE0183
:100F60000E94850560ED77E0CE010E94CD068111DB
:100F700006C064E472E086E394E00E943C1466EAF2
:100F80007FEF20C06AE570E0CE010E94850560ED2C
:100F900077E0CE010E94CD068111D8CF66EA7FEFBF
:100FA000CE010E94850560ED77E0CE010E94CD065E
:100FB000811106C062E672E086E394E00E943C1470
:100FC0006AE570E0CE010E94850560ED77E0CE0114
:100FD0000E94CD068111BACFDF91CF911F910F9161
:100FE0000895FF920F931F93CF93DF93EC018B0132
:100FF00061E872E086E394E00E943C1466EA7FEFC9
:10100000CE010E94850564EF71E0CE010E94CD06FD
:10101000F82E6AE570E0CE010E9485056AE570E071
:10102000CE010E94850564EF71E0CE010E94CD06DD
:10103000811106C0F11004C0B801CE010E940A0659
:10104000B801CE010E94860763E972E086E394E06E
:101050000E943C14DF91CF911F910F91FF90089552
:10106000CF93DF93EC0169EA72E086E394E00E949B
:101070003C1466EA7FEFCE010E94850568EE73E0BE
:10108000CE010E94CD06811109C062E672E086E3BE
:1010900094E00E943C1461E070E019C06AE570E0E1
:1010A000CE010E9485056AE570E0CE010E948505AB
:1010B00068EE73E0CE010E94CD0681110CC064E49D
:1010C00072E086E394E00E943C1462E070E0CE019E
:1010D0000E94F1071DC066EA7FEFCE010E948505E0
:1010E00064E670E084E690E00E94290F60ED77E00E
:1010F000CE010E94CD06882351F063EB72E086E3B7
:1011000094E00E943C14CE010E94490701C001C036
:1011100080E0DF91CF9108950C94300821E041E008
:101120006CE084E593E00E946C0B87E493E00E94FE
:10113000DB0986E493E00E94BB0E22E330E042E04C
:1011400066E084E393E00C94330F0E94A310709345
:101150005F0360935E031092640310926503109224
:1011600066031092670308958F929F92AF92BF9289
:10117000CF92DF92EF92FF920F931F9387E493E059
:101180000E94350A80914B0390914C03209160039B
:1011900030916103821B930B9093630380936203EE
:1011A0000E94A31020915E0330915F03AB01421BAC
:1011B000530B9A0170935F0360935E03A0916203E7
:1011C000B09163030E940B1720E030E040EE50E046
:1011D0000E942517EDE8AE2EF8E3BF2EACE0CA2E34
:1011E000DD24D394E12CF12C00E010E00E94611783
:1011F00049015A018091640390916503A0916603AF
:10120000B0916703880D991DAA1DBB1D80936403CF
:1012100090936503A0936603B09367039D015527E0
:1012200037FD5095452FA8E6B1E00E941217BC018A
:10123000992777FD9095892F1F910F91FF90EF903F
:10124000DF90CF90BF90AF909F908F900895CF92F6
:10125000DF92EF92FF92CF93DF9388E693E00E94B4
:10126000720C42E050E063E070E087E493E00E949B
:10127000DF0A4FEF60E287E493E00E94E40940E276
:1012800063E287E493E00E94E40940E064E287E4DB
:1012900093E00E94E40964EF71E080E090E00E9436
:1012A000C610C0E0D4E0C12CD12C760167E287E4FF
:1012B00093E00E940D0A87E493E00E94350A809132
:1012C0004B0390914C03AA2797FDA095BA2FC80E07
:1012D000D91EEA1EFB1E219749F7C701B60120E07F
:1012E00034E040E050E00E94EC163093610320931C
:1012F00060030E94A508DF91CF91FF90EF90DF90EF
:10130000CF900C94B408CF92DF92EF92FF9220E03E
:1013100030E044E353E40E940B1520E030E044EB5E
:1013200053E40E94E8156B017C0120E030E0A90144
:101330000E946F1587FF0AC020E030E044EB53E4C1
:10134000C701B6010E940B156B017C0120E030E063
:1013500044E353E4C701B6010E940A15FF90EF90E1
:10136000DF90CF9008958F929F92AF92BF92CF92CD
:10137000DF92EF92FF920F931F934B015C01670185
:1013800078010E94B216181654F4A7019601C501FF
:10139000B4010E946F15881F8827881F01C080E054
:1013A0001F910F91FF90EF90DF90CF90BF90AF9083
:1013B0009F908F900895FC0183E090E09087878351
:1013C0001386128614860895EF92FF921F93CF938F
:1013D000DF931F92CDB7DEB77C01162FFC0161852C
:1013E00088E693E049830E948C0C612F88E693E0A5
:1013F0000E94330C4981642F88E693E00E94330CED
:1014000088E693E00E94A90CF70186830F90DF9194
:10141000CF911F91FF90EF9008951F93CF93DF938B
:10142000EC01162F698588E693E00E948C0C612FF1
:1014300088E693E00E94330C88E693E00E94A90CB2
:101440008E8341E0698588E693E00E94890C88E6F6
:1014500093E00E94E30BC82F88E693E00E94A90C5A
:101460008C2FDF91CF911F9108959F92AF92BF92E1
:10147000CF92DF92EF92FF920F931F93CF93DF9360
:10148000EC01698588E693E00E948C0CE09168038A
:10149000F09169030190F081E02D68EA88E693E01D
:1014A000099588E693E00E94A90C46E0698588E6E4
:1014B00093E00E94890C0E9497107B0188E693E0DC
:1014C0000E94DB0B069784F48A859B85892BB1F3F8
:1014D0000E9497106E197F098A859B85861797074A
:1014E00068F781E08C872CC088E693E00E94E30BCC
:1014F000A82E88E693E00E94E30B982E88E693E0FE
:101500000E94E30BE82E88E693E00E94E30BB82EDE
:1015100088E693E00E94E30BF82E88E693E00E94B1
:10152000E30BD92CC12CCA28D982C8821B2D00E01C
:101530000E291B830A83982F88278F299D838C83EC
:10154000DF91CF911F910F91FF90EF90DF90CF909F
:10155000BF90AF909F9008951F93CF93DF931F92FA
:10156000CDB7DEB7162F88E693E049830E948C0C36
:101570004981642F88E693E00E94330C88E693E06B
:101580000E94A90C811114C041E0612F88E693E00C
:101590000E94890C88E693E00E94DB0B892B41F0C6
:1015A00088E693E00F90DF91CF911F910C94E30BAD
:1015B0008FEF9FEF0F90DF91CF911F910895EF92E2
:1015C000FF920F931F93CF93DF937C01EB018A016E
:1015D0006330710521F04230510509F051C0CE0150
:1015E0000197039758F50115110581F04FE050E080
:1015F0006BE6C7010E94AC0A8F3F2FEF920719F0EC
:1016000001E010E013C00130110551F04FE050E04F
:101610006AE6C7010E94AC0A8F3FEFEF9E0721F4F4
:10162000C330D10569F027C000E010E0C330D10518
:1016300029F4873D9105F1F5C2E0D0E02097D9F477
:101640000115110561F04FE050E069E6C7010E9405
:10165000AC0A833D910589F10130110549F04FE055
:1016600050E068E6C7010E94AC0A833D910541F154
:10167000C330D10519F00230110511F480E025C006
:10168000F701D087C783209759F0D7FD11C0239762
:101690007CF40130110511F48BE608C08AE606C01F
:1016A0000130110511F489E601C088E6F701818750
:1016B00081E00BC0C1E0D0E0C1CF01E010E002C08A
:1016C00000E010E0C0E0D0E0D6CFDF91CF911F91D5
:1016D0000F91FF90EF900895FC0160834183228376
:1016E000138214821682158210861782118608953D
:1016F000FC018181813011F462E001C060E08081F1
:101700000E945D1185E090E00C94EE10FC012185B3
:10171000211104C021E021870C94780B0895CF9308
:10172000DF93EC0188810E94CC1121E0892B09F024
:1017300020E081E09A81911180E08227DF91CF91B2
:101740000895CF93DF93EC010E94860BCE010E9497
:101750008F0B8823D9F36AE070E080E090E00E946C
:10176000C610CE010E948F0B882381F3DF91CF91A9
:101770000895CF93DF93EC010E94860BCE010E9467
:101780008F0B8111FBCF6AE070E080E090E00E9457
:10179000C610CE010E948F0B8111F0CFDF91CF9147
:1017A0000895CF93DF93EC010E94A10BCE01DF914E
:1017B000CF910C94B90B8091980390E020919903FC
:1017C000821B91090895209199038091980328170D
:1017D00050F4E22FF0E0E656FC4F808190E02F5F5E
:1017E0002093990308958FEF9FEF0895E091990357
:1017F00080919803E81730F4F0E0E656FC4F8081C2
:1018000090E008958FEF9FEF08950895CF92DF92B3
:10181000EF92FF920F931F93CF93DF937C01CB0145
:101820008A0120917403222389F0EB016B01C40E1D
:10183000D51ECC15DD0569F06991D701ED91FC91BC
:101840000190F081E02DC7010995F3CF642F0E942C
:10185000650DC801DF91CF911F910F91FF90EF901F
:10186000DF90CF900895CF93DF931F92CDB7DEB76F
:101870006983209174032223D1F0209175032032D3
:1018800040F021E030E0FC013383228380E090E0EF
:1018900015C080917603E82FF0E0E958FC4F99815C
:1018A00090838F5F809376038093750305C061E01A
:1018B000CE0101960E94650D81E090E00F90DF91CE
:1018C000CF910895FC011382128248EE53E060E04C
:1018D00070E044835583668377838FED92E0918334
:1018E00080830895109299031092980310927603C2
:1018F000109275030C94B00C862F413208F040E230
:101900006AE973E00E94CE0C1092990380939803C9
:10191000089521E00C947C0C81E080937403609323
:101920009703109276031092750308950F93062F74
:1019300021E04091750367E773E0809197030E946F
:10194000120D1092760310927503109274030F918A
:10195000089561E00C94960C88E693E00C94620C78
:101960001092270481E0809325041092240461E002
:1019700082E10E94961161E083E10E949611E9EBF9
:10198000F0E080818E7F808380818D7F808388E4FA
:101990008093B80085E48093BC000895413208F03C
:1019A0003FC0909127049111FCCF91E090932704C0
:1019B000209325042FEF2093BA031092FF03240FE6
:1019C0002093FE039093260490912604880F892B80
:1019D0008093260480912404813041F410922404E1
:1019E000809126048093BB0085EC01C085EE809336
:1019F000BC00809127048130E1F38091FF038417BC
:101A000010F44091FF0320E034E0FB01D9018A2F5C
:101A1000821B841718F48D918193F9CF842F089538
:101A200080E008950F93413208F046C0909127045A
:101A30009111FCCF92E090932704009325049FEF2F
:101A40009093BA031092FF034093FE03FB0160E002
:101A500074E0DB019A2F961B941718F491919D93D3
:101A6000F9CF1092260490912604880F892B809339
:101A7000260480912404813041F410922404809142
:101A800026048093BB0085EC01C085EE8093BC00EA
:101A9000222321F0809127048230E1F38091BA0360
:101AA0008F3F61F08091BA03803251F08091BA0388
:101AB000803341F483E007C081E005C080E003C0CB
:101AC00082E001C084E00F910895613298F4209182
:101AD0002704243089F46093DC03FC018EED93E04D
:101AE000DC012A2F281B261718F421912D93F9CFFA
:101AF00080E0089581E0089582E0089585ED809367
:101B0000BC008091BC0084FDFCCF10922704089596
:101B100085EC8093BC001092270408951F920F92C9
:101B20000FB60F9211242F933F934F935F936F93B0
:101B30007F938F939F93AF93BF93EF93FF93809186
:101B4000B900887F803609F49CC068F5883209F4B2
:101B50005BC090F4803109F454C038F4882309F450
:101B6000F5C0883009F44DC0F5C0883109F44CC087
:101B7000803209F45DC0EEC0803409F468C048F4D6
:101B8000803309F455C0883309F0E4C08093BA0368
:101B9000A8C0803509F44FC0883509F45DC0883489
:101BA00009F0D8C0D5C0883909F4C6C0A8F4883770
:101BB00009F467C038F4883609F463C0803709F443
:101BC00060C0C8C0883809F4B7C0803909F45FC064
:101BD000803809F0BFC05BC0803B09F485C038F491
:101BE000803A09F466C0883A09F47EC0B3C0803CEC
:101BF00009F4A6C0883C09F4A3C0883B09F489C055
:101C0000A9C08091260410C09091FF038091FE032B
:101C1000981770F5E091FF0381E08E0F8093FF032A
:101C2000F0E0E050FC4F80818093BB0085EC85C0E4
:101C30008093BA038DC0E091FF0381E08E0F809303
:101C4000FF038091BB00F0E0E050FC4F8083909157
:101C5000FF038091FE036DC0E091FF0381E08E0FD2
:101C60008093FF038091BB00F0E0E050FC4F808345
:101C70008091250481116CC081E08093240484EA62
:101C800060C083E0809327041092BB03CFCF809184
:101C9000BB03803208F050C0E091BB0381E08E0F9F
:101CA0008093BB038091BB00F0E0E454FC4F808341
:101CB000BDCF8091BB03803230F4E091BB03F0E0F4
:101CC000E454FC4F10820E947E0D6091BB0370E0D3
:101CD000E0912004F09121048CEB93E0099510929F
:101CE000BB030E94880D36C084E0809327041092C5
:101CF000DD031092DC03E0912204F09123040995A6
:101D00008091DC03811105C081E08093DC03109297
:101D1000DE03E091DD0381E08E0F8093DD03F0E0D0
:101D2000E252FC4F80818093BB009091DD03809153
:101D3000DC03981708F47ACF85E88093BC000AC0CA
:101D400085EC8093BC001092270404C01092BA0363
:101D50000E947E0DFF91EF91BF91AF919F918F9166
:101D60007F916F915F914F913F912F910F900FBE97
:101D70000F901F901895089561E08AE00E945D1110
:101D800061E089E00E945D1161E088E00E945D11E0
:101D900061E087E00E945D1180EA8093800081E12C
:101DA0008093810080E991E0909387008093860082
:101DB000089580912804811105C081E08093280452
:101DC0000C94BC0E0895CF93DF93EC010E94D90EC2
:101DD000D7FF05C0D195C195D10981E001C080E050
:101DE000C13991E0D90714F0C0E9D1E0D0938B005C
:101DF000C0938A0090912A04891711F061E001C014
:101E000060E088E0DF91CF910C949611CF93DF933F
:101E1000EC010E94D90ED7FF05C0D195C195D1091B
:101E200081E001C080E0C13991E0D90714F0C0E938
:101E3000D1E0D0938900C09388009091290489173C
:101E400011F061E001C060E087E0DF91CF910C9478
:101E50009611CF93DF93EB010E94E30ECE01DF9149
:101E6000CF910C94060FCF93DF93DC0170E0FB0160
:101E7000E458FF4FE4911496EC931497842F90E06C
:101E8000FC01E458FF4FE4911596EC9315976057C9
:101E90007F4FFB01C491D0E0CC0FDD1FC255DF4F57
:101EA000FE014591549117965C934E931697FC0151
:101EB000E057FF4F849190E0880F991F8C559F4FFA
:101EC000FC014591549119965C934E931897FB0130
:101ED0006491E62FF0E0EE0FFF1FE854FF4F85916D
:101EE00094911B969C938E931A972F5F3F4F49E3D3
:101EF000429FC001439F900D11248E38FFE69F073B
:101F000010F08DE89FE61D969C938E931C97DF91B1
:101F1000CF9108950F931F93CF93DF93EC01EA8540
:101F2000FB8580819C81892B8083EE81FF8190815C
:101F30008C8180958923808384E090E00E94EE105C
:101F4000EE81FF8180819C81892B80838AE090E0F3
:101F50000E94EE10EE81FF8190818C818095892313
:101F60008083EA85FB8590818C818095892380839D
:101F7000E885F98580819D81892311F080E032C058
:101F80000E94A3104C855D858A0120E030E0085551
:101F9000194E2F4F3F4F060F171F281F391F0E874F
:101FA0001F87288B398BE885F98580819D8189235E
:101FB00061F40E94A3100E851F85288939890617B0
:101FC00017072807390778F7D9CF0E94A3102C8567
:101FD0003D85620F731F811D911D6E877F87888BE2
:101FE000998B81E0DF91CF911F910F9108950F930D
:101FF0001F93CF93DF93EC010E948A0F882389F00F
:10200000E885F98580819D81892371F00E94A31064
:102010000E851F852889398906171707280739076C
:1020200078F720E030E00CC00E94A3102C853D859D
:10203000255031094E855F85241B350B260F371F30
:10204000C901DF91CF911F910F9108951F920F92B7
:102050000FB60F9211242F933F934F935F936F937B
:102060007F938F939F93AF93BF93EF93FF93E091F1
:102070002B04F0912C040995FF91EF91BF91AF9142
:102080009F918F917F916F915F914F913F912F9190
:102090000F900FBE0F901F9018951F920F920FB6C2
:1020A0000F9211242F933F938F939F93AF93BF93DE
:1020B00080912E0490912F04A0913004B0913104AE
:1020C00030912D0423E0230F2D3720F40196A11D1C
:1020D000B11D05C026E8230F0296A11DB11D209356
:1020E0002D0480932E0490932F04A0933004B0937A
:1020F00031048091320490913304A0913404B09162
:1021000035040196A11DB11D8093320490933304D0
:10211000A0933404B0933504BF91AF919F918F91F8
:102120003F912F910F900FBE0F901F9018952FB7D2
:10213000F89460912E0470912F0480913004909156
:1021400031042FBF08953FB7F894809132049091E5
:102150003304A0913404B091350426B5A89B05C082
:102160002F3F19F00196A11DB11D3FBF6627782FA3
:10217000892F9A2F620F711D811D911D42E0660FFC
:10218000771F881F991F4A95D1F70895CF92DF9244
:10219000EF92FF92CF93DF936B017C010E94A3101B
:1021A000EB01C114D104E104F10489F00E94091586
:1021B0000E94A3106C1B7D0B683E734090F381E07E
:1021C000C81AD108E108F108C851DC4FEACFDF9105
:1021D000CF91FF90EF90DF90CF90089582309105DE
:1021E00038F0880F991F880F991F05970197F1F70D
:1021F0000895789484B5826084BD84B5816084BD7F
:1022000085B5826085BD85B5816085BDEEE6F0E06F
:10221000808181608083E1E8F0E0108280818260CB
:102220008083808181608083E0E8F0E0808181604C
:102230008083E1EBF0E0808184608083E0EBF0E07C
:10224000808181608083EAE7F0E080818460808320
:1022500080818260808380818160808380818068CA
:1022600080831092C1000895833081F028F481307A
:1022700099F08230A1F008958730A9F08830B9F044
:102280008430D1F4809180008F7D03C080918000E4
:102290008F7780938000089584B58F7702C084B5CE
:1022A0008F7D84BD08958091B0008F7703C08091A9
:1022B000B0008F7D8093B0000895CF93DF9390E0BE
:1022C000FC01E458FF4F2491FC01E057FF4F84913B
:1022D000882349F190E0880F991FFC01E854FF4FD3
:1022E000A591B49182559F4FFC01C591D4919FB7A0
:1022F000611108C0F8948C91209582238C93888179
:1023000082230AC0623051F4F8948C91322F3095B8
:1023100083238C938881822B888304C0F8948C91CA
:10232000822B8C939FBFDF91CF9108950F931F93C2
:10233000CF93DF931F92CDB7DEB7282F30E0F9019E
:10234000E859FF4F8491F901E458FF4F1491F901C6
:10235000E057FF4F04910023C9F0882321F06983DF
:102360000E9434116981E02FF0E0EE0FFF1FE2556B
:10237000FF4FA591B4919FB7F8948C91611103C060
:102380001095812301C0812B8C939FBF0F90DF910B
:10239000CF911F910F910895CF93DF93282F30E0B5
:1023A000F901E859FF4F8491F901E458FF4FD491A6
:1023B000F901E057FF4FC491CC2391F081110E94A5
:1023C0003411EC2FF0E0EE0FFF1FEC55FF4FA591FD
:1023D000B4912C912D2381E090E021F480E002C0A3
:1023E00080E090E0DF91CF9108950E947B19FC017D
:1023F000818D228D90E0805C9F4F821B91098F73AD
:1024000099270895FC01918D828D981731F0828D66
:10241000E80FF11D858D90E008958FEF9FEF0895EF
:10242000FC01918D828D981761F0828DDF01A80FDC
:10243000B11D5D968C91928D9F5F9F73928F90E0FE
:1024400008958FEF9FEF089584E993E1892B49F078
:1024500080E090E0892B29F00E94941381110C9464
:1024600000000895FC01848DDF01A80FB11DA35A5F
:10247000BF4F2C91848D90E001968F739927848FA4
:10248000A689B7892C93A089B1898C9180648C939B
:10249000938D848D981306C00288F389E02D808186
:1024A0008F7D80830895CF93DF93EC01888D8823FF
:1024B000C9F0EA89FB89808185FD05C0A889B989B1
:1024C0008C9186FD0FC00FB607FCF5CF808185FF8C
:1024D000F2CFA889B9898C9185FFEDCFCE010E94FA
:1024E0003212E7CFDF91CF910895CF92DF92FF9222
:1024F0000F931F93CF93DF931F92CDB7DEB76C017D
:1025000081E0D60158968C9358975B969C915B9787
:102510005C968C915C97981307C05096ED91FC9156
:102520005197808185FD2EC0F601038D10E00F5F6D
:102530001F4F0F731127F02EF601848DF81211C072
:102540000FB607FCF9CFD6015096ED91FC9151974B
:10255000808185FFF1CFC60169830E9432126981B3
:10256000EBCF838DE80FF11DE35AFF4F6083D60157
:102570005B960C935B975296ED91FC9153978081FB
:1025800080620CC0D6015696ED91FC9157976083FE
:102590005096ED91FC91519780818064808381E019
:1025A00090E00F90DF91CF911F910F91FF90DF90FE
:1025B000CF900895BF92CF92DF92EF92FF92CF9388
:1025C000DF93EC016A017B01B22EE889F98982E090
:1025D0008083411581EE580761057105A1F060E027
:1025E00079E08DE390E0A70196010E94CA16215080
:1025F0003109410951095695479537952795211578
:1026000080E1380798F0E889F989108260E874E879
:102610008EE190E0A70196010E94CA16215031096F
:10262000410951095695479537952795EC85FD85C4
:102630003083EE85FF852083188EEC89FD89B0827A
:10264000EA89FB89808180618083EA89FB898081B6
:1026500088608083EA89FB89808180688083EA8939
:10266000FB8980818F7D8083DF91CF91FF90EF90F8
:10267000DF90CF90BF9008951F920F920FB60F92E8
:1026800011242F938F939F93EF93FF93E091460430
:10269000F09147048081E0914C04F0914D0482FD5B
:1026A00012C0908180914F048F5F8F7320915004EE
:1026B000821751F0E0914F04F0E0EA5CFB4F958FF8
:1026C00080934F0401C08081FF91EF919F918F9182
:1026D0002F910F900FBE0F901F9018951F920F9281
:1026E0000FB60F9211242F933F934F935F936F93E5
:1026F0007F938F939F93AF93BF93EF93FF9386E363
:1027000094E00E943212FF91EF91BF91AF919F919F
:102710008F917F916F915F914F913F912F910F908A
:102720000FBE0F901F90189586E394E00E94F7115A
:1027300021E0892B09F420E0822F089510923904BA
:102740001092380488EE93E0A0E0B0E080933A0461
:1027500090933B04A0933C04B0933D048FEE92E031
:10276000909337048093360485EC90E09093430473
:102770008093420484EC90E0909345048093440459
:1027800080EC90E0909347048093460481EC90E0C5
:10279000909349048093480482EC90E090934B041A
:1027A00080934A0486EC90E090934D0480934C040F
:1027B00010924F041092500410925104109252043F
:1027C000089508950E94F9100E94E1130E9490005C
:1027D000C4E2D2E10E94C3002097E1F30E942412D8
:1027E000F9CFCF92DF92EF92FF920F931F93CF9387
:1027F000DF936C017A01EB01E60EF71E00E010E0BA
:10280000CE15DF0561F06991D601ED91FC91019043
:10281000F081E02DC6010995080F191FF1CFC801FD
:10282000DF91CF911F910F91FF90EF90DF90CF90AC
:1028300008956115710581F0DB010D900020E9F725
:10284000AD0141505109461B570BDC01ED91FC9144
:102850000280F381E02D099480E090E008950C94CB
:102860001914DC01ED91FC910190F081E02D0994A7
:102870006BEF72E00C9419140F931F93CF93DF93B7
:10288000EC010E9419148C01CE010E943814800FB3
:10289000911FDF91CF911F910F9108958F929F9279
:1028A000AF92BF92CF92DF92EF92FF920F931F935E
:1028B000CF93DF93CDB7DEB7A1970FB6F894DEBF05
:1028C0000FBECDBF7C01C42EE52FCB01D22E19A2A5
:1028D00021E02D1510F02AE0D22E8E010F5D1F4F42
:1028E0008D2C912CA12CB12C6C2D7E2FA501940147
:1028F0000E94CA168C2DD29E8019112401501109F4
:102900008A3014F4805D01C0895CF8018083211550
:1029100031054105510521F0C22EE32FCA01E4CF54
:10292000B801C7010E941914A1960FB6F894DEBF32
:102930000FBECDBFDF91CF911F910F91FF90EF9010
:10294000DF90CF90BF90AF909F908F900895CF92DF
:10295000DF92EF92FF920F931F93CF93DF93EC01DF
:102960006A017B012115310579F4E881F981019033
:10297000F081E02D642FDF91CF911F910F91FF9097
:10298000EF90DF90CF9009942A303105E9F477FF7A
:102990001AC06DE20E9431148C0144275527BA01F8
:1029A0004C195D096E097F092AE0CE010E944E1480
:1029B000800F911FDF91CF911F910F91FF90EF90AA
:1029C000DF90CF9008952AE0B701A601CE01DF91F4
:1029D000CF911F910F91FF90EF90DF90CF900C94CB
:1029E0004E140F931F93CF93DF93EC019A01AB0129
:1029F000662757FD6095762F0E94A7148C01CE01A3
:102A00000E943814800F911FDF91CF911F910F9179
:102A1000089508955058BB27AA270ED069C15AD1EE
:102A200030F05FD120F031F49F3F11F41EF44FC11C
:102A30000EF4E095E7FB37C1E92F6BD180F3BA17AD
:102A4000620773078407950718F071F49EF583C138
:102A50000EF4E0950B2EBA2FA02D0B01B9019001B9
:102A60000C01CA01A0011124FF27591B99F0593FFD
:102A700050F4503E68F11A16F040A22F232F342F45
:102A80004427585FF3CF469537952795A795F04093
:102A90005395C9F77EF41F16BA0B620B730B840BA8
:102AA000BAF09150A1F0FF0FBB1F661F771F881F60
:102AB000C2F70EC0BA0F621F731F841F48F48795B8
:102AC00077956795B795F7959E3F08F0B3CF9395A7
:102AD000880F08F09927EE0F979587950895BFD036
:102AE00008F481E0089504D06894B11135C10895C7
:102AF00018D188F09F5790F0B92F9927B751A0F0BF
:102B0000D1F0660F771F881F991F1AF0BA95C9F781
:102B100012C0B13081F01FD1B1E008951CC1672F00
:102B2000782F8827B85F39F0B93FCCF38695779531
:102B30006795B395D9F73EF490958095709561951A
:102B40007F4F8F4F9F4F0895E89409C097FB3EF445
:102B500090958095709561957F4F8F4F9F4F9923EA
:102B6000A9F0F92F96E9BB279395F6958795779568
:102B70006795B795F111F8CFFAF4BB0F11F460FF28
:102B80001BC06F5F7F4F8F4F9F4F16C0882311F080
:102B900096E911C0772321F09EE8872F762F05C094
:102BA000662371F096E8862F70E060E02AF09A952F
:102BB000660F771F881FDAF7880F9695879597F924
:102BC000089588D018F011F08CD038F480C0C4C0BB
:102BD000E92F9FD0B0F35523C9F3E7FB62177307C2
:102BE00084079507A8F199F3E92FFF2788232AF096
:102BF0003197660F771F881FDAF7952F55274423E3
:102C000032F091505040220F331F441FD2F7BB27A0
:102C1000E91BF50B621B730B840BB109C1F222F4A3
:102C2000620F731F841FB11D31972AF0660F771F43
:102C3000881FBB1FEFCF915050405AF041F08823BE
:102C400032F0660F771F881F91505040C1F793955F
:102C500030C08695779567959F5FD9F7F8CF990F24
:102C60000008550FAA0BE0E8FEEF16161706E80756
:102C7000F907C0F012161306E407F50798F0621B77
:102C8000730B840B950B39F40A2661F0232B242B4C
:102C9000252B21F408950A2609F4A140A6958FEF6B
:102CA000811D811D089597F99F6780E870E060E0BD
:102CB00008959F3F31F0915020F48795779567955F
:102CC000B795880F911D9695879597F908959FEF71
:102CD00080EC089500240A941616170618060906B3
:102CE000089500240A941216130614060506089582
:102CF000092E0394000C11F4882352F0BB0F40F40A
:102D0000BF2B11F460FF04C06F5F7F4F8F4F9F4F49
:102D1000089557FD9058440F551F59F05F3F71F0CB
:102D20004795880F97FB991F61F09F3F79F0879532
:102D30000895121613061406551FF2CF4695F1DFBB
:102D400008C0161617061806991FF1CF869571054B
:102D5000610508940895E894BB2766277727CB017F
:102D600097F908957CDF08F48FEF0895AA1BBB1B29
:102D700051E107C0AA1FBB1FA617B70710F0A61B7B
:102D8000B70B881F991F5A95A9F780959095BC019C
:102D9000CD010895A1E21A2EAA1BBB1BFD010DC097
:102DA000AA1FBB1FEE1FFF1FA217B307E407F507FB
:102DB00020F0A21BB30BE40BF50B661F771F881FD7
:102DC000991F1A9469F760957095809590959B016D
:102DD000AC01BD01CF010895052E97FB1EF40094B0
:102DE0000E94031757FD07D00E94CA1607FC03D0A4
:102DF0004EF40C94031750954095309521953F4F14
:102E00004F4F5F4F089590958095709561957F4FD6
:102E10008F4F9F4F08950E943C18B7FF0895821B63
:102E2000930B08950E943C18A59F900DB49F900DA0
:102E3000A49F800D911D11240895B7FF0C941217C3
:102E40000E941217821B930B089597FB57FF0C9457
:102E500035179F938F930E9435176E1B7F0BAF9191
:102E6000BF918A0B9B0B0895E894DF93CF93FC01ED
:102E7000DB010E943C187F936F93E9019A01AC013A
:102E8000BF93AF933F932F93DF010E943C1826F42A
:102E90006C1B7D0B820B930B9E01EB01FC010E94CE
:102EA0004B18AF91BF912F913F910E944B18BE01DB
:102EB000CF01F9012F913F91CF91DF91089568944F
:102EC00001C0E894F92FF12B12F00C949317A0E0B5
:102ED000B0E0EDE6F7E10C940518092E059422F414
:102EE0000E94EF17112392F4F0E80F26FFEFE09411
:102EF000F09400951095B094C094D094A194BF0A1A
:102F0000CF0ADF0AEF0AFF0A0F0B1F0B0E949E1762
:102F100007FC0E94EF17CDB7DEB7ECE00C94211848
:102F2000689401C0E8948F929F92CF93DF930E94A0
:102F30009E17DF91CF919F908F90089588249924B8
:102F4000F401E401B0E49F93AA279A158B049C0432
:102F5000ED05FE05CF05D007A10798F4AD2FDC2FB6
:102F6000CF2FFE2FE92D982C892E982F872F762F83
:102F7000652F542F432F322F2227B85031F7BF919E
:102F800027C01B2EBF91BB27220F331F441F551F85
:102F9000661F771F881F991F881C991CEE1FFF1F33
:102FA000CC1FDD1FAA1FBB1F8A149B04EC05FD0567
:102FB000CE05DF05A007B10748F08A189B08EC0989
:102FC000FD09CE09DF09A00BB10B21601A94E1F6CF
:102FD0002EF49401AF01BE01CD01000C089560955F
:102FE00070958095909530954095509521953F4FDF
:102FF0004F4F5F4F6F4F7F4F8F4F9F4F08952F92CF
:103000003F924F925F926F927F928F929F92AF9278
:10301000BF92CF92DF92EF92FF920F931F93CF93C5
:10302000DF93CDB7DEB7CA1BDB0B0FB6F894DEBF5C
:103030000FBECDBF09942A88398848885F846E8482
:103040007D848C849B84AA84B984C884DF80EE80CC
:10305000FD800C811B81AA81B981CE0FD11D0FB6D5
:10306000F894DEBF0FBECDBFED010895EE0FFF1F38
:103070000590F491E02D0994A29FB001B39FC00187
:10308000A39F700D811D1124911DB29F700D811D94
:103090001124911D08950E943C18460F571FC81F08
:1030A000D91F08F431960895CF93DF9382309105AC
:1030B00010F482E090E0E091D504F091D60420E095
:1030C00030E0A0E0B0E0309739F1408151814817FD
:1030D0005907B8F04817590771F482819381109706
:1030E00029F013969C938E9312972CC09093D6043C
:1030F0008093D50427C02115310531F042175307BD
:1031000018F0A901DB0101C0EF019A01BD01DF0147
:103110000280F381E02DD7CF21153105F9F0281B6E
:10312000390B2430310580F48A819B81611571054A
:1031300021F0FB019383828304C09093D604809393
:10314000D504FE01329644C0FE01E20FF31F8193C5
:10315000919322503109398328833AC02091D304B6
:103160003091D404232B41F42091020130910301CA
:103170003093D4042093D3042091000130910101B5
:103180002115310541F42DB73EB74091040150910E
:103190000501241B350BE091D304F091D404E21710
:1031A000F307A0F42E1B3F0B2817390778F0AC016A
:1031B0004E5F5F4F2417350748F04E0F5F1F509347
:1031C000D4044093D3048193919302C0E0E0F0E0F3
:1031D000CF01DF91CF910895CF93DF93009709F44A
:1031E00087C0FC01329713821282C091D504D0911E
:1031F000D604209781F420813181280F391F8091D6
:10320000D3049091D4048217930779F5F093D404F2
:10321000E093D3046DC0DE0120E030E0AE17BF07BD
:1032200050F412964D915C9113979D0141155105F3
:1032300009F1DA01F3CFB383A28340815181840F76
:10324000951F8A179B0771F48D919C911197840F9C
:10325000951F02969183808312968D919C9113976E
:10326000938382832115310529F4F093D604E093EA
:10327000D5043EC0D9011396FC93EE9312974D915D
:103280005D91A40FB51FEA17FB0779F48081918146
:10329000840F951F0296D90111969C938E9382817B
:1032A000938113969C938E931297E0E0F0E08A81CD
:1032B0009B81009719F0FE01EC01F9CFCE01029637
:1032C00028813981820F931F2091D3043091D40437
:1032D0002817390769F4309729F41092D604109210
:1032E000D50402C013821282D093D404C093D304B5
:1032F000DF91CF91089581E090E0F8940C948019CB
:1033000010E0CAECD0E004C0FE010E9438182296FA
:0A331000CC3CD107C9F7F894FFCFB9
:10331A000000D704800004110B0E1005507265736B
:10332A007320627574746F6E20746F207374617287
:10333A00742063616C6962726174696F6E2E2E2EDD
:10334A000043616C696272617465642E2050726513
:10335A00737320627574746F6E20746F2073746156
:10336A0072742E2E2E0000000000F51100000000DD
:10337A00E2007475726E696E672000616E7469632B
:10338A006C6F636B77697365203930206465677287
:10339A006565732E004578706C6F72696E6720528E
:1033AA006F6F6D00416E206F626A6563742077618A
:1033BA007320666F756E6420696E20726F6F6D2060
:1033CA00004E6F206F626A656374207761732066AE
:1033DA006F756E6420696E20726F6F6D2000526F78
:1033EA006F6D206578706C6F7265640063686563E1
:1033FA006B696E6720666F722077616C6C00436838
:10340A0065636B696E6720666F7220656E64206FF4
:10341A006620636F727269646F722E00526561630F
:10342A0068656420656E64206F6620636F727269D6
:10343A00646F722C20707265737320627574746F76
:10344A006E20746F2072657475726E20746F2062BC
:10345A0061736500436865636B696E6720666F72A6
:10346A0020726F6F6D20746F206D79206C656674A1
:10347A002E00436865636B696E6720666F722072FF
:10348A006F6F6D20746F206D792072696768742E72
:10349A0000436865636B696E6720666F7220726F9E
:1034AA006F6D00526F6F6D2073686F756C64206268
:1034BA00652065786974656400416476616E636944
:1034CA006E6700546865726520617265206E6F20B0
:1034DA00726F6F6D7320686572652E204164766124
:1034EA006E63652E0000000000E200000000003359
:1034FA000C060CDB0BE30BF60B050C000000007549
:10350A0012F113F7111012021253120D0A006E6112
:0A351A006E00696E66006F766600B1
:00000001FF
