:100000000C9464000C948C000C948C000C948C0068
:100010000C948C000C948C000C948C000C948C0030
:100020000C948C000C9459050C948C000C948C004E
:100030000C948C000C948C000C948C000C948C0010
:100040000C94E5090C948C000C94C80C0C94FA0CDC
:100050000C948C000C948C000C948C000C948C00F0
:100060000C948C000C948C0000000008000201002D
:100070000003040700000000000000000102040863
:100080001020408001020408102001020408102002
:10009000040404040404040402020202020203032E
:1000A00003030303000000002300260029000000D2
:1000B0000000250028002B0000000000240027007D
:1000C0002A00BB012A0DCD0111241FBECFEFD8E0BD
:1000D000DEBFCDBF11E0A0E0B1E0ECEBF0E202C08A
:1000E00005900D92A637B107D9F722E0A6E7B1E057
:1000F00001C01D92AC34B207E1F710E0C6ECD0E0CD
:1001000004C02297FE010E94210FC23CD107C9F70B
:100110000E946E0D0C9451100C9400000F931F93CD
:10012000CF93DF9300D000D000D0CDB7DEB726E06C
:1001300040E855E260E070E08BEA91E00E94660CD6
:1001400061E08DE00E94E90A86E0E0E1F1E0DE0195
:10015000119601900D928A95E1F702E020ED37E0CB
:1001600046E0BE016F5F7F4F83E891E00E94A909DE
:1001700061E08DE00E94220B68EE73E080E090E089
:100180000E94520A05EF1FEF0431110520F0C8014B
:100190008897449728F460E971E080E79EEF04C0F7
:1001A00060E77EEF80E991E00E94450261E083E82C
:1001B00091E00E942C0864E170E080E090E00E94F1
:1001C000520A0F5F1F4F05341105F1F660E070E031
:1001D00080E090E00E94450260E08DE00E94220BEA
:1001E00026960FB6F894DEBF0FBECDBFDF91CF913C
:1001F0001F910F91089561E070E0809176019091D8
:1002000077014F9714F460E070E04AE050E08BEA29
:1002100091E00E946B0E66E171E08BEA91E00E9432
:10022000BB0D61E070E080917801909179014F976A
:1002300014F460E070E04AE050E08BEA91E00E9444
:100240006B0E66E171E08BEA91E00E94BB0D61E00C
:1002500070E080917A0190917B014F9714F460E0F7
:1002600070E04AE050E08BEA91E00E946B0E66E19C
:1002700071E08BEA91E00E94BB0D61E070E080913B
:100280007C0190917D014F9714F460E070E04AE0AA
:1002900050E08BEA91E00E946B0E66E171E08BEA20
:1002A00091E00E94BB0D61E070E080917E01909131
:1002B0007F014F9714F460E070E04AE050E08BEA71
:1002C00091E00E946B0E66E171E08BEA91E00E9482
:1002D000BB0D61E070E080918001909181014F97AA
:1002E00014F460E070E04AE050E08BEA91E00E9494
:1002F000730E80917601909177014F9714F580915C
:100300007801909179014F97E4F480917A0190916E
:100310007B014F97B4F480917C0190917D014F97C0
:1003200084F480917E0190917F014F9754F481E095
:1003300020918001309181012F3131051CF480E042
:10034000089581E0089520E041E066E771E083E8E8
:1003500091E00E940A090E94FB00682F70E04AE0C9
:1003600050E08BEA91E00E94730E68EE73E080E04B
:1003700090E00C94520A83E991E00E94940283E891
:1003800091E00E9499098EE191E09093840180931D
:10039000830182E891E00C94D70182E591E090938B
:1003A00084018093830183E891E00C94BB09089554
:1003B00061E08AE00E94E90A61E089E00E94E90ABE
:1003C00061E088E00E94E90A61E087E00E94E90AB2
:1003D00080EA8093800081E18093810080E991E050
:1003E00090938700809386000895809194018111F5
:1003F00005C081E0809394010C94D8010895CF93B7
:10040000DF93EC010E94F501D7FF05C0D195C1959E
:10041000D10981E001C080E0C13991E0D90714F031
:10042000C0E9D1E0D0938B00C0938A0090919601EF
:10043000891711F061E001C060E088E0DF91CF91A1
:100440000C94220BCF93DF93EC010E94F501D7FFB0
:1004500005C0D195C195D10981E001C080E0C139C5
:1004600091E0D90714F0C0E9D1E0D0938900C0939E
:10047000880090919501891711F061E001C060E05A
:1004800087E0DF91CF910C94220BCF93DF93EB01A8
:100490000E94FF01CE01DF91CF910C942202909136
:1004A0009901E0919D01F0919E01992311F08491B1
:1004B00001C080812FEB280F2A3110F4805E08954F
:1004C000803249F49F012F5F3F4F30939E0120936C
:1004D0009D01EF2B31F708951F93CF93DF930E9477
:1004E0004F02C0E0D0E01AE090ED980F9A30B8F4D7
:1004F0009E01129FE001139FD00D1124C80FD11D42
:1005000087FDDA95E09780919D0190919E0101967B
:1005100090939E0180939D010E944F02E5CFCE01F2
:10052000DF91CF911F91089508951092700081E29C
:100530008093B0008BE08093B1008AEF8093B3008A
:100540001092B400539A789408952F923F924F924C
:100550005F926F927F928F929F92AF92BF92CF9253
:10056000DF92EF92FF920F931F93CF93DF9300D010
:1005700000D01F92CDB7DEB78C011B014B83809159
:100580009F01811105C081E080939F010E94950227
:1005900010920F0117FF04C01F772AE0298302C0C1
:1005A00031E0398398E28981899F902D1124A92F08
:1005B000B0E0BD83AC83A017B10710F41D830C839A
:1005C000B981B13049F4EC81FD81E131F74220F08D
:1005D00080E197E29D838C839981C92ED12CE12CF7
:1005E000F12C8C819D81969587952C01612C712C25
:1005F000AC81BD814D01A12CB12CA701960160E415
:1006000072E48FE090E00E948C0E640D751D861DD3
:10061000971DA50194010E94DE0E8901B2E0BA8304
:100620000F3F110509F100F1EA81EF5FEA83F0E085
:10063000EE0FFF1FE85CFE4F2081318140E050E06B
:1006400060E072E18AE790E00E94DE0EC701B60129
:100650000E948C0E640D751D861D971DA5019401C9
:100660000E94DE0E8901DCCFF981FA3049F48C81D9
:100670009D8105966AE070E00E94A80E7D836C83E0
:100680002C813D81283E334061F09101AC81BD81D8
:100690000E94FD0E28EE33E040E050E00E94DE0EA6
:1006A0001901109270008091B100887F9A81892B86
:1006B0008093B1000093B3002B81203108F02FE02C
:1006C00080E190E0821B910902C0169507958A95FA
:1006D000E2F70093B40030929C0120929B0187B313
:1006E0008FEF87BB81E0809370000F900F900F9089
:1006F0000F900F90DF91CF911F910F91FF90EF908E
:10070000DF90CF90BF90AF909F908F907F906F9031
:100710005F904F903F902F900895CF93DF93EB0120
:100720008F3F11F0411105C040E0BE0188EE93E01B
:1007300043C0813130F050EF580F503618F05FE56C
:1007400001C050E0852F6CE00E949C0E682F74EF72
:10075000760390011124250F311D2C30310540F412
:10076000F901EE0FFF1FE05EFE4F2081318102C0D4
:1007700020E030E0873081F0082E02C0220F331FC6
:100780000A94E2F7823028F0C90105966AE070E029
:100790000CC0C90190580CC0C90136E0880F991FE0
:1007A0003A95E1F7029665E070E00E94A80ECB0151
:1007B000403108F04FE0BE01DF91CF910C94A502CB
:1007C0004F925F926F927F928F929F92AF92BF9261
:1007D000CF92DF92EF92FF920F931F93CF93DF930D
:1007E00000D0CDB7DEB790900E018091980188239C
:1007F00021F060919701611117C077247394B0ECD8
:10080000AB2EBDE5BB2E1AE0612E04E0802E80EDFC
:10081000C82E87E0D82E94E0E92EF12C04EF11E0E9
:100820002FE0422E512C15C070E040E088EE93E09E
:100830000E94A5021092970129C18636D4F581360F
:1008400009F4A9C07CF58C3309F460C08E3381F4BF
:1008500093940E944F0220919D0130919E012F5F41
:100860003F4F30939E0120939D01853631F752C052
:10087000813209F08BC080920E01D0920D01C0929E
:100880000C01F0920B01E0920A0110930901009310
:100890000801509207014092060110929801A4E0CD
:1008A0009A2ED7CF8336A1F10CF478C010E082E005
:1008B00077C08D36C1F194F4873691F174F18C369E
:1008C00009F064C00E946C02BC0190930B018093FC
:1008D0000A0180910C0190910D0151C08237C9F13C
:1008E0004CF48F3609F052C00E946C02982E80930F
:1008F0000E01AFCF843781F1863709F047C00E94DF
:100900006C029093070180930601A3CF9A94A1CF24
:1009100010E020C010E084E043C010E085E040C05B
:1009200010E087E03DC00E944F028C3619F410920F
:10093000980104C0709298011092970120919D0136
:1009400030919E012F5F3F4F30939E0120939D0178
:1009500080CF11E080E024C00E946C02BC01C50180
:100960000E94A80E669EC001679E900D1124909370
:100970000D0180930C0160910A0170910B010E949E
:10098000A80E709309016093080163CF10929E0135
:1009900010929D017BC010E089E002C010E08BE066
:1009A000082F9CE0999E000D11240E944F02982F61
:1009B000977F933261F420919D0130919E012F5FCA
:1009C0003F4F30939E0120939D010F5FEECF8D32FC
:1009D00071F420919D0130919E012F5F3F4F309324
:1009E0009E0120939D0101500E944F02F0CF609123
:1009F0000801709109018153883050F4E0900C0196
:100A0000F0900D010E946C02BC01C7010E94A80E6B
:100A10007B01F694E79469837A830E944F0269818F
:100A20007A818E3269F420919D0130919E012F5F71
:100A30003F4F30939E0120939D016E0D7F1DE9CFA6
:100A400080919801882339F09B0136952795209352
:100A50009701621B710940910601112311F08FEF7C
:100A600001C0802F0F900F90DF91CF911F910F91B8
:100A7000FF90EF90DF90CF90BF90AF909F908F90BE
:100A80007F906F905F904F900C948D030F900F901C
:100A9000DF91CF911F910F91FF90EF90DF90CF905A
:100AA000BF90AF909F908F907F906F905F904F908E
:100AB00008951F920F920FB60F9211242F933F9318
:100AC0004F935F936F937F938F939F93AF93BF9356
:100AD000EF93FF9380919B0190919C019C01215089
:100AE000310930939C0120939B01892BE9F41092EA
:100AF000700078948091B100887F83608093B1000A
:100B00008AEF8093B3001092B40081E080930F01CC
:100B100080919D0190919E01892B31F080919A01E5
:100B2000811102C00E94E003FF91EF91BF91AF914C
:100B30009F918F917F916F915F914F913F912F91F5
:100B40000F900FBE0F901F9018956F927F928F920B
:100B50009F92AF92BF92CF92DF92EF92FF920F934C
:100B60001F93CF93DF93EC018B018A859B85892BA3
:100B700009F474C0D12C8C85D816E8F4ED2CF12C36
:100B80008E859F85F701EE0FFF1FE00FF11F918308
:100B90008083EA85FB85EE0DFF1D61E080810E9468
:100BA000220BEA85FB85EE0DFF1D61E080810E942E
:100BB000E90AD394E0CF8AE090E00E947A0AD12C2F
:100BC0008C85D816A0F4ED2CF12CEA85FB85EE0D72
:100BD000FF1D60E080810E94E90AEA85FB85EE0D39
:100BE000FF1D60E080810E94220BD394E9CF0E9418
:100BF0002F0A6B017C010E942F0A6C197D098E0956
:100C00009F092E853F854901A12CB12C68157905D6
:100C10008A059B0518F50E942F0A3B016C187D0878
:100C2000912C8C85981638F7A92CB12CAA85BB85F8
:100C3000AA0DBB1D8C910E94580B892B51F4F50114
:100C4000EE0FFF1FE00FF11F80819181681679067A
:100C500010F09394E6CF71826082FBCFDF91CF9149
:100C60001F910F91FF90EF90DF90CF90BF90AF90CA
:100C70009F908F907F906F900895EF92FF920F93C7
:100C80001F93CF93DF931F92CDB7DEB77C018B010B
:100C9000DC0113961C921E92129715961C921E92BE
:100CA000149717961C921E92169719961C921E92D4
:100CB0001897413120F080E11C968C9302C0FC0112
:100CC0004487D7011A968D919C911B97892B11F01F
:100CD00030E00FC0F701848590E029830E94250F42
:100CE000D7011B969C938E931A972981892B81F7A4
:100CF00015C0F7018485381780F4832F90E0F80140
:100D0000E80FF91F4081D7011A96ED91FC911B97CE
:100D1000E80FF91F40833F5FECCF25870F90DF91ED
:100D2000CF911F910F91FF90EF900895CF93DF9394
:100D3000EC018D858F3F69F061E00E94E90A60E077
:100D40008D850E94220B88EC90E0DF91CF910C946E
:100D50007A0ADF91CF910895CF93DF93EC018D85CF
:100D60008F3F69F061E00E94E90A61E08D850E9491
:100D7000220B88EC90E0DF91CF910C947A0ADF91FE
:100D8000CF910895DF92EF92FF920F931F93CF932D
:100D9000DF93CDB7DEB7A0970FB6F894DEBF0FBED6
:100DA000CDBF8C017B01D42E8FEF840F823020F4D5
:100DB000C8010E94AC0603C0C8010E949606D80173
:100DC000ED91FC910190F081E02DB701C8010995EA
:100DD000C8010E949606B2E0DB122FC0D801ED9147
:100DE000FC910190F081E02DBE016F5F7F4FC80143
:100DF000099540E0F80184854817F8F4842F90E0C5
:100E0000880F991FF701E80FF91F21E030E02C0F40
:100E10003D1F820F931FD8011E962D913C911F9765
:100E2000DC018D919C91281B390B80819181820F6F
:100E3000931F918380834F5FDDCFA0960FB6F89408
:100E4000DEBF0FBECDBFDF91CF911F910F91FF90FD
:100E5000EF90DF9008952F923F925F926F927F9272
:100E60008F929F92AF92BF92CF92DF92EF92FF92BA
:100E70000F931F93CF93DF93CDB7DEB7C056D10941
:100E80000FB6F894DEBF0FBECDBF8C014B015A01E7
:100E9000522EDA018D919C91892B31F0F4018081E1
:100EA0009181892BF1F424C0D8011C968C9190E09B
:100EB000880F991F0E94250FF50191838083009769
:100EC00009F4B1C0FC0120E030E0D8011C968C91FF
:100ED00090E02817390714F7119211922F5F3F4FB6
:100EE000F4CFE12CF12C6E01B1E2CB0ED11C21C06C
:100EF000F801848590E0880F991F0E94250FD40186
:100F00008D939C93009709F48EC0FC0120E030E0A3
:100F1000D8011C968C9190E02817390714F7D80156
:100F20001E968D919C911F97819391932F5F3F4FB8
:100F3000EFCF452DBE016F5B7F4FC8010E94C206F7
:100F4000F8016484712CFE01EF5BFF4FC6019E0126
:100F50002F5F3F4F190120E030E0261537054CF593
:100F6000E114F10489F0DC016D917C9140815181A3
:100F70006417750748F0D1016D917C9140815181D2
:100F80004617570748F00DC040815181DC014D9351
:100F90005C93E114F10479F740815181D1014D93C3
:100FA0005C932F5F3F4FB2E02B0E311C32960296BE
:100FB000D4CFEFEFEE1AFE0AFAE0EF16F10409F0D3
:100FC000B8CF9E012F5F3F4F7901360180E090E05E
:100FD000F801248530E0821793072CF5D7012D9175
:100FE0003D917D01B3016C197D09D501ED91FC9115
:100FF000E60FF71F408151814217530710F43183E8
:101000002083F301219131913F01D401ED91FC91B5
:10101000E60FF71F408151812417350710F4318303
:1010200020830196D5CFC05ADF4F0FB6F894DEBFAC
:101030000FBECDBFDF91CF911F910F91FF90EF9029
:10104000DF90CF90BF90AF909F908F907F906F90E8
:101050005F903F902F9008951F93CF93DF93EC0103
:10106000162F8FEF860F823018F0662369F019C0B3
:1010700021E0AE014C5F5F4FBE016E5F7F4FCE013E
:101080000E942B07123069F4AE01485F5F4FBE012A
:101090006A5F7F4F20E0CE01DF91CF911F910C94CA
:1010A0002B07DF91CF911F910895BF92CF92DF92CE
:1010B000EF92FF920F931F93CF93DF93EC018B017D
:1010C000B42E842F8D7F51F48E819F81892B09F45A
:1010D00097C088859985892B09F492C08FEF8B0D75
:1010E000823050F48A819B81892B09F489C08C81DC
:1010F0009D81892B09F484C04B2DB801CE010E943B
:10110000C206780100E010E0C12CD12C8C8590E063
:10111000C816D9060CF074C081E0B8120AC0EC8180
:10112000FD81E00FF11F0190F081E02DAA81BB81CC
:101130000DC08E819F8128853985B1100CC0F901C1
:10114000E00FF11F0190F081E02DDC01A00FB11F35
:101150008D919C9128C0FC01E00FF11F40815181CD
:10116000EA81FB81E00FF11F80819181EE85FF858F
:101170004817590710F4CF0104C08E0F9F1F841B1E
:10118000950BD901A00FB11F2D913C91AC81BD8170
:10119000A00FB11F4D915C912417350720F0E40F8B
:1011A000F51FE21BF30BE81BF90BA9F0D7012D91FA
:1011B0003C9140E050E0281B390B41095109A8EE51
:1011C000B3E00E940C0F9F0140E050E00E94DE0E51
:1011D00037FD0AC002C020E030E0293EB3E03B0703
:1011E0002CF028EE33E002C020E030E0F70121933C
:1011F00031937F01FFEFCF1ADF0A0E5F1F4F86CFBB
:10120000DF91CF911F910F91FF90EF90DF90CF90E2
:10121000BF9008952F923F924F925F926F927F926C
:101220008F929F92AF92BF92CF92DF92EF92FF92F6
:101230000F931F93CF93DF93EC018B01822E0E94BB
:1012400055082C84E801412C512C320100E010E0BB
:10125000C12CD12C7601312C912CE8EEAE2EE3E09E
:10126000BE2E921421F1E991F991882021F0C50157
:101270008E1B9F0BFC01E93CF10524F4E333F105DF
:1012800074F002C033243394DF01A30192010E9461
:10129000170FC60ED71EE81EF91E0E0F1F1F9394C0
:1012A00098EE490E93E0591E611C711CDACF311083
:1012B0001EC0492D50E04150510924EF31E0429FBA
:1012C000C001439F900D529F900D11242091A001C9
:1012D0003091A10128173907B4F088EE93E0489FB8
:1012E0009001499F300D589F300D11240EC0980178
:1012F00040E050E0C701B6010E94BC0E3093A1014E
:101300002093A00102C020E030E0C901DF91CF911D
:101310001F910F91FF90EF90DF90CF90BF90AF9013
:101320009F908F907F906F905F904F903F902F9005
:101330000895FC0182E591E09183808313821282FB
:1013400015821482178216821186108613861286E1
:101350000895EF92FF920F93CF93DF93EC01790101
:10136000202F0E943D06FF86EE86DF91CF910F91E0
:10137000FF90EF900895CF93DF93EC018CE491E020
:10138000998388838A859B85009711F00E94BD0F01
:101390008C819D81009711F00E94BD0F88859985F1
:1013A000009711F00E94BD0F8A819B81009711F078
:1013B0000E94BD0F8E819F81009721F0DF91CF9118
:1013C0000C94BD0FDF91CF9108951F920F920FB62D
:1013D0000F9211242F933F938F939F93AF93BF93BB
:1013E0008091A3019091A401A091A501B091A601C3
:1013F0003091A20123E0230F2D3720F40196A11D87
:10140000B11D05C026E8230F0296A11DB11D209332
:10141000A2018093A3019093A401A093A501B0938E
:10142000A6018091A7019091A801A091A901B09176
:10143000AA010196A11DB11D8093A7019093A80157
:10144000A093A901B093AA01BF91AF919F918F91F1
:101450003F912F910F900FBE0F901F9018953FB79F
:10146000F8948091A7019091A801A091A901B09151
:10147000AA0126B5A89B05C02F3F19F00196A11D12
:10148000B11D3FBF6627782F892F9A2F620F711DDC
:10149000811D911D42E0660F771F881F991F4A9595
:1014A000D1F70895CF92DF92EF92FF92CF93DF931F
:1014B0006B017C010E942F0AEB01C114D104E104ED
:1014C000F10489F00E948B0E0E942F0A6C1B7D0B89
:1014D000683E734090F381E0C81AD108E108F10832
:1014E000C851DC4FEACFDF91CF91FF90EF90DF90B2
:1014F000CF9008958230910538F0880F991F880F9A
:10150000991F05970197F1F70895789484B5826043
:1015100084BD84B5816084BD85B5826085BD85B597
:10152000816085BDEEE6F0E0808181608083E1E846
:10153000F0E010828081826080838081816080837E
:10154000E0E8F0E0808181608083E1EBF0E0808181
:1015500084608083E0EBF0E0808181608083EAE753
:10156000F0E08081846080838081826080838081DC
:10157000816080838081806880831092C10008959B
:10158000833081F028F4813099F08230A1F0089501
:101590008730A9F08830B9F08430D1F48091800090
:1015A0008F7D03C0809180008F77809380000895A5
:1015B00084B58F7702C084B58F7D84BD08958091F6
:1015C000B0008F7703C08091B0008F7D8093B00012
:1015D0000895CF93DF9390E0FC01E458FF4F2491EE
:1015E000FC01E057FF4F8491882349F190E0880F78
:1015F000991FFC01E854FF4FA591B49182559F4F6C
:10160000FC01C591D4919FB7611108C0F8948C91E9
:10161000209582238C93888182230AC0623051F402
:10162000F8948C91322F309583238C938881822B70
:10163000888304C0F8948C91822B8C939FBFDF9198
:10164000CF9108950F931F93CF93DF931F92CDB740
:10165000DEB7282F30E0F901E859FF4F8491F901F6
:10166000E458FF4F1491F901E057FF4F0491002314
:10167000C9F0882321F069830E94C00A6981E02FA4
:10168000F0E0EE0FFF1FE255FF4FA591B4919FB719
:10169000F8948C91611103C01095812301C0812BB6
:1016A0008C939FBF0F90DF91CF911F910F91089561
:1016B000CF93DF93282F30E0F901E859FF4F849151
:1016C000F901E458FF4FD491F901E057FF4FC4915D
:1016D000CC2391F081110E94C00AEC2FF0E0EE0FB4
:1016E000FF1FEC55FF4FA591B4912C912D2381E064
:1016F00090E021F480E002C080E090E0DF91CF91A3
:1017000008950E944C10FC01818D228D90E0805C38
:101710009F4F821B91098F7399270895FC01918D2A
:10172000828D981731F0828DE80FF11D858D90E044
:1017300008958FEF9FEF0895FC01918D828D98178A
:1017400061F0828DDF01A80FB11D5D968C91928DA5
:101750009F5F9F73928F90E008958FEF9FEF0895A2
:1017600080E29DE0892B49F080E090E0892B29F010
:101770000E94200D81110C9400000895FC01848DBD
:10178000DF01A80FB11DA35ABF4F2C91848D90E0AB
:1017900001968F739927848FA689B7892C93A08986
:1017A000B1898C9180648C93938D848D981306C03D
:1017B0000288F389E02D80818F7D80830895CF9307
:1017C000DF93EC01888D8823C9F0EA89FB89808149
:1017D00085FD05C0A889B9898C9186FD0FC00FB61B
:1017E00007FCF5CF808185FFF2CFA889B9898C915C
:1017F00085FFEDCFCE010E94BE0BE7CFDF91CF91E9
:101800000895CF92DF92FF920F931F93CF93DF93B0
:101810001F92CDB7DEB76C0181E0D60158968C934C
:1018200058975B969C915B975C968C915C9798130C
:1018300007C05096ED91FC915197808185FD2EC097
:10184000F601038D10E00F5F1F4F0F731127F02E6D
:10185000F601848DF81211C00FB607FCF9CFD6013E
:101860005096ED91FC915197808185FFF1CFC60193
:1018700069830E94BE0B6981EBCF838DE80FF11D58
:10188000E35AFF4F6083D6015B960C935B975296A9
:10189000ED91FC915397808180620CC0D6015696E1
:1018A000ED91FC91579760835096ED91FC91519783
:1018B00080818064808381E090E00F90DF91CF9100
:1018C0001F910F91FF90DF90CF900895BF92CF921C
:1018D000DF92EF92FF92CF93DF93EC016A017B01DD
:1018E000B22EE889F98982E08083411581EE58079C
:1018F00061057105A1F060E079E08DE390E0A7015A
:1019000096010E94BC0E215031094109510956959A
:10191000479537952795211580E1380798F0E88994
:10192000F989108260E874E88EE190E0A7019601E1
:101930000E94BC0E21503109410951095695479525
:1019400037952795EC85FD853083EE85FF852083CF
:10195000188EEC89FD89B082EA89FB8980818061DB
:101960008083EA89FB89808188608083EA89FB899A
:10197000808180688083EA89FB8980818F7D808374
:10198000DF91CF91FF90EF90DF90CF90BF900895BF
:101990001F920F920FB60F9211242F938F939F9344
:1019A000EF93FF93E091BB01F091BC018081E09146
:1019B000C101F091C20182FD12C090818091C401E9
:1019C0008F5F8F732091C501821751F0E091C401A0
:1019D000F0E0E555FE4F958F8093C40101C08081F2
:1019E000FF91EF919F918F912F910F900FBE0F90CC
:1019F0001F9018951F920F920FB60F9211242F93DC
:101A00003F934F935F936F937F938F939F93AF9386
:101A1000BF93EF93FF938BEA91E00E94BE0BFF917F
:101A2000EF91BF91AF919F918F917F916F915F9156
:101A30004F913F912F910F900FBE0F901F901895CF
:101A40008BEA91E00E94830B21E0892B09F420E0CE
:101A5000822F08951092AE011092AD0188EE93E0AE
:101A6000A0E0B0E08093AF019093B001A093B101EA
:101A7000B093B20188E591E09093AC018093AB0103
:101A800085EC90E09093B8018093B70184EC90E0EE
:101A90009093BA018093B90180EC90E09093BC01DF
:101AA0008093BB0181EC90E09093BE018093BD01D7
:101AB00082EC90E09093C0018093BF0186EC90E0AF
:101AC0009093C2018093C1011092C4011092C5018C
:101AD0001092C6011092C701089508950E94850AC8
:101AE0000E946D0D0E948E00C0EBDBE00E94A301FE
:101AF0002097E1F30E94B00BF9CFCF92DF92EF92E3
:101B0000FF920F931F93CF93DF936C017A01EB0148
:101B1000E60EF71E00E010E0CE15DF0561F06991DA
:101B2000D601ED91FC910190F081E02DC60109955F
:101B3000080F191FF1CFC801DF91CF911F910F91AD
:101B4000FF90EF90DF90CF9008956115710581F0BF
:101B5000DB010D900020E9F7AD0141505109461B12
:101B6000570BDC01ED91FC910280F381E02D09948B
:101B700080E090E008950C94A50DDC01ED91FC91BE
:101B80000190F081E02D099464E671E00C94A50DBC
:101B90008F929F92AF92BF92CF92DF92EF92FF927D
:101BA0000F931F93CF93DF93CDB7DEB7A1970FB6F7
:101BB000F894DEBF0FBECDBF7C01C42EE52FCB0154
:101BC000D22E19A221E02D1510F02AE0D22E8E017E
:101BD0000F5D1F4F8D2C912CA12CB12C6C2D7E2FC5
:101BE000A50194010E94BC0E8C2DD29E8019112457
:101BF000015011098A3014F4805D01C0895CF8013C
:101C00008083211531054105510521F0C22EE32FB6
:101C1000CA01E4CFB801C7010E94A50DA1960FB675
:101C2000F894DEBF0FBECDBFDF91CF911F910F9112
:101C3000FF90EF90DF90CF90BF90AF909F908F90EC
:101C40000895CF92DF92EF92FF920F931F93CF935D
:101C5000DF93EC016A017B012115310579F4E881FC
:101C6000F9810190F081E02D642FDF91CF911F91D8
:101C70000F91FF90EF90DF90CF9009942A303105BB
:101C8000E9F477FF1AC06DE20E94BD0D8C01442774
:101C90005527BA014C195D096E097F092AE0CE016A
:101CA0000E94C80D800F911FDF91CF911F910F915E
:101CB000FF90EF90DF90CF9008952AE0B701A60142
:101CC000CE01DF91CF911F910F91FF90EF90DF90A8
:101CD000CF900C94C80D9A01AB01662757FD609513
:101CE000762F0C94210E0F931F93CF93DF93EC016B
:101CF0009A01AB01662757FD6095762F0E94210E51
:101D00008C01CE010E94C40D800F911FDF91CF91F5
:101D10001F910F9108950895DB018F939F930E9467
:101D20000C0FBF91AF91A29F800D911DA39F900DAD
:101D3000B29F900D11240895991B79E004C0991F5A
:101D4000961708F0961B881F7A95C9F78095089515
:101D5000AA1BBB1B51E107C0AA1FBB1FA617B707D1
:101D600010F0A61BB70B881F991F5A95A9F78095ED
:101D70009095BC01CD010895A1E21A2EAA1BBB1BB0
:101D8000FD010DC0AA1FBB1FEE1FFF1FA217B30747
:101D9000E407F50720F0A21BB30BE40BF50B661F5D
:101DA000771F881F991F1A9469F760957095809521
:101DB00090959B01AC01BD01CF010895052E97FBC5
:101DC0001EF400940E94F50E57FD07D00E94BC0E31
:101DD00007FC03D04EF40C94F50E509540953095C9
:101DE00021953F4F4F4F5F4F089590958095709587
:101DF00061957F4F8F4F9F4F0895A29FB001B39F72
:101E0000C001A39F700D811D1124911DB29F700D03
:101E1000811D1124911D08950E94FD0EA59F900D16
:101E2000B49F900DA49F800D911D11240895B7FFBC
:101E30000C940C0F0E940C0F821B930B0895EE0F55
:101E4000FF1F0590F491E02D0994CF93DF9382302A
:101E5000910510F482E090E0E0914A02F0914B028B
:101E600020E030E0A0E0B0E0309739F140815181CE
:101E700048175907B8F04817590771F482819381C0
:101E8000109729F013969C938E9312972CC09093E1
:101E90004B0280934A0227C02115310531F04217C9
:101EA000530718F0A901DB0101C0EF019A01BD0140
:101EB000DF010280F381E02DD7CF21153105F9F044
:101EC000281B390B2430310580F48A819B816115F0
:101ED000710521F0FB019383828304C090934B0230
:101EE00080934A02FE01329644C0FE01E20FF31FC6
:101EF0008193919322503109398328833AC02091EC
:101F0000480230914902232B41F420910201309183
:101F1000030130934902209348022091000130913F
:101F200001012115310541F42DB73EB7409104015F
:101F300050910501241B350BE0914802F0914902B4
:101F4000E217F307A0F42E1B3F0B2817390778F090
:101F5000AC014E5F5F4F2417350748F04E0F5F1FEF
:101F600050934902409348028193919302C0E0E06C
:101F7000F0E0CF01DF91CF910895CF93DF930097E9
:101F800009F487C0FC01329713821282C0914A0281
:101F9000D0914B02209781F420813181280F391F85
:101FA00080914802909149028217930779F5F09346
:101FB0004902E09348026DC0DE0120E030E0AE1738
:101FC000BF0750F412964D915C9113979D014115F6
:101FD000510509F1DA01F3CFB383A2834081518126
:101FE000840F951F8A179B0771F48D919C9111970F
:101FF000840F951F02969183808312968D919C91F8
:102000001397938382832115310529F4F0934B02B2
:10201000E0934A023EC0D9011396FC93EE931297C7
:102020004D915D91A40FB51FEA17FB0779F48081EC
:102030009181840F951F0296D90111969C938E93DE
:102040008281938113969C938E931297E0E0F0E047
:102050008A819B81009719F0FE01EC01F9CFCE0136
:10206000029628813981820F931F20914802309176
:1020700049022817390769F4309729F410924B0266
:1020800010924A0202C013821282D0934902C09376
:102090004802DF91CF91089581E090E0F8940C948C
:1020A000511010E0C6ECD0E004C0FE010E94210FE8
:0C20B0002296C83CD107C9F7F894FFCF76
:1020BC0000004C0280000F00F4010400D007040162
:1020CC0004110B0E1005203A200000000000A5059D
:1020DC009C01B501CF01EA01070226024702690201
:1020EC008E02B502DE020A03000001000800200087
:1020FC00400080000001000400000000810B000083
:10210C000000A50500000000010C7D0D830B9C0B4D
:10211C008E0BDF0B0D0A006E616E00696E66006F30
:06212C007666002E0000A3
:00000001FF
