:100000000C9466000C948E000C948E000C948E0060
:100010000C948E000C948E000C948E000C941F1087
:100020000C948E000C948E000C948E000C948E0018
:100030000C948E000C948E000C948E000C948E0008
:100040000C9446100C948E000C9435130C9467138A
:100050000C948E000C948E000C948E000C948E00E8
:100060000C94870D0C948E00000000080002010023
:100070000003040700000000000000000102040863
:100080001020408001020408102001020408102002
:10009000040404040404040402020202020203032E
:1000A00003030303000000002300260029000000D2
:1000B0000000250028002B0000000000240027007D
:1000C0002A00CD008708A50C9713D80011241FBE65
:1000D000CFEFD8E0DEBFCDBF12E0A0E0B1E0ECE0B2
:1000E000F3E302C005900D92AC3EB107D9F724E0CE
:1000F000ACEEB2E001C01D92AA3BB207E1F710E0FE
:10010000CAECD0E004C02297FE010E943118C23C24
:10011000D107C9F70E94DB130C9479190C940000E5
:1001200026E040E855E260E070E089E194E00E945A
:10013000D3128BE493E00E946B0C61E08DE00E948F
:10014000561161E08DE00E948F110E9420096CE041
:1001500071E089E194E00E9435148CEE92E00E94F7
:10016000CA0B86EF92E00E94310561E371E089E1FC
:1001700094E00E9435148CEE92E00E94CA0B60E07D
:100180008DE00C948F1186EF92E00E94850868EE56
:1001900073E080E090E00C94BF1086EF92E00E9444
:1001A000220521E041E06CE08CEE92E00C94650BBE
:1001B00080E691E09093F7028093F60286EF92E05A
:1001C0000C94F8046F927F928F929F92AF92BF929D
:1001D000CF92DF92EF92FF920F931F93CF93DF9313
:1001E000EC018B018A859B85892B09F474C0D12C85
:1001F0008C85D816E8F4ED2CF12C8E859F85F701BF
:10020000EE0FFF1FE00FF11F91838083EA85FB85CE
:10021000EE0DFF1D61E080810E948F11EA85FB8554
:10022000EE0DFF1D61E080810E945611D394E0CF56
:100230008AE090E00E94E710D12C8C85D816A0F4BB
:10024000ED2CF12CEA85FB85EE0DFF1D60E0808131
:100250000E945611EA85FB85EE0DFF1D60E080814E
:100260000E948F11D394E9CF0E949C106B017C01F6
:100270000E949C106C197D098E099F092E853F856F
:100280004901A12CB12C681579058A059B0518F543
:100290000E949C103B016C187D08912C8C8598164F
:1002A00038F7A92CB12CAA85BB85AA0DBB1D8C9152
:1002B0000E94C511892B51F4F501EE0FFF1FE00FCD
:1002C000F11F808191816816790610F09394E6CF32
:1002D00071826082FBCFDF91CF911F910F91FF90D0
:1002E000EF90DF90CF90BF90AF909F908F907F90D6
:1002F0006F900895EF92FF920F931F93CF93DF9328
:100300001F92CDB7DEB77C018B01DC0113961C92E6
:100310001E92129715961C921E92149717961C9275
:100320001E92169719961C921E921897413120F032
:1003300080E11C968C9302C0FC014487D7011A9679
:100340008D919C911B97892B11F030E00FC0F70124
:10035000848590E029830E944D18D7011B969C93B9
:100360008E931A972981892B81F715C0F70184850F
:10037000381780F4832F90E0F801E80FF91F4081CF
:10038000D7011A96ED91FC911B97E80FF91F408356
:100390003F5FECCF25870F90DF91CF911F910F9199
:1003A000FF90EF900895CF93DF93EC018D858F3F01
:1003B00069F061E00E94561160E08D850E948F1106
:1003C00088EC90E0DF91CF910C94E710DF91CF9112
:1003D0000895CF93DF93EC018D858F3F69F061E045
:1003E0000E94561161E08D850E948F1188EC90E08B
:1003F000DF91CF910C94E710DF91CF910895DF92B8
:10040000EF92FF920F931F93CF93DF93CDB7DEB799
:10041000A0970FB6F894DEBF0FBECDBF8C017B0155
:10042000D42E8FEF840F823020F4C8010E94E9019E
:1004300003C0C8010E94D301D801ED91FC91019045
:10044000F081E02DB701C8010995C8010E94D301D0
:10045000B2E0DB122FC0D801ED91FC910190F08148
:10046000E02DBE016F5F7F4FC801099540E0F801A4
:1004700084854817F8F4842F90E0880F991FF701BE
:10048000E80FF91F21E030E02C0F3D1F820F931F72
:10049000D8011E962D913C911F97DC018D919C9166
:1004A000281B390B80819181820F931F9183808358
:1004B0004F5FDDCFA0960FB6F894DEBF0FBECDBF65
:1004C000DF91CF911F910F91FF90EF90DF900895F2
:1004D0002F923F925F926F927F928F929F92AF92F4
:1004E000BF92CF92DF92EF92FF920F931F93CF9321
:1004F000DF93CDB7DEB7C056D1090FB6F894DEBF93
:100500000FBECDBF8C014B015A01522EDA018D91E5
:100510009C91892B31F0F40180819181892BF1F438
:1005200024C0D8011C968C9190E0880F991F0E94DE
:100530004D18F50191838083009709F4B1C0FC0147
:1005400020E030E0D8011C968C9190E02817390704
:1005500014F7119211922F5F3F4FF4CFE12CF12C41
:100560006E01B1E2CB0ED11C21C0F801848590E070
:10057000880F991F0E944D18D4018D939C9300976A
:1005800009F48EC0FC0120E030E0D8011C968C916B
:1005900090E02817390714F7D8011E968D919C9189
:1005A0001F97819391932F5F3F4FEFCF452DBE0152
:1005B0006F5B7F4FC8010E94FF01F8016484712CBA
:1005C000FE01EF5BFF4FC6019E012F5F3F4F1901F8
:1005D00020E030E0261537054CF5E114F10489F0F0
:1005E000DC016D917C91408151816417750748F061
:1005F000D1016D917C91408151814617570748F098
:100600000DC040815181DC014D935C93E114F104F4
:1006100079F740815181D1014D935C932F5F3F4F1A
:10062000B2E02B0E311C32960296D4CFEFEFEE1AC9
:10063000FE0AFAE0EF16F10409F0B8CF9E012F5F31
:100640003F4F7901360180E090E0F801248530E0E9
:10065000821793072CF5D7012D913D917D01B301B0
:100660006C197D09D501ED91FC91E60FF71F4081D2
:1006700051814217530710F431832083F3012191F4
:1006800031913F01D401ED91FC91E60FF71F4081BC
:1006900051812417350710F4318320830196D5CF7B
:1006A000C05ADF4F0FB6F894DEBF0FBECDBFDF914B
:1006B000CF911F910F91FF90EF90DF90CF90BF905F
:1006C000AF909F908F907F906F905F903F902F9012
:1006D00008951F93CF93DF93EC01162F8FEF860FB2
:1006E000823018F0662369F019C021E0AE014C5F3A
:1006F0005F4FBE016E5F7F4FCE010E9468021230D5
:1007000069F4AE01485F5F4FBE016A5F7F4F20E032
:10071000CE01DF91CF911F910C946802DF91CF91B0
:100720001F910895BF92CF92DF92EF92FF920F93A5
:100730001F93CF93DF93EC018B01B42E842F8D7F19
:1007400051F48E819F81892B09F497C08885998502
:10075000892B09F492C08FEF8B0D823050F48A817F
:100760009B81892B09F489C08C819D81892B09F497
:1007700084C04B2DB801CE010E94FF01780100E03A
:1007800010E0C12CD12C8C8590E0C816D9060CF055
:1007900074C081E0B8120AC0EC81FD81E00FF11F46
:1007A0000190F081E02DAA81BB810DC08E819F81D7
:1007B00028853985B1100CC0F901E00FF11F0190B7
:1007C000F081E02DDC01A00FB11F8D919C9128C01C
:1007D000FC01E00FF11F40815181EA81FB81E00FB4
:1007E000F11F80819181EE85FF854817590710F42C
:1007F000CF0104C08E0F9F1F841B950BD901A00F42
:10080000B11F2D913C91AC81BD81A00FB11F4D91C5
:100810005C912417350720F0E40FF51FE21BF30B62
:10082000E81BF90BA9F0D7012D913C9140E050E075
:10083000281B390B41095109A8EEB3E00E940B17A0
:100840009F0140E050E00E94E51637FD0AC002C05B
:1008500020E030E0293EB3E03B072CF028EE33E007
:1008600002C020E030E0F701219331937F01FFEFD8
:10087000CF1ADF0A0E5F1F4F86CFDF91CF911F91F6
:100880000F91FF90EF90DF90CF90BF9008952F923F
:100890003F924F925F926F927F928F929F92AF9210
:1008A000BF92CF92DF92EF92FF920F931F93CF935D
:1008B000DF93EC018B01822E0E9492032C84E801CD
:1008C000412C512C320100E010E0C12CD12C7601DA
:1008D000312C912CE8EEAE2EE3E0BE2E921421F1E5
:1008E000E991F991882021F0C5018E1B9F0BFC0135
:1008F000E93CF10524F4E333F10574F002C033243C
:100900003394DF01A30192010E941617C60ED71E71
:10091000E81EF91E0E0F1F1F939498EE490E93E0E8
:10092000591E611C711CDACF31101EC0492D50E0D8
:100930004150510924EF31E0429FC001439F900D87
:10094000529F900D11242091150330911603281702
:100950003907B4F088EE93E0489F9001499F300D2D
:10096000589F300D11240EC0980140E050E0C7019F
:10097000B6010E94C316309316032093150302C0DC
:1009800020E030E0C901DF91CF911F910F91FF90DE
:10099000EF90DF90CF90BF90AF909F908F907F901F
:1009A0006F905F904F903F902F900895FC0180E6EC
:1009B00091E09183808313821282158214821782C0
:1009C000168211861086138612860895EF92FF9282
:1009D0000F93CF93DF93EC017901202F0E947A01CE
:1009E000FF86EE86DF91CF910F91FF90EF900895F3
:1009F000CF93DF93EC018AE591E0998388838A8520
:100A00009B85009711F00E94E5188C819D810097CD
:100A100011F00E94E51888859985009711F00E94D1
:100A2000E5188A819B81009711F00E94E5188E815C
:100A30009F81009721F0DF91CF910C94E518DF9111
:100A4000CF910895CF93DF93EC010E94D6048BEBF6
:100A500092E0998388831C8E1E8E1D8EDF91CF912C
:100A60000895EF92FF920F931F93CF93DF9300D0DF
:100A700000D000D0CDB7DEB77C0186E0E6E0F1E043
:100A8000DE01119601900D928A95E1F702E020EDCA
:100A900037E046E0BE016F5F7F4FC7010E94E6046A
:100AA00005EF1FEF0431110520F0C8018897449726
:100AB00028F468EC70E088E39FEF04C068E37FEF00
:100AC00088EC90E00E94220F61E0C7010E94690358
:100AD00064E170E080E090E00E94BF100F5F1F4F64
:100AE00005341105F9F660E070E080E090E00E94C6
:100AF000220F26960FB6F894DEBF0FBECDBFDF9152
:100B0000CF911F910F91FF90EF9008954F925F92B8
:100B10006F927F928F929F92AF92BF92EF92FF92CD
:100B20000F931F93CF934B0162E671E089E194E04C
:100B30000E942814181419041CF46BE671E002C01A
:100B40006FE671E089E194E00E9435140E949E08EE
:100B50000E94AD080E949F150E947C090E946C159E
:100B6000AA2497FCA094BA2C680D791D8A1D9B1DA0
:100B70000E949F150E947C090E946C152B013C016C
:100B80000E94AD0864197509860997090E949F158E
:100B90000E947C094B015C019F77E12CF12C00E85D
:100BA0001FE320E030E040E85FEB0E94AC09C82F73
:100BB00020E030E0A901C501B4010E94AB1618166F
:100BC0002CF46AE67FEF86E990E004C066E970E005
:100BD0008AE69FEF0E94220FCC2391F260E070E042
:100BE00080E090E0CF911F910F91FF90EF90BF9028
:100BF000AF909F908F907F906F905F904F900C94EC
:100C0000220F87E193E00E94F00F69E370E00E94F9
:100C1000AF16CB0108950F931F93CF93DF93EC0191
:100C20008D8D9E8D01969E8F8D8F65E871E089E197
:100C300094E00E94351405E010E0CE010E94010608
:100C40001816190674F464E971E089E194E00E94D1
:100C500028146D8D7E8D4AE050E089E194E00E9479
:100C6000EA146AE570E0CE010E94860564EF71E047
:100C700080E090E00E94BF1001501109F1F661EB95
:100C800071E089E194E00E9428146D8D7E8D4AE028
:100C900050E089E194E00E94EA146EEC71E089E191
:100CA00094E00E94351464E670E080E090E0DF910B
:100CB000CF911F910F910C94BF10FC0120893189B5
:100CC000828993892F31310594F08F3191057CF021
:100CD000208D318D2F3131052CF0428D538D4F31C8
:100CE00051051CF42F31310514F081E008954F9720
:100CF00054F0808D918D4F9734F081E0228D338DAB
:100D00002F3131050CF480E008950F931F93CF939A
:100D1000DF93EC018C01005F1F4FCE010E945D0646
:100D2000811111C020E041E0B801CE010E944704CA
:100D3000888999894F9764F58A899B894F9744F5EB
:100D400080E090E027C08E01005F1F4FCE010E941F
:100D50005D06882389F120E041E0B801CE010E94C0
:100D60004704888999894F971CF080EB9FEF02C058
:100D700080E090E00E94DC0E8A8D9B8D4F971CF0E6
:100D800080EB9FEF02C080E090E00E94FF0EDECF7C
:100D900080E590E00E94DC0E888D998D4F9724F4B9
:100DA0008A8D9B8D4F971CF080E590E002C080E01B
:100DB00090E00E94FF0EB1CFDF91CF911F910F9174
:100DC00008954F925F926F927F92AF92BF92CF92AF
:100DD000DF92EF92FF920F931F93CF93DF93EC017B
:100DE0005B016CED71E089E194E00E9435148E01A5
:100DF000005F1F4F20E041E0B801CE010E94470490
:100E00000E9490106B01EE24D7FCE094FE2C25018B
:100E1000662457FC6094762CCE010E945D068111F9
:100E200033C00E9490106C197D098E099F096415CA
:100E300075058605970518F0A114B10429F520E081
:100E400041E0B801CE010E944704888999894F97F3
:100E50003CF08A899B894F971CF080E090E002C0AB
:100E600084E690E00E94DC0E888D998D4F973CF0CF
:100E70008A8D9B8D4F971CF080E090E002C084E645
:100E800090E00E94FF0EC8CFCE010E945D0688232D
:100E900021F0CE010E94850681E0DF91CF911F9164
:100EA0000F91FF90EF90DF90CF90BF90AF907F9029
:100EB0006F905F904F900895CF93DF93EC0166EAB7
:100EC0007FEF0E94860560ED77E0CE010E94E1068B
:100ED000811102C0C0E018C06AE570E0CE010E9436
:100EE00086056AE570E0CE010E94860560ED77E038
:100EF000CE010E94E106C82F882361F36EEE71E0F7
:100F000089E194E00E9435148C2FDF91CF910895F0
:100F1000FF920F931F93CF93DF93EC018B0169E155
:100F200072E089E194E00E94351466EA7FEFCE0119
:100F30000E94860564EF71E0CE010E94E106F82E62
:100F40006AE570E0CE010E9486056AE570E0CE0198
:100F50000E94860564EF71E0CE010E94E1068111D6
:100F600006C0F11004C0B801CE010E940B066BE26E
:100F700072E089E194E00E94351464E670E084E652
:100F800090E00E94220F60E070E0CE010E94E10636
:100F90000130110529F566EA7FEFCE010E94860532
:100FA00060ED77E0CE010E94E106882321F0CE01BA
:100FB0000E945C0747C066EA7FEFCE010E9486056B
:100FC00060ED77E0CE010E94E10681112DC068E35B
:100FD00072E089E194E00E94351461E070E020C085
:100FE0006AE570E0CE010E94860560ED77E0CE01F3
:100FF0000E94E1068111DBCF66EA7FEFCE010E94FD
:10100000860560ED77E0CE010E94E10681110CC0FB
:1010100066E572E089E194E00E94351462E070E0D8
:10102000CE010E9488070EC060ED77E0CE010E94DD
:10103000E1068111BCCF65E772E089E194E00E948E
:10104000351401C080E0DF91CF911F910F91FF9087
:101050000895CF93DF93EC016BE872E089E194E0AF
:101060000E94351466EA7FEFCE010E94860560ED8E
:1010700077E0CE010E94E106811109C066E572E0C9
:1010800089E194E00E94351461E070E019C06AE5DE
:1010900070E0CE010E9486056AE570E0CE010E94F4
:1010A000860560ED77E0CE010E94E10681110CC05B
:1010B00068E372E089E194E00E94351462E070E038
:1010C000CE010E9488071DC066EA7FEFCE010E9414
:1010D000860564E670E084E690E00E94220F68EEE8
:1010E00073E0CE010E94E106882351F065E972E0C9
:1010F00089E194E00E943514CE010E945C0701C092
:1011000001C080E0DF91CF9108950C94290821E07F
:1011100041E06CE087E393E00E94650B8AE293E094
:101120000E94D40989E293E00E94B40E22E330E0E9
:1011300042E066E087E193E00C942C0F0E949C1043
:101140007093420360934103109247031092480347
:101150001092490310924A0308958F929F92AF9282
:10116000BF92CF92DF92EF92FF920F931F938AE28A
:1011700093E00E942E0A80912E0390912F032091DC
:10118000430330914403821B930B90934603809357
:1011900045030E949C102091410330914203AB0112
:1011A000421B530B9A017093420360934103A09139
:1011B0004503B09146030E94041720E030E040EE62
:1011C00050E00E941E17EDE8AE2EF8E3BF2EACE013
:1011D000CA2EDD24D394E12CF12C00E010E00E9413
:1011E0005A1749015A018091470390914803A091F1
:1011F0004903B0914A03880D991DAA1DBB1D809318
:10120000470390934803A0934903B0934A039D0179
:10121000552737FD5095452FA8E6B1E00E940B17E2
:10122000BC01992777FD9095892F1F910F91FF9011
:10123000EF90DF90CF90BF90AF909F908F900895E8
:10124000CF92DF92EF92FF92CF93DF938BE493E004
:101250000E946B0C42E050E063E070E08AE293E0B1
:101260000E94D80A4FEF60E28AE293E00E94DD0913
:1012700040E263E28AE293E00E94DD0940E064E23A
:101280008AE293E00E94DD0964EF71E080E090E083
:101290000E94BF10C0E0D4E0C12CD12C760167E2DF
:1012A0008AE293E00E94060A8AE293E00E942E0AF4
:1012B00080912E0390912F03AA2797FDA095BA2F16
:1012C000C80ED91EEA1EFB1E219749F7C701B601B9
:1012D00020E034E040E050E00E94E5163093440303
:1012E000209343030E949E08DF91CF91FF90EF90DF
:1012F000DF90CF900C94AD08CF92DF92EF92FF92E7
:1013000020E030E044E353E40E94041520E030E0A4
:1013100044EB53E40E94E1156B017C0120E030E0D6
:10132000A9010E94681587FF0AC020E030E044EB65
:1013300053E4C701B6010E9404156B017C0120E053
:1013400030E044E353E4C701B6010E940315FF9067
:10135000EF90DF90CF9008958F929F92AF92BF92BF
:10136000CF92DF92EF92FF920F931F934B015C019C
:10137000670178010E94AB16181654F4A701960174
:10138000C501B4010E946815881F8827881F01C005
:1013900080E01F910F91FF90EF90DF90CF90BF9072
:1013A000AF909F908F900895FC0183E090E090872C
:1013B00087831386128614860895EF92FF921F93F7
:1013C000CF93DF931F92CDB7DEB77C01162FFC01C0
:1013D00061858BE493E049830E94850C612F8BE447
:1013E00093E00E942C0C4981642F8BE493E00E94CF
:1013F0002C0C8BE493E00E94A20CF70186830F90E3
:10140000DF91CF911F91FF90EF9008951F93CF939D
:10141000DF93EC01162F69858BE493E00E94850C25
:10142000612F8BE493E00E942C0C8BE493E00E94EC
:10143000A20C8E8341E069858BE493E00E94820CCC
:101440008BE493E00E94DC0BC82F8BE493E00E94B6
:10145000A20C8C2FDF91CF911F9108959F92AF9294
:10146000BF92CF92DF92EF92FF920F931F93CF9391
:10147000DF93EC0169858BE493E00E94850CE09199
:101480004B03F0914C030190F081E02D68EA8BE46E
:1014900093E009958BE493E00E94A20C46E06985F5
:1014A0008BE493E00E94820C0E9490107B018BE4FD
:1014B00093E00E94D40B069784F48A859B85892B40
:1014C000B1F30E9490106E197F098A859B8586175B
:1014D000970768F781E08C872CC08BE493E00E942B
:1014E000DC0BA82E8BE493E00E94DC0B982E8BE49F
:1014F00093E00E94DC0BE82E8BE493E00E94DC0B6F
:10150000B82E8BE493E00E94DC0BF82E8BE493E082
:101510000E94DC0BD92CC12CCA28D982C8821B2D71
:1015200000E00E291B830A83982F88278F299D832B
:101530008C83DF91CF911F910F91FF90EF90DF90FF
:10154000CF90BF90AF909F9008951F93CF93DF935C
:101550001F92CDB7DEB7162F8BE493E049830E942C
:10156000850C4981642F8BE493E00E942C0C8BE462
:1015700093E00E94A20C811114C041E0612F8BE422
:1015800093E00E94820C8BE493E00E94D40B892BA1
:1015900041F08BE493E00F90DF91CF911F910C9479
:1015A000DC0B8FEF9FEF0F90DF91CF911F9108958C
:1015B000EF92FF920F931F93CF93DF937C01EB0188
:1015C0008A016330710521F04230510509F051C0A4
:1015D000CE010197039758F50115110581F04FE0F1
:1015E00050E06BE6C7010E94A50A8F3F2FEF9207DC
:1015F00019F001E010E013C00130110551F04FE087
:1016000050E06AE6C7010E94A50A8F3FEFEF9E07F0
:1016100021F4C330D10569F027C000E010E0C330E9
:10162000D10529F4873D9105F1F5C2E0D0E020977E
:10163000D9F40115110561F04FE050E069E6C701EA
:101640000E94A50A833D910589F10130110549F0F9
:101650004FE050E068E6C7010E94A50A833D91056E
:1016600041F1C330D10519F00230110511F480E0C9
:1016700025C0F701D087C783209759F0D7FD11C047
:1016800023977CF40130110511F48BE608C08AE63B
:1016900006C00130110511F489E601C088E6F701A2
:1016A000818781E00BC0C1E0D0E0C1CF01E010E054
:1016B00002C000E010E0C0E0D0E0D6CFDF91CF91D3
:1016C0001F910F91FF90EF900895FC01608341837B
:1016D0002283138214821682158210861782118645
:1016E0000895FC018181813011F462E001C060E065
:1016F00080810E94561185E090E00C94E710FC0177
:101700002185211104C021E021870C94710B0895DB
:10171000CF93DF93EC0188810E94C51121E0892BD2
:1017200009F020E081E09A81911180E08227DF9129
:10173000CF910895CF93DF93EC010E947F0BCE01F0
:101740000E94880B8823D9F36AE070E080E090E083
:101750000E94BF10CE010E94880B882381F3DF9185
:10176000CF910895CF93DF93EC010E947F0BCE01C0
:101770000E94880B8111FBCF6AE070E080E090E06E
:101780000E94BF10CE010E94880B8111F0CFDF9123
:10179000CF910895CF93DF93EC010E949A0BCE0175
:1017A000DF91CF910C94B20B80917B0390E020915C
:1017B0007C03821B9109089520917C0380917B0317
:1017C000281750F4E22FF0E0E358FC4F808190E0BE
:1017D0002F5F20937C0308958FEF9FEF0895E09192
:1017E0007C0380917B03E81730F4F0E0E358FC4F72
:1017F000808190E008958FEF9FEF08950895CF9234
:10180000DF92EF92FF920F931F93CF93DF937C01B0
:10181000CB018A0120915703222389F0EB016B0150
:10182000C40ED51ECC15DD0569F06991D701ED9187
:10183000FC910190F081E02DC7010995F3CF642F51
:101840000E945E0DC801DF91CF911F910F91FF9013
:10185000EF90DF90CF900895CF93DF931F92CDB795
:10186000DEB76983209157032223D1F020915803DA
:10187000203240F021E030E0FC013383228380E01D
:1018800090E015C080915903E82FF0E0E65AFC4F34
:10189000998190838F5F809359038093580305C08B
:1018A00061E0CE0101960E945E0D81E090E00F9014
:1018B000DF91CF910895FC011382128248EE53E02C
:1018C00060E070E0448355836683778381EC92E027
:1018D00091838083089510927C0310927B03109271
:1018E0005903109258030C94A90C862F413208F02A
:1018F00040E26DE773E00E94C70C10927C03809376
:101900007B03089521E00C94750C81E080935703CC
:1019100060937A03109259031092580308950F931D
:10192000062F21E0409158036AE573E080917A0325
:101930000E940B0D109259031092580310925703F6
:101940000F91089561E00C948F0C8BE493E00C945C
:101950005B0C10920A0481E0809308041092070443
:1019600061E082E10E948F1161E083E10E948F11AA
:10197000E9EBF0E080818E7F808380818D7F8083A2
:1019800088E48093B80085E48093BC0008954132D8
:1019900008F03FC090910A049111FCCF91E0909320
:1019A0000A04209308042FEF20939D031092E20372
:1019B000240F2093E1039093090490910904880F68
:1019C000892B8093090480910704813041F410929F
:1019D0000704809109048093BB0085EC01C085EE6B
:1019E0008093BC0080910A048130E1F38091E2038E
:1019F000841710F44091E20323EE33E0FB01D90198
:101A00008A2F821B841718F48D918193F9CF842F2C
:101A1000089580E008950F93413208F046C09091F8
:101A20000A049111FCCF92E090930A0400930804F9
:101A30009FEF90939D031092E2034093E103FB011B
:101A400063EE73E0DB019A2F961B941718F49191C3
:101A50009D93F9CF1092090490910904880F892B66
:101A60008093090480910704813041F410920704A7
:101A7000809109048093BB0085EC01C085EE8093C2
:101A8000BC00222321F080910A048230E1F380918E
:101A90009D038F3F61F080919D03803251F08091D2
:101AA0009D03803341F483E007C081E005C080E0FE
:101AB00003C082E001C084E00F910895613298F480
:101AC00020910A04243089F46093BF03FC0181EC67
:101AD00093E0DC012A2F281B261718F421912D935F
:101AE000F9CF80E0089581E0089582E0089585EDC2
:101AF0008093BC008091BC0084FDFCCF10920A044E
:101B0000089585EC8093BC0010920A0408951F92FA
:101B10000F920FB60F9211242F933F934F935F9321
:101B20006F937F938F939F93AF93BF93EF93FF93A5
:101B30008091B900887F803609F49CC068F58832AE
:101B400009F45BC090F4803109F454C038F4882360
:101B500009F4F5C0883009F44DC0F5C0883109F4A6
:101B60004CC0803209F45DC0EEC0803409F468C016
:101B700048F4803309F455C0883309F0E4C08093F9
:101B80009D03A8C0803509F44FC0883509F45DC0B5
:101B9000883409F0D8C0D5C0883909F4C6C0A8F483
:101BA000883709F467C038F4883609F463C0803791
:101BB00009F460C0C8C0883809F4B7C0803909F496
:101BC0005FC0803809F0BFC05BC0803B09F485C0AE
:101BD00038F4803A09F466C0883A09F47EC0B3C08C
:101BE000803C09F4A6C0883C09F4A3C0883B09F4F2
:101BF00089C0A9C08091090410C09091E20380912E
:101C0000E103981770F5E091E20381E08E0F809375
:101C1000E203F0E0ED51FC4F80818093BB0085EC46
:101C200085C080939D038DC0E091E20381E08E0F1B
:101C30008093E2038091BB00F0E0ED51FC4F808384
:101C40009091E2038091E1036DC0E091E20381E0B5
:101C50008E0F8093E2038091BB00F0E0ED51FC4FCA
:101C600080838091080481116CC081E08093070417
:101C700084EA60C083E080930A0410929E03CFCF71
:101C800080919E03803208F050C0E0919E0381E075
:101C90008E0F80939E038091BB00F0E0E156FC4FD5
:101CA0008083BDCF80919E03803230F4E0919E030B
:101CB000F0E0E156FC4F10820E94770D60919E0388
:101CC00070E0E0910304F09104048FE993E009953A
:101CD00010929E030E94810D36C084E080930A0416
:101CE0001092C0031092BF03E0910504F091060426
:101CF00009958091BF03811105C081E08093BF03E6
:101D00001092C103E091C00381E08E0F8093C00365
:101D1000F0E0EF53FC4F80818093BB009091C003B3
:101D20008091BF03981708F47ACF85E88093BC00B0
:101D30000AC085EC8093BC0010920A0404C0109283
:101D40009D030E94770DFF91EF91BF91AF919F91FD
:101D50008F917F916F915F914F913F912F910F9054
:101D60000FBE0F901F901895089561E08AE00E94C1
:101D7000561161E089E00E94561161E088E00E94FE
:101D8000561161E087E00E94561180EA809380003E
:101D900081E18093810080E991E0909387008093B6
:101DA0008600089580910B04811105C081E0809325
:101DB0000B040C94B50E0895CF93DF93EC010E94B1
:101DC000D20ED7FF05C0D195C195D10981E001C0E0
:101DD00080E0C13991E0D90714F0C0E9D1E0D09397
:101DE0008B00C0938A0090910D04891711F061E077
:101DF00001C060E088E0DF91CF910C948F11CF9308
:101E0000DF93EC010E94D20ED7FF05C0D195C1959A
:101E1000D10981E001C080E0C13991E0D90714F017
:101E2000C0E9D1E0D0938900C093880090910C0460
:101E3000891711F061E001C060E087E0DF91CF9188
:101E40000C948F11CF93DF93EB010E94DC0ECE0137
:101E5000DF91CF910C94FF0ECF93DF93DC0170E004
:101E6000FB01E458FF4FE4911496EC931497842FF0
:101E700090E0FC01E458FF4FE4911596EC93159720
:101E800060577F4FFB01C491D0E0CC0FDD1FC255DE
:101E9000DF4FFE014591549117965C934E93169730
:101EA000FC01E057FF4F849190E0880F991F8C55FB
:101EB0009F4FFC014591549119965C934E9318974E
:101EC000FB016491E62FF0E0EE0FFF1FE854FF4F97
:101ED000859194911B969C938E931A972F5F3F4FF9
:101EE00049E3429FC001439F900D11248E38FFE6C5
:101EF0009F0710F08DE89FE61D969C938E931C978C
:101F0000DF91CF9108950F931F93CF93DF93EC014F
:101F1000EA85FB8580819C81892B8083EE81FF810E
:101F200090818C8180958923808384E090E00E9459
:101F3000E710EE81FF8180819C81892B80838AE07C
:101F400090E00E94E710EE81FF8190818C81809566
:101F500089238083EA85FB8590818C818095892304
:101F60008083E885F98580819D81892311F080E057
:101F700032C00E949C104C855D858A0120E030E0D3
:101F80000855194E2F4F3F4F060F171F281F391F97
:101F90000E871F87288B398BE885F98580819D8185
:101FA000892361F40E949C100E851F852889398938
:101FB000061717072807390778F7D9CF0E949C1012
:101FC0002C853D85620F731F811D911D6E877F8754
:101FD000888B998B81E0DF91CF911F910F910895AC
:101FE0000F931F93CF93DF93EC010E94830F8823FD
:101FF00089F0E885F98580819D81892371F00E94AF
:102000009C100E851F852889398906171707280710
:10201000390778F720E030E00CC00E949C102C8536
:102020003D85255031094E855F85241B350B260FD4
:10203000371FC901DF91CF911F910F9108951F9212
:102040000F920FB60F9211242F933F934F935F93EC
:102050006F937F938F939F93AF93BF93EF93FF9370
:10206000E0910E04F0910F040995FF91EF91BF915B
:10207000AF919F918F917F916F915F914F913F9120
:102080002F910F900FBE0F901F9018951F920F92D7
:102090000FB60F9211242F933F938F939F93AF937B
:1020A000BF938091110490911204A0911304B091F8
:1020B00014043091100423E0230F2D3720F40196EF
:1020C000A11DB11D05C026E8230F0296A11DB11D5B
:1020D000209310048093110490931204A09313048E
:1020E000B09314048091150490911604A0911704E4
:1020F000B09118040196A11DB11D80931504909311
:102100001604A0931704B0931804BF91AF919F9148
:102110008F913F912F910F900FBE0F901F901895A8
:102120002FB7F894609111047091120480911304F8
:10213000909114042FBF08953FB7F894809115042F
:1021400090911604A0911704B091180426B5A89B8D
:1021500005C02F3F19F00196A11DB11D3FBF662795
:10216000782F892F9A2F620F711D811D911D42E0DA
:10217000660F771F881F991F4A95D1F70895CF9250
:10218000DF92EF92FF92CF93DF936B017C010E946D
:102190009C10EB01C114D104E104F10489F00E9408
:1021A00002150E949C106C1B7D0B683E734090F3DF
:1021B00081E0C81AD108E108F108C851DC4FEACF24
:1021C000DF91CF91FF90EF90DF90CF900895823014
:1021D000910538F0880F991F880F991F059701976F
:1021E000F1F70895789484B5826084BD84B58160E8
:1021F00084BD85B5826085BD85B5816085BDEEE60F
:10220000F0E0808181608083E1E8F0E010828081ED
:1022100082608083808181608083E0E8F0E080815B
:1022200081608083E1EBF0E0808184608083E0EB7B
:10223000F0E0808181608083EAE7F0E08081846063
:1022400080838081826080838081816080838081BF
:10225000806880831092C1000895833081F028F453
:10226000813099F08230A1F008958730A9F088304C
:10227000B9F08430D1F4809180008F7D03C08091CB
:1022800080008F7780938000089584B58F7702C097
:1022900084B58F7D84BD08958091B0008F7703C091
:1022A0008091B0008F7D8093B0000895CF93DF932D
:1022B00090E0FC01E458FF4F2491FC01E057FF4FF0
:1022C0008491882349F190E0880F991FFC01E8541C
:1022D000FF4FA591B49182559F4FFC01C591D491B8
:1022E0009FB7611108C0F8948C91209582238C933C
:1022F000888182230AC0623051F4F8948C91322F85
:10230000309583238C938881822B888304C0F89432
:102310008C91822B8C939FBFDF91CF9108950F9367
:102320001F93CF93DF931F92CDB7DEB7282F30E0F6
:10233000F901E859FF4F8491F901E458FF4F1491D6
:10234000F901E057FF4F04910023C9F0882321F0E1
:1023500069830E942D116981E02FF0E0EE0FFF1FCD
:10236000E255FF4FA591B4919FB7F8948C916111FC
:1023700003C01095812301C0812B8C939FBF0F90C8
:10238000DF91CF911F910F910895CF93DF93282F65
:1023900030E0F901E859FF4F8491F901E458FF4F0B
:1023A000D491F901E057FF4FC491CC2391F08111F2
:1023B0000E942D11EC2FF0E0EE0FFF1FEC55FF4FA8
:1023C000A591B4912C912D2381E090E021F480E03F
:1023D00002C080E090E0DF91CF9108950E947419CF
:1023E000FC01818D228D90E0805C9F4F821B9109C2
:1023F0008F7399270895FC01918D828D981731F084
:10240000828DE80FF11D858D90E008958FEF9FEF8D
:102410000895FC01918D828D981761F0828DDF0106
:10242000A80FB11D5D968C91928D9F5F9F73928FC7
:1024300090E008958FEF9FEF08958DE893E1892B49
:1024400049F080E090E0892B29F00E948D138111E2
:102450000C9400000895FC01848DDF01A80FB11DCC
:10246000A35ABF4F2C91848D90E001968F739927CA
:10247000848FA689B7892C93A089B1898C918064B7
:102480008C93938D848D981306C00288F389E02D78
:1024900080818F7D80830895CF93DF93EC01888DB9
:1024A0008823C9F0EA89FB89808185FD05C0A88958
:1024B000B9898C9186FD0FC00FB607FCF5CF8081DE
:1024C00085FFF2CFA889B9898C9185FFEDCFCE0128
:1024D0000E942B12E7CFDF91CF910895CF92DF9228
:1024E000FF920F931F93CF93DF931F92CDB7DEB769
:1024F0006C0181E0D60158968C9358975B969C911D
:102500005B975C968C915C97981307C05096ED9101
:10251000FC915197808185FD2EC0F601038D10E05E
:102520000F5F1F4F0F731127F02EF601848DF812E5
:1025300011C00FB607FCF9CFD6015096ED91FC9172
:102540005197808185FFF1CFC60169830E942B12CC
:102550006981EBCF838DE80FF11DE35AFF4F608354
:10256000D6015B960C935B975296ED91FC91539735
:10257000808180620CC0D6015696ED91FC915797F0
:1025800060835096ED91FC915197808180648083A7
:1025900081E090E00F90DF91CF911F910F91FF901C
:1025A000DF90CF900895BF92CF92DF92EF92FF928B
:1025B000CF93DF93EC016A017B01B22EE889F989A0
:1025C00082E08083411581EE580761057105A1F015
:1025D00060E079E08DE390E0A70196010E94C316C8
:1025E000215031094109510956954795379527954D
:1025F000211580E1380798F0E889F989108260E8B0
:1026000074E88EE190E0A70196010E94C316215064
:102610003109410951095695479537952795EC851C
:10262000FD853083EE85FF852083188EEC89FD893A
:10263000B082EA89FB89808180618083EA89FB8995
:10264000808188608083EA89FB89808180688083BB
:10265000EA89FB8980818F7D8083DF91CF91FF9014
:10266000EF90DF90CF90BF9008951F920F920FB61A
:102670000F9211242F938F939F93EF93FF93E091E9
:102680002904F0912A048081E0912F04F091300414
:1026900082FD12C09081809132048F5F8F732091F0
:1026A0003304821751F0E0913204F0E0E75EFB4F13
:1026B000958F8093320401C08081FF91EF919F91AB
:1026C0008F912F910F900FBE0F901F9018951F9212
:1026D0000F920FB60F9211242F933F934F935F9356
:1026E0006F937F938F939F93AF93BF93EF93FF93DA
:1026F00089E194E00E942B12FF91EF91BF91AF917D
:102700009F918F917F916F915F914F913F912F9109
:102710000F900FBE0F901F90189589E194E00E94D2
:10272000F01121E0892B09F420E0822F0895109206
:102730001C0410921B0488EE93E0A0E0B0E08093AC
:102740001D0490931E04A0931F04B093200481EDF8
:1027500092E090931A048093190485EC90E0909392
:1027600026048093250484EC90E0909328048093C1
:10277000270480EC90E090932A048093290481EC54
:1027800090E090932C0480932B0482EC90E0909343
:102790002E0480932D0486EC90E090933004809377
:1027A0002F041092320410923304109234041092C9
:1027B0003504089508950E94F2100E94DA130E94D1
:1027C0009000CDE1D2E10E94C3002097E1F30E9486
:1027D0001D12F9CFCF92DF92EF92FF920F931F93CA
:1027E000CF93DF936C017A01EB01E60EF71E00E058
:1027F00010E0CE15DF0561F06991D601ED91FC91F5
:102800000190F081E02DC6010995080F191FF1CF45
:10281000C801DF91CF911F910F91FF90EF90DF9052
:10282000CF9008956115710581F0DB010D900020B6
:10283000E9F7AD0141505109461B570BDC01ED9101
:10284000FC910280F381E02D099480E090E00895EE
:102850000C941214DC01ED91FC910190F081E02DBB
:1028600009946DED72E00C9412140F931F93CF93A3
:10287000DF93EC010E9412148C01CE010E943114EE
:10288000800F911FDF91CF911F910F9108958F922B
:102890009F92AF92BF92CF92DF92EF92FF920F93EF
:1028A0001F93CF93DF93CDB7DEB7A1970FB6F89400
:1028B000DEBF0FBECDBF7C01C42EE52FCB01D22ED3
:1028C00019A221E02D1510F02AE0D22E8E010F5D05
:1028D0001F4F8D2C912CA12CB12C6C2D7E2FA5017E
:1028E00094010E94C3168C2DD29E80191124015090
:1028F00011098A3014F4805D01C0895CF80180837D
:10290000211531054105510521F0C22EE32FCA01E1
:10291000E4CFB801C7010E941214A1960FB6F89433
:10292000DEBF0FBECDBFDF91CF911F910F91FF9002
:10293000EF90DF90CF90BF90AF909F908F900895D1
:10294000CF92DF92EF92FF920F931F93CF93DF937B
:10295000EC016A017B012115310579F4E881F981E7
:102960000190F081E02D642FDF91CF911F910F91A5
:10297000FF90EF90DF90CF9009942A303105E9F471
:1029800077FF1AC06DE20E942A148C014427552754
:10299000BA014C195D096E097F092AE0CE010E9437
:1029A0004714800F911FDF91CF911F910F91FF90DE
:1029B000EF90DF90CF9008952AE0B701A601CE01F5
:1029C000DF91CF911F910F91FF90EF90DF90CF900B
:1029D0000C9447140F931F93CF93DF93EC019A014C
:1029E000AB01662757FD6095762F0E94A0148C01DD
:1029F000CE010E943114800F911FDF91CF911F9162
:102A00000F91089508955058BB27AA270ED069C189
:102A10005AD130F05FD120F031F49F3F11F41EF411
:102A20004FC10EF4E095E7FB37C1E92F6BD180F37E
:102A3000BA17620773078407950718F071F49EF5BB
:102A400083C10EF4E0950B2EBA2FA02D0B01B90116
:102A500090010C01CA01A0011124FF27591B99F014
:102A6000593F50F4503E68F11A16F040A22F232F20
:102A7000342F4427585FF3CF469537952795A79570
:102A8000F0405395C9F77EF41F16BA0B620B730B17
:102A9000840BBAF09150A1F0FF0FBB1F661F771F88
:102AA000881FC2F70EC0BA0F621F731F841F48F43D
:102AB000879577956795B795F7959E3F08F0B3CFC3
:102AC0009395880F08F09927EE0F979587950895AD
:102AD000BFD008F481E0089504D06894B11135C1E5
:102AE000089518D188F09F5790F0B92F9927B751C2
:102AF000A0F0D1F0660F771F881F991F1AF0BA95C2
:102B0000C9F712C0B13081F01FD1B1E008951CC1E6
:102B1000672F782F8827B85F39F0B93FCCF38695B7
:102B200077956795B395D9F73EF490958095709514
:102B300061957F4F8F4F9F4F0895E89409C097FB91
:102B40003EF490958095709561957F4F8F4F9F4F84
:102B50009923A9F0F92F96E9BB279395F6958795C8
:102B600077956795B795F111F8CFFAF4BB0F11F48B
:102B700060FF1BC06F5F7F4F8F4F9F4F16C0882332
:102B800011F096E911C0772321F09EE8872F762F68
:102B900005C0662371F096E8862F70E060E02AF0A9
:102BA0009A95660F771F881FDAF7880F9695879595
:102BB00097F9089588D018F011F08CD038F480C0BF
:102BC000C4C0E92F9FD0B0F35523C9F3E7FB6217C8
:102BD000730784079507A8F199F3E92FFF27882346
:102BE0002AF03197660F771F881FDAF7952F552740
:102BF000442332F091505040220F331F441FD2F72C
:102C0000BB27E91BF50B621B730B840BB109C1F2E7
:102C100022F4620F731F841FB11D31972AF0660FD3
:102C2000771F881FBB1FEFCF915050405AF041F0E3
:102C3000882332F0660F771F881F91505040C1F7EC
:102C4000939530C08695779567959F5FD9F7F8CFB4
:102C5000990F0008550FAA0BE0E8FEEF16161706AD
:102C6000E807F907C0F012161306E407F50798F015
:102C7000621B730B840B950B39F40A2661F0232B2E
:102C8000242B252B21F408950A2609F4A140A695AA
:102C90008FEF811D811D089597F99F6780E870E08F
:102CA00060E008959F3F31F0915020F4879577952B
:102CB0006795B795880F911D9695879597F9089513
:102CC0009FEF80EC089500240A9416161706180644
:102CD0000906089500240A94121613061406050620
:102CE0000895092E0394000C11F4882352F0BB0FB1
:102CF00040F4BF2B11F460FF04C06F5F7F4F8F4F14
:102D00009F4F089557FD9058440F551F59F05F3F4E
:102D100071F04795880F97FB991F61F09F3F79F0FD
:102D200087950895121613061406551FF2CF46957F
:102D3000F1DF08C0161617061806991FF1CF869501
:102D40007105610508940895E894BB2766277727E5
:102D5000CB0197F908957CDF08F48FEF0895AA1B43
:102D6000BB1B51E107C0AA1FBB1FA617B70710F076
:102D7000A61BB70B881F991F5A95A9F780959095A8
:102D8000BC01CD010895A1E21A2EAA1BBB1BFD01B7
:102D90000DC0AA1FBB1FEE1FFF1FA217B307E4073A
:102DA000F50720F0A21BB30BE40BF50B661F771F92
:102DB000881F991F1A9469F7609570958095909572
:102DC0009B01AC01BD01CF010895052E97FB1EF4B8
:102DD00000940E94FC1657FD07D00E94C31607FC02
:102DE00003D04EF40C94FC165095409530952195E7
:102DF0003F4F4F4F5F4F0895909580957095619527
:102E00007F4F8F4F9F4F08950E943518B7FF089549
:102E1000821B930B08950E943518A59F900DB49FB7
:102E2000900DA49F800D911D11240895B7FF0C945F
:102E30000B170E940B17821B930B089597FB57FFEC
:102E40000C942E179F938F930E942E176E1B7F0B4F
:102E5000AF91BF918A0B9B0B0895E894DF93CF93BA
:102E6000FC01DB010E9435187F936F93E9019A0101
:102E7000AC01BF93AF933F932F93DF010E943518AE
:102E800026F46C1B7D0B820B930B9E01EB01FC0166
:102E90000E944418AF91BF912F913F910E94441816
:102EA000BE01CF01F9012F913F91CF91DF9108959C
:102EB000689401C0E894F92FF12B12F00C948C1750
:102EC000A0E0B0E0E6E6F7E10C94FE17092E0594C9
:102ED00022F40E94E817112392F4F0E80F26FFEF86
:102EE000E094F09400951095B094C094D094A1947F
:102EF000BF0ACF0ADF0AEF0AFF0A0F0B1F0B0E945F
:102F0000971707FC0E94E817CDB7DEB7ECE00C94EA
:102F10001A18689401C0E8948F929F92CF93DF9320
:102F20000E949717DF91CF919F908F9008958824EA
:102F30009924F401E401B0E49F93AA279A158B0425
:102F40009C04ED05FE05CF05D007A10798F4AD2F31
:102F5000DC2FCF2FFE2FE92D982C892E982F872F2D
:102F6000762F652F542F432F322F2227B85031F759
:102F7000BF9127C01B2EBF91BB27220F331F441FB9
:102F8000551F661F771F881F991F881C991CEE1FED
:102F9000FF1FCC1FDD1FAA1FBB1F8A149B04EC055B
:102FA000FD05CE05DF05A007B10748F08A189B088C
:102FB000EC09FD09CE09DF09A00BB10B21601A94C1
:102FC000E1F62EF49401AF01BE01CD01000C08958D
:102FD0006095709580959095309540955095219588
:102FE0003F4F4F4F5F4F6F4F7F4F8F4F9F4F089512
:102FF0002F923F924F925F926F927F928F929F9209
:10300000AF92BF92CF92DF92EF92FF920F931F93F6
:10301000CF93DF93CDB7DEB7CA1BDB0B0FB6F894A7
:10302000DEBF0FBECDBF09942A88398848885F84E7
:103030006E847D848C849B84AA84B984C884DF8058
:10304000EE80FD800C811B81AA81B981CE0FD11D3C
:103050000FB6F894DEBF0FBECDBFED010895EE0FA1
:10306000FF1F0590F491E02D0994A29FB001B39F3A
:10307000C001A39F700D811D1124911DB29F700D81
:10308000811D1124911D08950E943518460F571F68
:10309000C81FD91F08F431960895CF93DF9382306B
:1030A000910510F482E090E0E091B804F091B90449
:1030B00020E030E0A0E0B0E0309739F1408151816C
:1030C00048175907B8F04817590771F4828193815E
:1030D000109729F013969C938E9312972CC090937F
:1030E000B9048093B80427C02115310531F0421787
:1030F000530718F0A901DB0101C0EF019A01BD01DE
:10310000DF010280F381E02DD7CF21153105F9F0E1
:10311000281B390B2430310580F48A819B8161158D
:10312000710521F0FB019383828304C09093B9045D
:103130008093B804FE01329644C0FE01E20FF31FF3
:103140008193919322503109398328833AC0209189
:10315000B6043091B704232B41F420910201309141
:1031600003013093B7042093B604209100013091FD
:1031700001012115310541F42DB73EB740910401FD
:1031800050910501241B350BE091B604F091B70472
:10319000E217F307A0F42E1B3F0B2817390778F02E
:1031A000AC014E5F5F4F2417350748F04E0F5F1F8D
:1031B0005093B7044093B6048193919302C0E0E02A
:1031C000F0E0CF01DF91CF910895CF93DF93009787
:1031D00009F487C0FC01329713821282C091B804AF
:1031E000D091B904209781F420813181280F391FB3
:1031F0008091B6049091B7048217930779F5F09304
:10320000B704E093B6046DC0DE0120E030E0AE17F5
:10321000BF0750F412964D915C9113979D01411593
:10322000510509F1DA01F3CFB383A28340815181C3
:10323000840F951F8A179B0771F48D919C911197AC
:10324000840F951F02969183808312968D919C9195
:103250001397938382832115310529F4F093B904E0
:10326000E093B8043EC0D9011396FC93EE931297F5
:103270004D915D91A40FB51FEA17FB0779F480818A
:103280009181840F951F0296D90111969C938E937C
:103290008281938113969C938E931297E0E0F0E0E5
:1032A0008A819B81009719F0FE01EC01F9CFCE01D4
:1032B000029628813981820F931F2091B6043091A4
:1032C000B7042817390769F4309729F41092B90424
:1032D0001092B80402C013821282D093B704C09334
:1032E000B604DF91CF91089581E090E0F8940C94BA
:1032F000791910E0CAECD0E004C0FE010E94311838
:0C3300002296CC3CD107C9F7F894FFCF0F
:10330C000000BA04800004110B0E10055072657396
:10331C007320627574746F6E20746F207374617295
:10332C00742063616C6962726174696F6E2E2E2EEB
:10333C000043616C696272617465642E2050726521
:10334C00737320627574746F6E20746F2073746164
:10335C0072742E2E2E0000000000EE1100000000F2
:10336C00E2007475726E696E672000616E74696339
:10337C006C6F636B77697365203930206465677295
:10338C006565732E004578706C6F72696E6720529C
:10339C006F6F6D00416E206F626A65637420776198
:1033AC007320666F756E6420696E20726F6F6D206E
:1033BC00004E6F206F626A656374207761732066BC
:1033CC006F756E6420696E20726F6F6D2000526F86
:1033DC006F6D206578706C6F7265640063686563EF
:1033EC006B696E6720666F722077616C6C0052653A
:1033FC00616368656420656E64206F6620636F721C
:10340C007269646F722C2072657475726E696E6766
:10341C0020746F206261736500436865636B696E2D
:10342C006720666F7220726F6F6D004578697469E2
:10343C006E6720526F6F6D00436865636B696E67D2
:10344C0020666F7220726F6F6D20746F206D792003
:10345C006C6566742E00436865636B696E672066E5
:10346C006F7220726F6F6D20746F206D792072698E
:10347C006768742E00526F6F6D2073686F756C6483
:10348C002062652065786974656400416476616EBC
:10349C0063696E6700546865726520617265206EA1
:1034AC006F20726F6F6D7320686572652E2041649A
:1034BC0076616E63652E0000000000E200000000E3
:1034CC00002C0CFF0BD40BDC0BEF0BFE0B000000E5
:1034DC00006E12EA13F0110912FB114C120D0A00C6
:0C34EC006E616E00696E66006F7666000F
:00000001FF
