:100000000C9466000C948E000C948E000C948E0060
:100010000C948E000C948E000C948E000C94FA0EAE
:100020000C948E000C948E000C948E000C948E0018
:100030000C948E000C948E000C948E000C948E0008
:100040000C94210F0C948E000C9410120C944212FC
:100050000C948E000C948E000C948E000C948E00E8
:100060000C94620C0C948E00000000080002010049
:100070000003040700000000000000000102040863
:100080001020408001020408102001020408102002
:10009000040404040404040402020202020203032E
:1000A00003030303000000002300260029000000D2
:1000B0000000250028002B0000000000240027007D
:1000C0002A00C7006207800B7212D20011241FBEE3
:1000D000CFEFD8E0DEBFCDBF11E0A0E0B1E0E2ECB1
:1000E000F0E302C005900D92A63FB107D9F723E0D7
:1000F000A6EFB1E001C01D92A43CB207E1F710E009
:10010000CAECD0E004C02297FE010E940C17C23C4A
:10011000D107C9F70E94B6120C9454180C94000031
:1001200026E040E855E260E070E083E293E00E9460
:10013000AE1185E592E00E94460B61E08DE00E94E1
:10014000311061E08DE00E946A100E94FB0786EF8B
:1001500091E00E94A50A80E092E00E942B0586EFC4
:1001600091E00E94A50A60E08DE00C946A106CE0BA
:1001700071E083E293E00E94101380E092E00E941D
:10018000600768EE73E080E090E00C949A0F80E0E6
:1001900092E00E941C0521E041E06CE086EF91E0D6
:1001A0000C94400A8EE191E090930102809300024A
:1001B00080E092E00C94F2046F927F928F929F9273
:1001C000AF92BF92CF92DF92EF92FF920F931F9365
:1001D000CF93DF93EC018B018A859B85892B09F4F2
:1001E00074C0D12C8C85D816E8F4ED2CF12C8E85BA
:1001F0009F85F701EE0FFF1FE00FF11F91838083B2
:10020000EA85FB85EE0DFF1D61E080810E946A108A
:10021000EA85FB85EE0DFF1D61E080810E943110B3
:10022000D394E0CF8AE090E00E94C20FD12C8C855D
:10023000D816A0F4ED2CF12CEA85FB85EE0DFF1D00
:1002400060E080810E943110EA85FB85EE0DFF1D84
:1002500060E080810E946A10D394E9CF0E94770FFA
:100260006B017C010E94770F6C197D098E099F0933
:100270002E853F854901A12CB12C681579058A0589
:100280009B0518F50E94770F3B016C187D08912C97
:100290008C85981638F7A92CB12CAA85BB85AA0D98
:1002A000BB1D8C910E94A010892B51F4F501EE0F1B
:1002B000FF1FE00FF11F808191816816790610F011
:1002C0009394E6CF71826082FBCFDF91CF911F9133
:1002D0000F91FF90EF90DF90CF90BF90AF909F90E5
:1002E0008F907F906F900895EF92FF920F931F93DE
:1002F000CF93DF931F92CDB7DEB77C018B01DC017A
:1003000013961C921E92129715961C921E92149789
:1003100017961C921E92169719961C921E92189769
:10032000413120F080E11C968C9302C0FC0144878F
:10033000D7011A968D919C911B97892B11F030E073
:100340000FC0F701848590E029830E942817D70108
:100350001B969C938E931A972981892B81F715C040
:10036000F7018485381780F4832F90E0F801E80FB7
:10037000F91F4081D7011A96ED91FC911B97E80F68
:10038000F91F40833F5FECCF25870F90DF91CF911E
:100390001F910F91FF90EF900895CF93DF93EC01A1
:1003A0008D858F3F69F061E00E94311060E08D859E
:1003B0000E946A1088EC90E0DF91CF910C94C20FFC
:1003C000DF91CF910895CF93DF93EC018D858F3F1F
:1003D00069F061E00E94311061E08D850E946A1031
:1003E00088EC90E0DF91CF910C94C20FDF91CF9118
:1003F0000895DF92EF92FF920F931F93CF93DF93B5
:10040000CDB7DEB7A0970FB6F894DEBF0FBECDBF55
:100410008C017B01D42E8FEF840F823020F4C80131
:100420000E94E30103C0C8010E94CD01D801ED91F3
:10043000FC910190F081E02DB701C8010995C80138
:100440000E94CD01B2E0DB122FC0D801ED91FC91EA
:100450000190F081E02DBE016F5F7F4FC8010995CB
:1004600040E0F80184854817F8F4842F90E0880F65
:10047000991FF701E80FF91F21E030E02C0F3D1F15
:10048000820F931FD8011E962D913C911F97DC017E
:100490008D919C91281B390B80819181820F931F34
:1004A000918380834F5FDDCFA0960FB6F894DEBFB7
:1004B0000FBECDBFDF91CF911F910F91FF90EF90B5
:1004C000DF9008952F923F925F926F927F928F926A
:1004D0009F92AF92BF92CF92DF92EF92FF920F93D3
:1004E0001F93CF93DF93CDB7DEB7C056D1090FB6B8
:1004F000F894DEBF0FBECDBF8C014B015A01522EC6
:10050000DA018D919C91892B31F0F40180819181E8
:10051000892BF1F424C0D8011C968C9190E0880FAF
:10052000991F0E942817F50191838083009709F491
:10053000B1C0FC0120E030E0D8011C968C9190E025
:100540002817390714F7119211922F5F3F4FF4CFFC
:10055000E12CF12C6E01B1E2CB0ED11C21C0F801CF
:10056000848590E0880F991F0E942817D4018D93ED
:100570009C93009709F48EC0FC0120E030E0D80184
:100580001C968C9190E02817390714F7D8011E9615
:100590008D919C911F97819391932F5F3F4FEFCF48
:1005A000452DBE016F5B7F4FC8010E94F901F80124
:1005B0006484712CFE01EF5BFF4FC6019E012F5F2B
:1005C0003F4F190120E030E0261537054CF5E114C6
:1005D000F10489F0DC016D917C91408151816417B7
:1005E000750748F0D1016D917C914081518146178A
:1005F000570748F00DC040815181DC014D935C9359
:10060000E114F10479F740815181D1014D935C935C
:100610002F5F3F4FB2E02B0E311C32960296D4CFA3
:10062000EFEFEE1AFE0AFAE0EF16F10409F0B8CF88
:100630009E012F5F3F4F7901360180E090E0F80185
:10064000248530E0821793072CF5D7012D913D9139
:100650007D01B3016C197D09D501ED91FC91E60F87
:10066000F71F408151814217530710F431832083D3
:10067000F301219131913F01D401ED91FC91E60FFD
:10068000F71F408151812417350710F431832083EF
:100690000196D5CFC05ADF4F0FB6F894DEBF0FBE1C
:1006A000CDBFDF91CF911F910F91FF90EF90DF9021
:1006B000CF90BF90AF909F908F907F906F905F9002
:1006C0003F902F9008951F93CF93DF93EC01162F47
:1006D0008FEF860F823018F0662369F019C021E091
:1006E000AE014C5F5F4FBE016E5F7F4FCE010E9437
:1006F0006202123069F4AE01485F5F4FBE016A5F6B
:100700007F4F20E0CE01DF91CF911F910C946202C8
:10071000DF91CF911F910895BF92CF92DF92EF9218
:10072000FF920F931F93CF93DF93EC018B01B42EB5
:10073000842F8D7F51F48E819F81892B09F497C07E
:1007400088859985892B09F492C08FEF8B0D8230B3
:1007500050F48A819B81892B09F489C08C819D8109
:10076000892B09F484C04B2DB801CE010E94F901F8
:10077000780100E010E0C12CD12C8C8590E0C816E7
:10078000D9060CF074C081E0B8120AC0EC81FD817A
:10079000E00FF11F0190F081E02DAA81BB810DC017
:1007A0008E819F8128853985B1100CC0F901E00F39
:1007B000F11F0190F081E02DDC01A00FB11F8D91A0
:1007C0009C9128C0FC01E00FF11F40815181EA811A
:1007D000FB81E00FF11F80819181EE85FF85481735
:1007E000590710F4CF0104C08E0F9F1F841B950B77
:1007F000D901A00FB11F2D913C91AC81BD81A00FFB
:10080000B11F4D915C912417350720F0E40FF51FBF
:10081000E21BF30BE81BF90BA9F0D7012D913C91DA
:1008200040E050E0281B390B41095109A8EEB3E024
:100830000E94E6159F0140E050E00E94C01537FD80
:100840000AC002C020E030E0293EB3E03B072CF0B4
:1008500028EE33E002C020E030E0F701219331932D
:100860007F01FFEFCF1ADF0A0E5F1F4F86CFDF91A8
:10087000CF911F910F91FF90EF90DF90CF90BF909D
:1008800008952F923F924F925F926F927F928F9234
:100890009F92AF92BF92CF92DF92EF92FF920F930F
:1008A0001F93CF93DF93EC018B01822E0E948C0368
:1008B0002C84E801412C512C320100E010E0C12CC5
:1008C000D12C7601312C912CE8EEAE2EE3E0BE2E39
:1008D000921421F1E991F991882021F0C5018E1B34
:1008E0009F0BFC01E93CF10524F4E333F10574F0BE
:1008F00002C033243394DF01A30192010E94F11559
:10090000C60ED71EE81EF91E0E0F1F1F939498EEF9
:10091000490E93E0591E611C711CDACF31101EC0C4
:10092000492D50E04150510924EF31E0429FC00170
:10093000439F900D529F900D112420911F023091E2
:10094000200228173907B4F088EE93E0489F900101
:10095000499F300D589F300D11240EC0980140E082
:1009600050E0C701B6010E949E15309320022093EB
:100970001F0202C020E030E0C901DF91CF911F913A
:100980000F91FF90EF90DF90CF90BF90AF909F902E
:100990008F907F906F905F904F903F902F90089531
:1009A000FC018EE191E09183808313821282158293
:1009B0001482178216821186108613861286089575
:1009C000EF92FF920F93CF93DF93EC017901202FE9
:1009D0000E947401FF86EE86DF91CF910F91FF9008
:1009E000EF900895CF93DF93EC0188E191E0998334
:1009F00088838A859B85009711F00E94C0178C819F
:100A00009D81009711F00E94C017888599850097F5
:100A100011F00E94C0178A819B81009711F00E94FB
:100A2000C0178E819F81009721F0DF91CF910C94A8
:100A3000C017DF91CF910895CF93DF93EC010E940F
:100A4000D00482EC91E0998388831C8E1E8E1D8ECB
:100A5000DF91CF910895EF92FF920F931F93CF9361
:100A6000DF9300D000D000D0CDB7DEB77C0186E0A8
:100A7000E6E0F1E0DE01119601900D928A95E1F732
:100A800002E020ED37E046E0BE016F5F7F4FC70117
:100A90000E94E00405EF1FEF0431110520F0C801AA
:100AA0008897449728F468EC70E088E39FEF04C0CF
:100AB00068E37FEF88EC90E00E94FD0D61E0C701E4
:100AC0000E94630364E170E080E090E00E949A0F6E
:100AD0000F5F1F4F05341105F9F660E070E080E00C
:100AE00090E00E94FD0D26960FB6F894DEBF0FBE73
:100AF000CDBFDF91CF911F910F91FF90EF9008959F
:100B00004F925F926F927F928F929F92AF92BF921D
:100B1000EF92FF920F931F93CF934B010E9479079F
:100B20000E9488070E947A140E9457080E94471466
:100B3000AA2497FCA094BA2C680D791D8A1D9B1DD0
:100B40000E947A140E9457080E9447142B013C010E
:100B50000E94880764197509860997090E947A140A
:100B60000E9457084B015C019F77E12CF12C00E8B3
:100B70001FE320E030E040E85FEB0E948708C82FC9
:100B800020E030E0A901C501B4010E9486151816C5
:100B90002CF46AE67FEF86E990E004C066E970E035
:100BA0008AE69FEF0E94FD0D0E948807CC2381F208
:100BB00060E070E080E090E0CF911F910F91FF9096
:100BC000EF90BF90AF909F908F907F906F905F90CD
:100BD0004F900C94FD0D81E292E00E94CB0E69E3F0
:100BE00070E00E948A15CB0108950F931F93CF9355
:100BF000DF93EC018D8D9E8D01969E8F8D8F60E22F
:100C000071E083E293E00E94101305E010E0CE0152
:100C10000E94EB051816190674F46FE271E083E286
:100C200093E00E9403136D8D7E8D4AE050E083E2D5
:100C300093E00E94C5136AE570E0CE010E94800532
:100C40000150110921F76CE471E083E293E00E9406
:100C500003136D8D7E8D4AE050E083E293E00E94A5
:100C6000C51369E671E083E293E00E94101364E625
:100C700070E080E090E0DF91CF911F910F910C9494
:100C80009A0FFC01808991894F9774F0828993892A
:100C90004F9754F0808D918D4F9734F081E0228DE5
:100CA000338D2F3131050CF480E008954F925F921F
:100CB0006F927F92AF92BF92CF92DF92EF92FF92AC
:100CC0000F931F93CF93DF93EC015B0167E771E014
:100CD00083E293E00E9410138E01005F1F4F20E01B
:100CE00041E0B801CE010E9441040E946B0F6B01EC
:100CF000EE24D7FCE094FE2C2501662457FC60947A
:100D0000762CCE010E94410681110EC00E946B0F0D
:100D10006C197D098E099F0964157505860597056F
:100D2000A0F0A114B10489F0CE01DF91CF911F9101
:100D30000F91FF90EF90DF90CF90BF90AF907F909A
:100D40006F905F904F900C94410620E041E0B80115
:100D5000CE010E944104888999894F973CF08A8985
:100D60009B894F971CF080E090E002C084E690E001
:100D70000E94B70D888D998D4F9724F08A8D9B8D99
:100D80004F971CF484E690E002C080E090E00E945F
:100D9000DA0DB7CFFF920F931F93CF93DF93EC0140
:100DA0008B0169E871E083E293E00E94101366EA28
:100DB0007FEFCE010E94800564EF71E0CE010E94BA
:100DC0005606F82E6AE570E0CE010E9480056AE5BD
:100DD00070E0CE010E94800564EF71E0CE010E94B8
:100DE0005606811106C0F11004C0B801CE010E9460
:100DF000F5056BE971E083E293E00E94101381E452
:100E000092E00E94A50A64E670E084E690E00E9409
:100E1000FD0D60E070E0CE010E94560681E492E094
:100E20000E94A50A0130110519F466EA7FEF02C09D
:100E30006AE570E0CE010E94800568EA71E083E215
:100E400093E00E941013DF91CF911F910F91FF90BB
:100E50000895CF93DF93EC0166EA7FEF0E9480054F
:100E600060ED77E0CE010E945606811103C061E07B
:100E700070E013C06AE570E0CE010E9480056AE56B
:100E800070E0CE010E94800560ED77E0CE010E9407
:100E90005606811107C062E070E0CE010E94CA06CA
:100EA00080E00BC066EA7FEFCE010E94800564E619
:100EB00070E084E690E00E94FD0DDF91CF910895EF
:100EC0000C94290721E041E06CE081E492E00E946B
:100ED000400A84E392E00E94AF0883E392E00E941C
:100EE0008F0D22E330E042E066E081E292E00C9474
:100EF000070E0E94770F70934C0260934B02109282
:100F0000510210925202109253021092540208950C
:100F10008F929F92AF92BF92CF92DF92EF92FF9209
:100F20000F931F9384E392E00E9409098091380295
:100F30009091390220914D0230914E02821B930B09
:100F40009093500280934F020E94770F20914B02A2
:100F500030914C02AB01421B530B9A0170934C022F
:100F600060934B02A0914F02B09150020E94DF1596
:100F700020E030E040EE50E00E94F915EDE8AE2EA2
:100F8000F8E3BF2EACE0CA2EDD24D394E12CF12C83
:100F900000E010E00E94351649015A01809151028B
:100FA00090915202A0915302B0915402880D991D64
:100FB000AA1DBB1D8093510290935202A09353022D
:100FC000B09354029D01552737FD5095452FA8E653
:100FD000B1E00E94E615BC01992777FD9095892F15
:100FE0001F910F91FF90EF90DF90CF90BF90AF9047
:100FF0009F908F900895CF92DF92EF92FF92CF93C0
:10100000DF9385E592E00E94460B42E050E063E00A
:1010100070E084E392E00E94B3094FEF60E284E362
:1010200092E00E94B80840E263E284E392E00E940A
:10103000B80840E064E284E392E00E94B80864EFFC
:1010400071E080E090E00E949A0FC0E0D4E0C12CF3
:10105000D12C760167E284E392E00E94E10884E308
:1010600092E00E9409098091380290913902AA27E2
:1010700097FDA095BA2FC80ED91EEA1EFB1E219718
:1010800049F7C701B60120E034E040E050E00E949B
:10109000C01530934E0220934D020E947907DF91D4
:1010A000CF91FF90EF90DF90CF900C948807CF9274
:1010B000DF92EF92FF9220E030E044E353E40E949D
:1010C000DF1320E030E044EB53E40E94BC146B01DA
:1010D0007C0120E030E0A9010E94431487FF0AC090
:1010E00020E030E044EB53E4C701B6010E94DF1377
:1010F0006B017C0120E030E044E353E4C701B6011A
:101100000E94DE13FF90EF90DF90CF9008958F92B2
:101110009F92AF92BF92CF92DF92EF92FF920F9386
:101120001F934B015C01670178010E948615181618
:1011300054F4A7019601C501B4010E944314881F0D
:101140008827881F01C080E01F910F91FF90EF90CA
:10115000DF90CF90BF90AF909F908F900895FC014B
:1011600083E090E090878783138612861486089523
:10117000EF92FF921F93CF93DF931F92CDB7DEB70D
:101180007C01162FFC01618585E592E049830E9470
:10119000600B612F85E592E00E94070B4981642F67
:1011A00085E592E00E94070B85E592E00E947D0BA9
:1011B000F70186830F90DF91CF911F91FF90EF9001
:1011C00008951F93CF93DF93EC01162F698585E572
:1011D00092E00E94600B612F85E592E00E94070B70
:1011E00085E592E00E947D0B8E8341E0698585E56F
:1011F00092E00E945D0B85E592E00E94B70AC82F3D
:1012000085E592E00E947D0B8C2FDF91CF911F919D
:1012100008959F92AF92BF92CF92DF92EF92FF928A
:101220000F931F93CF93DF93EC01698585E592E0DF
:101230000E94600BE0915502F09156020190F081FE
:10124000E02D68EA85E592E0099585E592E00E9447
:101250007D0B46E0698585E592E00E945D0B0E946A
:101260006B0F7B0185E592E00E94AF0A069784F43C
:101270008A859B85892BB1F30E946B0F6E197F09BC
:101280008A859B858617970768F781E08C872CC035
:1012900085E592E00E94B70AA82E85E592E00E94BB
:1012A000B70A982E85E592E00E94B70AE82E85E5F8
:1012B00092E00E94B70AB82E85E592E00E94B70A34
:1012C000F82E85E592E00E94B70AD92CC12CCA28D5
:1012D000D982C8821B2D00E00E291B830A83982F18
:1012E00088278F299D838C83DF91CF911F910F9148
:1012F000FF90EF90DF90CF90BF90AF909F900895B8
:101300001F93CF93DF931F92CDB7DEB7162F85E5DE
:1013100092E049830E94600B4981642F85E592E049
:101320000E94070B85E592E00E947D0B811114C09D
:1013300041E0612F85E592E00E945D0B85E592E03A
:101340000E94AF0A892B41F085E592E00F90DF9172
:10135000CF911F910C94B70A8FEF9FEF0F90DF9101
:10136000CF911F910895EF92FF920F931F93CF9308
:10137000DF937C01EB018A016330710521F042307B
:10138000510509F051C0CE010197039758F5011599
:10139000110581F04FE050E06BE6C7010E94800923
:1013A0008F3F2FEF920719F001E010E013C00130DA
:1013B000110551F04FE050E06AE6C7010E94800934
:1013C0008F3FEFEF9E0721F4C330D10569F027C0AE
:1013D00000E010E0C330D10529F4873D9105F1F517
:1013E000C2E0D0E02097D9F40115110561F04FE07B
:1013F00050E069E6C7010E948009833D910589F1AB
:101400000130110549F04FE050E068E6C7010E9445
:101410008009833D910541F1C330D10519F00230B7
:10142000110511F480E025C0F701D087C78320970C
:1014300059F0D7FD11C023977CF40130110511F448
:101440008BE608C08AE606C00130110511F489E672
:1014500001C088E6F701818781E00BC0C1E0D0E0E0
:10146000C1CF01E010E002C000E010E0C0E0D0E039
:10147000D6CFDF91CF911F910F91FF90EF900895FC
:10148000FC016083418322831382148216821582B9
:101490001086178211860895FC018181813011F434
:1014A00062E001C060E080810E94311085E090E040
:1014B0000C94C20FFC012185211104C021E0218779
:1014C0000C944C0A0895CF93DF93EC0188810E941D
:1014D000A01021E0892B09F020E081E09A81911190
:1014E00080E08227DF91CF910895CF93DF93EC01C5
:1014F0000E945A0ACE010E94630A8823D9F36AE047
:1015000070E080E090E00E949A0FCE010E94630A92
:10151000882381F3DF91CF910895CF93DF93EC017E
:101520000E945A0ACE010E94630A8111FBCF6AE031
:1015300070E080E090E00E949A0FCE010E94630A62
:101540008111F0CFDF91CF910895CF93DF93EC011C
:101550000E94750ACE01DF91CF910C948D0A809183
:10156000850290E020918602821B910908952091C6
:10157000860280918502281750F4E22FF0E0E957A7
:10158000FD4F808190E02F5F2093860208958FEFBA
:101590009FEF0895E091860280918502E81730F46C
:1015A000F0E0E957FD4F808190E008958FEF9FEFC5
:1015B00008950895CF92DF92EF92FF920F931F93B9
:1015C000CF93DF937C01CB018A012091610222231A
:1015D00089F0EB016B01C40ED51ECC15DD0569F059
:1015E0006991D701ED91FC910190F081E02DC70147
:1015F0000995F3CF642F0E94390CC801DF91CF9178
:101600001F910F91FF90EF90DF90CF900895CF93AF
:10161000DF931F92CDB7DEB7698320916102222349
:10162000D1F020916202203240F021E030E0FC0154
:101630003383228380E090E015C080916302E82F1D
:10164000F0E0EC59FD4F998190838F5F80936302A6
:101650008093620205C061E0CE0101960E94390CC0
:1016600081E090E00F90DF91CF910895FC0113820B
:10167000128248EE53E060E070E044835583668355
:10168000778388EC91E0918380830895109286029D
:101690001092850210926302109262020C94840BE5
:1016A000862F413208F040E267E872E00E94A20B08
:1016B0001092860280938502089521E00C94500BCD
:1016C00081E0809361026093840210926302109221
:1016D000620208950F93062F21E04091620264E6B2
:1016E00072E0809184020E94E60B109263021092D5
:1016F0006202109261020F91089561E00C946A0BEE
:1017000085E592E00C94360B1092140381E08093EF
:1017100012031092110361E082E10E946A1061E0FD
:1017200083E10E946A10E9EBF0E080818E7F808384
:1017300080818D7F808388E48093B80085E48093E6
:10174000BC000895413208F03FC0909114039111FC
:10175000FCCF91E090931403209312032FEF20937A
:10176000A7021092EC02240F2093EB029093130334
:1017700090911303880F892B809313038091110399
:10178000813041F410921103809113038093BB00C8
:1017900085EC01C085EE8093BC00809114038130FC
:1017A000E1F38091EC02841710F44091EC022DEEED
:1017B00032E0FB01D9018A2F821B841718F48D9126
:1017C0008193F9CF842F089580E008950F934132DB
:1017D00008F046C0909114039111FCCF92E09093D1
:1017E0001403009312039FEF9093A7021092EC0250
:1017F0004093EB02FB016DEE72E0DB019A2F961B2A
:10180000941718F491919D93F9CF1092130390912E
:101810001303880F892B8093130380911103813068
:1018200041F410921103809113038093BB0085EC67
:1018300001C085EE8093BC00222321F08091140327
:101840008230E1F38091A7028F3F61F08091A7027F
:10185000803251F08091A702803341F483E007C0C9
:1018600081E005C080E003C082E001C084E00F9108
:101870000895613298F420911403243089F4609320
:10188000C902FC018BEC92E0DC012A2F281B2617F1
:1018900018F421912D93F9CF80E0089581E0089507
:1018A00082E0089585ED8093BC008091BC0084FDAA
:1018B000FCCF10921403089585EC8093BC00109225
:1018C000140308951F920F920FB60F9211242F93B5
:1018D0003F934F935F936F937F938F939F93AF93B8
:1018E000BF93EF93FF938091B900887F803609F40E
:1018F0009CC068F5883209F45BC090F4803109F42B
:1019000054C038F4882309F4F5C0883009F44DC078
:10191000F5C0883109F44CC0803209F45DC0EEC0D6
:10192000803409F468C048F4803309F455C0883322
:1019300009F0E4C08093A702A8C0803509F44FC025
:10194000883509F45DC0883409F0D8C0D5C088391D
:1019500009F4C6C0A8F4883709F467C038F488369B
:1019600009F463C0803709F460C0C8C0883809F43E
:10197000B7C0803909F45FC0803809F0BFC05BC0D0
:10198000803B09F485C038F4803A09F466C0883A8F
:1019900009F47EC0B3C0803C09F4A6C0883C09F4B9
:1019A000A3C0883B09F489C0A9C08091130310C06B
:1019B0009091EC028091EB02981770F5E091EC02A7
:1019C00081E08E0F8093EC02F0E0E351FD4F8081C7
:1019D0008093BB0085EC85C08093A7028DC0E09109
:1019E000EC0281E08E0F8093EC028091BB00F0E06E
:1019F000E351FD4F80839091EC028091EB026DC02A
:101A0000E091EC0281E08E0F8093EC028091BB00AC
:101A1000F0E0E351FD4F80838091120381116CC08F
:101A200081E08093110384EA60C083E08093140313
:101A30001092A802CFCF8091A802803208F050C047
:101A4000E091A80281E08E0F8093A8028091BB00F4
:101A5000F0E0E755FD4F8083BDCF8091A802803232
:101A600030F4E091A802F0E0E755FD4F10820E94AB
:101A7000520C6091A80270E0E0910D03F0910E030A
:101A800089EA92E009951092A8020E945C0C36C087
:101A900084E0809314031092CA021092C902E0916C
:101AA0000F03F091100309958091C902811105C0BF
:101AB00081E08093C9021092CB02E091CA0281E0DA
:101AC0008E0F8093CA02F0E0E553FD4F8081809332
:101AD000BB009091CA028091C902981708F47ACF8E
:101AE00085E88093BC000AC085EC8093BC0010920E
:101AF000140304C01092A7020E94520CFF91EF91B0
:101B0000BF91AF919F918F917F916F915F914F9115
:101B10003F912F910F900FBE0F901F901895089531
:101B200061E08AE00E94311061E089E00E9431109A
:101B300061E088E00E94311061E087E00E9431108E
:101B400080EA8093800081E18093810080E991E0C8
:101B500090938700809386000895809115038111EA
:101B600005C081E0809315030C94900D0895CF93E8
:101B7000DF93EC010E94AD0DD7FF05C0D195C19553
:101B8000D10981E001C080E0C13991E0D90714F0AA
:101B9000C0E9D1E0D0938B00C0938A0090911703E5
:101BA000891711F061E001C060E088E0DF91CF911A
:101BB0000C946A10CF93DF93EC010E94AD0DD7FF18
:101BC00005C0D195C195D10981E001C080E0C1393E
:101BD00091E0D90714F0C0E9D1E0D0938900C09317
:101BE000880090911603891711F061E001C060E050
:101BF00087E0DF91CF910C946A10CF93DF93EB01D4
:101C00000E94B70DCE01DF91CF910C94DA0DCF93E6
:101C1000DF93DC0170E0FB01E458FF4FE491149680
:101C2000EC931497842F90E0FC01E458FF4FE4916B
:101C30001596EC93159760577F4FFB01C491D0E048
:101C4000CC0FDD1FC255DF4FFE0145915491179611
:101C50005C934E931697FC01E057FF4F849190E000
:101C6000880F991F8C559F4FFC01459154911996EF
:101C70005C934E931897FB016491E62FF0E0EE0F12
:101C8000FF1FE854FF4F859194911B969C938E9370
:101C90001A972F5F3F4F49E3429FC001439F900D2A
:101CA00011248E38FFE69F0710F08DE89FE61D9601
:101CB0009C938E931C97DF91CF9108950F931F9360
:101CC000CF93DF93EC01EA85FB8580819C81892B92
:101CD0008083EE81FF8190818C8180958923808330
:101CE00084E090E00E94C20FEE81FF8180819C81A0
:101CF000892B80838AE090E00E94C20FEE81FF81F1
:101D000090818C81809589238083EA85FB859081F1
:101D10008C81809589238083E885F98580819D81E8
:101D2000892311F080E032C00E94770F4C855D85D9
:101D30008A0120E030E00855194E2F4F3F4F060F23
:101D4000171F281F391F0E871F87288B398BE8859F
:101D5000F98580819D81892361F40E94770F0E852A
:101D60001F8528893989061717072807390778F743
:101D7000D9CF0E94770F2C853D85620F731F811D7F
:101D8000911D6E877F87888B998B81E0DF91CF9142
:101D90001F910F9108950F931F93CF93DF93EC0141
:101DA0000E945E0E882389F0E885F98580819D81F7
:101DB000892371F00E94770F0E851F852889398944
:101DC000061717072807390778F720E030E00CC01E
:101DD0000E94770F2C853D85255031094E855F8502
:101DE000241B350B260F371FC901DF91CF911F919F
:101DF0000F9108951F920F920FB60F9211242F93F7
:101E00003F934F935F936F937F938F939F93AF9382
:101E1000BF93EF93FF93E0911803F0911903099595
:101E2000FF91EF91BF91AF919F918F917F916F91B2
:101E30005F914F913F912F910F900FBE0F901F9088
:101E400018951F920F920FB60F9211242F933F9364
:101E50008F939F93AF93BF9380911B0390911C032B
:101E6000A0911D03B0911E0330911A0323E0230FAC
:101E70002D3720F40196A11DB11D05C026E8230FC2
:101E80000296A11DB11D20931A0380931B0390930A
:101E90001C03A0931D03B0931E0380911F03909118
:101EA0002003A0912103B09122030196A11DB11D31
:101EB00080931F0390932003A0932103B0932203E8
:101EC000BF91AF919F918F913F912F910F900FBE36
:101ED0000F901F9018952FB7F89460911B03709185
:101EE0001C0380911D0390911E032FBF08953FB7DF
:101EF000F89480911F0390912003A0912103B09149
:101F0000220326B5A89B05C02F3F19F00196A11DFD
:101F1000B11D3FBF6627782F892F9A2F620F711D41
:101F2000811D911D42E0660F771F881F991F4A95FA
:101F3000D1F70895CF92DF92EF92FF92CF93DF9384
:101F40006B017C010E94770FEB01C114D104E10405
:101F5000F10489F00E94DD130E94770F6C1B7D0B4A
:101F6000683E734090F381E0C81AD108E108F10897
:101F7000C851DC4FEACFDF91CF91FF90EF90DF9017
:101F8000CF9008958230910538F0880F991F880FFF
:101F9000991F05970197F1F70895789484B58260A9
:101FA00084BD84B5816084BD85B5826085BD85B5FD
:101FB000816085BDEEE6F0E0808181608083E1E8AC
:101FC000F0E01082808182608083808181608083E4
:101FD000E0E8F0E0808181608083E1EBF0E08081E7
:101FE00084608083E0EBF0E0808181608083EAE7B9
:101FF000F0E0808184608083808182608083808142
:10200000816080838081806880831092C100089500
:10201000833081F028F4813099F08230A1F0089566
:102020008730A9F08830B9F08430D1F480918000F5
:102030008F7D03C0809180008F778093800008950A
:1020400084B58F7702C084B58F7D84BD089580915B
:10205000B0008F7703C08091B0008F7D8093B00077
:102060000895CF93DF9390E0FC01E458FF4F249153
:10207000FC01E057FF4F8491882349F190E0880FDD
:10208000991FFC01E854FF4FA591B49182559F4FD1
:10209000FC01C591D4919FB7611108C0F8948C914F
:1020A000209582238C93888182230AC0623051F468
:1020B000F8948C91322F309583238C938881822BD6
:1020C000888304C0F8948C91822B8C939FBFDF91FE
:1020D000CF9108950F931F93CF93DF931F92CDB7A6
:1020E000DEB7282F30E0F901E859FF4F8491F9015C
:1020F000E458FF4F1491F901E057FF4F049100237A
:10210000C9F0882321F069830E9408106981E02FBB
:10211000F0E0EE0FFF1FE255FF4FA591B4919FB77E
:10212000F8948C91611103C01095812301C0812B1B
:102130008C939FBF0F90DF91CF911F910F910895C6
:10214000CF93DF93282F30E0F901E859FF4F8491B6
:10215000F901E458FF4FD491F901E057FF4FC491C2
:10216000CC2391F081110E940810EC2FF0E0EE0FCB
:10217000FF1FEC55FF4FA591B4912C912D2381E0C9
:1021800090E021F480E002C080E090E0DF91CF9108
:1021900008950E944F18FC01818D228D90E0805C93
:1021A0009F4F821B91098F7399270895FC01918D90
:1021B000828D981731F0828DE80FF11D858D90E0AA
:1021C00008958FEF9FEF0895FC01918D828D9817F0
:1021D00061F0828DDF01A80FB11D5D968C91928D0B
:1021E0009F5F9F73928F90E008958FEF9FEF089508
:1021F00088E692E1892B49F080E090E0892B29F074
:102200000E94681281110C9400000895FC01848DD5
:10221000DF01A80FB11DA35ABF4F2C91848D90E010
:1022200001968F739927848FA689B7892C93A089EB
:10223000B1898C9180648C93938D848D981306C0A2
:102240000288F389E02D80818F7D80830895CF936C
:10225000DF93EC01888D8823C9F0EA89FB898081AE
:1022600085FD05C0A889B9898C9186FD0FC00FB680
:1022700007FCF5CF808185FFF2CFA889B9898C91C1
:1022800085FFEDCFCE010E940611E7CFDF91CF9100
:102290000895CF92DF92FF920F931F93CF93DF9316
:1022A0001F92CDB7DEB76C0181E0D60158968C93B2
:1022B00058975B969C915B975C968C915C97981372
:1022C00007C05096ED91FC915197808185FD2EC0FD
:1022D000F601038D10E00F5F1F4F0F731127F02ED3
:1022E000F601848DF81211C00FB607FCF9CFD601A4
:1022F0005096ED91FC915197808185FFF1CFC601F9
:1023000069830E9406116981EBCF838DE80FF11D6F
:10231000E35AFF4F6083D6015B960C935B9752960E
:10232000ED91FC915397808180620CC0D601569646
:10233000ED91FC91579760835096ED91FC915197E8
:1023400080818064808381E090E00F90DF91CF9165
:102350001F910F91FF90DF90CF900895BF92CF9281
:10236000DF92EF92FF92CF93DF93EC016A017B0142
:10237000B22EE889F98982E08083411581EE580701
:1023800061057105A1F060E079E08DE390E0A701BF
:1023900096010E949E152150310941095109569517
:1023A000479537952795211580E1380798F0E889FA
:1023B000F989108260E874E88EE190E0A701960147
:1023C0000E949E15215031094109510956954795A2
:1023D00037952795EC85FD853083EE85FF85208335
:1023E000188EEC89FD89B082EA89FB898081806141
:1023F0008083EA89FB89808188608083EA89FB8900
:10240000808180688083EA89FB8980818F7D8083D9
:10241000DF91CF91FF90EF90DF90CF90BF90089524
:102420001F920F920FB60F9211242F938F939F93A9
:10243000EF93FF93E0913303F09134038081E091B7
:102440003903F0913A0382FD12C0908180913C03E0
:102450008F5F8F7320913D03821751F0E0913C0311
:10246000F0E0ED5DFC4F958F80933C0301C08081CF
:10247000FF91EF919F918F912F910F900FBE0F9031
:102480001F9018951F920F920FB60F9211242F9341
:102490003F934F935F936F937F938F939F93AF93EC
:1024A000BF93EF93FF9383E293E00E940611FF91A5
:1024B000EF91BF91AF919F918F917F916F915F91BC
:1024C0004F913F912F910F900FBE0F901F90189535
:1024D00083E293E00E94CB1021E0892B09F420E0F5
:1024E000822F0895109226031092250388EE93E020
:1024F000A0E0B0E08093270390932803A0932903E2
:10250000B0932A0388ED91E09093240380932303F2
:1025100085EC90E09093300380932F0384EC90E05F
:10252000909332038093310380EC90E090933403D6
:102530008093330381EC90E09093360380933503CE
:1025400082EC90E0909338038093370386EC90E020
:1025500090933A038093390310923C0310923D0309
:1025600010923E0310923F03089508950E94CD0FEC
:102570000E94B5120E949000C8EFD0E10E94B700FF
:102580002097E1F30E94F810F9CFCF92DF92EF92FB
:10259000FF920F931F93CF93DF936C017A01EB01AE
:1025A000E60EF71E00E010E0CE15DF0561F0699140
:1025B000D601ED91FC910190F081E02DC6010995C5
:1025C000080F191FF1CFC801DF91CF911F910F9113
:1025D000FF90EF90DF90CF9008956115710581F025
:1025E000DB010D900020E9F7AD0141505109461B78
:1025F000570BDC01ED91FC910280F381E02D0994F1
:1026000080E090E008950C94ED12DC01ED91FC91D6
:102610000190F081E02D099464EE71E00C94ED12CC
:102620000F931F93CF93DF93EC010E94ED128C0167
:10263000CE010E940C13800F911FDF91CF911F914B
:102640000F9108958F929F92AF92BF92CF92DF9297
:10265000EF92FF920F931F93CF93DF93CDB7DEB727
:10266000A1970FB6F894DEBF0FBECDBF7C01C42E7C
:10267000E52FCB01D22E19A221E02D1510F02AE072
:10268000D22E8E010F5D1F4F8D2C912CA12CB12CC1
:102690006C2D7E2FA50194010E949E158C2DD29E3B
:1026A00080191124015011098A3014F4805D01C091
:1026B000895CF8018083211531054105510521F020
:1026C000C22EE32FCA01E4CFB801C7010E94ED1268
:1026D000A1960FB6F894DEBF0FBECDBFDF91CF91AC
:1026E0001F910F91FF90EF90DF90CF90BF90AF9030
:1026F0009F908F900895CF92DF92EF92FF920F9369
:102700001F93CF93DF93EC016A017B012115310503
:1027100079F4E881F9810190F081E02D642FDF9157
:10272000CF911F910F91FF90EF90DF90CF90099480
:102730002A303105E9F477FF1AC06DE20E940513D3
:102740008C0144275527BA014C195D096E097F0990
:102750002AE0CE010E942213800F911FDF91CF91BA
:102760001F910F91FF90EF90DF90CF9008952AE096
:10277000B701A601CE01DF91CF911F910F91FF907C
:10278000EF90DF90CF900C9422130F931F93CF9371
:10279000DF93EC019A01AB01662757FD6095762F18
:1027A0000E947B138C01CE010E940C13800F911F9D
:1027B000DF91CF911F910F91089508955058BB2735
:1027C000AA270ED069C15AD130F05FD120F031F480
:1027D0009F3F11F41EF44FC10EF4E095E7FB37C1A3
:1027E000E92F6BD180F3BA17620773078407950747
:1027F00018F071F49EF583C10EF4E0950B2EBA2FFC
:10280000A02D0B01B90190010C01CA01A0011124F6
:10281000FF27591B99F0593F50F4503E68F11A16A2
:10282000F040A22F232F342F4427585FF3CF469533
:1028300037952795A795F0405395C9F77EF41F1655
:10284000BA0B620B730B840BBAF09150A1F0FF0F1F
:10285000BB1F661F771F881FC2F70EC0BA0F621F0B
:10286000731F841F48F4879577956795B795F795FB
:102870009E3F08F0B3CF9395880F08F09927EE0F8D
:10288000979587950895BFD008F481E0089504D006
:102890006894B11135C1089518D188F09F5790F010
:1028A000B92F9927B751A0F0D1F0660F771F881F75
:1028B000991F1AF0BA95C9F712C0B13081F01FD133
:1028C000B1E008951CC1672F782F8827B85F39F0D1
:1028D000B93FCCF3869577956795B395D9F73EF4D4
:1028E00090958095709561957F4F8F4F9F4F08957C
:1028F000E89409C097FB3EF490958095709561959A
:102900007F4F8F4F9F4F9923A9F0F92F96E9BB274F
:102910009395F695879577956795B795F111F8CFCB
:10292000FAF4BB0F11F460FF1BC06F5F7F4F8F4F36
:102930009F4F16C0882311F096E911C0772321F02C
:102940009EE8872F762F05C0662371F096E8862FC4
:1029500070E060E02AF09A95660F771F881FDAF71B
:10296000880F9695879597F9089588D018F011F0FB
:102970008CD038F480C0C4C0E92F9FD0B0F3552369
:10298000C9F3E7FB6217730784079507A8F199F36A
:10299000E92FFF2788232AF03197660F771F881FBA
:1029A000DAF7952F5527442332F091505040220FEB
:1029B000331F441FD2F7BB27E91BF50B621B730BB8
:1029C000840BB109C1F222F4620F731F841FB11D81
:1029D00031972AF0660F771F881FBB1FEFCF9150EA
:1029E00050405AF041F0882332F0660F771F881F5D
:1029F00091505040C1F7939530C086957795679573
:102A00009F5FD9F7F8CF990F0008550FAA0BE0E8A0
:102A1000FEEF16161706E807F907C0F012161306A0
:102A2000E407F50798F0621B730B840B950B39F4E0
:102A30000A2661F0232B242B252B21F408950A2646
:102A400009F4A140A6958FEF811D811D089597F986
:102A50009F6780E870E060E008959F3F31F09150FB
:102A600020F4879577956795B795880F911D969572
:102A7000879597F908959FEF80EC089500240A94B4
:102A80001616170618060906089500240A94121649
:102A90001306140605060895092E0394000C11F47C
:102AA000882352F0BB0F40F4BF2B11F460FF04C029
:102AB0006F5F7F4F8F4F9F4F089557FD9058440F82
:102AC000551F59F05F3F71F04795880F97FB991F8D
:102AD00061F09F3F79F0879508951216130614064A
:102AE000551FF2CF4695F1DF08C0161617061806D7
:102AF000991FF1CF86957105610508940895E894B2
:102B0000BB2766277727CB0197F908957CDF08F468
:102B10008FEF0895AA1BBB1B51E107C0AA1FBB1F63
:102B2000A617B70710F0A61BB70B881F991F5A9559
:102B3000A9F780959095BC01CD010895A1E21A2EC8
:102B4000AA1BBB1BFD010DC0AA1FBB1FEE1FFF1F51
:102B5000A217B307E407F50720F0A21BB30BE40BA1
:102B6000F50B661F771F881F991F1A9469F76095E8
:102B70007095809590959B01AC01BD01CF010895A2
:102B8000052E97FB1EF400940E94D71557FD07D021
:102B90000E949E1507FC03D04EF40C94D715509557
:102BA0004095309521953F4F4F4F5F4F0895909539
:102BB0008095709561957F4F8F4F9F4F08950E942C
:102BC0001017B7FF0895821B930B08950E941017EA
:102BD000A59F900DB49F900DA49F800D911D112471
:102BE0000895B7FF0C94E6150E94E615821B930B1F
:102BF000089597FB57FF0C9409169F938F930E949B
:102C000009166E1B7F0BAF91BF918A0B9B0B08952A
:102C1000E894DF93CF93FC01DB010E9410177F93B0
:102C20006F93E9019A01AC01BF93AF933F932F9348
:102C3000DF010E94101726F46C1B7D0B820B930B97
:102C40009E01EB01FC010E941F17AF91BF912F91D4
:102C50003F910E941F17BE01CF01F9012F913F91B3
:102C6000CF91DF910895689401C0E894F92FF12B7A
:102C700012F00C946716A0E0B0E0E1E4F6E10C94E9
:102C8000D916092E059422F40E94C316112392F43A
:102C9000F0E80F26FFEFE094F09400951095B094C3
:102CA000C094D094A194BF0ACF0ADF0AEF0AFF0AAA
:102CB0000F0B1F0B0E94721607FC0E94C316CDB7A4
:102CC000DEB7ECE00C94F516689401C0E8948F929E
:102CD0009F92CF93DF930E947216DF91CF919F90C6
:102CE0008F90089588249924F401E401B0E49F931F
:102CF000AA279A158B049C04ED05FE05CF05D00785
:102D0000A10798F4AD2FDC2FCF2FFE2FE92D982CA3
:102D1000892E982F872F762F652F542F432F322FF0
:102D20002227B85031F7BF9127C01B2EBF91BB2778
:102D3000220F331F441F551F661F771F881F991FBF
:102D4000881C991CEE1FFF1FCC1FDD1FAA1FBB1F75
:102D50008A149B04EC05FD05CE05DF05A007B1072D
:102D600048F08A189B08EC09FD09CE09DF09A00B81
:102D7000B10B21601A94E1F62EF49401AF01BE016B
:102D8000CD01000C089560957095809590953095D3
:102D90004095509521953F4F4F4F5F4F6F4F7F4F5D
:102DA0008F4F9F4F08952F923F924F925F926F9255
:102DB0007F928F929F92AF92BF92CF92DF92EF92CB
:102DC000FF920F931F93CF93DF93CDB7DEB7CA1B4C
:102DD000DB0B0FB6F894DEBF0FBECDBF09942A8877
:102DE000398848885F846E847D848C849B84AA841F
:102DF000B984C884DF80EE80FD800C811B81AA81AC
:102E0000B981CE0FD11D0FB6F894DEBF0FBECDBF76
:102E1000ED010895EE0FFF1F0590F491E02D099448
:102E2000A29FB001B39FC001A39F700D811D11240B
:102E3000911DB29F700D811D1124911D08950E9456
:102E40001017460F571FC81FD91F08F43196089551
:102E5000CF93DF938230910510F482E090E0E0910F
:102E6000C203F091C30320E030E0A0E0B0E030976F
:102E700039F14081518148175907B8F0481759076F
:102E800071F482819381109729F013969C938E930D
:102E900012972CC09093C3038093C20327C02115BF
:102EA000310531F04217530718F0A901DB0101C0C9
:102EB000EF019A01BD01DF010280F381E02DD7CF40
:102EC00021153105F9F0281B390B2430310580F428
:102ED0008A819B816115710521F0FB0193838283B7
:102EE00004C09093C3038093C203FE01329644C092
:102EF000FE01E20FF31F8193919322503109398330
:102F000028833AC02091C0033091C103232B41F4A0
:102F100020910201309103013093C1032093C0033B
:102F200020910001309101012115310541F42DB7A7
:102F30003EB74091040150910501241B350BE091EF
:102F4000C003F091C103E217F307A0F42E1B3F0B5F
:102F50002817390778F0AC014E5F5F4F241735070B
:102F600048F04E0F5F1F5093C1034093C0038193FD
:102F7000919302C0E0E0F0E0CF01DF91CF9108959E
:102F8000CF93DF93009709F487C0FC013297138237
:102F90001282C091C203D091C303209781F4208193
:102FA0003181280F391F8091C0039091C10382178E
:102FB000930779F5F093C103E093C0036DC0DE0180
:102FC00020E030E0AE17BF0750F412964D915C91AF
:102FD00013979D014115510509F1DA01F3CFB38330
:102FE000A28340815181840F951F8A179B0771F43A
:102FF0008D919C911197840F951F029691838083E8
:1030000012968D919C91139793838283211531059C
:1030100029F4F093C303E093C2033EC0D901139691
:10302000FC93EE9312974D915D91A40FB51FEA1793
:10303000FB0779F480819181840F951F0296D90155
:1030400011969C938E938281938113969C938E9379
:103050001297E0E0F0E08A819B81009719F0FE0171
:10306000EC01F9CFCE01029628813981820F931F9E
:103070002091C0033091C1032817390769F43097B4
:1030800029F41092C3031092C20302C01382128269
:10309000D093C103C093C003DF91CF91089581E025
:1030A00090E0F8940C94541810E0CAECD0E004C0FE
:1030B000FE010E940C172296CC3CD107C9F7F89468
:0230C000FFCF40
:1030C2000000C403800004110B0E10056C6F6F70BA
:1030D200696E670000000000C91000000000DC00FB
:1030E2004578706C6F72696E6720526F6F6D004128
:1030F2006E206F626A6563742077617320666F75F4
:103102006E6420696E20726F6F6D20004E6F206FAB
:10311200626A6563742077617320666F756E6420DE
:10312200696E20726F6F6D2000526F6F6D2065782F
:10313200706C6F72656400636865636B696E6720AB
:10314200666F722077616C6C00436865636B696EB1
:103152006720666F7220726F6F6D004578697469BF
:103162006E6720526F6F6D00526F6F6D2073686FC4
:10317200756C64206265206578697465640000007E
:103182000000DC0000000000070BDA0AAF0AB70AF1
:10319200CA0AD90A000000004911C512CB10E41076
:1031A200D61027110D0A006E616E00696E66006FFF
:0631B2007666002E00000D
:00000001FF
