:100000000C9465000C948D000C948D000C948F065C
:100010000C948F060C948F060C948D000C948D001C
:100020000C948D000C947E040C948D000C948D0027
:100030000C948D000C948D000C948D000C948D000C
:100040000C94610D0C948D000C9450100C94821043
:100050000C948D000C948D000C948D000C948D00EC
:100060000C94340C0C948D00000000080002010078
:100070000003040700000000000000000102040863
:100080001020408001020408102001020408102002
:10009000040404040404040402020202020203032E
:1000A00003030303000000002300260029000000D2
:1000B0000000250028002B0000000000240027007D
:1000C0002A00D100520BB210EE0011241FBECFEF58
:1000D000D8E0DEBFCDBF11E0A0E0B1E0EAE5F8E294
:1000E00002C005900D92AA37B107D9F723E0AAE71D
:1000F000B1E001C01D92AC37B207E1F710E0C8ECE7
:10010000D0E004C02297FE010E94E712C23CD10752
:10011000C9F70E94F6100C9420140C94000026E0FD
:1001200040E855E260E070E08BED92E00E94EE0F57
:1001300040E855E260E070E087E891E00E949207B5
:1001400082E192E00E94180B61E08DE00E94710E46
:100150000E94940860E08DE00C94AA0E0E94200892
:1001600068E37FEF88EC90E00E946A0180910E02C4
:1001700090910F02A0911002B09111020097A10579
:10018000B0441CF40E942F08F1CF60E070E080E0E2
:1001900090E00E946A0168EB7BE080E090E00C94C4
:1001A000DA0D87EB91E00E94B90187EA91E00E94A5
:1001B000620584E191E09093A8018093A70186EA0B
:1001C00091E00E94FC0020E041E060E087E891E0DF
:1001D0000E9462078AE791E00C94F00887E891E0BA
:1001E0000E94090788E491E09093A8018093A701F9
:1001F00087EA91E00C947205089561E08AE00E941C
:10020000710E61E089E00E94710E61E088E00E9459
:10021000710E61E087E00E94710E80EA8093800099
:1002200081E18093810080E991E090938700809341
:10023000860008958091B801811105C081E0809306
:10024000B8010C94FD000895CF93DF93EC010E9458
:100250001A01D7FF05C0D195C195D10981E001C030
:1002600080E0C13991E0D90714F0C0E9D1E0D09322
:100270008B00C0938A009091BA01891711F061E058
:1002800001C060E088E0DF91CF910C94AA0ECF937B
:10029000DF93EC010E941A01D7FF05C0D195C195EB
:1002A000D10981E001C080E0C13991E0D90714F0A3
:1002B000C0E9D1E0D0938900C09388009091B90142
:1002C000891711F061E001C060E087E0DF91CF9114
:1002D0000C94AA0ECF93DF93EB010E942401CE0170
:1002E000DF91CF910C9447019091BD01E091C10144
:1002F000F091C201992311F0849101C080812FEB0C
:10030000280F2A3110F4805E0895803249F49F014D
:100310002F5F3F4F3093C2012093C101EF2B31F784
:1003200008951F93CF93DF930E947401C0E0D0E043
:100330001AE090ED980F9A30B8F49E01129FE001F8
:10034000139FD00D1124C80FD11D87FDDA95E097BA
:100350008091C1019091C20101969093C201809356
:10036000C1010E947401E5CFCE01DF91CF911F91B1
:10037000089508951092700081E28093B0008BE0A0
:100380008093B1008AEF8093B3001092B400539A27
:10039000789408952F923F924F925F926F927F923E
:1003A0008F929F92AF92BF92CF92DF92EF92FF9285
:1003B0000F931F93CF93DF9300D000D01F92CDB740
:1003C000DEB78C011B014B838091C301811105C0F5
:1003D00081E08093C3010E94BA0110920F0117FFC0
:1003E00004C01F772AE0298302C031E0398398E2F4
:1003F0008981899F902D1124A92FB0E0BD83AC8302
:10040000A017B10710F41D830C83B981B13049F4F2
:10041000EC81FD81E131F74220F080E197E29D839C
:100420008C839981C92ED12CE12CF12C8C819D815A
:10043000969587952C01612C712CAC81BD814D0165
:10044000A12CB12CA701960160E472E48FE090E04A
:100450000E942E11640D751D861D971DA501940126
:100460000E9494118901B2E0BA830F3F110509F18E
:1004700000F1EA81EF5FEA83F0E0EE0FFF1FE25D3B
:10048000FE4F2081318140E050E060E072E18AE778
:1004900090E00E949411C701B6010E942E11640DD4
:1004A000751D861D971DA50194010E949411890157
:1004B000DCCFF981FA3049F48C819D8105966AE0A0
:1004C00070E00E944A117D836C832C813D81283E1F
:1004D000334061F09101AC81BD810E94B31128EEDF
:1004E00033E040E050E00E94941119011092700036
:1004F0008091B100887F9A81892B8093B10000930D
:10050000B3002B81203108F02FE080E190E0821BC6
:10051000910902C0169507958A95E2F70093B400F9
:100520003092C0012092BF0187B38FEF87BB81E07B
:10053000809370000F900F900F900F900F90DF91AD
:10054000CF911F910F91FF90EF90DF90CF90BF90D0
:10055000AF909F908F907F906F905F904F903F9063
:100560002F900895CF93DF93EB018F3F11F041114E
:1005700005C040E0BE0188EE93E043C0813130F019
:1005800050EF580F503618F05FE501C050E0852F4E
:100590006CE00E943E11682F74EF760390011124E5
:1005A000250F311D2C30310540F4F901EE0FFF1FEE
:1005B000EA5EFE4F2081318102C020E030E08730CA
:1005C00081F0082E02C0220F331F0A94E2F7823016
:1005D00028F0C90105966AE070E00CC0C901905886
:1005E0000CC0C90136E0880F991F3A95E1F70296D1
:1005F00065E070E00E944A11CB01403108F04FE005
:10060000BE01DF91CF910C94CA014F925F926F921D
:100610007F928F929F92AF92BF92CF92DF92EF9292
:10062000FF920F931F93CF93DF9300D0CDB7DEB728
:1006300090900E018091BC01882321F06091BB0154
:10064000611117C077247394B0ECAB2EBDE5BB2EBF
:100650001AE0612E04E0802E80EDC82E87E0D82EAF
:1006600094E0E92EF12C04EF11E02FE0422E512C02
:1006700015C070E040E088EE93E00E94CA0110923D
:10068000BB0129C18636D4F5813609F4A9C07CF5B1
:100690008C3309F460C08E3381F493940E9474010A
:1006A0002091C1013091C2012F5F3F4F3093C201B1
:1006B0002093C101853631F752C0813209F08BC0D9
:1006C00080920E01D0920D01C0920C01F0920B01AC
:1006D000E0920A011093090100930801509207016A
:1006E000409206011092BC01A4E09A2ED7CF833627
:1006F000A1F10CF478C010E082E077C08D36C1F132
:1007000094F4873691F174F18C3609F064C00E943C
:100710009101BC0190930B0180930A0180910C011F
:1007200090910D0151C08237C9F14CF48F3609F018
:1007300052C00E949101982E80930E01AFCF843752
:1007400081F1863709F047C00E949101909307011B
:1007500080930601A3CF9A94A1CF10E020C010E0AF
:1007600084E043C010E085E040C010E087E03DC079
:100770000E9474018C3619F41092BC0104C070926E
:10078000BC011092BB012091C1013091C2012F5FC9
:100790003F4F3093C2012093C10180CF11E080E030
:1007A00024C00E949101BC01C5010E944A11669EAD
:1007B000C001679E900D112490930D0180930C0150
:1007C00060910A0170910B010E944A117093090116
:1007D0006093080163CF1092C2011092C1017BC0E7
:1007E00010E089E002C010E08BE0082F9CE0999EA9
:1007F000000D11240E947401982F977F933261F4A9
:100800002091C1013091C2012F5F3F4F3093C2014F
:100810002093C1010F5FEECF8D3271F42091C101A1
:100820003091C2012F5F3F4F3093C2012093C1012D
:1008300001500E947401F0CF60910801709109018C
:100840008153883050F4E0900C01F0900D010E942B
:100850009101BC01C7010E944A117B01F694E79403
:1008600069837A830E94740169817A818E3269F486
:100870002091C1013091C2012F5F3F4F3093C201DF
:100880002093C1016E0D7F1DE9CF8091BC018823AB
:1008900039F09B01369527952093BB01621B7109A6
:1008A00040910601112311F08FEF01C0802F0F90AE
:1008B0000F90DF91CF911F910F91FF90EF90DF90FC
:1008C000CF90BF90AF909F908F907F906F905F90F0
:1008D0004F900C94B2020F900F90DF91CF911F9127
:1008E0000F91FF90EF90DF90CF90BF90AF909F90CF
:1008F0008F907F906F905F904F9008951F920F920E
:100900000FB60F9211242F933F934F935F936F93E2
:100910007F938F939F93AF93BF93EF93FF938091B8
:10092000BF019091C0019C01215031093093C00159
:100930002093BF01892BE9F4109270007894809184
:10094000B100887F83608093B1008AEF8093B30009
:100950001092B40081E080930F018091C1019091C9
:10096000C201892B31F08091BE01811102C00E9429
:100970000503FF91EF91BF91AF919F918F917F916F
:100980006F915F914F913F912F910F900FBE0F90FC
:100990001F9018956F927F928F929F92AF92BF9205
:1009A000CF92DF92EF92FF920F931F93CF93DF933B
:1009B000EC018B018A859B85892B09F474C0D12CAD
:1009C0008C85D816E8F4ED2CF12C8E859F85F701E7
:1009D000EE0FFF1FE00FF11F91838083EA85FB85F7
:1009E000EE0DFF1D61E080810E94AA0EEA85FB8565
:1009F000EE0DFF1D61E080810E94710ED394E0CF67
:100A00008AE090E00E94020ED12C8C85D816A0F4CA
:100A1000ED2CF12CEA85FB85EE0DFF1D60E0808159
:100A20000E94710EEA85FB85EE0DFF1D60E080815E
:100A30000E94AA0ED394E9CF0E94B70D6B017C01EE
:100A40000E94B70D6C197D098E099F092E853F857F
:100A50004901A12CB12C681579058A059B0518F56B
:100A60000E94B70D3B016C187D08912C8C8598165F
:100A700038F7A92CB12CAA85BB85AA0DBB1D8C917A
:100A80000E94E00E892B51F4F501EE0FFF1FE00FDD
:100A9000F11F808191816816790610F09394E6CF5A
:100AA00071826082FBCFDF91CF911F910F91FF90F8
:100AB000EF90DF90CF90BF90AF909F908F907F90FE
:100AC0006F900895FC0188E491E091838083138204
:100AD000128215821482178216821186108613865E
:100AE00012860895CF93DF93EC0182E491E099831D
:100AF00088838A859B85009711F00E948C138C81D6
:100B00009D81009711F00E948C138885998500972C
:100B100011F00E948C138A819B81009711F00E9432
:100B20008C138E819F81009721F0DF91CF910C94DF
:100B30008C13DF91CF910895209106023091070226
:100B400028173907B9F49091C4018091C50198170D
:100B500089F0E091C401F0E0EA53FE4F80812091DA
:100B6000C40130E02F5F3F4F2F7333272093C40120
:100B700090E008958FEF9FEF08951F93CF93DF9339
:100B8000DC015C968D919C915D97009749F481E022
:100B900090E013969C938E93129780E090E03BC078
:100BA0005196ED91FC91529750962C915097322F7F
:100BB00030951FB75E964C915E9741FB772770F991
:100BC00041FD6095F8944081772311F0422B01C0DC
:100BD00043234083EC012197F1F748E0508160FF07
:100BE00002C0522B01C053235083EC012197F1F72F
:100BF0006695415099F78081772311F0832301C0D6
:100C0000822B80831FBF5C968D919C915D9701978D
:100C1000F1F781E090E0DF91CF911F91089520914D
:100C20000602309107022817390781F49091C40118
:100C30008091C501981751F0E091C401F0E0EA53AA
:100C4000FE4F8081992787FD909508958FEF9FEF44
:100C5000089520910602309107022817390771F490
:100C60008091C5012091C40190E0805C9F4F821B60
:100C7000910960E470E00E945E11089580E090E0C8
:100C8000089520910602309107022817390739F498
:100C90008FB7F8941092C5011092C4018FBF0895C8
:100CA000E0910602F0910702E817F90769F4A389B9
:100CB000B4899C918589809589238C931092070231
:100CC0001092060281E0089580E00895CF93DF93AB
:100CD000EC018A8D9B8D892BF1F080910602909119
:100CE00007028C179D07B9F0009711F00E9450067B
:100CF0008E8D8E7F8E8F1092C5011092C401D0937D
:100D00000702C0930602EB89FC8980819D89892BAB
:100D1000808381E001C080E0DF91CF9108951F9230
:100D20000F920FB60F9211242F933F934F935F931F
:100D30006F937F938F939F93AF93BF93EF93FF93A3
:100D4000E0910602F0910702309709F451C0868DB8
:100D5000A685B785958581FF04C08C91892329F4E8
:100D600047C08C91892309F043C0A389B4899C9121
:100D70008589809589238C93868997890197F1F7D6
:100D8000208D318DA685B785758558E040E0C90175
:100D90000197F1F7842F90E095958795482F6C91F6
:100DA000672309F04068515091F7868D81FD409589
:100DB0008091C50190E001968F7399272091C4011D
:100DC000281749F0A091C501B0E0AA53BE4F4C933B
:100DD0008093C50103C0868D8160868F828D938D3F
:100DE0000197F1F7A389B4898C919589892B8C930C
:100DF000FF91EF91BF91AF919F918F917F916F91F3
:100E00005F914F913F912F910F900FBE0F901F90C8
:100E100018952EE431E0FC01318320830C945006B8
:100E20001F93CF93DF93EC01162F6E8D6695617043
:100E300081E06827812F0E94AA0E61E0812F0E9425
:100E4000710E812F90E0FC01E458FF4FE491E88B94
:100E5000FC01E057FF4FE491F0E0EE0FFF1FE25579
:100E6000FF4F859194919A8B898BDF91CF911F9140
:100E700008951F93CF93DF93EC01162F60E0812F2D
:100E80000E94710E8E8D81FD04C061E0812F0E9451
:100E9000AA0E1C87812F90E0FC01E458FF4FE491DB
:100EA000ED87FC01E057FF4FE491F0E0EE0FFF1FEC
:100EB000EC55FF4F859194919F878E87DF91CF915D
:100EC0001F910895FF920F931F93CF93DF93EC012F
:100ED000F62E522F1B821A8208EE13E020E030E03B
:100EE0000C831D832E833F838EE491E09983888356
:100EF0001F8A1E8A198E188E1B8E1A8E1D8E1C8EAE
:100F00008E8D8E7F50FB81F98E8F642FCE010E94D3
:100F100010076F2DCE01DF91CF911F910F91FF90A0
:100F20000C943907CF93DF93EC019A01AB011B8E30
:100F30001A8E198E188E1F8A1E8A60E079E08DE362
:100F400090E00E949411C9012430310520F0B901CC
:100F50006350710902C061E070E07D8F6C8FEC8599
:100F6000E63108F068C0B90176956795643171057E
:100F700018F06351710902C061E070E07F8B6E8BE5
:100F8000069718F0C901059702C081E090E0998F9B
:100F9000888FC901880F991F820F931F9695879597
:100FA000969587958D30910510F00C9702C081E0E1
:100FB00090E09B8F8A8F20916800E83050F091E09C
:100FC000EE3008F490E081E001C0880F9A95EAF7CE
:100FD00001C084E0822B809368002C85283038F093
:100FE0002E3040F0263148F48CE690E008C08DE6C3
:100FF00090E005C08BE690E002C080E090E09C8B22
:101000008B8B283030F481E001C0880F2A95EAF7F5
:101010000DC0822F90E02E3010F4089701C00E977B
:1010200091E001C0990F8A95EAF7892F8D8B8C8DFD
:101030009D8D0197F1F7CE01DF91CF910C9466065B
:101040000E94B70D709309026093080210920E027D
:1010500010920F02109210021092110208958F92B6
:101060009F92AF92BF92CF92DF92EF92FF920F9337
:101070001F938AE791E00E944A0980917E01909136
:101080007F0120910A0230910B02821B930B9093F7
:101090000D0280930C020E94B70D2091080230913E
:1010A0000902AB01421B530B9A0170930902609332
:1010B0000802A0910C02B0910D020E94C21120E022
:1010C00030E040EE50E00E94D411EDE8AE2EF8E39F
:1010D000BF2EACE0CA2EDD24D394E12CF12C00E02D
:1010E00010E00E94101249015A0180910E02909165
:1010F0000F02A0911002B0911102880D991DAA1D36
:10110000BB1D80930E0290930F02A0931002B09328
:1011100011021F910F91FF90EF90DF90CF90BF9041
:10112000AF909F908F900895CF92DF92EF92FF92B1
:10113000CF93DF9382E192E00E94180B42E050E0EF
:1011400063E070E08AE791E00E94F4094FEF60E20B
:101150008AE791E00E94F90840E263E28AE791E0C1
:101160000E94F90840E064E28AE791E00E94F908F1
:1011700064EF71E080E090E00E94DA0DC0E0D4E01E
:10118000C12CD12C760167E28AE791E00E94220906
:101190008AE791E00E944A0980917E0190917F0147
:1011A000AA2797FDA095BA2FC80ED91EEA1EFB1ECE
:1011B000219749F7C701B60120E034E040E050E054
:1011C0000E94941130930B0220930A020E9420087F
:1011D000DF91CF91FF90EF90DF90CF900C942F088C
:1011E000FC0183E090E09087878313861286148643
:1011F0000895EF92FF921F93CF93DF931F92CDB785
:10120000DEB77C01162FFC01618582E192E0498303
:101210000E94320B612F82E192E00E94D90A49813B
:10122000642F82E192E00E94D90A82E192E00E945A
:101230004F0BF70186830F90DF91CF911F91FF90A5
:10124000EF9008951F93CF93DF93EC01162F6985DC
:1012500082E192E00E94320B612F82E192E00E94D3
:10126000D90A82E192E00E944F0B8E8341E06985AA
:1012700082E192E00E942F0B82E192E00E94890AB3
:10128000C82F82E192E00E944F0B8C2FDF91CF910B
:101290001F9108959F92AF92BF92CF92DF92EF92EB
:1012A000FF920F931F93CF93DF93EC01698582E147
:1012B00092E00E94320BE0911202F0911302019031
:1012C000F081E02D68EA82E192E0099582E192E006
:1012D0000E944F0B46E0698582E192E00E942F0B4D
:1012E0000E94AB0D7B0182E192E00E94810A069789
:1012F00084F48A859B85892BB1F30E94AB0D6E190E
:101300007F098A859B858617970768F781E08C8718
:101310002CC082E192E00E94890AA82E82E192E02C
:101320000E94890A982E82E192E00E94890AE82EA2
:1013300082E192E00E94890AB82E82E192E00E9446
:10134000890AF82E82E192E00E94890AD92CC12CE8
:10135000CA28D982C8821B2D00E00E291B830A836C
:10136000982F88278F299D838C83DF91CF911F91A0
:101370000F91FF90EF90DF90CF90BF90AF909F9034
:1013800008951F93CF93DF931F92CDB7DEB7162F2B
:1013900082E192E049830E94320B4981642F82E10D
:1013A00092E00E94D90A82E192E00E944F0B8111E3
:1013B00014C041E0612F82E192E00E942F0B82E194
:1013C00092E00E94810A892B41F082E192E00F9025
:1013D000DF91CF911F910C94890A8FEF9FEF0F90AF
:1013E000DF91CF911F910895EF92FF920F931F937A
:1013F000CF93DF937C01EB018A016330710521F00B
:101400004230510509F051C0CE010197039758F5BC
:101410000115110581F04FE050E06BE6C7010E9415
:10142000C1098F3F2FEF920719F001E010E013C0C0
:101430000130110551F04FE050E06AE6C7010E940B
:10144000C1098F3FEFEF9E0721F4C330D10569F04A
:1014500027C000E010E0C330D10529F4873D910595
:10146000F1F5C2E0D0E02097D9F40115110561F043
:101470004FE050E069E6C7010E94C109833D910534
:1014800089F10130110549F04FE050E068E6C701ED
:101490000E94C109833D910541F1C330D10519F086
:1014A0000230110511F480E025C0F701D087C78311
:1014B000209759F0D7FD11C023977CF40130110516
:1014C00011F48BE608C08AE606C00130110511F45C
:1014D00089E601C088E6F701818781E00BC0C1E0A1
:1014E000D0E0C1CF01E010E002C000E010E0C0E0B9
:1014F000D0E0D6CFDF91CF911F910F91FF90EF9069
:1015000008958091420290E020914302821B91094C
:1015100008952091430280914202281750F4E22F4F
:10152000F0E0EC5BFD4F808190E02F5F2093430261
:1015300008958FEF9FEF0895E0914302809142025A
:10154000E81730F4F0E0EC5BFD4F808190E0089507
:101550008FEF9FEF08950895CF92DF92EF92FF9261
:101560000F931F93CF93DF937C01CB018A012091CE
:101570001E02222389F0EB016B01C40ED51ECC158F
:10158000DD0569F06991D701ED91FC910190F08141
:10159000E02DC7010995F3CF642F0E940B0CC80101
:1015A000DF91CF911F910F91FF90EF90DF90CF903F
:1015B0000895CF93DF931F92CDB7DEB76983209153
:1015C0001E022223D1F020911F02203240F021E0A0
:1015D00030E0FC013383228380E090E015C08091ED
:1015E0002002E82FF0E0EF5DFD4F998190838F5F3F
:1015F0008093200280931F0205C061E0CE01019616
:101600000E940B0C81E090E00F90DF91CF91089544
:10161000FC011382128248EE53E060E070E04483E4
:101620005583668377838EE591E091838083089567
:1016300010924302109242021092200210921F0256
:101640000C94560B862F413208F040E264E472E0BD
:101650000E94740B1092430280934202089521E08D
:101660000C94220B81E080931E0260934102109241
:10167000200210921F0208950F93062F21E040913F
:101680001F0261E272E0809141020E94B80B109249
:10169000200210921F0210921E020F91089561E025
:1016A0000C943C0B82E192E00C94080B1092D10256
:1016B00081E08093CF021092CE0261E082E10E942D
:1016C000AA0E61E083E10E94AA0EE9EBF0E08081BE
:1016D0008E7F808380818D7F808388E48093B800B3
:1016E00085E48093BC000895413208F03FC090919A
:1016F000D1029111FCCF91E09093D1022093CF02BF
:101700002FEF209364021092A902240F2093A802C5
:101710009093D0029091D002880F892B8093D002B1
:101720008091CE02813041F41092CE028091D0029D
:101730008093BB0085EC01C085EE8093BC00809156
:10174000D1028130E1F38091A902841710F4409115
:10175000A9022AEA32E0FB01D9018A2F821B8417F1
:1017600018F48D918193F9CF842F089580E0089526
:101770000F93413208F046C09091D1029111FCCFF5
:1017800092E09093D1020093CF029FEF9093640276
:101790001092A9024093A802FB016AEA72E0DB0101
:1017A0009A2F961B941718F491919D93F9CF10924C
:1017B000D0029091D002880F892B8093D002809123
:1017C000CE02813041F41092CE028091D0028093FB
:1017D000BB0085EC01C085EE8093BC00222321F084
:1017E0008091D1028230E1F3809164028F3F61F0F9
:1017F00080916402803251F080916402803341F420
:1018000083E007C081E005C080E003C082E001C042
:1018100084E00F910895613298F42091D102243030
:1018200089F460938602FC0188E892E0DC012A2FAB
:10183000281B261718F421912D93F9CF80E00895E5
:1018400081E0089582E0089585ED8093BC00809149
:10185000BC0084FDFCCF1092D102089585EC8093EA
:10186000BC001092D10208951F920F920FB60F92F2
:1018700011242F933F934F935F936F937F938F9395
:101880009F93AF93BF93EF93FF938091B900887FAD
:10189000803609F49CC068F5883209F45BC090F486
:1018A000803109F454C038F4882309F4F5C0883035
:1018B00009F44DC0F5C0883109F44CC0803209F4F8
:1018C0005DC0EEC0803409F468C048F4803309F488
:1018D00055C0883309F0E4C080936402A8C0803505
:1018E00009F44FC0883509F45DC0883409F0D8C0C8
:1018F000D5C0883909F4C6C0A8F4883709F467C090
:1019000038F4883609F463C0803709F460C0C8C071
:10191000883809F4B7C0803909F45FC0803809F00D
:10192000BFC05BC0803B09F485C038F4803A09F43D
:1019300066C0883A09F47EC0B3C0803C09F4A6C0F2
:10194000883C09F4A3C0883B09F489C0A9C08091F0
:10195000D00210C09091A9028091A802981770F54A
:10196000E091A90281E08E0F8093A902F0E0E65594
:10197000FD4F80818093BB0085EC85C0809364021D
:101980008DC0E091A90281E08E0F8093A902809121
:10199000BB00F0E0E655FD4F80839091A902809155
:1019A000A8026DC0E091A90281E08E0F8093A90288
:1019B0008091BB00F0E0E655FD4F80838091CF021F
:1019C00081116CC081E08093CE0284EA60C083E024
:1019D0008093D10210926502CFCF80916502803250
:1019E00008F050C0E091650281E08E0F809365029F
:1019F0008091BB00F0E0EA59FD4F8083BDCF80911C
:101A00006502803230F4E0916502F0E0EA59FD4F62
:101A100010820E94240C6091650270E0E091CA027D
:101A2000F091CB0286E692E00995109265020E9441
:101A30002E0C36C084E08093D1021092870210925F
:101A40008602E091CC02F091CD0209958091860248
:101A5000811105C081E08093860210928802E09196
:101A6000870281E08E0F80938702F0E0E857FD4FF8
:101A700080818093BB0090918702809186029817A5
:101A800008F47ACF85E88093BC000AC085EC809387
:101A9000BC001092D10204C0109264020E94240C77
:101AA000FF91EF91BF91AF919F918F917F916F9136
:101AB0005F914F913F912F910F900FBE0F901F900C
:101AC00018951F920F920FB60F9211242F933F93E8
:101AD0008F939F93AF93BF938091D3029091D40241
:101AE000A091D502B091D6023091D20223E0230F0B
:101AF0002D3720F40196A11DB11D05C026E8230F46
:101B00000296A11DB11D2093D2028093D30290931F
:101B1000D402A093D502B093D6028091D7029091BF
:101B2000D802A091D902B091DA020196A11DB11D8F
:101B30008093D7029093D802A093D902B093DA028F
:101B4000BF91AF919F918F913F912F910F900FBEB9
:101B50000F901F9018952FB7F8946091D302709151
:101B6000D4028091D5029091D6022FBF08953FB73D
:101B7000F8948091D7029091D802A091D902B091A7
:101B8000DA0226B5A89B05C02F3F19F00196A11DCA
:101B9000B11D3FBF6627782F892F9A2F620F711DC5
:101BA000811D911D42E0660F771F881F991F4A957E
:101BB000D1F70895CF92DF92EF92FF92CF93DF9308
:101BC0006B017C010E94B70DEB01C114D104E1044B
:101BD000F10489F00E942D110E94B70D6C1B7D0B42
:101BE000683E734090F381E0C81AD108E108F1081B
:101BF000C851DC4FEACFDF91CF91FF90EF90DF909B
:101C0000CF9008958230910538F0880F991F880F82
:101C1000991F05970197F1F70895789484B582602C
:101C200084BD84B5816084BD85B5826085BD85B580
:101C3000816085BDEEE6F0E0808181608083E1E82F
:101C4000F0E0108280818260808380818160808367
:101C5000E0E8F0E0808181608083E1EBF0E080816A
:101C600084608083E0EBF0E0808181608083EAE73C
:101C7000F0E08081846080838081826080838081C5
:101C8000816080838081806880831092C100089584
:101C9000833081F028F4813099F08230A1F00895EA
:101CA0008730A9F08830B9F08430D1F48091800079
:101CB0008F7D03C0809180008F778093800008958E
:101CC00084B58F7702C084B58F7D84BD08958091DF
:101CD000B0008F7703C08091B0008F7D8093B000FB
:101CE0000895CF93DF9390E0FC01E458FF4F2491D7
:101CF000FC01E057FF4F8491882349F190E0880F61
:101D0000991FFC01E854FF4FA591B49182559F4F54
:101D1000FC01C591D4919FB7611108C0F8948C91D2
:101D2000209582238C93888182230AC0623051F4EB
:101D3000F8948C91322F309583238C938881822B59
:101D4000888304C0F8948C91822B8C939FBFDF9181
:101D5000CF9108950F931F93CF93DF931F92CDB729
:101D6000DEB7282F30E0F901E859FF4F8491F901DF
:101D7000E458FF4F1491F901E057FF4F04910023FD
:101D8000C9F0882321F069830E94480E6981E02F01
:101D9000F0E0EE0FFF1FE255FF4FA591B4919FB702
:101DA000F8948C91611103C01095812301C0812B9F
:101DB0008C939FBF0F90DF91CF911F910F9108954A
:101DC000CF93DF93282F30E0F901E859FF4F84913A
:101DD000F901E458FF4FD491F901E057FF4FC49146
:101DE000CC2391F081110E94480EEC2FF0E0EE0F11
:101DF000FF1FEC55FF4FA591B4912C912D2381E04D
:101E000090E021F480E002C080E090E0DF91CF918B
:101E100008950E941B14FC01818D228D90E0805C4E
:101E20009F4F821B91098F7399270895FC01918D13
:101E3000828D981731F0828DE80FF11D858D90E02D
:101E400008958FEF9FEF0895FC01918D828D981773
:101E500061F0828DDF01A80FB11D5D968C91928D8E
:101E60009F5F9F73928F90E008958FEF9FEF08958B
:101E700088EA90E1892B49F080E090E0892B29F0F5
:101E80000E94A81081110C9400000895FC01848D1B
:101E9000DF01A80FB11DA35ABF4F2C91848D90E094
:101EA00001968F739927848FA689B7892C93A0896F
:101EB000B1898C9180648C93938D848D981306C026
:101EC0000288F389E02D80818F7D80830895CF93F0
:101ED000DF93EC01888D8823C9F0EA89FB89808132
:101EE00085FD05C0A889B9898C9186FD0FC00FB604
:101EF00007FCF5CF808185FFF2CFA889B9898C9145
:101F000085FFEDCFCE010E94460FE7CFDF91CF9145
:101F10000895CF92DF92FF920F931F93CF93DF9399
:101F20001F92CDB7DEB76C0181E0D60158968C9335
:101F300058975B969C915B975C968C915C979813F5
:101F400007C05096ED91FC915197808185FD2EC080
:101F5000F601038D10E00F5F1F4F0F731127F02E56
:101F6000F601848DF81211C00FB607FCF9CFD60127
:101F70005096ED91FC915197808185FFF1CFC6017C
:101F800069830E94460F6981EBCF838DE80FF11DB5
:101F9000E35AFF4F6083D6015B960C935B97529692
:101FA000ED91FC915397808180620CC0D6015696CA
:101FB000ED91FC91579760835096ED91FC9151976C
:101FC00080818064808381E090E00F90DF91CF91E9
:101FD0001F910F91FF90DF90CF900895BF92CF9205
:101FE000DF92EF92FF92CF93DF93EC016A017B01C6
:101FF000B22EE889F98982E08083411581EE580785
:1020000061057105A1F060E079E08DE390E0A70142
:1020100096010E94721121503109410951095695CA
:10202000479537952795211580E1380798F0E8897D
:10203000F989108260E874E88EE190E0A7019601CA
:102040000E94721121503109410951095695479555
:1020500037952795EC85FD853083EE85FF852083B8
:10206000188EEC89FD89B082EA89FB8980818061C4
:102070008083EA89FB89808188608083EA89FB8983
:10208000808180688083EA89FB8980818F7D80835D
:10209000DF91CF91FF90EF90DF90CF90BF900895A8
:1020A0001F920F920FB60F9211242F938F939F932D
:1020B000EF93FF93E091EB02F091EC028081E091CD
:1020C000F102F091F20282FD12C090818091F4023F
:1020D0008F5F8F732091F502821751F0E091F40227
:1020E000F0E0E552FD4F958F8093F40201C08081AE
:1020F000FF91EF919F918F912F910F900FBE0F90B5
:102100001F9018951F920F920FB60F9211242F93C4
:102110003F934F935F936F937F938F939F93AF936F
:10212000BF93EF93FF938BED92E00E94460FFF91D8
:10213000EF91BF91AF919F918F917F916F915F913F
:102140004F913F912F910F900FBE0F901F901895B8
:102150008BED92E00E940B0F21E0892B09F420E027
:10216000822F08951092DE021092DD0288EE93E035
:10217000A0E0B0E08093DF029093E002A093E10240
:10218000B093E2028EE691E09093DC028093DB0252
:1021900085EC90E09093E8028093E70284EC90E075
:1021A0009093EA028093E90280EC90E09093EC0235
:1021B0008093EB0281EC90E09093EE028093ED022D
:1021C00082EC90E09093F0028093EF0286EC90E036
:1021D0009093F2028093F1021092F4021092F502B1
:1021E0001092F6021092F702089508950E940D0EC3
:1021F0000E94F5100E948F00C8E3DFE00E94AE004D
:102200002097E1F30E94380FF9CFCF92DF92EF923F
:10221000FF920F931F93CF93DF936C017A01EB0131
:10222000E60EF71E00E010E0CE15DF0561F06991C3
:10223000D601ED91FC910190F081E02DC601099548
:10224000080F191FF1CFC801DF91CF911F910F9196
:10225000FF90EF90DF90CF9008950895DB018F936A
:102260009F930E94C911BF91AF91A29F800D911DB4
:10227000A39F900DB29F900D11240895991B79E0B2
:1022800004C0991F961708F0961B881F7A95C9F706
:1022900080950895AA1BBB1B51E107C0AA1FBB1F55
:1022A000A617B70710F0A61BB70B881F991F5A95E2
:1022B000A9F780959095BC01CD01089597FB072E55
:1022C00016F4009407D077FD09D00E944A1107FC4C
:1022D00005D03EF4909581959F4F08957095619536
:1022E0007F4F0895A1E21A2EAA1BBB1BFD010DC052
:1022F000AA1FBB1FEE1FFF1FA217B307E407F507B6
:1023000020F0A21BB30BE40BF50B661F771F881F91
:10231000991F1A9469F760957095809590959B0127
:10232000AC01BD01CF010895052E97FB1EF400946A
:102330000E94AB1157FD07D00E94721107FC03D019
:102340004EF40C94AB1150954095309521953F4F2C
:102350004F4F5F4F089590958095709561957F4F91
:102360008F4F9F4F0895A29FB001B39FC001A39FBD
:10237000700D811D1124911DB29F700D811D1124BE
:10238000911D08950E94B311B7FF0895821B930B0E
:1023900008950E94B311A59F900DB49F900DA49F26
:1023A000800D911D1124089597FB57FF0C94E411A3
:1023B0009F938F930E94E4116E1B7F0BAF91BF918F
:1023C0008A0B9B0B0895E894DF93CF93FC01DB010C
:1023D0000E94B3117F936F93E9019A01AC01BF93FF
:1023E000AF933F932F93DF010E94B31126F46C1B30
:1023F0007D0B820B930B9E01EB01FC010E94EB1203
:10240000AF91BF912F913F910E94EB12BE01CF017E
:10241000F9012F913F91CF91DF910895689401C008
:10242000E894F92FF12B12F00C944212A0E0B0E0E6
:10243000ECE1F2E10C94B412092E059422F40E940E
:102440009E12112392F4F0E80F26FFEFE094F0942F
:1024500000951095B094C094D094A194BF0ACF0A6F
:10246000DF0AEF0AFF0A0F0B1F0B0E944D1207FC39
:102470000E949E12CDB7DEB7ECE00C94D0126894A7
:1024800001C0E8948F929F92CF93DF930E944D12E8
:10249000DF91CF919F908F90089588249924F40123
:1024A000E401B0E49F93AA279A158B049C04ED05E0
:1024B000FE05CF05D007A10798F4AD2FDC2FCF2F55
:1024C000FE2FE92D982C892E982F872F762F652F98
:1024D000542F432F322F2227B85031F7BF9127C0F6
:1024E0001B2EBF91BB27220F331F441F551F661F92
:1024F000771F881F991F881C991CEE1FFF1FCC1F78
:10250000DD1FAA1FBB1F8A149B04EC05FD05CE0529
:10251000DF05A007B10748F08A189B08EC09FD0900
:10252000CE09DF09A00BB10B21601A94E1F62EF45D
:102530009401AF01BE01CD01000C08956095709526
:102540008095909530954095509521953F4F4F4FF0
:102550005F4F6F4F7F4F8F4F9F4F08952F923F9246
:102560004F925F926F927F928F929F92AF92BF92A3
:10257000CF92DF92EF92FF920F931F93CF93DF934F
:10258000CDB7DEB7CA1BDB0B0FB6F894DEBF0FBEAC
:10259000CDBF09942A88398848885F846E847D84F9
:1025A0008C849B84AA84B984C884DF80EE80FD80FB
:1025B0000C811B81AA81B981CE0FD11D0FB6F89471
:1025C000DEBF0FBECDBFED010895EE0FFF1F0590DA
:1025D000F491E02D09940E94B311460F571FC81FB4
:1025E000D91F08F431960895CF93DF938230910577
:1025F00010F482E090E0E0917A03F0917B0320E018
:1026000030E0A0E0B0E0309739F1408151814817C7
:102610005907B8F04817590771F4828193811097D0
:1026200029F013969C938E9312972CC090937B0362
:1026300080937A0327C02115310531F042175307E3
:1026400018F0A901DB0101C0EF019A01BD01DF0112
:102650000280F381E02DD7CF21153105F9F0281B39
:10266000390B2430310580F48A819B816115710515
:1026700021F0FB019383828304C090937B038093BA
:102680007A03FE01329644C0FE01E20FF31F8193EC
:10269000919322503109398328833AC020917803DD
:1026A00030917903232B41F42091020130910301F1
:1026B0003093790320937803209100013091010138
:1026C0002115310541F42DB73EB7409104015091D9
:1026D0000501241B350BE0917803F0917903E21793
:1026E000F307A0F42E1B3F0B2817390778F0AC0135
:1026F0004E5F5F4F2417350748F04E0F5F1F509312
:102700007903409378038193919302C0E0E0F0E075
:10271000CF01DF91CF910895CF93DF93009709F414
:1027200087C0FC01329713821282C0917A03D09144
:102730007B03209781F420813181280F391F8091FC
:102740007803909179038217930779F5F0937903D1
:10275000E09378036DC0DE0120E030E0AE17BF07E4
:1027600050F412964D915C9113979D0141155105BE
:1027700009F1DA01F3CFB383A28340815181840F41
:10278000951F8A179B0771F48D919C911197840F67
:10279000951F02969183808312968D919C91139739
:1027A000938382832115310529F4F0937B03E09311
:1027B0007A033EC0D9011396FC93EE9312974D9184
:1027C0005D91A40FB51FEA17FB0779F48081918111
:1027D000840F951F0296D90111969C938E93828146
:1027E000938113969C938E931297E0E0F0E08A8198
:1027F0009B81009719F0FE01EC01F9CFCE01029602
:1028000028813981820F931F2091780330917903B9
:102810002817390769F4309729F410927B03109236
:102820007A0302C013821282D0937903C093780393
:10283000DF91CF91089581E090E0F8940C942014FA
:1028400010E0C8ECD0E004C0FE010E94E71222961E
:0A285000CA3CD107C9F7F894FFCF86
:10285A0000007C0380000F00F4010400D00704018B
:10286A0000000000CA049C01B501CF01EA01070279
:10287A002602470269028E02B502DE020A0300003E
:10288A000100080020004000800000010004000050
:10289A000000090F00000000CA0400000000BD0586
:1028AA00051129069C050F06410600000000D90AF9
:1028BA00AC0A810A890A9C0AAB0A00000000890F47
:0A28CA0005110B0F240F160F670F06
:00000001FF
