:100000000C9466000C948E000C948E000C948E0060
:100010000C948E000C948E000C948E000C94D10FD6
:100020000C948E000C948E000C948E000C948E0018
:100030000C948E000C948E000C948E000C948E0008
:100040000C94F80F0C948E000C94E7120C94191376
:100050000C948E000C948E000C948E000C948E00E8
:100060000C94390D0C948E00000000080002010071
:100070000003040700000000000000000102040863
:100080001020408001020408102001020408102002
:10009000040404040404040402020202020203032E
:1000A00003030303000000002300260029000000D2
:1000B0000000250028002B0000000000240027007D
:1000C0002A00D3003908570C4913DE0011241FBE43
:1000D000CFEFD8E0DEBFCDBF12E0A0E0B1E0E0E7B7
:1000E000F2E302C005900D92A439B107D9F724E0DC
:1000F000A4E9B2E001C01D92A236B207E1F710E018
:10010000CAECD0E004C02297FE010E94E317C23C73
:10011000D107C9F70E948D130C942B190C94000081
:1001200026E040E855E260E070E081EC93E00E9458
:10013000851283EF92E00E941D0C61E08DE00E9429
:10014000081161E08DE00E9441110E94D2086CE02C
:1001500071E081EC93E00E94E71384E992E00E9451
:100160007C0B8EE992E00E94370561E371E081EC3F
:1001700093E00E94E71384E992E00E947C0B60E028
:100180008DE00C94411166E571E081EC93E00E94F2
:10019000E7138EE992E00E94370868EE73E080E092
:1001A00090E00C9471108EE992E00E94280521E005
:1001B00041E06CE084E992E00C94170B88E691E052
:1001C00090939F0280939E028EE992E00C94FE042D
:1001D0006F927F928F929F92AF92BF92CF92DF9257
:1001E000EF92FF920F931F93CF93DF93EC018B015C
:1001F0008A859B85892B09F474C0D12C8C85D816EF
:10020000E8F4ED2CF12C8E859F85F701EE0FFF1F92
:10021000E00FF11F91838083EA85FB85EE0DFF1DC2
:1002200061E080810E944111EA85FB85EE0DFF1D92
:1002300061E080810E940811D394E0CF8AE090E0D1
:100240000E949910D12C8C85D816A0F4ED2CF12C9D
:10025000EA85FB85EE0DFF1D60E080810E9408119C
:10026000EA85FB85EE0DFF1D60E080810E94411153
:10027000D394E9CF0E944E106B017C010E944E1076
:100280006C197D098E099F092E853F854901A12C96
:10029000B12C681579058A059B0518F50E944E104A
:1002A0003B016C187D08912C8C85981638F7A92C89
:1002B000B12CAA85BB85AA0DBB1D8C910E9477111C
:1002C000892B51F4F501EE0FFF1FE00FF11F808124
:1002D00091816816790610F09394E6CF718260825E
:1002E000FBCFDF91CF911F910F91FF90EF90DF90A7
:1002F000CF90BF90AF909F908F907F906F90089518
:10030000EF92FF920F931F93CF93DF931F92CDB77E
:10031000DEB77C018B01DC0113961C921E921297B2
:1003200015961C921E92149717961C921E92169761
:1003300019961C921E921897413120F080E11C966C
:100340008C9302C0FC014487D7011A968D919C9131
:100350001B97892B11F030E00FC0F701848590E0E6
:1003600029830E94FF17D7011B969C938E931A979F
:100370002981892B81F715C0F7018485381780F40E
:10038000832F90E0F801E80FF91F4081D7011A96FA
:10039000ED91FC911B97E80FF91F40833F5FECCF75
:1003A00025870F90DF91CF911F910F91FF90EF90D4
:1003B0000895CF93DF93EC018D858F3F69F061E065
:1003C0000E94081160E08D850E94411188EC90E048
:1003D000DF91CF910C949910DF91CF910895CF9335
:1003E000DF93EC018D858F3F69F061E00E94081179
:1003F00061E08D850E94411188EC90E0DF91CF9102
:100400000C949910DF91CF910895DF92EF92FF92B3
:100410000F931F93CF93DF93CDB7DEB7A0970FB69F
:10042000F894DEBF0FBECDBF8C017B01D42E8FEFC1
:10043000840F823020F4C8010E94EF0103C0C8017C
:100440000E94D901D801ED91FC910190F081E02D3D
:10045000B701C8010995C8010E94D901B2E0DB12B9
:100460002FC0D801ED91FC910190F081E02DBE01EB
:100470006F5F7F4FC801099540E0F80184854817F8
:10048000F8F4842F90E0880F991FF701E80FF91F07
:1004900021E030E02C0F3D1F820F931FD8011E96E4
:1004A0002D913C911F97DC018D919C91281B390B5C
:1004B00080819181820F931F918380834F5FDDCF75
:1004C000A0960FB6F894DEBF0FBECDBFDF91CF91DF
:1004D0001F910F91FF90EF90DF9008952F923F9220
:1004E0005F926F927F928F929F92AF92BF92CF92C4
:1004F000DF92EF92FF920F931F93CF93DF93CDB7CD
:10050000DEB7C056D1090FB6F894DEBF0FBECDBF1F
:100510008C014B015A01522EDA018D919C91892B4D
:1005200031F0F40180819181892BF1F424C0D8014C
:100530001C968C9190E0880F991F0E94FF17F5017F
:1005400091838083009709F4B1C0FC0120E030E082
:10055000D8011C968C9190E02817390714F7119256
:1005600011922F5F3F4FF4CFE12CF12C6E01B1E2DD
:10057000CB0ED11C21C0F801848590E0880F991F13
:100580000E94FF17D4018D939C93009709F48EC0AD
:10059000FC0120E030E0D8011C968C9190E02817F7
:1005A000390714F7D8011E968D919C911F9781935E
:1005B00091932F5F3F4FEFCF452DBE016F5B7F4F74
:1005C000C8010E940502F8016484712CFE01EF5BF2
:1005D000FF4FC6019E012F5F3F4F190120E030E021
:1005E000261537054CF5E114F10489F0DC016D9115
:1005F0007C91408151816417750748F0D1016D915C
:100600007C91408151814617570748F00DC04081C9
:100610005181DC014D935C93E114F10479F7408141
:100620005181D1014D935C932F5F3F4FB2E02B0E70
:10063000311C32960296D4CFEFEFEE1AFE0AFAE0A2
:10064000EF16F10409F0B8CF9E012F5F3F4F7901FB
:10065000360180E090E0F801248530E082179307AE
:100660002CF5D7012D913D917D01B3016C197D09C8
:10067000D501ED91FC91E60FF71F408151814217A2
:10068000530710F431832083F301219131913F010D
:10069000D401ED91FC91E60FF71F408151812417A1
:1006A000350710F4318320830196D5CFC05ADF4F30
:1006B0000FB6F894DEBF0FBECDBFDF91CF911F9173
:1006C0000F91FF90EF90DF90CF90BF90AF909F90F1
:1006D0008F907F906F905F903F902F9008951F9321
:1006E000CF93DF93EC01162F8FEF860F823018F037
:1006F000662369F019C021E0AE014C5F5F4FBE0177
:100700006E5F7F4FCE010E946E02123069F4AE011F
:10071000485F5F4FBE016A5F7F4F20E0CE01DF91EF
:10072000CF911F910C946E02DF91CF911F9108958C
:10073000BF92CF92DF92EF92FF920F931F93CF93CE
:10074000DF93EC018B01B42E842F8D7F51F48E81C9
:100750009F81892B09F497C088859985892B09F495
:1007600092C08FEF8B0D823050F48A819B81892B50
:1007700009F489C08C819D81892B09F484C04B2D9B
:10078000B801CE010E940502780100E010E0C12C02
:10079000D12C8C8590E0C816D9060CF074C081E08D
:1007A000B8120AC0EC81FD81E00FF11F0190F081C9
:1007B000E02DAA81BB810DC08E819F81288539855E
:1007C000B1100CC0F901E00FF11F0190F081E02D94
:1007D000DC01A00FB11F8D919C9128C0FC01E00F9E
:1007E000F11F40815181EA81FB81E00FF11F80817F
:1007F0009181EE85FF854817590710F4CF0104C099
:100800008E0F9F1F841B950BD901A00FB11F2D9137
:100810003C91AC81BD81A00FB11F4D915C9124171B
:10082000350720F0E40FF51FE21BF30BE81BF90B73
:10083000A9F0D7012D913C9140E050E0281B390BE5
:1008400041095109A8EEB3E00E94BD169F0140E0A6
:1008500050E00E94971637FD0AC002C020E030E049
:10086000293EB3E03B072CF028EE33E002C020E045
:1008700030E0F701219331937F01FFEFCF1ADF0AB8
:100880000E5F1F4F86CFDF91CF911F910F91FF9089
:10089000EF90DF90CF90BF9008952F923F924F92AC
:1008A0005F926F927F928F929F92AF92BF92CF9200
:1008B000DF92EF92FF920F931F93CF93DF93EC01A0
:1008C0008B01822E0E9498032C84E801412C512C2C
:1008D000320100E010E0C12CD12C7601312C912C9A
:1008E000E8EEAE2EE3E0BE2E921421F1E991F991EB
:1008F000882021F0C5018E1B9F0BFC01E93CF1050E
:1009000024F4E333F10574F002C033243394DF019F
:10091000A30192010E94C816C60ED71EE81EF91E3A
:100920000E0F1F1F939498EE490E93E0591E611C01
:10093000711CDACF31101EC0492D50E041505109D1
:1009400024EF31E0429FC001439F900D529F900DD4
:1009500011242091BD023091BE0228173907B4F04E
:1009600088EE93E0489F9001499F300D589F300DCD
:1009700011240EC0980140E050E0C701B6010E946A
:1009800075163093BE022093BD0202C020E030E015
:10099000C901DF91CF911F910F91FF90EF90DF90F0
:1009A000CF90BF90AF909F908F907F906F905F900F
:1009B0004F903F902F900895FC0188E691E091833D
:1009C0008083138212821582148217821682118606
:1009D0001086138612860895EF92FF920F93CF939D
:1009E000DF93EC017901202F0E948001FF86EE86C3
:1009F000DF91CF910F91FF90EF900895CF93DF9308
:100A0000EC0182E691E0998388838A859B85009733
:100A100011F00E9497188C819D81009711F00E941F
:100A2000971888859985009711F00E9497188A81F8
:100A30009B81009711F00E9497188E819F810097EB
:100A400021F0DF91CF910C949718DF91CF91089509
:100A5000CF93DF93EC010E94DC0483E692E099835C
:100A600088831C8E1E8E1D8EDF91CF910895EF928C
:100A7000FF920F931F93CF93DF9300D000D000D04D
:100A8000CDB7DEB77C0186E0E6E0F1E0DE0111964D
:100A900001900D928A95E1F702E020ED37E046E003
:100AA000BE016F5F7F4FC7010E94EC0405EF1FEF8F
:100AB0000431110520F0C8018897449728F468ECA8
:100AC00070E088E39FEF04C068E37FEF88EC90E07C
:100AD0000E94D40E61E0C7010E946F0364E170E0E0
:100AE00080E090E00E9471100F5F1F4F05341105E8
:100AF000F9F660E070E080E090E00E94D40E269667
:100B00000FB6F894DEBF0FBECDBFDF91CF911F911E
:100B10000F91FF90EF9008954F925F926F927F92A6
:100B20008F929F92AF92BF92EF92FF920F931F937B
:100B3000CF934B016AE671E081EC93E00E94DA13F7
:100B4000181419041CF463E771E002C062E871E054
:100B500081EC93E00E94E7130E9450080E945F0816
:100B60000E9451150E942E090E941E15AA2497FC6E
:100B7000A094BA2C680D791D8A1D9B1D0E945115E9
:100B80000E942E090E941E152B013C010E945F0845
:100B900064197509860997090E9451150E942E094A
:100BA0004B015C019F77E12CF12C00E81FE320E072
:100BB00030E040E85FEB0E945E09C82F20E030E0A3
:100BC000A901C501B4010E945D1618162CF46AE64D
:100BD0007FEF86E990E004C066E970E08AE69FEF67
:100BE0000E94D40ECC2391F260E070E080E090E0AF
:100BF000CF911F910F91FF90EF90BF90AF909F907A
:100C00008F907F906F905F904F900C94D40E8FEBED
:100C100092E00E94A20F69E370E00E946116CB018E
:100C200008950F931F93CF93DF93EC018D8D9E8DCD
:100C300001969E8F8D8F6CE871E081EC93E00E94AD
:100C4000E71305E010E0CE010E940706181619060A
:100C500074F46BE971E081EC93E00E94DA136D8D1E
:100C60007E8D4AE050E081EC93E00E949C146AE59E
:100C700070E0CE010E948C0564EF71E080E090E0AE
:100C80000E94711001501109F1F668EB71E081ECDE
:100C900093E00E94DA136D8D7E8D4AE050E081EC86
:100CA00093E00E949C1465ED71E081EC93E00E945A
:100CB000E71364E670E080E090E0DF91CF911F9150
:100CC0000F910C947110FC012089318982899389DC
:100CD0002F31310594F08F3191057CF0208D318DCD
:100CE0002F3131052CF0428D538D4F3151051CF4BD
:100CF0002F31310514F081E008954F9754F0808D25
:100D0000918D4F9734F081E0228D338D2F31310555
:100D10000CF480E008950F931F93CF93DF93EC01C1
:100D20008C01005F1F4FCE010E946306811111C02C
:100D300020E041E0B801CE010E944D0488899989E4
:100D40004F9764F58A899B894F9744F580E090E03E
:100D500027C08E01005F1F4FCE010E9463068823CB
:100D600089F120E041E0B801CE010E944D0488895C
:100D700099894F971CF080EB9FEF02C080E090E0D4
:100D80000E948E0E8A8D9B8D4F971CF080EB9FEFFB
:100D900002C080E090E00E94B10EDECF80E590E0DE
:100DA0000E948E0E888D998D4F9724F48A8D9B8D8D
:100DB0004F971CF080E590E002C080E090E00E9438
:100DC000B10EB1CFDF91CF911F910F9108954F9246
:100DD0005F926F927F92AF92BF92CF92DF92EF922B
:100DE000FF920F931F93CF93DF93EC015B0163EEB0
:100DF00071E081EC93E00E94E7138E01005F1F4FCA
:100E000020E041E0B801CE010E944D040E94421052
:100E10006B01EE24D7FCE094FE2C2501662457FCE0
:100E20006094762CCE010E946306811133C00E942B
:100E300042106C197D098E099F0964157505860598
:100E4000970518F0A114B10429F520E041E0B8019C
:100E5000CE010E944D04888999894F973CF08A8978
:100E60009B894F971CF080E090E002C084E690E000
:100E70000E948E0E888D998D4F973CF08A8D9B8DA8
:100E80004F971CF080E090E002C084E690E00E9462
:100E9000B10EC8CFCE010E946306882321F0CE0197
:100EA0000E948B0681E0DF91CF911F910F91FF90FF
:100EB000EF90DF90CF90BF90AF907F906F905F905A
:100EC0004F900895FF920F931F93CF93DF93EC0100
:100ED0008B0165EF71E081EC93E00E94E71366EA15
:100EE0007FEFCE010E948C0564EF71E0CE010E947D
:100EF000E706F82E6AE570E0CE010E948C056AE5EF
:100F000070E0CE010E948C0564EF71E0CE010E947A
:100F1000E706811106C0F11004C0B801CE010E949D
:100F2000110667E072E081EC93E00E94E7138FED19
:100F300092E00E947C0B64E670E084E690E00E9400
:100F4000D40E60E070E0CE010E94E7068FED92E0E3
:100F50000E947C0B0130110519F466EA7FEF02C094
:100F60006AE570E0CE010E948C0564E172E081ECDC
:100F700093E00E94E713DF91CF911F910F91FF90B3
:100F80000895CF93DF93EC0166EA7FEF0E948C0512
:100F900060ED77E0CE010E94E706811102C0C0E05B
:100FA00018C06AE570E0CE010E948C056AE570E029
:100FB000CE010E948C0560ED77E0CE010E94E7062D
:100FC000C82F882361F36AE272E081EC93E00E940B
:100FD000E7138C2FDF91CF910895CF93DF93EC012E
:100FE00065E572E081EC93E00E94E71366EA7FEF2B
:100FF000CE010E948C0560ED77E0CE010E94E706ED
:10100000811105C061E070E0CE010E9462076AE5CF
:1010100070E0CE010E948C056AE570E0CE010E946E
:101020008C0560ED77E0CE010E94E706811105C0D6
:1010300062E070E0CE010E94620766EA7FEFCE01B7
:101040000E948C0564E670E084E690E00E94D40E75
:1010500064EF71E0CE010E94E706882329F0CE01FB
:101060000E94C10780E000C0DF91CF9108950C94E9
:10107000ED0721E041E06CE08FED92E00E94170B5C
:1010800082ED92E00E94860981ED92E00E94660E58
:1010900022E330E042E066E08FEB92E00C94DE0E5B
:1010A0000E944E107093EA026093E9021092EF02E0
:1010B0001092F0021092F1021092F20208958F92B3
:1010C0009F92AF92BF92CF92DF92EF92FF920F93D7
:1010D0001F9382ED92E00E94E0098091D6029091E8
:1010E000D7022091EB023091EC02821B930B90937C
:1010F000EE028093ED020E944E102091E9023091A1
:10110000EA02AB01421B530B9A017093EA0260930F
:10111000E902A091ED02B091EE020E94B61620E025
:1011200030E040EE50E00E94D016EDE8AE2EF8E33D
:10113000BF2EACE0CA2EDD24D394E12CF12C00E0CC
:1011400010E00E940C1749015A018091EF02909122
:10115000F002A091F102B091F202880D991DAA1D32
:10116000BB1D8093EF029093F002A093F102B09325
:10117000F2029D01552737FD5095452FA8E6B1E0B5
:101180000E94BD16BC01992777FD9095892F1F916C
:101190000F91FF90EF90DF90CF90BF90AF909F9016
:1011A0008F900895CF92DF92EF92FF92CF93DF93CB
:1011B00083EF92E00E941D0C42E050E063E070E09B
:1011C00082ED92E00E948A0A4FEF60E282ED92E0A7
:1011D0000E948F0940E263E282ED92E00E948F0953
:1011E00040E064E282ED92E00E948F0964EF71E0DA
:1011F00080E090E00E947110C0E0D4E0C12CD12CBE
:10120000760167E282ED92E00E94B80982ED92E0F9
:101210000E94E0098091D6029091D702AA2797FDFB
:10122000A095BA2FC80ED91EEA1EFB1E219749F7BA
:10123000C701B60120E034E040E050E00E9497167C
:101240003093EC022093EB020E945008DF91CF9183
:10125000FF90EF90DF90CF900C945F08CF92DF92D9
:10126000EF92FF9220E030E044E353E40E94B61492
:1012700020E030E044EB53E40E9493156B017C01C5
:1012800020E030E0A9010E941A1587FF0AC020E083
:1012900030E044EB53E4C701B6010E94B6146B0181
:1012A0007C0120E030E044E353E4C701B6010E9432
:1012B000B514FF90EF90DF90CF9008958F929F929A
:1012C000AF92BF92CF92DF92EF92FF920F931F9354
:1012D0004B015C01670178010E945D16181654F4F9
:1012E000A7019601C501B4010E941A15881F88271D
:1012F000881F01C080E01F910F91FF90EF90DF9059
:10130000CF90BF90AF909F908F900895FC0183E0A5
:1013100090E0908787831386128614860895EF9253
:10132000FF921F93CF93DF931F92CDB7DEB77C015F
:10133000162FFC01618583EF92E049830E94370CF0
:10134000612F83EF92E00E94DE0B4981642F83EFCF
:1013500092E00E94DE0B83EF92E00E94540CF701B2
:1013600086830F90DF91CF911F91FF90EF900895AA
:101370001F93CF93DF93EC01162F698583EF92E0E3
:101380000E94370C612F83EF92E00E94DE0B83EF07
:1013900092E00E94540C8E8341E0698583EF92E0D5
:1013A0000E94340C83EF92E00E948E0BC82F83EFD3
:1013B00092E00E94540C8C2FDF91CF911F910895E1
:1013C0009F92AF92BF92CF92DF92EF92FF920F93D4
:1013D0001F93CF93DF93EC01698583EF92E00E9426
:1013E000370CE091F302F091F4020190F081E02DCE
:1013F00068EA83EF92E0099583EF92E00E94540C33
:1014000046E0698583EF92E00E94340C0E9442100E
:101410007B0183EF92E00E94860B069784F48A8515
:101420009B85892BB1F30E9442106E197F098A8532
:101430009B858617970768F781E08C872CC083EF20
:1014400092E00E948E0BA82E83EF92E00E948E0BFA
:10145000982E83EF92E00E948E0BE82E83EF92E0AD
:101460000E948E0BB82E83EF92E00E948E0BF82E16
:1014700083EF92E00E948E0BD92CC12CCA28D9820E
:10148000C8821B2D00E00E291B830A83982F882712
:101490008F299D838C83DF91CF911F910F91FF90B6
:1014A000EF90DF90CF90BF90AF909F9008951F93E3
:1014B000CF93DF931F92CDB7DEB7162F83EF92E065
:1014C00049830E94370C4981642F83EF92E00E9488
:1014D000DE0B83EF92E00E94540C811114C041E0B6
:1014E000612F83EF92E00E94340C83EF92E00E9420
:1014F000860B892B41F083EF92E00F90DF91CF9123
:101500001F910C948E0B8FEF9FEF0F90DF91CF9177
:101510001F910895EF92FF920F931F93CF93DF9344
:101520007C01EB018A016330710521F042305105E5
:1015300009F051C0CE010197039758F50115110527
:1015400081F04FE050E06BE6C7010E94570A8F3FE1
:101550002FEF920719F001E010E013C001301105E0
:1015600051F04FE050E06AE6C7010E94570A8F3FF2
:10157000EFEF9E0721F4C330D10569F027C000E0EA
:1015800010E0C330D10529F4873D9105F1F5C2E0A3
:10159000D0E02097D9F40115110561F04FE050E03B
:1015A00069E6C7010E94570A833D910589F1013020
:1015B000110549F04FE050E068E6C7010E94570A64
:1015C000833D910541F1C330D10519F00230110579
:1015D00011F480E025C0F701D087C783209759F028
:1015E000D7FD11C023977CF40130110511F48BE66F
:1015F00008C08AE606C00130110511F489E601C071
:1016000088E6F701818781E00BC0C1E0D0E0C1CF5F
:1016100001E010E002C000E010E0C0E0D0E0D6CF72
:10162000DF91CF911F910F91FF90EF900895FC01F2
:10163000608341832283138214821682158210866E
:10164000178211860895FC018181813011F462E0D6
:1016500001C060E080810E94081185E090E00C9458
:101660009910FC012185211104C021E021870C94EF
:10167000230B0895CF93DF93EC0188810E947711AB
:1016800021E0892B09F020E081E09A81911180E02E
:101690008227DF91CF910895CF93DF93EC010E94D1
:1016A000310BCE010E943A0B8823D9F36AE070E037
:1016B00080E090E00E947110CE010E943A0B8823D6
:1016C00081F3DF91CF910895CF93DF93EC010E94D6
:1016D000310BCE010E943A0B8111FBCF6AE070E022
:1016E00080E090E00E947110CE010E943A0B8111BF
:1016F000F0CFDF91CF910895CF93DF93EC010E945B
:101700004C0BCE01DF91CF910C94640B809123039D
:1017100090E020912403821B9109089520912403D5
:1017200080912303281750F4E22FF0E0EB5DFC4F8B
:10173000808190E02F5F2093240308958FEF9FEF27
:101740000895E091240380912303E81730F4F0E03A
:10175000EB5DFC4F808190E008958FEF9FEF08953F
:101760000895CF92DF92EF92FF920F931F93CF9342
:10177000DF937C01CB018A012091FF02222389F0B3
:10178000EB016B01C40ED51ECC15DD0569F0699126
:10179000D701ED91FC910190F081E02DC7010995F1
:1017A000F3CF642F0E94100DC801DF91CF911F91DC
:1017B0000F91FF90EF90DF90CF900895CF93DF933C
:1017C0001F92CDB7DEB769832091FF022223D1F0AB
:1017D00020910003203240F021E030E0FC0133830F
:1017E000228380E090E015C080910103E82FF0E0B3
:1017F000EE5FFC4F998190838F5F8093010380930C
:10180000000305C061E0CE0101960E94100D81E049
:1018100090E00F90DF91CF910895FC011382128226
:1018200048EE53E060E070E044835583668377833D
:1018300089E692E0918380830895109224031092A8
:10184000230310920103109200030C945B0C862F6B
:10185000413208F040E265E273E00E94790C109298
:10186000240380932303089521E00C94270C81E046
:101870008093FF02609322031092010310920003F1
:1018800008950F93062F21E04091000362E073E07A
:10189000809122030E94BD0C10920103109200035C
:1018A0001092FF020F91089561E00C94410C83EFB8
:1018B00092E00C940D0C1092B20381E08093B0037F
:1018C0001092AF0361E082E10E94411161E083E187
:1018D0000E944111E9EBF0E080818E7F808380815E
:1018E0008D7F808388E48093B80085E48093BC007A
:1018F0000895413208F03FC09091B2039111FCCF9E
:1019000091E09093B2032093B0032FEF209345030F
:1019100010928A03240F209389039093B10390912E
:10192000B103880F892B8093B1038091AF0381307D
:1019300041F41092AF038091B1038093BB0085EC1A
:1019400001C085EE8093BC008091B2038130E1F349
:1019500080918A03841710F440918A032BE833E0C6
:10196000FB01D9018A2F821B841718F48D91819372
:10197000F9CF842F089580E008950F93413208F045
:1019800046C09091B2039111FCCF92E09093B203C4
:101990000093B0039FEF9093450310928A03409306
:1019A0008903FB016BE873E0DB019A2F961B941708
:1019B00018F491919D93F9CF1092B1039091B103D6
:1019C000880F892B8093B1038091AF03813041F45C
:1019D0001092AF038091B1038093BB0085EC01C0EE
:1019E00085EE8093BC00222321F08091B2038230E7
:1019F000E1F3809145038F3F61F080914503803290
:101A000051F080914503803341F483E007C081E0C9
:101A100005C080E003C082E001C084E00F9108951A
:101A2000613298F42091B203243089F46093670303
:101A3000FC0189E693E0DC012A2F281B261718F405
:101A400021912D93F9CF80E0089581E0089582E0FF
:101A5000089585ED8093BC008091BC0084FDFCCF8F
:101A60001092B203089585EC8093BC001092B203EB
:101A700008951F920F920FB60F9211242F933F9348
:101A80004F935F936F937F938F939F93AF93BF9386
:101A9000EF93FF938091B900887F803609F49CC052
:101AA00068F5883209F45BC090F4803109F454C0C1
:101AB00038F4882309F4F5C0883009F44DC0F5C026
:101AC000883109F44CC0803209F45DC0EEC0803426
:101AD00009F468C048F4803309F455C0883309F02C
:101AE000E4C080934503A8C0803509F44FC0883511
:101AF00009F45DC0883409F0D8C0D5C0883909F42C
:101B0000C6C0A8F4883709F467C038F4883609F4E9
:101B100063C0803709F460C0C8C0883809F4B7C012
:101B2000803909F45FC0803809F0BFC05BC0803BDA
:101B300009F485C038F4803A09F466C0883A09F49B
:101B40007EC0B3C0803C09F4A6C0883C09F4A3C0A1
:101B5000883B09F489C0A9C08091B10310C090915D
:101B60008A0380918903981770F5E0918A0381E0D8
:101B70008E0F80938A03F0E0E557FC4F80818093BD
:101B8000BB0085EC85C0809345038DC0E0918A033E
:101B900081E08E0F80938A038091BB00F0E0E557CF
:101BA000FC4F808390918A03809189036DC0E091FE
:101BB0008A0381E08E0F80938A038091BB00F0E05E
:101BC000E557FC4F80838091B00381116CC081E0A8
:101BD0008093AF0384EA60C083E08093B2031092E5
:101BE0004603CFCF80914603803208F050C0E09189
:101BF000460381E08E0F809346038091BB00F0E0A6
:101C0000E95BFC4F8083BDCF80914603803230F486
:101C1000E0914603F0E0E95BFC4F10820E94290D41
:101C20006091460370E0E091AB03F091AC0387E470
:101C300093E00995109246030E94330D36C084E06C
:101C40008093B2031092680310926703E091AD0392
:101C5000F091AE03099580916703811105C081E081
:101C60008093670310926903E091680381E08E0F0F
:101C700080936803F0E0E759FC4F80818093BB00BC
:101C80009091680380916703981708F47ACF85E8EC
:101C90008093BC000AC085EC8093BC001092B20314
:101CA00004C0109245030E94290DFF91EF91BF914E
:101CB000AF919F918F917F916F915F914F913F91E4
:101CC0002F910F900FBE0F901F901895089561E00F
:101CD0008AE00E94081161E089E00E94081161E039
:101CE00088E00E94081161E087E00E94081180EA04
:101CF0008093800081E18093810080E991E090935E
:101D000087008093860008958091B303811105C0F8
:101D100081E08093B3030C94670E0895CF93DF9313
:101D2000EC010E94840ED7FF05C0D195C195D10961
:101D300081E001C080E0C13991E0D90714F0C0E929
:101D4000D1E0D0938B00C0938A009091B50389179E
:101D500011F061E001C060E088E0DF91CF910C9468
:101D60004111CF93DF93EC010E94840ED7FF05C091
:101D7000D195C195D10981E001C080E0C13991E0E0
:101D8000D90714F0C0E9D1E0D0938900C09388004E
:101D90009091B403891711F061E001C060E087E021
:101DA000DF91CF910C944111CF93DF93EB010E940F
:101DB0008E0ECE01DF91CF910C94B10ECF93DF93B5
:101DC000DC0170E0FB01E458FF4FE4911496EC93C2
:101DD0001497842F90E0FC01E458FF4FE49115968E
:101DE000EC93159760577F4FFB01C491D0E0CC0F67
:101DF000DD1FC255DF4FFE014591549117965C934C
:101E00004E931697FC01E057FF4F849190E0880FA6
:101E1000991F8C559F4FFC014591549119965C93E5
:101E20004E931897FB016491E62FF0E0EE0FFF1F31
:101E3000E854FF4F859194911B969C938E931A972B
:101E40002F5F3F4F49E3429FC001439F900D1124F4
:101E50008E38FFE69F0710F08DE89FE61D969C9355
:101E60008E931C97DF91CF9108950F931F93CF937B
:101E7000DF93EC01EA85FB8580819C81892B80833F
:101E8000EE81FF8190818C8180958923808384E01D
:101E900090E00E949910EE81FF8180819C81892BC6
:101EA00080838AE090E00E949910EE81FF8190810A
:101EB0008C81809589238083EA85FB8590818C8144
:101EC000809589238083E885F98580819D81892398
:101ED00011F080E032C00E944E104C855D858A0171
:101EE00020E030E00855194E2F4F3F4F060F171FC7
:101EF000281F391F0E871F87288B398BE885F985A6
:101F000080819D81892361F40E944E100E851F857A
:101F100028893989061717072807390778F7D9CF8D
:101F20000E944E102C853D85620F731F811D911DEF
:101F30006E877F87888B998B81E0DF91CF911F918E
:101F40000F9108950F931F93CF93DF93EC010E949D
:101F5000350F882389F0E885F98580819D81892363
:101F600071F00E944E100E851F8528893989061749
:101F700017072807390778F720E030E00CC00E94E7
:101F80004E102C853D85255031094E855F85241BDB
:101F9000350B260F371FC901DF91CF911F910F918C
:101FA00008951F920F920FB60F9211242F933F9313
:101FB0004F935F936F937F938F939F93AF93BF9351
:101FC000EF93FF93E091B603F091B7030995FF916A
:101FD000EF91BF91AF919F918F917F916F915F91A1
:101FE0004F913F912F910F900FBE0F901F9018951A
:101FF0001F920F920FB60F9211242F933F938F933E
:102000009F93AF93BF938091B9039091BA03A0912E
:10201000BB03B091BC033091B80323E0230F2D37ED
:1020200020F40196A11DB11D05C026E8230F0296DC
:10203000A11DB11D2093B8038093B9039093BA03F7
:10204000A093BB03B093BC038091BD039091BE03EA
:10205000A091BF03B091C0030196A11DB11D809353
:10206000BD039093BE03A093BF03B093C003BF9181
:10207000AF919F918F913F912F910F900FBE0F9035
:102080001F9018952FB7F8946091B9037091BA0317
:102090008091BB039091BC032FBF08953FB7F89484
:1020A0008091BD039091BE03A091BF03B091C00386
:1020B00026B5A89B05C02F3F19F00196A11DB11DA3
:1020C0003FBF6627782F892F9A2F620F711D811DC0
:1020D000911D42E0660F771F881F991F4A95D1F71F
:1020E0000895CF92DF92EF92FF92CF93DF936B012F
:1020F0007C010E944E10EB01C114D104E104F104F3
:1021000089F00E94B4140E944E106C1B7D0B683E37
:10211000734090F381E0C81AD108E108F108C85172
:10212000DC4FEACFDF91CF91FF90EF90DF90CF901F
:1021300008958230910538F0880F991F880F991FF4
:1021400005970197F1F70895789484B5826084BD6E
:1021500084B5816084BD85B5826085BD85B58160AB
:1021600085BDEEE6F0E0808181608083E1E8F0E00B
:102170001082808182608083808181608083E0E83A
:10218000F0E0808181608083E1EBF0E08081846019
:102190008083E0EBF0E0808181608083EAE7F0E01B
:1021A000808184608083808182608083808181607F
:1021B00080838081806880831092C100089583307D
:1021C00081F028F4813099F08230A1F008958730B1
:1021D000A9F08830B9F08430D1F4809180008F7DEF
:1021E00003C0809180008F7780938000089584B52C
:1021F0008F7702C084B58F7D84BD08958091B00033
:102200008F7703C08091B0008F7D8093B0000895D8
:10221000CF93DF9390E0FC01E458FF4F2491FC0141
:10222000E057FF4F8491882349F190E0880F991F70
:10223000FC01E854FF4FA591B49182559F4FFC01DA
:10224000C591D4919FB7611108C0F8948C912095E5
:1022500082238C93888182230AC0623051F4F894DF
:102260008C91322F309583238C938881822B8883A5
:1022700004C0F8948C91822B8C939FBFDF91CF91F7
:1022800008950F931F93CF93DF931F92CDB7DEB7BF
:10229000282F30E0F901E859FF4F8491F901E45803
:1022A000FF4F1491F901E057FF4F04910023C9F04B
:1022B000882321F069830E94DF106981E02FF0E01C
:1022C000EE0FFF1FE255FF4FA591B4919FB7F89411
:1022D0008C91611103C01095812301C0812B8C93D7
:1022E0009FBF0F90DF91CF911F910F910895CF93D2
:1022F000DF93282F30E0F901E859FF4F8491F9016D
:10230000E458FF4FD491F901E057FF4FC491CC231B
:1023100091F081110E94DF10EC2FF0E0EE0FFF1F13
:10232000EC55FF4FA591B4912C912D2381E090E0C5
:1023300021F480E002C080E090E0DF91CF91089529
:102340000E942619FC01818D228D90E0805C9F4FB8
:10235000821B91098F7399270895FC01918D828DBD
:10236000981731F0828DE80FF11D858D90E008956A
:102370008FEF9FEF0895FC01918D828D981761F08A
:10238000828DDF01A80FB11D5D968C91928D9F5FAC
:102390009F73928F90E008958FEF9FEF08958FE3E2
:1023A00093E1892B49F080E090E0892B29F00E948D
:1023B0003F1381110C9400000895FC01848DDF010E
:1023C000A80FB11DA35ABF4F2C91848D90E00196A8
:1023D0008F739927848FA689B7892C93A089B18997
:1023E0008C9180648C93938D848D981306C00288A1
:1023F000F389E02D80818F7D80830895CF93DF93D3
:10240000EC01888D8823C9F0EA89FB89808185FDEC
:1024100005C0A889B9898C9186FD0FC00FB607FC4D
:10242000F5CF808185FFF2CFA889B9898C9185FF8E
:10243000EDCFCE010E94DD11E7CFDF91CF9108955E
:10244000CF92DF92FF920F931F93CF93DF931F9250
:10245000CDB7DEB76C0181E0D60158968C935897C2
:102460005B969C915B975C968C915C97981307C0E8
:102470005096ED91FC915197808185FD2EC0F6011B
:10248000038D10E00F5F1F4F0F731127F02EF60121
:10249000848DF81211C00FB607FCF9CFD601509603
:1024A000ED91FC915197808185FFF1CFC601698341
:1024B0000E94DD116981EBCF838DE80FF11DE35A96
:1024C000FF4F6083D6015B960C935B975296ED911C
:1024D000FC915397808180620CC0D6015696ED9195
:1024E000FC91579760835096ED91FC9151978081B4
:1024F0008064808381E090E00F90DF91CF911F9105
:102500000F91FF90DF90CF900895BF92CF92DF920E
:10251000EF92FF92CF93DF93EC016A017B01B22E21
:10252000E889F98982E08083411581EE58076105C9
:102530007105A1F060E079E08DE390E0A7019601DC
:102540000E94751621503109410951095695479548
:1025500037952795211580E1380798F0E889F989A2
:10256000108260E874E88EE190E0A70196010E9475
:1025700075162150310941095109569547953795EE
:102580002795EC85FD853083EE85FF852083188EA9
:10259000EC89FD89B082EA89FB8980818061808332
:1025A000EA89FB89808188608083EA89FB89808150
:1025B00080688083EA89FB8980818F7D8083DF91B9
:1025C000CF91FF90EF90DF90CF90BF9008951F9232
:1025D0000F920FB60F9211242F938F939F93EF9327
:1025E000FF93E091D103F091D2038081E091D70372
:1025F000F091D80382FD12C090818091DA038F5F41
:102600008F732091DB03821751F0E091DA03F0E041
:10261000EF53FC4F958F8093DA0301C08081FF91C7
:10262000EF919F918F912F910F900FBE0F901F9060
:1026300018951F920F920FB60F9211242F933F936C
:102640004F935F936F937F938F939F93AF93BF93BA
:10265000EF93FF9381EC93E00E94DD11FF91EF91E6
:10266000BF91AF919F918F917F916F915F914F91AA
:102670003F912F910F900FBE0F901F90189581ECF6
:1026800093E00E94A21121E0892B09F420E0822F1F
:1026900008951092C4031092C30388EE93E0A0E063
:1026A000B0E08093C5039093C603A093C703B09393
:1026B000C80389E792E09093C2038093C10385EC3D
:1026C00090E09093CE038093CD0384EC90E09093C0
:1026D000D0038093CF0380EC90E09093D20380935B
:1026E000D10381EC90E09093D4038093D30382ECE8
:1026F00090E09093D6038093D50386EC90E090937E
:10270000D8038093D7031092DA031092DB03109260
:10271000DC031092DD03089508950E94A4100E9426
:102720008C130E949000CFECD1E10E94C30020974F
:10273000E1F30E94CF11F9CFCF92DF92EF92FF9297
:102740000F931F93CF93DF936C017A01EB01E60E99
:10275000F71E00E010E0CE15DF0561F06991D601AB
:10276000ED91FC910190F081E02DC6010995080FD3
:10277000191FF1CFC801DF91CF911F910F91FF90E9
:10278000EF90DF90CF9008956115710581F0DB0126
:102790000D900020E9F7AD0141505109461B570B40
:1027A000DC01ED91FC910280F381E02D099480E041
:1027B00090E008950C94C413DC01ED91FC9101901C
:1027C000F081E02D099465E872E00C94C4130F9336
:1027D0001F93CF93DF93EC010E94C4138C01CE01B1
:1027E0000E94E313800F911FDF91CF911F910F91F2
:1027F00008958F929F92AF92BF92CF92DF92EF9205
:10280000FF920F931F93CF93DF93CDB7DEB7A197BE
:102810000FB6F894DEBF0FBECDBF7C01C42EE52FEE
:10282000CB01D22E19A221E02D1510F02AE0D22ED4
:102830008E010F5D1F4F8D2C912CA12CB12C6C2D76
:102840007E2FA50194010E9475168C2DD29E8019B1
:102850001124015011098A3014F4805D01C0895C93
:10286000F8018083211531054105510521F0C22E63
:10287000E32FCA01E4CFB801C7010E94C413A19697
:102880000FB6F894DEBF0FBECDBFDF91CF911F9181
:102890000F91FF90EF90DF90CF90BF90AF909F90FF
:1028A0008F900895CF92DF92EF92FF920F931F9334
:1028B000CF93DF93EC016A017B012115310579F497
:1028C000E881F9810190F081E02D642FDF91CF91B3
:1028D0001F910F91FF90EF90DF90CF9009942A30D5
:1028E0003105E9F477FF1AC06DE20E94DC138C0118
:1028F00044275527BA014C195D096E097F092AE062
:10290000CE010E94F913800F911FDF91CF911F918B
:102910000F91FF90EF90DF90CF9008952AE0B701DC
:10292000A601CE01DF91CF911F910F91FF90EF9003
:10293000DF90CF900C94F9130F931F93CF93DF93F5
:10294000EC019A01AB01662757FD6095762F0E9436
:1029500052148C01CE010E94E313800F911FDF916E
:10296000CF911F910F91089508955058BB27AA2722
:102970000ED069C15AD130F05FD120F031F49F3FC1
:1029800011F41EF44FC10EF4E095E7FB37C1E92FB7
:102990006BD180F3BA17620773078407950718F0A5
:1029A00071F49EF583C10EF4E0950B2EBA2FA02D85
:1029B0000B01B90190010C01CA01A0011124FF27EC
:1029C000591B99F0593F50F4503E68F11A16F040E7
:1029D000A22F232F342F4427585FF3CF46953795E6
:1029E0002795A795F0405395C9F77EF41F16BA0BAB
:1029F000620B730B840BBAF09150A1F0FF0FBB1F59
:102A0000661F771F881FC2F70EC0BA0F621F731FA1
:102A1000841F48F4879577956795B795F7959E3FFE
:102A200008F0B3CF9395880F08F09927EE0F97958C
:102A300087950895BFD008F481E0089504D0689484
:102A4000B11135C1089518D188F09F5790F0B92F72
:102A50009927B751A0F0D1F0660F771F881F991FF3
:102A60001AF0BA95C9F712C0B13081F01FD1B1E0A8
:102A700008951CC1672F782F8827B85F39F0B93FB8
:102A8000CCF3869577956795B395D9F73EF49095F5
:102A90008095709561957F4F8F4F9F4F0895E89473
:102AA00009C097FB3EF490958095709561957F4F96
:102AB0008F4F9F4F9923A9F0F92F96E9BB27939544
:102AC000F695879577956795B795F111F8CFFAF454
:102AD000BB0F11F460FF1BC06F5F7F4F8F4F9F4F85
:102AE00016C0882311F096E911C0772321F09EE8E3
:102AF000872F762F05C0662371F096E8862F70E049
:102B000060E02AF09A95660F771F881FDAF7880F22
:102B10009695879597F9089588D018F011F08CD084
:102B200038F480C0C4C0E92F9FD0B0F35523C9F357
:102B3000E7FB6217730784079507A8F199F3E92F5C
:102B4000FF2788232AF03197660F771F881FDAF74F
:102B5000952F5527442332F091505040220F331FB8
:102B6000441FD2F7BB27E91BF50B621B730B840BC9
:102B7000B109C1F222F4620F731F841FB11D319796
:102B80002AF0660F771F881FBB1FEFCF9150504070
:102B90005AF041F0882332F0660F771F881F91505A
:102BA0005040C1F7939530C08695779567959F5FA4
:102BB000D9F7F8CF990F0008550FAA0BE0E8FEEF00
:102BC00016161706E807F907C0F012161306E407F1
:102BD000F50798F0621B730B840B950B39F40A26EA
:102BE00061F0232B242B252B21F408950A2609F4C8
:102BF000A140A6958FEF811D811D089597F99F67CC
:102C000080E870E060E008959F3F31F0915020F43B
:102C1000879577956795B795880F911D96958795B8
:102C200097F908959FEF80EC089500240A941616F2
:102C3000170618060906089500240A9412161306AA
:102C4000140605060895092E0394000C11F4882338
:102C500052F0BB0F40F4BF2B11F460FF04C06F5F54
:102C60007F4F8F4F9F4F089557FD9058440F551F2A
:102C700059F05F3F71F04795880F97FB991F61F0FE
:102C80009F3F79F087950895121613061406551F75
:102C9000F2CF4695F1DF08C0161617061806991FE1
:102CA000F1CF86957105610508940895E894BB27D6
:102CB00066277727CB0197F908957CDF08F48FEF1B
:102CC0000895AA1BBB1B51E107C0AA1FBB1FA61773
:102CD000B70710F0A61BB70B881F991F5A95A9F7C5
:102CE00080959095BC01CD010895A1E21A2EAA1BF2
:102CF000BB1BFD010DC0AA1FBB1FEE1FFF1FA217AC
:102D0000B307E407F50720F0A21BB30BE40BF50BA8
:102D1000661F771F881F991F1A9469F76095709531
:102D2000809590959B01AC01BD01CF010895052EC2
:102D300097FB1EF400940E94AE1657FD07D00E9428
:102D4000751607FC03D04EF40C94AE1650954095C2
:102D5000309521953F4F4F4F5F4F08959095809547
:102D6000709561957F4F8F4F9F4F08950E94E71791
:102D7000B7FF0895821B930B08950E94E717A59F44
:102D8000900DB49F900DA49F800D911D1124089566
:102D9000B7FF0C94BD160E94BD16821B930B0895BD
:102DA00097FB57FF0C94E0169F938F930E94E016B9
:102DB0006E1B7F0BAF91BF918A0B9B0B0895E8941C
:102DC000DF93CF93FC01DB010E94E7177F936F93A2
:102DD000E9019A01AC01BF93AF933F932F93DF01B9
:102DE0000E94E71726F46C1B7D0B820B930B9E0150
:102DF000EB01FC010E94F617AF91BF912F913F911B
:102E00000E94F617BE01CF01F9012F913F91CF919A
:102E1000DF910895689401C0E894F92FF12B12F026
:102E20000C943E17A0E0B0E0E8E1F7E10C94B01795
:102E3000092E059422F40E949A17112392F4F0E8C7
:102E40000F26FFEFE094F09400951095B094C09495
:102E5000D094A194BF0ACF0ADF0AEF0AFF0A0F0B32
:102E60001F0B0E94491707FC0E949A17CDB7DEB7C7
:102E7000ECE00C94CC17689401C0E8948F929F9278
:102E8000CF93DF930E944917DF91CF919F908F904E
:102E9000089588249924F401E401B0E49F93AA27BB
:102EA0009A158B049C04ED05FE05CF05D007A107FC
:102EB00098F4AD2FDC2FCF2FFE2FE92D982C892EE3
:102EC000982F872F762F652F542F432F322F2227AD
:102ED000B85031F7BF9127C01B2EBF91BB27220FDF
:102EE000331F441F551F661F771F881F991F881C9B
:102EF000991CEE1FFF1FCC1FDD1FAA1FBB1F8A14CA
:102F00009B04EC05FD05CE05DF05A007B10748F0E1
:102F10008A189B08EC09FD09CE09DF09A00BB10B4B
:102F200021601A94E1F62EF49401AF01BE01CD01A7
:102F3000000C08956095709580959095309540951A
:102F4000509521953F4F4F4F5F4F6F4F7F4F8F4FA2
:102F50009F4F08952F923F924F925F926F927F9270
:102F60008F929F92AF92BF92CF92DF92EF92FF9299
:102F70000F931F93CF93DF93CDB7DEB7CA1BDB0B45
:102F80000FB6F894DEBF0FBECDBF09942A883988EA
:102F900048885F846E847D848C849B84AA84B984F1
:102FA000C884DF80EE80FD800C811B81AA81B981FD
:102FB000CE0FD11D0FB6F894DEBF0FBECDBFED0111
:102FC0000895EE0FFF1F0590F491E02D0994A29F44
:102FD000B001B39FC001A39F700D811D1124911DED
:102FE000B29F700D811D1124911D08950E94E71755
:102FF000460F571FC81FD91F08F431960895CF9365
:10300000DF938230910510F482E090E0E09160045B
:10301000F091610420E030E0A0E0B0E0309739F1B9
:103020004081518148175907B8F04817590771F482
:1030300082819381109729F013969C938E93129717
:103040002CC0909361048093600427C02115310542
:1030500031F04217530718F0A901DB0101C0EF015D
:103060009A01BD01DF010280F381E02DD7CF211548
:103070003105F9F0281B390B2430310580F48A81A1
:103080009B816115710521F0FB019383828304C04C
:103090009093610480936004FE01329644C0FE0167
:1030A000E20FF31F819391932250310939832883D2
:1030B0003AC020915E0430915F04232B41F42091AB
:1030C00002013091030130935F0420935E0420914C
:1030D0000001309101012115310541F42DB73EB7B2
:1030E0004091040150910501241B350BE0915E04D1
:1030F000F0915F04E217F307A0F42E1B3F0B281793
:10310000390778F0AC014E5F5F4F2417350748F060
:103110004E0F5F1F50935F0440935E048193919321
:1031200002C0E0E0F0E0CF01DF91CF910895CF93AE
:10313000DF93009709F487C0FC0132971382128253
:10314000C0916004D0916104209781F42081318185
:10315000280F391F80915E0490915F0482179307B6
:1031600079F5F0935F04E0935E046DC0DE0120E02A
:1031700030E0AE17BF0750F412964D915C91139753
:103180009D014115510509F1DA01F3CFB383A28303
:1031900040815181840F951F8A179B0771F48D918F
:1031A0009C911197840F951F0296918380831296AC
:1031B0008D919C911397938382832115310529F476
:1031C000F0936104E09360043EC0D9011396FC9330
:1031D000EE9312974D915D91A40FB51FEA17FB076F
:1031E00079F480819181840F951F0296D9011196FF
:1031F0009C938E938281938113969C938E931297C6
:10320000E0E0F0E08A819B81009719F0FE01EC017B
:10321000F9CFCE01029628813981820F931F209128
:103220005E0430915F042817390769F4309729F458
:10323000109261041092600402C013821282D09333
:103240005F04C0935E04DF91CF91089581E090E028
:10325000F8940C942B1910E0CAECD0E004C0FE01E5
:103260000E94E3172296CC3CD107C9F7F894FFCF10
:1032700000006204800004110B0E1005507265738B
:103280007320627574746F6E20746F207374617232
:10329000742063616C6962726174696F6E2E2E2E88
:1032A0000043616C696272617465642E20507265BE
:1032B000737320627574746F6E20746F2073746101
:1032C00072742E2E2E006C6F6F70696E6700000096
:1032D0000000A01100000000E8007475726E696EB5
:1032E000672000616E7469636C6F636B77697365E7
:1032F0002E00636C6F636B77697365004578706C43
:103300006F72696E6720526F6F6D00416E206F6241
:103310006A6563742077617320666F756E642069D7
:103320006E20726F6F6D20004E6F206F626A656352
:10333000742077617320666F756E6420696E2072E9
:103340006F6F6D2000526F6F6D206578706C6F72BB
:10335000656400636865636B696E6720666F7220E1
:1033600077616C6C00436865636B696E6720666F9C
:103370007220726F6F6D0045786974696E672052B4
:103380006F6F6D00526F6F6D2073686F756C642086
:10339000626520657869746564005265616368657B
:1033A0006420656E64206F6620636F727269646F5B
:1033B000722C2072657475726E696E6720746F204E
:1033C0006261736500416476616E63696E670000D7
:1033D000000000E80000000000DE0BB10B860B8E41
:1033E0000BA10BB00B0000000020129C13A211BB1C
:1033F00011AD11FE110D0A006E616E00696E66005E
:043400006F7666007D
:00000001FF
