:100000000C9466000C948E000C948E000C940706E1
:100010000C9407060C9407060C948E000C948E002A
:100020000C948E000C94F6030C948E000C948E00AD
:100030000C948E000C948E000C948E000C948E0008
:100040000C94EE0E0C948E000C94DD110C940F1297
:100050000C948E000C948E000C948E000C948E00E8
:100060000C94300C0C948E0000000008000201007B
:100070000003040700000000000000000102040863
:100080001020408001020408102001020408102002
:10009000040404040404040402020202020203032E
:1000A00003030303000000002300260029000000D2
:1000B0000000250028002B0000000000240027007D
:1000C0002A00C50079084E0B3F12DE0011241FBE26
:1000D000CFEFD8E0DEBFCDBF11E0A0E0B1E0ECE6AD
:1000E000F4E302C005900D92AA3BB107D9F724E0D2
:1000F000AAEBB1E001C01D92A430B207E1F710E015
:10010000CAECD0E004C02297FE010E94F018C23C65
:10011000D107C9F70E9483120C94291A0C9400008D
:1001200026E040E855E260E070E083E693E00E945C
:100130007B1140E855E260E070E08EED91E00E94B6
:100140000A078AE992E00E94140B61E08DE00E94A8
:10015000FE0F61E08DE00E9437100E94210A60E0EE
:100160008DE00C9437106AE570E08AEB91E00E9414
:10017000AE0760E171E083E693E00E94DD1264EF78
:1001800071E080E090E00C94670F8DE092E00E94B7
:1001900031018DEF91E00E94DA048BE391E09093BE
:1001A000FE018093FD0120E041E060E08EED91E0F2
:1001B0000E94DA068AEB91E00C9498078EED91E0AC
:1001C0000E9481068FE691E09093FE018093FD01ED
:1001D0008DEF91E00C94EA0490911002E0911402EA
:1001E000F0911502992311F0849101C080812FEBC9
:1001F000280F2A3110F4805E0895803249F49F015F
:100200002F5F3F4F3093150220931402EF2B31F7ED
:1002100008951F93CF93DF930E94EC00C0E0D0E0DD
:100220001AE090ED980F9A30B8F49E01129FE00109
:10023000139FD00D1124C80FD11D87FDDA95E097CB
:10024000809114029091150201969093150280936B
:1002500014020E94EC00E5CFCE01DF91CF911F91F7
:10026000089508951092700081E28093B0008BE0B1
:100270008093B1008AEF8093B3001092B400539A38
:10028000789408952F923F924F925F926F927F924F
:100290008F929F92AF92BF92CF92DF92EF92FF9296
:1002A0000F931F93CF93DF9300D000D01F92CDB751
:1002B000DEB78C011B014B8380911602811105C0B2
:1002C00081E0809316020E94320110920F0117FF05
:1002D00004C01F772AE0298302C031E0398398E205
:1002E0008981899F902D1124A92FB0E0BD83AC8313
:1002F000A017B10710F41D830C83B981B13049F404
:10030000EC81FD81E131F74220F080E197E29D83AD
:100310008C839981C92ED12CE12CF12C8C819D816B
:10032000969587952C01612C712CAC81BD814D0176
:10033000A12CB12CA701960160E472E48FE090E05B
:100340000E943717640D751D861D971DA501940128
:100350000E949D178901B2E0BA830F3F110509F190
:1003600000F1EA81EF5FEA83F0E0EE0FFF1FEB5A46
:10037000FE4F2081318140E050E060E072E18AE789
:1003800090E00E949D17C701B6010E943717640DC7
:10039000751D861D971DA50194010E949D17890159
:1003A000DCCFF981FA3049F48C819D8105966AE0B1
:1003B00070E00E9453177D836C832C813D81283E21
:1003C000334061F09101AC81BD810E94BC1728EEE1
:1003D00033E040E050E00E949D1719011092700038
:1003E0008091B100887F9A81892B8093B10000931E
:1003F000B3002B81203108F02FE080E190E0821BD8
:10040000910902C0169507958A95E2F70093B4000A
:10041000309213022092120287B38FEF87BB81E0E4
:10042000809370000F900F900F900F900F90DF91BE
:10043000CF911F910F91FF90EF90DF90CF90BF90E1
:10044000AF909F908F907F906F905F904F903F9074
:100450002F900895CF93DF93EB018F3F11F041115F
:1004600005C040E0BE0188EE93E043C0813130F02A
:1004700050EF580F503618F05FE501C050E0852F5F
:100480006CE00E944717682F74EF760390011124E7
:10049000250F311D2C30310540F4F901EE0FFF1FFF
:1004A000E35CFE4F2081318102C020E030E08730E4
:1004B00081F0082E02C0220F331F0A94E2F7823027
:1004C00028F0C90105966AE070E00CC0C901905897
:1004D0000CC0C90136E0880F991F3A95E1F70296E2
:1004E00065E070E00E945317CB01403108F04FE007
:1004F000BE01DF91CF910C9442014F925F926F92B7
:100500007F928F929F92AF92BF92CF92DF92EF92A3
:10051000FF920F931F93CF93DF9300D0CDB7DEB739
:1005200090900E0180910F02882321F060910E02BD
:10053000611117C077247394B0ECAB2EBDE5BB2ED0
:100540001AE0612E04E0802E80EDC82E87E0D82EC0
:1005500094E0E92EF12C04EF11E02FE0422E512C13
:1005600015C070E040E088EE93E00E9442011092D6
:100570000E0229C18636D4F5813609F4A9C07CF56E
:100580008C3309F460C08E3381F493940E94EC00A4
:1005900020911402309115022F5F3F4F30931502C6
:1005A00020931402853631F752C0813209F08BC096
:1005B00080920E01D0920D01C0920C01F0920B01BD
:1005C000E0920A011093090100930801509207017B
:1005D0004092060110920F02A4E09A2ED7CF8336E4
:1005E000A1F10CF478C010E082E077C08D36C1F143
:1005F00094F4873691F174F18C3609F064C00E944E
:100600000901BC0190930B0180930A0180910C01B8
:1006100090910D0151C08237C9F14CF48F3609F029
:1006200052C00E940901982E80930E01AFCF8437EB
:1006300081F1863709F047C00E94090190930701B4
:1006400080930601A3CF9A94A1CF10E020C010E0C0
:1006500084E043C010E085E040C010E087E03DC08A
:100660000E94EC008C3619F410920F0204C07092B4
:100670000F0210920E0220911402309115022F5F8A
:100680003F4F309315022093140280CF11E080E099
:1006900024C00E940901BC01C5010E945317669E37
:1006A000C001679E900D112490930D0180930C0161
:1006B00060910A0170910B010E9453177093090118
:1006C0006093080163CF10921502109214027BC050
:1006D00010E089E002C010E08BE0082F9CE0999EBA
:1006E000000D11240E94EC00982F977F933261F443
:1006F00020911402309115022F5F3F4F3093150265
:10070000209314020F5FEECF8D3271F4209114020A
:10071000309115022F5F3F4F309315022093140242
:1007200001500E94EC00F0CF609108017091090126
:100730008153883050F4E0900C01F0900D010E943C
:100740000901BC01C7010E9453177B01F694E7948D
:1007500069837A830E94EC0069817A818E3269F420
:1007600020911402309115022F5F3F4F30931502F4
:10077000209314026E0D7F1DE9CF80910F02882314
:1007800039F09B013695279520930E02621B710963
:1007900040910601112311F08FEF01C0802F0F90BF
:1007A0000F90DF91CF911F910F91FF90EF90DF900D
:1007B000CF90BF90AF909F908F907F906F905F9001
:1007C0004F900C942A020F900F90DF91CF911F91C0
:1007D0000F91FF90EF90DF90CF90BF90AF909F90E0
:1007E0008F907F906F905F904F9008951F920F921F
:1007F0000FB60F9211242F933F934F935F936F93F4
:100800007F938F939F93AF93BF93EF93FF938091C9
:100810001202909113029C0121503109309313026E
:1008200020931202892BE9F4109270007894809141
:10083000B100887F83608093B1008AEF8093B3001A
:100840001092B40081E080930F0180911402909186
:100850001502892B31F080911102811102C00E9492
:100860007D02FF91EF91BF91AF919F918F917F9109
:100870006F915F914F913F912F910F900FBE0F900D
:100880001F9018956F927F928F929F92AF92BF9216
:10089000CF92DF92EF92FF920F931F93CF93DF934C
:1008A000EC018B018A859B85892B09F474C0D12CBE
:1008B0008C85D816E8F4ED2CF12C8E859F85F701F8
:1008C000EE0FFF1FE00FF11F91838083EA85FB8508
:1008D000EE0DFF1D61E080810E943710EA85FB85E7
:1008E000EE0DFF1D61E080810E94FE0FD394E0CFEA
:1008F0008AE090E00E948F0FD12C8C85D816A0F44E
:10090000ED2CF12CEA85FB85EE0DFF1D60E080816A
:100910000E94FE0FEA85FB85EE0DFF1D60E08081E1
:100920000E943710D394E9CF0E94440F6B017C01E1
:100930000E94440F6C197D098E099F092E853F8501
:100940004901A12CB12C681579058A059B0518F57C
:100950000E94440F3B016C187D08912C8C859816E1
:1009600038F7A92CB12CAA85BB85AA0DBB1D8C918B
:100970000E946D10892B51F4F501EE0FFF1FE00F5F
:10098000F11F808191816816790610F09394E6CF6B
:1009900071826082FBCFDF91CF911F910F91FF9009
:1009A000EF90DF90CF90BF90AF909F908F907F900F
:1009B0006F900895FC018FE691E09183808313820C
:1009C000128215821482178216821186108613866F
:1009D00012860895CF93DF93EC0189E691E0998325
:1009E00088838A859B85009711F00E9495198C81D8
:1009F0009D81009711F00E9495198885998500972F
:100A000011F00E9495198A819B81009711F00E9434
:100A100095198E819F81009721F0DF91CF910C94E1
:100A20009519DF91CF9108952091590230915A0282
:100A300028173907B9F49091170280911802981776
:100A400089F0E0911702F0E0E75EFD4F8081209190
:100A5000170230E02F5F3F4F2F7333272093170289
:100A600090E008958FEF9FEF08951F93CF93DF934A
:100A7000DC015C968D919C915D97009749F481E033
:100A800090E013969C938E93129780E090E03BC089
:100A90005196ED91FC91529750962C915097322F90
:100AA00030951FB75E964C915E9741FB772770F9A2
:100AB00041FD6095F8944081772311F0422B01C0ED
:100AC00043234083EC012197F1F748E0508160FF18
:100AD00002C0522B01C053235083EC012197F1F740
:100AE0006695415099F78081772311F0832301C0E7
:100AF000822B80831FBF5C968D919C915D9701979F
:100B0000F1F781E090E0DF91CF911F91089520915E
:100B1000590230915A022817390781F4909117022F
:100B200080911802981751F0E0911702F0E0E75E0B
:100B3000FD4F8081992787FD909508958FEF9FEF56
:100B400008952091590230915A022817390771F4FB
:100B5000809118022091170290E0805C9F4F821BC9
:100B6000910960E470E00E946717089580E090E0CA
:100B700008952091590230915A022817390739F403
:100B80008FB7F89410921802109217028FBF089531
:100B9000E0915902F0915A02E817F90769F4A38924
:100BA000B4899C918589809589238C9310925A02EF
:100BB0001092590281E0089580E00895CF93DF9369
:100BC000EC018A8D9B8D892BF1F0809159029091D7
:100BD0005A028C179D07B9F0009711F00E94C805C2
:100BE0008E8D8E7F8E8F1092180210921702D093E6
:100BF0005A02C0935902EB89FC8980819D89892B17
:100C0000808381E001C080E0DF91CF9108951F9241
:100C10000F920FB60F9211242F933F934F935F9330
:100C20006F937F938F939F93AF93BF93EF93FF93B4
:100C3000E0915902F0915A02309709F451C0868D23
:100C4000A685B785958581FF04C08C91892329F4F9
:100C500047C08C91892309F043C0A389B4899C9132
:100C60008589809589238C93868997890197F1F7E7
:100C7000208D318DA685B785758558E040E0C90186
:100C80000197F1F7842F90E095958795482F6C9107
:100C9000672309F04068515091F7868D81FD40959A
:100CA0008091180290E001968F7399272091170286
:100CB000281749F0A0911802B0E0A75EBD4F4C93F1
:100CC0008093180203C0868D8160868F828D938DFC
:100CD0000197F1F7A389B4898C919589892B8C931D
:100CE000FF91EF91BF91AF919F918F917F916F9104
:100CF0005F914F913F912F910F900FBE0F901F90DA
:100D0000189525E731E0FC01318320830C94C80558
:100D10001F93CF93DF93EC01162F6E8D6695617054
:100D200081E06827812F0E94371061E0812F0E94A7
:100D3000FE0F812F90E0FC01E458FF4FE491E88B17
:100D4000FC01E057FF4FE491F0E0EE0FFF1FE2558A
:100D5000FF4F859194919A8B898BDF91CF911F9151
:100D600008951F93CF93DF93EC01162F60E0812F3E
:100D70000E94FE0F8E8D81FD04C061E0812F0E94D4
:100D800037101C87812F90E0FC01E458FF4FE4915D
:100D9000ED87FC01E057FF4FE491F0E0EE0FFF1FFD
:100DA000EC55FF4F859194919F878E87DF91CF916E
:100DB0001F910895FF920F931F93CF93DF93EC0140
:100DC000F62E522F1B821A8208EE13E020E030E04C
:100DD0000C831D832E833F8385E791E0998388836D
:100DE0001F8A1E8A198E188E1B8E1A8E1D8E1C8EBF
:100DF0008E8D8E7F50FB81F98E8F642FCE010E94E5
:100E000088066F2DCE01DF91CF911F910F91FF903A
:100E10000C94B106CF93DF93EC019A01AB011B8ECA
:100E20001A8E198E188E1F8A1E8A60E079E08DE373
:100E300090E00E949D17C9012430310520F0B901CE
:100E40006350710902C061E070E07D8F6C8FEC85AA
:100E5000E63108F068C0B90176956795643171058F
:100E600018F06351710902C061E070E07F8B6E8BF6
:100E7000069718F0C901059702C081E090E0998FAC
:100E8000888FC901880F991F820F931F96958795A8
:100E9000969587958D30910510F00C9702C081E0F2
:100EA00090E09B8F8A8F20916800E83050F091E0AD
:100EB000EE3008F490E081E001C0880F9A95EAF7DF
:100EC00001C084E0822B809368002C85283038F0A4
:100ED0002E3040F0263148F48CE690E008C08DE6D4
:100EE00090E005C08BE690E002C080E090E09C8B33
:100EF0008B8B283030F481E001C0880F2A95EAF707
:100F00000DC0822F90E02E3010F4089701C00E978C
:100F100091E001C0990F8A95EAF7892F8D8B8C8D0E
:100F20009D8D0197F1F7CE01DF91CF910C94DE05F5
:100F3000CF92DF92EF92FF920F931F93C12CD12C8F
:100F4000760197018601B701A6010E94F5081F915D
:100F50000F91FF90EF90DF90CF9008954F925F92A6
:100F60006F927F928F929F92AF92BF92CF92DF92B9
:100F7000EF92FF920F931F93CF935B010E949F0903
:100F80000E94AE090E94C0150E949D080E948D1506
:100F90006B017C01B501882777FD8095982F6C0D3A
:100FA0007D1D8E1D9F1D0E94C0150E949D080E94E0
:100FB0008D152B013C0161E871E083E693E00E940E
:100FC000DD122AE030E0B701A60183E693E00E943B
:100FD000AA132AE030E0B301A20183E693E00E9465
:100FE000AA132AE030E0B701A60183E693E00E944D
:100FF000481366E271E083E693E00E94D0120E94FB
:10100000AE0964197509860997090E94C0150E94E6
:101010009D084B015C0122E030E0AB01BC0183E69E
:1010200093E00E94A71466E271E083E693E00E94D9
:10103000D01222E030E040E050E066E173E483E665
:1010400093E00E94A71466E271E083E693E00E94B9
:10105000D012C501B4019F77E12CF12C00E81FE309
:1010600020E030E040E85FEB0E94CD08C82F22E08E
:1010700030E040E050E066E173E483E693E00E94F4
:10108000A91420E030E0A901C501B4010E94CC16EA
:1010900018162CF46AE67FEF86E990E004C066E952
:1010A00070E08AE69FEF0E9495090E94AE096B01ED
:1010B0007C016C2F70E04AE050E083E693E00E94F0
:1010C0009213CC2309F48DCF60E070E080E090E0D3
:1010D000CF911F910F91FF90EF90DF90CF90BF9035
:1010E000AF909F908F907F906F905F904F900C94F7
:1010F0009509CF92DF92EF92FF920F931F9380E8B2
:1011000092E00E945D0D8FE792E00E942709C12CBA
:10111000D12C76010FE612E123E83AE340E050E0FB
:1011200060ED70E48BE592E00E94F5081F910F914D
:10113000FF90EF90DF90CF900895CF92DF92EF92E3
:10114000FF9220E030E044E353E40E94BD1420E02D
:1011500030E044EB53E40E9402166B017C0120E076
:1011600030E0A9010E94211587FF0AC020E030E08D
:1011700044EB53E4C701B6010E94BD146B017C012E
:1011800020E030E044E353E4C701B6010E94BC1400
:10119000FF90EF90DF90CF9008958F929F92AF9243
:1011A000BF92CF92DF92EF92FF920F931F934B016A
:1011B0005C01670178010E94CC16181654F4A7014F
:1011C0009601C501B4010E942115881F8827881F38
:1011D00001C080E01F910F91FF90EF90DF90CF90C2
:1011E000BF90AF909F908F900895CF92DF92EF9233
:1011F000FF920F931F93FC0140835183628373839B
:101200000483158326833783C086D186E286F386DE
:10121000108A118A128A138A1486158616861786F2
:10122000148A158A168A178A108E118E128E138EC2
:10123000148E158E168E178E10A211A212A213A252
:101240001F910F91FF90EF90DF90CF900895089538
:1012500061E08AE00E94FE0F61E089E00E94FE0FDB
:1012600061E088E00E94FE0F61E087E00E94FE0FCF
:1012700080EA8093800081E18093810080E991E0A1
:101280009093870080938600089580918D0281114C
:1012900005C081E080938D020C9428090895CF93B6
:1012A000DF93EC010E944509D7FF05C0D195C19598
:1012B000D10981E001C080E0C13991E0D90714F083
:1012C000C0E9D1E0D0938B00C0938A0090918F0247
:1012D000891711F061E001C060E088E0DF91CF91F3
:1012E0000C943710CF93DF93EC010E944509D7FF90
:1012F00005C0D195C195D10981E001C080E0C13917
:1013000091E0D90714F0C0E9D1E0D0938900C093EF
:10131000880090918E02891711F061E001C060E0B1
:1013200087E0DF91CF910C943710CF93DF93EB01DF
:101330000E944F09CE01DF91CF910C9472090E9457
:10134000440F709391026093900210929602109253
:101350009702109298021092990208958F929F928C
:10136000AF92BF92CF92DF92EF92FF920F931F93B3
:1013700080E892E00E94B70D8091840290918502EE
:101380002091920230919302821B930B90939502CD
:10139000809394020E94440F209190023091910218
:1013A000AB01421B530B9A01709391026093900220
:1013B000A0919402B09195020E94CB1720E030E0FA
:1013C00040EE50E00E94DD17EDE8AE2EF8E3BF2EB0
:1013D000ACE0CA2EDD24D394E12CF12C00E010E027
:1013E0000E94191849015A01809196029091970222
:1013F000A0919802B0919902880D991DAA1DBB1D5C
:101400008093960290939702A0939802B0939902CA
:101410009D01552737FD5095452FA8E6B1E00E9464
:10142000D217BC01992777FD9095892F1F910F91B5
:10143000FF90EF90DF90CF90BF90AF909F908F90F4
:101440000895CF92DF92EF92FF92CF93DF938AE9D4
:1014500092E00E94140B42E050E063E070E080E80C
:1014600092E00E94610E4FEF60E280E892E00E94FD
:10147000660D40E263E280E892E00E94660D40E083
:1014800064E280E892E00E94660D64EF71E080E023
:1014900090E00E94670FC0E0D4E0C12CD12C76010F
:1014A00067E280E892E00E948F0D80E892E00E945F
:1014B000B70D8091840290918502AA2797FDA0958F
:1014C000BA2FC80ED91EEA1EFB1E219749F7C70185
:1014D000B60120E034E040E050E00E949D173093D8
:1014E0009302209392020E949F09DF91CF91FF9077
:1014F000EF90DF90CF900C94AE098091CA0290E0FB
:101500002091CB02821B910908952091CB028091FA
:10151000CA02281750F4E22FF0E0E453FD4F808117
:1015200090E02F5F2093CB0208958FEF9FEF0895F7
:10153000E091CB028091CA02E81730F4F0E0E45366
:10154000FD4F808190E008958FEF9FEF08950895FB
:10155000CF92DF92EF92FF920F931F93CF93DF937F
:101560007C01CB018A012091A602222389F0EB01A4
:101570006B01C40ED51ECC15DD0569F06991D7014C
:10158000ED91FC910190F081E02DC7010995F3CF19
:10159000642F0E94070CC801DF91CF911F910F911A
:1015A000FF90EF90DF90CF900895CF93DF931F923D
:1015B000CDB7DEB769832091A6022223D1F0209116
:1015C000A702203240F021E030E0FC013383228387
:1015D00080E090E015C08091A802E82FF0E0E75588
:1015E000FD4F998190838F5F8093A8028093A7021B
:1015F00005C061E0CE0101960E94070C81E090E0F9
:101600000F90DF91CF910895FC011382128248EE72
:1016100053E060E070E044835583668377838DE810
:1016200091E09183808308951092CB021092CA02B8
:101630001092A8021092A7020C94520B862F4132EE
:1016400008F040E26CEC72E00E94700B1092CB024A
:101650008093CA02089521E00C941E0B81E08093D0
:10166000A6026093C9021092A8021092A7020895E0
:101670000F93062F21E04091A70269EA72E0809162
:10168000C9020E94B40B1092A8021092A7021092F5
:10169000A6020F91089561E00C94380B8AE992E05C
:1016A0000C94040B1092590381E08093570310921D
:1016B000560361E082E10E94371061E083E10E94FD
:1016C0003710E9EBF0E080818E7F808380818D7F11
:1016D000808388E48093B80085E48093BC000895FB
:1016E000413208F03FC0909159039111FCCF91E035
:1016F00090935903209357032FEF2093EC021092FD
:101700003103240F20933003909358039091580392
:10171000880F892B8093580380915603813041F4C0
:1017200010925603809158038093BB0085EC01C052
:1017300085EE8093BC00809159038130E1F3809164
:101740003103841710F44091310322E333E0FB01AD
:10175000D9018A2F821B841718F48D918193F9CFB8
:10176000842F089580E008950F93413208F046C019
:10177000909159039111FCCF92E0909359030093FB
:1017800057039FEF9093EC02109231034093300384
:10179000FB0162E373E0DB019A2F961B941718F4A8
:1017A00091919D93F9CF1092580390915803880F0F
:1017B000892B8093580380915603813041F4109215
:1017C0005603809158038093BB0085EC01C085EEE1
:1017D0008093BC00222321F0809159038230E1F3F1
:1017E0008091EC028F3F61F08091EC02803251F0E9
:1017F0008091EC02803341F483E007C081E005C0B2
:1018000080E003C082E001C084E00F91089561325E
:1018100098F420915903243089F460930E03FC015D
:1018200080E193E0DC012A2F281B261718F4219170
:101830002D93F9CF80E0089581E0089582E0089526
:1018400085ED8093BC008091BC0084FDFCCF10929C
:101850005903089585EC8093BC00109259030895B4
:101860001F920F920FB60F9211242F933F934F9315
:101870005F936F937F938F939F93AF93BF93EF93F8
:10188000FF938091B900887F803609F49CC068F589
:10189000883209F45BC090F4803109F454C038F404
:1018A000882309F4F5C0883009F44DC0F5C08831AB
:1018B00009F44CC0803209F45DC0EEC0803409F4F4
:1018C00068C048F4803309F455C0883309F0E4C097
:1018D0008093EC02A8C0803509F44FC0883509F424
:1018E0005DC0883409F0D8C0D5C0883909F4C6C0B5
:1018F000A8F4883709F467C038F4883609F463C05F
:10190000803709F460C0C8C0883809F4B7C080398E
:1019100009F45FC0803809F0BFC05BC0803B09F4A8
:1019200085C038F4803A09F466C0883A09F47EC06C
:10193000B3C0803C09F4A6C0883C09F4A3C0883B2E
:1019400009F489C0A9C08091580310C09091310357
:1019500080913003981770F5E091310381E08E0F8C
:1019600080933103F0E0EE5CFC4F80818093BB00FC
:1019700085EC85C08093EC028DC0E091310381E05D
:101980008E0F809331038091BB00F0E0EE5CFC4F42
:10199000808390913103809130036DC0E0913103D9
:1019A00081E08E0F809331038091BB00F0E0EE5C0C
:1019B000FC4F80838091570381116CC081E080933C
:1019C000560384EA60C083E0809359031092ED02CD
:1019D000CFCF8091ED02803208F050C0E091ED024F
:1019E00081E08E0F8093ED028091BB00F0E0E25128
:1019F000FD4F8083BDCF8091ED02803230F4E091C5
:101A0000ED02F0E0E251FD4F10820E94200C609147
:101A1000ED0270E0E0915203F09153038EEE92E0FC
:101A200009951092ED020E942A0C36C084E0809342
:101A3000590310920F0310920E03E0915403F0919A
:101A40005503099580910E03811105C081E08093B3
:101A50000E0310921003E0910F0381E08E0F80932C
:101A60000F03F0E0E05FFC4F80818093BB0090911A
:101A70000F0380910E03981708F47ACF85E88093BE
:101A8000BC000AC085EC8093BC001092590304C0CE
:101A90001092EC020E94200CFF91EF91BF91AF9148
:101AA0009F918F917F916F915F914F913F912F9176
:101AB0000F900FBE0F901F901895FC0183E090E0EF
:101AC000908787831386128614860895EF92FF927B
:101AD0001F93CF93DF931F92CDB7DEB77C01162FF4
:101AE000FC0161858AE992E049830E942E0B612FF7
:101AF0008AE992E00E94D50A4981642F8AE992E03E
:101B00000E94D50A8AE992E00E944B0BF701868376
:101B10000F90DF91CF911F91FF90EF9008951F9349
:101B2000CF93DF93EC01162F69858AE992E00E943A
:101B30002E0B612F8AE992E00E94D50A8AE992E091
:101B40000E944B0B8E8341E069858AE992E00E94F6
:101B50002B0B8AE992E00E94850AC82F8AE992E05D
:101B60000E944B0B8C2FDF91CF911F9108959F9274
:101B7000AF92BF92CF92DF92EF92FF920F931F939B
:101B8000CF93DF93EC0169858AE992E00E942E0BE6
:101B9000E0919A02F0919B020190F081E02D68EAB9
:101BA0008AE992E009958AE992E00E944B0B46E0AF
:101BB00069858AE992E00E942B0B0E94380F7B0115
:101BC0008AE992E00E947D0A069784F48A859B85C3
:101BD000892BB1F30E94380F6E197F098A859B8586
:101BE0008617970768F781E08C872CC08AE992E016
:101BF0000E94850AA82E8AE992E00E94850A982E02
:101C00008AE992E00E94850AE82E8AE992E00E9421
:101C1000850AB82E8AE992E00E94850AF82E8AE9A0
:101C200092E00E94850AD92CC12CCA28D982C88288
:101C30001B2D00E00E291B830A83982F88278F29EC
:101C40009D838C83DF91CF911F910F91FF90EF9037
:101C5000DF90CF90BF90AF909F9008951F93CF9348
:101C6000DF931F92CDB7DEB7162F8AE992E0498342
:101C70000E942E0B4981642F8AE992E00E94D50AC6
:101C80008AE992E00E944B0B811114C041E0612F60
:101C90008AE992E00E942B0B8AE992E00E947D0A79
:101CA000892B41F08AE992E00F90DF91CF911F914B
:101CB0000C94850A8FEF9FEF0F90DF91CF911F91CA
:101CC0000895EF92FF920F931F93CF93DF937C01C0
:101CD000EB018A016330710521F04230510509F0B2
:101CE00051C0CE010197039758F50115110581F0F8
:101CF0004FE050E06BE6C7010E942E0E8F3F2FEFA2
:101D0000920719F001E010E013C00130110551F005
:101D10004FE050E06AE6C7010E942E0E8F3FEFEFC2
:101D20009E0721F4C330D10569F027C000E010E020
:101D3000C330D10529F4873D9105F1F5C2E0D0E02B
:101D40002097D9F40115110561F04FE050E069E6E4
:101D5000C7010E942E0E833D910589F101301105C6
:101D600049F04FE050E068E6C7010E942E0E833D27
:101D7000910541F1C330D10519F00230110511F47C
:101D800080E025C0F701D087C783209759F0D7FDA1
:101D900011C023977CF40130110511F48BE608C0C3
:101DA0008AE606C00130110511F489E601C088E613
:101DB000F701818781E00BC0C1E0D0E0C1CF01E035
:101DC00010E002C000E010E0C0E0D0E0D6CFDF912C
:101DD000CF911F910F91FF90EF9008951F920F9256
:101DE0000FB60F9211242F933F938F939F93AF932E
:101DF000BF9380915B0390915C03A0915D03B091D0
:101E00005E0330915A0323E0230F2D3720F401960F
:101E1000A11DB11D05C026E8230F0296A11DB11D0D
:101E200020935A0380935B0390935C03A0935D031C
:101E3000B0935E0380915F0390916003A091610372
:101E4000B09162030196A11DB11D80935F03909331
:101E50006003A0936103B0936203BF91AF919F9120
:101E60008F913F912F910F900FBE0F901F9018955B
:101E70002FB7F89460915B0370915C0380915D03D0
:101E800090915E032FBF08953FB7F89480915F0350
:101E900090916003A0916103B091620326B5A89B65
:101EA00005C02F3F19F00196A11DB11D3FBF662748
:101EB000782F892F9A2F620F711D811D911D42E08D
:101EC000660F771F881F991F4A95D1F70895CF9203
:101ED000DF92EF92FF92CF93DF936B017C010E9420
:101EE000440FEB01C114D104E104F10489F00E9414
:101EF000BB140E94440F6C1B7D0B683E734090F333
:101F000081E0C81AD108E108F108C851DC4FEACFD6
:101F1000DF91CF91FF90EF90DF90CF9008958230C6
:101F2000910538F0880F991F880F991F0597019721
:101F3000F1F70895789484B5826084BD84B581609A
:101F400084BD85B5826085BD85B5816085BDEEE6C1
:101F5000F0E0808181608083E1E8F0E010828081A0
:101F600082608083808181608083E0E8F0E080810E
:101F700081608083E1EBF0E0808184608083E0EB2E
:101F8000F0E0808181608083EAE7F0E08081846016
:101F90008083808182608083808181608083808172
:101FA000806880831092C1000895833081F028F406
:101FB000813099F08230A1F008958730A9F08830FF
:101FC000B9F08430D1F4809180008F7D03C080917E
:101FD00080008F7780938000089584B58F7702C04A
:101FE00084B58F7D84BD08958091B0008F7703C044
:101FF0008091B0008F7D8093B0000895CF93DF93E0
:1020000090E0FC01E458FF4F2491FC01E057FF4FA2
:102010008491882349F190E0880F991FFC01E854CE
:10202000FF4FA591B49182559F4FFC01C591D4916A
:102030009FB7611108C0F8948C91209582238C93EE
:10204000888182230AC0623051F4F8948C91322F37
:10205000309583238C938881822B888304C0F894E5
:102060008C91822B8C939FBFDF91CF9108950F931A
:102070001F93CF93DF931F92CDB7DEB7282F30E0A9
:10208000F901E859FF4F8491F901E458FF4F149189
:10209000F901E057FF4F04910023C9F0882321F094
:1020A00069830E94D50F6981E02FF0E0EE0FFF1FDA
:1020B000E255FF4FA591B4919FB7F8948C916111AF
:1020C00003C01095812301C0812B8C939FBF0F907B
:1020D000DF91CF911F910F910895CF93DF93282F18
:1020E00030E0F901E859FF4F8491F901E458FF4FBE
:1020F000D491F901E057FF4FC491CC2391F08111A5
:102100000E94D50FEC2FF0E0EE0FFF1FEC55FF4FB4
:10211000A591B4912C912D2381E090E021F480E0F1
:1021200002C080E090E0DF91CF9108950E94241AD0
:10213000FC01818D228D90E0805C9F4F821B910974
:102140008F7399270895FC01918D828D981731F036
:10215000828DE80FF11D858D90E008958FEF9FEF40
:102160000895FC01918D828D981761F0828DDF01B9
:10217000A80FB11D5D968C91928D9F5F9F73928F7A
:1021800090E008958FEF9FEF089585E392E1892B0A
:1021900049F080E090E0892B29F00E9435128111EE
:1021A0000C9400000895FC01848DDF01A80FB11D7F
:1021B000A35ABF4F2C91848D90E001968F7399277D
:1021C000848FA689B7892C93A089B1898C9180646A
:1021D0008C93938D848D981306C00288F389E02D2B
:1021E00080818F7D80830895CF93DF93EC01888D6C
:1021F0008823C9F0EA89FB89808185FD05C0A8890B
:10220000B9898C9186FD0FC00FB607FCF5CF808190
:1022100085FFF2CFA889B9898C9185FFEDCFCE01DA
:102220000E94D310E7CFDF91CF910895CF92DF9234
:10223000FF920F931F93CF93DF931F92CDB7DEB71B
:102240006C0181E0D60158968C9358975B969C91CF
:102250005B975C968C915C97981307C05096ED91B4
:10226000FC915197808185FD2EC0F601038D10E011
:102270000F5F1F4F0F731127F02EF601848DF81298
:1022800011C00FB607FCF9CFD6015096ED91FC9125
:102290005197808185FFF1CFC60169830E94D310D9
:1022A0006981EBCF838DE80FF11DE35AFF4F608307
:1022B000D6015B960C935B975296ED91FC915397E8
:1022C000808180620CC0D6015696ED91FC915797A3
:1022D00060835096ED91FC9151978081806480835A
:1022E00081E090E00F90DF91CF911F910F91FF90CF
:1022F000DF90CF900895BF92CF92DF92EF92FF923E
:10230000CF93DF93EC016A017B01B22EE889F98952
:1023100082E08083411581EE580761057105A1F0C7
:1023200060E079E08DE390E0A70196010E947B17C1
:1023300021503109410951095695479537952795FF
:10234000211580E1380798F0E889F989108260E862
:1023500074E88EE190E0A70196010E947B1721505E
:102360003109410951095695479537952795EC85CF
:10237000FD853083EE85FF852083188EEC89FD89ED
:10238000B082EA89FB89808180618083EA89FB8948
:10239000808188608083EA89FB898081806880836E
:1023A000EA89FB8980818F7D8083DF91CF91FF90C7
:1023B000EF90DF90CF90BF9008951F920F920FB6CD
:1023C0000F9211242F938F939F93EF93FF93E0919C
:1023D0007303F09174038081E0917903F0917A03A3
:1023E00082FD12C0908180917C038F5F8F7320915A
:1023F0007D03821751F0E0917C03F0E0ED59FC4F32
:10240000958F80937C0301C08081FF91EF919F9114
:102410008F912F910F900FBE0F901F9018951F92C4
:102420000F920FB60F9211242F933F934F935F9308
:102430006F937F938F939F93AF93BF93EF93FF938C
:1024400083E693E00E94D310FF91EF91BF91AF918B
:102450009F918F917F916F915F914F913F912F91BC
:102460000F900FBE0F901F90189583E693E00E9487
:10247000981021E0892B09F420E0822F0895109212
:1024800066031092650388EE93E0A0E0B0E08093CD
:10249000670390936803A0936903B0936A038DE97F
:1024A00091E0909364038093630385EC90E09093B4
:1024B000700380936F0384EC90E090937203809399
:1024C000710380EC90E0909374038093730381EC2C
:1024D00090E0909376038093750382EC90E0909364
:1024E00078038093770386EC90E090937A0380934F
:1024F000790310927C0310927D0310927E03109258
:102500007F03089508950E949A0F0E9482120E94EC
:102510009000C5ECD0E10E94B3002097E1F30E9447
:10252000C510F9CFCF92DF92EF92FF920F931F93D6
:10253000CF93DF936C017A01EB01E60EF71E00E00A
:1025400010E0CE15DF0561F06991D601ED91FC91A7
:102550000190F081E02DC6010995080F191FF1CFF8
:10256000C801DF91CF911F910F91FF90EF90DF9005
:10257000CF9008956115710581F0DB010D90002069
:10258000E9F7AD0141505109461B570BDC01ED91B4
:10259000FC910280F381E02D099480E090E00895A1
:1025A0000C94BA12DC01ED91FC910190F081E02DC8
:1025B000099469EA71E00C94BA120F931F93CF93B8
:1025C000DF93EC010E94BA128C01CE010E94D91255
:1025D000800F911FDF91CF911F910F9108958F92DE
:1025E0009F92AF92BF92CF92DF92EF92FF920F93A2
:1025F0001F93CF93DF93CDB7DEB7A1970FB6F894B3
:10260000DEBF0FBECDBF7C01C42EE52FCB01D22E85
:1026100019A221E02D1510F02AE0D22E8E010F5DB7
:102620001F4F8D2C912CA12CB12C6C2D7E2FA50130
:1026300094010E947B178C2DD29E80191124015089
:1026400011098A3014F4805D01C0895CF80180832F
:10265000211531054105510521F0C22EE32FCA0194
:10266000E4CFB801C7010E94BA12A1960FB6F89440
:10267000DEBF0FBECDBFDF91CF911F910F91FF90B5
:10268000EF90DF90CF90BF90AF909F908F90089584
:10269000CF92DF92EF92FF920F931F93CF93DF932E
:1026A000EC016A017B012115310579F4E881F9819A
:1026B0000190F081E02D642FDF91CF911F910F9158
:1026C000FF90EF90DF90CF9009942A303105E9F424
:1026D00077FF1AC06DE20E94D2128C014427552761
:1026E000BA014C195D096E097F092AE0CE010E94EA
:1026F000EF12800F911FDF91CF911F910F91FF90EB
:10270000EF90DF90CF9008952AE0B701A601CE01A7
:10271000DF91CF911F910F91FF90EF90DF90CF90BD
:102720000C94EF120F931F93CF93DF93EC019A0158
:10273000AB01662757FD6095762F0E9448138C01E8
:10274000CE010E94D912800F911FDF91CF911F916E
:102750000F9108950F931F93CF93DF93EC010E9485
:1027600048138C01CE010E94D912800F911FDF9176
:10277000CF911F910F9108954F925F926F927F9228
:102780008F929F92AF92BF92CF92DF92EF92FF9281
:102790000F931F93CF93DF93EC016A017B01B22E5D
:1027A0009A01AB01C701B6010E943317882319F0C3
:1027B0006CEA71E027C026013701E89477F82FEF23
:1027C0003FEF4FE75FE7C301B2010E94331781116A
:1027D0000DC02FEF3FEF4FE75FE7C301B2010E944B
:1027E000211518161CF460EB71E00CC02FEF3FEFC1
:1027F0004FE75FE4C701B6010E94CC161816ACF48F
:1028000064EB71E0CE01DF91CF911F910F91FF90AA
:10281000EF90DF90CF90BF90AF909F908F907F9080
:102820006F905F904F900C94BA122FEF3FEF4FE7ED
:102830005FECC701B6010E94211587FDE1CF20E0C2
:1028400030E0A901C701B6010E94211587FF0AC027
:102850006DE2CE010E94D2128C01F7FAF094F7F8E3
:10286000F09402C000E010E0A12C60E070E080E095
:102870009FE3AB1441F020E030E040E251E40E94DD
:102880002515A394F6CF9B01AC01C701B6010E94A8
:10289000BD146B017C010E9492152B013C010E942A
:1028A000BE159B01AC01C701B6010E94BC146B01AF
:1028B0007C012AE0B301A201CE010E94EF12080FB1
:1028C000191FBB2039F068EB71E0CE010E94BA12EB
:1028D000080F191F7B2C772041F120E030E040E207
:1028E00051E4C701B6010E94D0166B017C010E9421
:1028F0008D154B01AA2497FCA094BA2C2AE030E055
:10290000B501A401CE010E944813080F191FC5018B
:10291000B4010E94C0159B01AC01C701B6010E9421
:10292000BC146B017C017A94D6CFC801DF91CF91A2
:102930001F910F91FF90EF90DF90CF90BF90AF90DD
:102940009F908F907F906F905F904F9008950C9420
:10295000BC130F931F93CF93DF93EC010E94BC1322
:102960008C01CE010E94D912800F911FDF91CF916F
:102970001F910F91089508955058BB27AA270ED094
:10298000D1C1C2D130F0C7D120F031F49F3F11F452
:102990001EF4B7C10EF4E095E7FB9FC1E92FD3D138
:1029A00080F3BA17620773078407950718F071F46C
:1029B0009EF5EBC10EF4E0950B2EBA2FA02D0B0166
:1029C000B90190010C01CA01A0011124FF27591B74
:1029D00099F0593F50F4503E68F11A16F040A22F7A
:1029E000232F342F4427585FF3CF469537952795EB
:1029F000A795F0405395C9F77EF41F16BA0B620BEA
:102A0000730B840BBAF09150A1F0FF0FBB1F661F30
:102A1000771F881FC2F70EC0BA0F621F731F841F73
:102A200048F4879577956795B795F7959E3F08F099
:102A3000B3CF9395880F08F09927EE0F9795879558
:102A4000089527D108F481E008950CD06BC163D1BB
:102A500040F05AD130F021F45F3F19F03EC15111DE
:102A600095C14FC170D198F39923C9F35523B1F3A0
:102A7000951B550BBB27AA2762177307840738F0ED
:102A80009F5F5F4F220F331F441FAA1FA9F333D04C
:102A90000E2E3AF0E0E830D091505040E695001C00
:102AA000CAF729D0FE2F27D0660F771F881FBB1FBC
:102AB000261737074807AB07B0E809F0BB0B802D96
:102AC000BF01FF2793585F4F2AF09E3F510568F0E2
:102AD00004C15CC15F3FECF3983EDCF386957795CB
:102AE0006795B795F7959F5FC9F7880F911D9695E4
:102AF000879597F90895E1E0660F771F881FBB1F40
:102B0000621773078407BA0720F0621B730B840BEC
:102B1000BA0BEE1F88F7E095089504D06894B111C0
:102B200035C1089518D188F09F5790F0B92F992793
:102B3000B751A0F0D1F0660F771F881F991F1AF0C8
:102B4000BA95C9F712C0B13081F01FD1B1E0089534
:102B50001CC1672F782F8827B85F39F0B93FCCF3B5
:102B6000869577956795B395D9F73EF490958095BE
:102B7000709561957F4F8F4F9F4F0895E89409C0DE
:102B800097FB3EF490958095709561957F4F8F4FA0
:102B90009F4F9923A9F0F92F96E9BB279395F695B6
:102BA000879577956795B795F111F8CFFAF4BB0F34
:102BB00011F460FF1BC06F5F7F4F8F4F9F4F16C098
:102BC000882311F096E911C0772321F09EE8872F22
:102BD000762F05C0662371F096E8862F70E060E0DE
:102BE0002AF09A95660F771F881FDAF7880F969557
:102BF000879597F9089588D018F011F08CD038F4A3
:102C000080C0C4C0E92F9FD0B0F35523C9F3E7FBC0
:102C10006217730784079507A8F199F3E92FFF2737
:102C200088232AF03197660F771F881FDAF7952FD0
:102C30005527442332F091505040220F331F441F38
:102C4000D2F7BB27E91BF50B621B730B840BB10991
:102C5000C1F222F4620F731F841FB11D31972AF055
:102C6000660F771F881FBB1FEFCF915050405AF05F
:102C700041F0882332F0660F771F881F9150504033
:102C8000C1F7939530C08695779567959F5FD9F783
:102C9000F8CF990F0008550FAA0BE0E8FEEF1616C3
:102CA0001706E807F907C0F012161306E407F50740
:102CB00098F0621B730B840B950B39F40A2661F0B4
:102CC000232B242B252B21F408950A2609F4A14057
:102CD000A6958FEF811D811D089597F99F6780E864
:102CE00070E060E008959F3F31F0915020F48795A7
:102CF00077956795B795880F911D9695879597F964
:102D000008959FEF80EC089500240A941616170684
:102D100018060906089500240A94121613061406CC
:102D200005060895092E0394000C11F4882352F02F
:102D3000BB0F40F4BF2B11F460FF04C06F5F7F4FE7
:102D40008F4F9F4F089557FD9058440F551F59F0CE
:102D50005F3F71F04795880F97FB991F61F09F3F88
:102D600079F087950895121613061406551FF2CFB1
:102D70004695F1DF08C0161617061806991FF1CF01
:102D800086957105610508940895E894BB27662728
:102D90007727CB0197F908957CDF08F48FEF08952A
:102DA0000BD0C0CFB1DF28F0B6DF18F0952309F0C3
:102DB00094CFA7CF1124EACFC6DFA0F3959FD1F31C
:102DC000950F50E0551F629FF001729FBB27F00DD9
:102DD000B11D639FAA27F00DB11DAA1F649F66272E
:102DE000B00DA11D661F829F2227B00DA11D621F7D
:102DF000739FB00DA11D621F839FA00D611D221F37
:102E0000749F3327A00D611D231F849F600D211D1A
:102E1000822F762F6A2F11249F5750408AF0E1F0BD
:102E200088234AF0EE0FFF1FBB1F661F771F881F06
:102E300091505040A9F79E3F510570F04ECFA6CF5C
:102E40005F3FECF3983EDCF3869577956795B795F1
:102E5000F795E7959F5FC1F7FE2B880F911D96951B
:102E6000879597F9089515DF880B990B0895DB0175
:102E70008F939F930E94D217BF91AF91A29F800D15
:102E8000911DA39F900DB29F900D11240895991B41
:102E900079E004C0991F961708F0961B881F7A9551
:102EA000C9F780950895AA1BBB1B51E107C0AA1F53
:102EB000BB1FA617B70710F0A61BB70B881F991FDB
:102EC0005A95A9F780959095BC01CD01089597FB7F
:102ED000072E16F4009407D077FD09D00E945317EF
:102EE00007FC05D03EF4909581959F4F089570950D
:102EF00061957F4F0895A1E21A2EAA1BBB1BFD010D
:102F00000DC0AA1FBB1FEE1FFF1FA217B307E407C8
:102F1000F50720F0A21BB30BE40BF50B661F771F20
:102F2000881F991F1A9469F7609570958095909500
:102F30009B01AC01BD01CF010895052E97FB1EF446
:102F400000940E94B41757FD07D00E947B1707FC1E
:102F500003D04EF40C94B4175095409530952195BC
:102F60003F4F4F4F5F4F08959095809570956195B5
:102F70007F4F8F4F9F4F0895A29FB001B39FC00115
:102F8000A39F700D811D1124911DB29F700D811D95
:102F90001124911D08950E94BC17B7FF0895821B4C
:102FA000930B08950E94BC17A59F900DB49F900DA0
:102FB000A49F800D911D1124089597FB57FF0C9439
:102FC000ED179F938F930E94ED176E1B7F0BAF91B0
:102FD000BF918A0B9B0B0895E894DF93CF93FC017C
:102FE000DB010E94BC177F936F93E9019A01AC014A
:102FF000BF93AF933F932F93DF010E94BC1726F43A
:103000006C1B7D0B820B930B9E01EB01FC010E945C
:10301000F418AF91BF912F913F910E94F418BE0117
:10302000CF01F9012F913F91CF91DF9108956894DD
:1030300001C0E894F92FF12B12F00C944B18A0E08A
:10304000B0E0E5E2F8E10C94BD18092E059422F4F5
:103050000E94A718112392F4F0E80F26FFEFE094E6
:10306000F09400951095B094C094D094A194BF0AA8
:10307000CF0ADF0AEF0AFF0A0F0B1F0B0E94561838
:1030800007FC0E94A718CDB7DEB7ECE00C94D91866
:10309000689401C0E8948F929F92CF93DF930E942F
:1030A0005618DF91CF919F908F900895882499248E
:1030B000F401E401B0E49F93AA279A158B049C04C1
:1030C000ED05FE05CF05D007A10798F4AD2FDC2F45
:1030D000CF2FFE2FE92D982C892E982F872F762F12
:1030E000652F542F432F322F2227B85031F7BF912D
:1030F00027C01B2EBF91BB27220F331F441F551F14
:10310000661F771F881F991F881C991CEE1FFF1FC1
:10311000CC1FDD1FAA1FBB1F8A149B04EC05FD05F5
:10312000CE05DF05A007B10748F08A189B08EC0917
:10313000FD09CE09DF09A00BB10B21601A94E1F65D
:103140002EF49401AF01BE01CD01000C08956095ED
:1031500070958095909530954095509521953F4F6D
:103160004F4F5F4F6F4F7F4F8F4F9F4F08952F925D
:103170003F924F925F926F927F928F929F92AF9207
:10318000BF92CF92DF92EF92FF920F931F93CF9354
:10319000DF93CDB7DEB7CA1BDB0B0FB6F894DEBFEB
:1031A0000FBECDBF09942A88398848885F846E8411
:1031B0007D848C849B84AA84B984C884DF80EE805B
:1031C000FD800C811B81AA81B981CE0FD11D0FB664
:1031D000F894DEBF0FBECDBFED010895EE0FFF1FC7
:1031E0000590F491E02D09940E94BC17460F571FDB
:1031F000C81FD91F08F431960895CF93DF9382300A
:10320000910510F482E090E0E0910204F091030453
:1032100020E030E0A0E0B0E0309739F1408151810A
:1032200048175907B8F04817590771F482819381FC
:10323000109729F013969C938E9312972CC090931D
:1032400003048093020427C02115310531F0421791
:10325000530718F0A901DB0101C0EF019A01BD017C
:10326000DF010280F381E02DD7CF21153105F9F080
:10327000281B390B2430310580F48A819B8161152C
:10328000710521F0FB019383828304C090930304B2
:1032900080930204FE01329644C0FE01E20FF31F48
:1032A0008193919322503109398328833AC0209128
:1032B000000430910104232B41F42091020130914C
:1032C0000301309301042093000420910001309108
:1032D00001012115310541F42DB73EB7409104019C
:1032E00050910501241B350BE0910004F09101047D
:1032F000E217F307A0F42E1B3F0B2817390778F0CD
:10330000AC014E5F5F4F2417350748F04E0F5F1F2B
:1033100050930104409300048193919302C0E0E034
:10332000F0E0CF01DF91CF910895CF93DF93009725
:1033300009F487C0FC01329713821282C091020403
:10334000D0910304209781F420813181280F391F07
:1033500080910004909101048217930779F5F0930E
:103360000104E09300046DC0DE0120E030E0AE1700
:10337000BF0750F412964D915C9113979D01411532
:10338000510509F1DA01F3CFB383A2834081518162
:10339000840F951F8A179B0771F48D919C9111974B
:1033A000840F951F02969183808312968D919C9134
:1033B0001397938382832115310529F4F093030435
:1033C000E09302043EC0D9011396FC93EE9312974A
:1033D0004D915D91A40FB51FEA17FB0779F4808129
:1033E0009181840F951F0296D90111969C938E931B
:1033F0008281938113969C938E931297E0E0F0E084
:103400008A819B81009719F0FE01EC01F9CFCE0172
:10341000029628813981820F931F209100043091F8
:1034200001042817390769F4309729F4109203042E
:103430001092020402C013821282D0930104C0933E
:103440000004DF91CF91089581E090E0F8940C940E
:10345000291A10E0CAECD0E004C0FE010E94F01866
:0C3460002296CC3CD107C9F7F894FFCFAE
:10346C000000040480000F00F4010400D0070401E4
:10347C007475726E20636F6D6D616E642065786516
:10348C00637574656400203A2000416761696E734E
:10349C00742057616C6C000000000042049C01B564
:1034AC0001CF01EA0107022602470269028E02B52A
:1034BC0002DE020A03000001000800200040008028
:1034CC000000010004000000009610000000004203
:1034DC00040000000035059212A10514058705B9FA
:1034EC00057475726E696E670000000000D50AA83D
:1034FC000A7D0A850A980AA70A0000000016119294
:10350C00129810B110A310F4100D0A006E616E0029
:0A351C00696E66006F7666002E00EF
:00000001FF
