:100000000C9467000C948F000C948F000C94A10A40
:100010000C94A10A0C94A10A0C948F000C948709EB
:100020000C948F000C948F000C948F000C948F0014
:100030000C948F000C948F000C948F000C948F0004
:100040000C94320C0C948F000C94210F0C94530FD1
:100050000C948F000C948F000C948F000C948F00E4
:100060000C94EF060C948F000000000800020100C1
:100070000003040700000000000000000102040863
:100080001020408001020408102001020408102002
:10009000040404040404040402020202020203032E
:1000A00003030303000000002300260029000000D2
:1000B0000000250028002B0000000000240027007D
:1000C0002A00B6005A020D06830FC10071021124E6
:1000D0001FBECFEFD8E0DEBFCDBF11E0A0E0B1E0A2
:1000E000E4E7F9E202C005900D92A03AB107D9F712
:1000F00023E0A0EAB1E001C01D92A53CB207E1F700
:1001000010E0CAECD0E004C02297FE010E94651303
:10011000C23CD107C9F70E94C70F0C94AD140C94D0
:10012000000026E040E855E260E070E084E293E001
:100130000E94BF0E82E192E00E94D30561E08DE053
:100140000E94420D61E08DE00E947B0D0E94F7024B
:1001500060E08DE00C947B0D8AEA91E00E9435020C
:1001600068EE73E080E090E00C94AB0C8AEA91E0DA
:100170000E94A90121E041E06CE080EA91E00C944A
:10018000CB0080E191E09093AB018093AA018AEAD1
:1001900091E00C947F01FC016083418322831382F0
:1001A00014821682158210861782118608956F9226
:1001B0007F928F929F92AF92BF92CF92DF92EF92F7
:1001C000FF920F931F93CF93DF93EC018B018A85EE
:1001D0009B85892B09F474C0D12C8C85D816E8F442
:1001E000ED2CF12C8E859F85F701EE0FFF1FE00FA0
:1001F000F11F91838083EA85FB85EE0DFF1D61E091
:1002000080810E947B0DEA85FB85EE0DFF1D61E07C
:1002100080810E94420DD394E0CF8AE090E00E945A
:10022000D30CD12C8C85D816A0F4ED2CF12CEA85BA
:10023000FB85EE0DFF1D60E080810E94420DEA8586
:10024000FB85EE0DFF1D60E080810E947B0DD39445
:10025000E9CF0E94880C6B017C010E94880C6C190C
:100260007D098E099F092E853F854901A12CB12C5E
:10027000681579058A059B0518F50E94880C3B01D5
:100280006C187D08912C8C85981638F7A92CB12C08
:10029000AA85BB85AA0DBB1D8C910E94B10D892B2F
:1002A00051F4F501EE0FFF1FE00FF11F80819181E6
:1002B0006816790610F09394E6CF71826082FBCFC6
:1002C000DF91CF911F910F91FF90EF90DF90CF9032
:1002D000BF90AF909F908F907F906F900895FC019A
:1002E00080E191E0918380831382128215821482CF
:1002F0001782168211861086138612860895CF9370
:10030000DF93EC018AE091E0998388838A859B855D
:10031000009711F00E9419148C819D81009711F0B3
:100320000E94191488859985009711F00E9419146C
:100330008A819B81009711F00E9419148E819F8100
:10034000009721F0DF91CF910C941914DF91CF9198
:100350000895CF93DF93EC010E946F018DE591E04A
:100360009983888340E855E260E070E089EC91E091
:100370000E94A40B1C8E1E8E1D8EDF91CF910895BE
:100380004F925F926F927F928F929F92AF92BF92A5
:10039000EF92FF920F931F93CF934B010E94750230
:1003A0000E9484020E94C7100E9453030E9494106E
:1003B000AA2497FCA094BA2C680D791D8A1D9B1D58
:1003C0000E94C7100E9453030E9494102B013C010D
:1003D0000E94840264197509860997090E94C71052
:1003E0000E9453034B015C019F77E12CF12C00E844
:1003F0001FE320E030E040E85FEB0E948303C82F5A
:1004000020E030E0A901C501B4010E94D311181603
:100410002CF46AE67FEF86E990E004C066E970E0BC
:100420008AE69FEF0E948A080E948402CC2381F210
:1004300060E070E080E090E0CF911F910F91FF901D
:10044000EF90BF90AF909F908F907F906F905F9054
:100450004F900C948A0888EE91E00E94580969E355
:1004600070E00E94D711CB010895FF920F931F9364
:10047000CF93DF938C01C4E0D0E0F12CC8010E943F
:100480002B021816190644F462E171E084E293E04D
:100490000E941810FF24F3946AE570E0C8010E94DE
:1004A000C001219759F78F2DDF91CF911F910F91A7
:1004B000FF9008958BEF91E00E94AB038AEF91E0EB
:1004C0000E941C0822E330E042E066E088EE91E002
:1004D0000E94940820E041E060E089EC91E00C94F7
:1004E000740B89EC91E00C941B0B0E94880C7093A8
:1004F00009026093080210920E0210920F021092ED
:1005000010021092110208958F929F92AF92BF92A3
:10051000CF92DF92EF92FF920F931F938BEF91E0B8
:100520000E9405048091FF019091000220910A022F
:1005300030910B02821B930B90930D0280930C025F
:100540000E94880C2091080230910902AB01421BE5
:10055000530B9A017093090260930802A0910C0258
:10056000B0910D020E94401220E030E040EE50E0D9
:100570000E945212EDE8AE2EF8E3BF2EACE0CA2E78
:10058000DD24D394E12CF12C00E010E00E948E12C7
:1005900049015A0180910E0290910F02A091100220
:1005A000B0911102880D991DAA1DBB1D80930E02EA
:1005B00090930F02A0931002B09311029D01552752
:1005C00037FD5095452FA8E6B1E00E944712BC01C7
:1005D000992777FD9095892F1F910F91FF90EF90AC
:1005E000DF90CF90BF90AF909F908F900895CF9263
:1005F000DF92EF92FF92CF93DF9382E192E00E942D
:10060000D30542E050E063E070E08BEF91E00E94A0
:10061000AF044FEF60E28BEF91E00E94B40340E241
:1006200063E28BEF91E00E94B40340E064E28BEF61
:1006300091E00E94B40364EF71E080E090E00E94DA
:10064000AB0CC0E0D4E0C12CD12C760167E28BEF7B
:1006500091E00E94DD038BEF91E00E940504809100
:10066000FF0190910002AA2797FDA095BA2FC80E0E
:10067000D91EEA1EFB1E219749F7C701B60120E0EB
:1006800034E040E050E00E94211230930B022093AE
:100690000A020E947502DF91CF91FF90EF90DF90E8
:1006A000CF900C948402CF92DF92EF92FF9220E0E1
:1006B00030E044E353E40E942C1020E030E044EBAF
:1006C00053E40E9409116B017C0120E030E0A90194
:1006D0000E94901087FF0AC020E030E044EB53E412
:1006E000C701B6010E942C106B017C0120E030E0B4
:1006F00044E353E4C701B6010E942B10FF90EF9032
:10070000DF90CF9008958F929F92AF92BF92CF9239
:10071000DF92EF92FF920F931F934B015C016701F1
:1007200078010E94D311181654F4A7019601C5014F
:10073000B4010E949010881F8827881F01C080E0A4
:100740001F910F91FF90EF90DF90CF90BF90AF90EF
:100750009F908F900895FC0183E090E090878783BD
:100760001386128614860895EF92FF921F93CF93FB
:10077000DF931F92CDB7DEB77C01162FFC01618598
:1007800082E192E049830E94ED05612F82E192E0CF
:100790000E9494054981642F82E192E00E949405B1
:1007A00082E192E00E940A06F70186830F90DF91B2
:1007B000CF911F91FF90EF9008951F93CF93DF93F8
:1007C000EC01162F698582E192E00E94ED05612F10
:1007D00082E192E00E94940582E192E00E940A0682
:1007E0008E8341E0698582E192E00E94EA0582E120
:1007F00092E00E944405C82F82E192E00E940A061E
:100800008C2FDF91CF911F9108959F92AF92BF924D
:10081000CF92DF92EF92FF920F931F93CF93DF93CC
:10082000EC01698582E192E00E94ED05E0911202FF
:10083000F09113020190F081E02D68EA82E192E0EC
:10084000099582E192E00E940A0646E0698582E10C
:1008500092E00E94EA050E947C0C7B0182E192E01A
:100860000E943C05069784F48A859B85892BB1F309
:100870000E947C0C6E197F098A859B8586179707D5
:1008800068F781E08C872CC082E192E00E944405E9
:10089000A82E82E192E00E944405982E82E192E027
:1008A0000E944405E82E82E192E00E944405B82EA1
:1008B00082E192E00E944405F82E82E192E00E94DB
:1008C0004405D92CC12CCA28D982C8821B2D00E02E
:1008D0000E291B830A83982F88278F299D838C8359
:1008E000DF91CF911F910F91FF90EF90DF90CF900C
:1008F000BF90AF909F9008951F93CF93DF931F9267
:10090000CDB7DEB7162F82E192E049830E94ED0554
:100910004981642F82E192E00E94940582E192E095
:100920000E940A06811114C041E0612F82E192E029
:100930000E94EA0582E192E00E943C05892B41F089
:1009400082E192E00F90DF91CF911F910C944405CA
:100950008FEF9FEF0F90DF91CF911F910895EF924E
:10096000FF920F931F93CF93DF937C01EB018A01DA
:100970006330710521F04230510509F051C0CE01BC
:100980000197039758F50115110581F04FE050E0EC
:100990006BE6C7010E947C048F3F2FEF920719F08E
:1009A00001E010E013C00130110551F04FE050E0BC
:1009B0006AE6C7010E947C048F3FEFEF9E0721F497
:1009C000C330D10569F027C000E010E0C330D10585
:1009D00029F4873D9105F1F5C2E0D0E02097D9F4E4
:1009E0000115110561F04FE050E069E6C7010E9472
:1009F0007C04833D910589F10130110549F04FE0F8
:100A000050E068E6C7010E947C04833D910541F1F6
:100A1000C330D10519F00230110511F480E025C072
:100A2000F701D087C783209759F0D7FD11C02397CE
:100A30007CF40130110511F48BE608C08AE606C08B
:100A40000130110511F489E601C088E6F7018187BC
:100A500081E00BC0C1E0D0E0C1CF01E010E002C0F6
:100A600000E010E0C0E0D0E0D6CFDF91CF911F9141
:100A70000F91FF90EF9008958091420290E02091B5
:100A80004302821B91090895209143028091420202
:100A9000281750F4E22FF0E0EC5BFD4F808190E0EE
:100AA0002F5F2093430208958FEF9FEF0895E09109
:100AB000430280914202E81730F4F0E0EC5BFD4F16
:100AC000808190E008958FEF9FEF08950895CF9271
:100AD000DF92EF92FF920F931F93CF93DF937C01EE
:100AE000CB018A0120911E02222389F0EB016B01C8
:100AF000C40ED51ECC15DD0569F06991D701ED91C5
:100B0000FC910190F081E02DC7010995F3CF642F8E
:100B10000E94C606C801DF91CF911F910F91FF90EF
:100B2000EF90DF90CF900895CF93DF931F92CDB7D2
:100B3000DEB7698320911E022223D1F020911F028B
:100B4000203240F021E030E0FC013383228380E05A
:100B500090E015C080912002E82FF0E0EF5DFD4F9E
:100B6000998190838F5F8093200280931F0205C03C
:100B700061E0CE0101960E94C60681E090E00F90F0
:100B8000DF91CF910895FC011382128248EE53E069
:100B900060E070E0448355836683778383E691E069
:100BA0009183808308951092430210924202109222
:100BB000200210921F020C941106862F413208F079
:100BC00040E264E472E00E942F0610924302809398
:100BD0004202089521E00C94DD0581E080931E021D
:100BE000609341021092200210921F0208950F9309
:100BF000062F21E040911F0261E272E080914102E4
:100C00000E9473061092200210921F0210921E0280
:100C10000F91089561E00C94F70582E192E00C9445
:100C2000C3051092D10281E08093CF021092CE02D0
:100C300061E082E10E947B0D61E083E10E947B0D17
:100C4000E9EBF0E080818E7F808380818D7F8083DF
:100C500088E48093B80085E48093BC000895413215
:100C600008F03FC09091D1029111FCCF91E0909398
:100C7000D1022093CF022FEF209364021092A90299
:100C8000240F2093A8029093D0029091D002880F55
:100C9000892B8093D0028091CE02813041F4109252
:100CA000CE028091D0028093BB0085EC01C085EE1E
:100CB0008093BC008091D1028130E1F38091A90240
:100CC000841710F44091A9022AEA32E0FB01D9010D
:100CD0008A2F821B841718F48D918193F9CF842F6A
:100CE000089580E008950F93413208F046C0909136
:100CF000D1029111FCCF92E09093D1020093CF02E8
:100D00009FEF909364021092A9024093A802FB0106
:100D10006AEA72E0DB019A2F961B941718F49191FE
:100D20009D93F9CF1092D0029091D002880F892B19
:100D30008093D0028091CE02813041F41092CE0295
:100D40008091D0028093BB0085EC01C085EE80933A
:100D5000BC00222321F08091D1028230E1F3809106
:100D600064028F3F61F080916402803251F0809183
:100D70006402803341F483E007C081E005C080E075
:100D800003C082E001C084E00F910895613298F4BD
:100D90002091D102243089F460938602FC0188E816
:100DA00092E0DC012A2F281B261718F421912D939D
:100DB000F9CF80E0089581E0089582E0089585EDFF
:100DC0008093BC008091BC0084FDFCCF1092D102C6
:100DD000089585EC8093BC001092D10208951F9273
:100DE0000F920FB60F9211242F933F934F935F935F
:100DF0006F937F938F939F93AF93BF93EF93FF93E3
:100E00008091B900887F803609F49CC068F58832EB
:100E100009F45BC090F4803109F454C038F488239D
:100E200009F4F5C0883009F44DC0F5C0883109F4E3
:100E30004CC0803209F45DC0EEC0803409F468C053
:100E400048F4803309F455C0883309F0E4C0809336
:100E50006402A8C0803509F44FC0883509F45DC02C
:100E6000883409F0D8C0D5C0883909F4C6C0A8F4C0
:100E7000883709F467C038F4883609F463C08037CE
:100E800009F460C0C8C0883809F4B7C0803909F4D3
:100E90005FC0803809F0BFC05BC0803B09F485C0EB
:100EA00038F4803A09F466C0883A09F47EC0B3C0C9
:100EB000803C09F4A6C0883C09F4A3C0883B09F42F
:100EC00089C0A9C08091D00210C09091A9028091E0
:100ED000A802981770F5E091A90281E08E0F809327
:100EE000A902F0E0E655FD4F80818093BB0085ECC0
:100EF00085C0809364028DC0E091A90281E08E0FCD
:100F00008093A9028091BB00F0E0E655FD4F8083FD
:100F10009091A9028091A8026DC0E091A90281E0A0
:100F20008E0F8093A9028091BB00F0E0E655FD4F43
:100F300080838091CF0281116CC081E08093CE02CA
:100F400084EA60C083E08093D10210926502CFCF23
:100F500080916502803208F050C0E091650281E026
:100F60008E0F809365028091BB00F0E0EA59FD4F3F
:100F70008083BDCF80916502803230F4E0916502BC
:100F8000F0E0EA59FD4F10820E94DF066091650291
:100F900070E0E091CA02F091CB0286E692E00995FA
:100FA000109265020E94E90636C084E08093D10267
:100FB0001092870210928602E091CC02F091CD024D
:100FC000099580918602811105C081E08093860297
:100FD00010928802E091870281E08E0F8093870251
:100FE000F0E0E857FD4F80818093BB00909187022D
:100FF00080918602981708F47ACF85E88093BC0028
:101000000AC085EC8093BC001092D10204C01092FB
:1010100064020E94DF06FF91EF91BF91AF919F9113
:101020008F917F916F915F914F913F912F910F9091
:101030000FBE0F901F901895089561E08AE00E94FE
:10104000420D61E089E00E94420D61E088E00E946B
:10105000420D61E087E00E94420D80EA80938000AB
:1010600081E18093810080E991E0909387008093F3
:10107000860008958091D202811105C081E080939D
:10108000D2020C941D080895CF93DF93EC010E94C7
:101090003A08D7FF05C0D195C195D10981E001C0BB
:1010A00080E0C13991E0D90714F0C0E9D1E0D093D4
:1010B0008B00C0938A009091D402891711F061E0EF
:1010C00001C060E088E0DF91CF910C947B0DCF935D
:1010D000DF93EC010E943A08D7FF05C0D195C19576
:1010E000D10981E001C080E0C13991E0D90714F055
:1010F000C0E9D1E0D0938900C09388009091D302D9
:10110000891711F061E001C060E087E0DF91CF91C5
:101110000C947B0DCF93DF93EB010E944408CE012A
:10112000DF91CF910C946708CF93DF93DC0170E0DF
:10113000FB01E458FF4FE4911496EC931497842F2D
:1011400090E0FC01E458FF4FE4911596EC9315975D
:1011500060577F4FFB01C491D0E0CC0FDD1FC2551B
:10116000DF4FFE014591549117965C934E9316976D
:10117000FC01E057FF4F849190E0880F991F8C5538
:101180009F4FFC014591549119965C934E9318978B
:10119000FB016491E62FF0E0EE0FFF1FE854FF4FD4
:1011A000859194911B969C938E931A972F5F3F4F36
:1011B00049E3429FC001439F900D11248E38FFE602
:1011C0009F0710F08DE89FE61D969C938E931C97C9
:1011D000DF91CF9108950F931F93CF93DF93EC018D
:1011E000EA85FB8580819C81892B8083EE81FF814C
:1011F00090818C8180958923808384E090E00E9497
:10120000D30CEE81FF8180819C81892B80838AE0D1
:1012100090E00E94D30CEE81FF8190818C818095BB
:1012200089238083EA85FB8590818C818095892341
:101230008083E885F98580819D81892311F080E094
:1012400032C00E94880C4C855D858A0120E030E028
:101250000855194E2F4F3F4F060F171F281F391FD4
:101260000E871F87288B398BE885F98580819D81C2
:10127000892361F40E94880C0E851F85288939898D
:10128000061717072807390778F7D9CF0E94880C67
:101290002C853D85620F731F811D911D6E877F8791
:1012A000888B998B81E0DF91CF911F910F910895E9
:1012B0000F931F93CF93DF93EC010E94EB088823D9
:1012C00089F0E885F98580819D81892371F00E94EC
:1012D000880C0E851F852889398906171707280766
:1012E000390778F720E030E00CC00E94880C2C858C
:1012F0003D85255031094E855F85241B350B260F12
:10130000371FC901DF91CF911F910F9108951F924F
:101310000F920FB60F9211242F933F934F935F9329
:101320006F937F938F939F93AF93BF93EF93FF93AD
:10133000E091D502F091D6020995FF91EF91BF910E
:10134000AF919F918F917F916F915F914F913F915D
:101350002F910F900FBE0F901F9018952091190399
:1013600030911A0328173907B9F49091D702809168
:10137000D802981789F0E091D702F0E0E752FD4FCC
:1013800080812091D70230E02F5F3F4F2F733327AA
:101390002093D70290E008958FEF9FEF08951F9359
:1013A000CF93DF93DC015C968D919C915D970097C4
:1013B00049F481E090E013969C938E93129780E01D
:1013C00090E03BC05196ED91FC91529750962C9134
:1013D0005097322F30951FB75E964C915E9741FB28
:1013E000772770F941FD6095F8944081772311F0DB
:1013F000422B01C043234083EC012197F1F748E0E1
:10140000508160FF02C0522B01C053235083EC0176
:101410002197F1F76695415099F78081772311F074
:10142000832301C0822B80831FBF5C968D919C918A
:101430005D970197F1F781E090E0DF91CF911F91E7
:1014400008952091190330911A032817390781F460
:101450009091D7028091D802981751F0E091D7026D
:10146000F0E0E752FD4F8081992787FD9095089520
:101470008FEF9FEF08952091190330911A032817D9
:10148000390771F48091D8022091D70290E0805CF6
:101490009F4F821B910960E470E00E94EB11089558
:1014A00080E090E008952091190330911A032817E5
:1014B000390739F48FB7F8941092D8021092D702F6
:1014C0008FBF0895E0911903F0911A03E817F90707
:1014D00069F4A389B4899C918589809589238C932B
:1014E00010921A031092190381E0089580E0089584
:1014F000CF93DF93EC018A8D9B8D892BF1F0809146
:10150000190390911A038C179D07B9F0009711F0F9
:101510000E94620A8E8D8E7F8E8F1092D80210925A
:10152000D702D0931A03C0931903EB89FC898081F9
:101530009D89892B808381E001C080E0DF91CF917C
:1015400008951F920F920FB60F9211242F933F937D
:101550004F935F936F937F938F939F93AF93BF93BB
:10156000EF93FF93E0911903F0911A03309709F478
:1015700051C0868DA685B785958581FF04C08C9165
:10158000892329F447C08C91892309F043C0A3899A
:10159000B4899C918589809589238C9386899789C4
:1015A0000197F1F7208D318DA685B785758558E0B7
:1015B00040E0C9010197F1F7842F90E09595879558
:1015C000482F6C91672309F04068515091F7868D40
:1015D00081FD40958091D80290E001968F73992704
:1015E0002091D702281749F0A091D802B0E0A75265
:1015F000BD4F4C938093D80203C0868D8160868F47
:10160000828D938D0197F1F7A389B4898C91958987
:10161000892B8C93FF91EF91BF91AF919F918F9107
:101620007F916F915F914F913F912F910F900FBEDE
:101630000F901F90189523E731E0FC013183208340
:101640000C94620A1F93CF93DF93EC01162F6E8DDB
:101650006695617081E06827812F0E947B0D61E0B3
:10166000812F0E94420D812F90E0FC01E458FF4F32
:10167000E491E88BFC01E057FF4FE491F0E0EE0FBE
:10168000FF1FE255FF4F859194919A8B898BDF91D3
:10169000CF911F9108951F93CF93DF93EC01162FE5
:1016A00060E0812F0E94420D8E8D81FD04C061E0BB
:1016B000812F0E947B0D1C87812F90E0FC01E45854
:1016C000FF4FE491ED87FC01E057FF4FE491F0E01C
:1016D000EE0FFF1FEC55FF4F859194919F878E87EA
:1016E000DF91CF911F910895FF920F931F93CF9396
:1016F000DF93EC01F62E522F1B821A8208EE13E0C4
:1017000020E030E00C831D832E833F8383E791E04C
:10171000998388831F8A1E8A198E188E1B8E1A8EB3
:101720001D8E1C8E8E8D8E7F50FB81F98E8F642FC7
:10173000CE010E94220B6F2DCE01DF91CF911F9120
:101740000F91FF900C944B0BCF93DF93EC019A0118
:10175000AB011B8E1A8E198E188E1F8A1E8A60E0AE
:1017600079E08DE390E00E942112C9012430310517
:1017700020F0B9016350710902C061E070E07D8F13
:101780006C8FEC85E63108F068C0B90176956795F5
:101790006431710518F06351710902C061E070E0B5
:1017A0007F8B6E8B069718F0C901059702C081E008
:1017B00090E0998F888FC901880F991F820F931F1E
:1017C00096958795969587958D30910510F00C9795
:1017D00002C081E090E09B8F8A8F20916800E83002
:1017E00050F091E0EE3008F490E081E001C0880F05
:1017F0009A95EAF701C084E0822B809368002C85DB
:10180000283038F02E3040F0263148F48CE690E055
:1018100008C08DE690E005C08BE690E002C080E055
:1018200090E09C8B8B8B283030F481E001C0880FD6
:101830002A95EAF70DC0822F90E02E3010F4089719
:1018400001C00E9791E001C0990F8A95EAF7892FA0
:101850008D8B8C8D9D8D0197F1F7CE01DF91CF910E
:101860000C94780A1F920F920FB60F9211242F93A7
:101870003F938F939F93AF93BF9380911C0390915D
:101880001D03A0911E03B0911F0330911B0323E0A1
:10189000230F2D3720F40196A11DB11D05C026E8A8
:1018A000230F0296A11DB11D20931B0380931C03DF
:1018B00090931D03A0931E03B0931F0380912003F8
:1018C00090912103A0912203B09123030196A11DC1
:1018D000B11D8093200390932103A0932203B09322
:1018E0002303BF91AF919F918F913F912F910F90C3
:1018F0000FBE0F901F9018952FB7F89460911C039E
:1019000070911D0380911E0390911F032FBF0895B6
:101910003FB7F8948091200390912103A091220376
:10192000B091230326B5A89B05C02F3F19F001965F
:10193000A11DB11D3FBF6627782F892F9A2F620FF7
:10194000711D811D911D42E0660F771F881F991F31
:101950004A95D1F70895CF92DF92EF92FF92CF93FD
:10196000DF936B017C010E94880CEB01C114D10450
:10197000E104F10489F00E942A100E94880C6C1B7B
:101980007D0B683E734090F381E0C81AD108E108EE
:10199000F108C851DC4FEACFDF91CF91FF90EF9073
:1019A000DF90CF9008958230910538F0880F991F0D
:1019B000880F991F05970197F1F70895789484B5DA
:1019C000826084BD84B5816084BD85B5826085BD3B
:1019D00085B5816085BDEEE6F0E080818160808321
:1019E000E1E8F0E010828081826080838081816004
:1019F0008083E0E8F0E0808181608083E1EBF0E0CB
:101A0000808184608083E0EBF0E08081816080836E
:101A1000EAE7F0E080818460808380818260808357
:101A20008081816080838081806880831092C10082
:101A30000895833081F028F4813099F08230A1F04C
:101A400008958730A9F08830B9F08430D1F48091BE
:101A500080008F7D03C0809180008F77809380000D
:101A6000089584B58F7702C084B58F7D84BD0895B5
:101A70008091B0008F7703C08091B0008F7D8093FC
:101A8000B0000895CF93DF9390E0FC01E458FF4F3E
:101A90002491FC01E057FF4F8491882349F190E0A5
:101AA000880F991FFC01E854FF4FA591B49182550E
:101AB0009F4FFC01C591D4919FB7611108C0F89464
:101AC0008C91209582238C93888182230AC0623076
:101AD00051F4F8948C91322F309583238C93888124
:101AE000822B888304C0F8948C91822B8C939FBFA7
:101AF000DF91CF9108950F931F93CF93DF931F92A0
:101B0000CDB7DEB7282F30E0F901E859FF4F8491B7
:101B1000F901E458FF4F1491F901E057FF4F049188
:101B20000023C9F0882321F069830E94190D69817F
:101B3000E02FF0E0EE0FFF1FE255FF4FA591B491AB
:101B40009FB7F8948C91611103C01095812301C057
:101B5000812B8C939FBF0F90DF91CF911F910F919D
:101B60000895CF93DF93282F30E0F901E859FF4F14
:101B70008491F901E458FF4FD491F901E057FF4FE8
:101B8000C491CC2391F081110E94190DEC2FF0E04B
:101B9000EE0FFF1FEC55FF4FA591B4912C912D2313
:101BA00081E090E021F480E002C080E090E0DF91ED
:101BB000CF9108950E94A814FC01818D228D90E0A0
:101BC000805C9F4F821B91098F7399270895FC01B8
:101BD000918D828D981731F0828DE80FF11D858DE2
:101BE00090E008958FEF9FEF0895FC01918D828D15
:101BF000981761F0828DDF01A80FB11D5D968C9161
:101C0000928D9F5F9F73928F90E008958FEF9FEF6B
:101C1000089589E79FE0892B49F080E090E0892BC7
:101C200029F00E94790F81110C9400000895FC01A5
:101C3000848DDF01A80FB11DA35ABF4F2C91848D55
:101C400090E001968F739927848FA689B7892C938A
:101C5000A089B1898C9180648C93938D848D981325
:101C600006C00288F389E02D80818F7D80830895EE
:101C7000CF93DF93EC01888D8823C9F0EA89FB8933
:101C8000808185FD05C0A889B9898C9186FD0FC02A
:101C90000FB607FCF5CF808185FFF2CFA889B989FF
:101CA0008C9185FFEDCFCE010E94170EE7CFDF911B
:101CB000CF910895CF92DF92FF920F931F93CF930E
:101CC000DF931F92CDB7DEB76C0181E0D601589645
:101CD0008C9358975B969C915B975C968C915C97E4
:101CE000981307C05096ED91FC915197808185FD26
:101CF0002EC0F601038D10E00F5F1F4F0F731127E9
:101D0000F02EF601848DF81211C00FB607FCF9CF42
:101D1000D6015096ED91FC915197808185FFF1CFCE
:101D2000C60169830E94170E6981EBCF838DE80F8E
:101D3000F11DE35AFF4F6083D6015B960C935B97CE
:101D40005296ED91FC915397808180620CC0D60130
:101D50005696ED91FC91579760835096ED91FC91CA
:101D6000519780818064808381E090E00F90DF91C3
:101D7000CF911F910F91FF90DF90CF900895BF9268
:101D8000CF92DF92EF92FF92CF93DF93EC016A0143
:101D90007B01B22EE889F98982E08083411581EECA
:101DA000580761057105A1F060E079E08DE390E0EE
:101DB000A70196010E94FF112150310941095109E3
:101DC0005695479537952795211580E1380798F066
:101DD000E889F989108260E874E88EE190E0A70153
:101DE00096010E94FF112150310941095109569570
:101DF000479537952795EC85FD853083EE85FF85E2
:101E00002083188EEC89FD89B082EA89FB89808164
:101E100080618083EA89FB89808188608083EA8988
:101E2000FB89808180688083EA89FB8980818F7D3E
:101E30008083DF91CF91FF90EF90DF90CF90BF90A4
:101E400008951F920F920FB60F9211242F938F9324
:101E50009F93EF93FF93E0913403F09135038081DA
:101E6000E0913A03F0913B0382FD12C09081809192
:101E70003D038F5F8F7320913E03821751F0E091F5
:101E80003D03F0E0EC5DFC4F958F80933D0301C076
:101E90008081FF91EF919F918F912F910F900FBEB5
:101EA0000F901F9018951F920F920FB60F9211244A
:101EB0002F933F934F935F936F937F938F939F9352
:101EC000AF93BF93EF93FF9384E293E00E94170ECA
:101ED000FF91EF91BF91AF919F918F917F916F9102
:101EE0005F914F913F912F910F900FBE0F901F90D8
:101EF000189584E293E00E94DC0D21E0892B09F41F
:101F000020E0822F0895109227031092260388EE76
:101F100093E0A0E0B0E08093280390932903A0937E
:101F20002A03B0932B0383E891E0909325038093D9
:101F3000240385EC90E0909331038093300384EC8C
:101F400090E0909333038093320380EC90E0909381
:101F500035038093340381EC90E0909337038093B2
:101F6000360382EC90E0909339038093380386EC3B
:101F700090E090933B0380933A0310923D031092BC
:101F80003E0310923F0310924003089508950E946B
:101F9000DE0C0E94C60F0E949100C9E0DEE00E94A4
:101FA000AC002097E1F30E94090EF9CFCF92DF92A7
:101FB000EF92FF920F931F93CF93DF936C017A01FF
:101FC000EB01E60EF71E00E010E0CE15DF0561F034
:101FD0006991D601ED91FC910190F081E02DC6014F
:101FE0000995080F191FF1CFC801DF91CF911F91FB
:101FF0000F91FF90EF90DF90CF90089561157105DC
:1020000081F0DB010D900020E9F7AD01415051094D
:10201000461B570BDC01ED91FC910280F381E02D12
:10202000099480E090E008956FE871E00C94FE0F51
:102030000F931F93CF93DF93EC010E94FE0F8C014F
:10204000CE010E941410800F911FDF91CF911F913C
:102050000F91089508955058BB27AA270ED069C143
:102060005AD130F05FD120F031F49F3F11F41EF4CB
:102070004FC10EF4E095E7FB37C1E92F6BD180F338
:10208000BA17620773078407950718F071F49EF575
:1020900083C10EF4E0950B2EBA2FA02D0B01B901D0
:1020A00090010C01CA01A0011124FF27591B99F0CE
:1020B000593F50F4503E68F11A16F040A22F232FDA
:1020C000342F4427585FF3CF469537952795A7952A
:1020D000F0405395C9F77EF41F16BA0B620B730BD1
:1020E000840BBAF09150A1F0FF0FBB1F661F771F42
:1020F000881FC2F70EC0BA0F621F731F841F48F4F7
:10210000879577956795B795F7959E3F08F0B3CF7C
:102110009395880F08F09927EE0F97958795089566
:10212000BFD008F481E0089504D06894B11135C19E
:10213000089518D188F09F5790F0B92F9927B7517B
:10214000A0F0D1F0660F771F881F991F1AF0BA957B
:10215000C9F712C0B13081F01FD1B1E008951CC1A0
:10216000672F782F8827B85F39F0B93FCCF3869571
:1021700077956795B395D9F73EF4909580957095CE
:1021800061957F4F8F4F9F4F0895E89409C097FB4B
:102190003EF490958095709561957F4F8F4F9F4F3E
:1021A0009923A9F0F92F96E9BB279395F695879582
:1021B00077956795B795F111F8CFFAF4BB0F11F445
:1021C00060FF1BC06F5F7F4F8F4F9F4F16C08823EC
:1021D00011F096E911C0772321F09EE8872F762F22
:1021E00005C0662371F096E8862F70E060E02AF063
:1021F0009A95660F771F881FDAF7880F969587954F
:1022000097F9089588D018F011F08CD038F480C078
:10221000C4C0E92F9FD0B0F35523C9F3E7FB621781
:10222000730784079507A8F199F3E92FFF278823FF
:102230002AF03197660F771F881FDAF7952F5527F9
:10224000442332F091505040220F331F441FD2F7E5
:10225000BB27E91BF50B621B730B840BB109C1F2A1
:1022600022F4620F731F841FB11D31972AF0660F8D
:10227000771F881FBB1FEFCF915050405AF041F09D
:10228000882332F0660F771F881F91505040C1F7A6
:10229000939530C08695779567959F5FD9F7F8CF6E
:1022A000990F0008550FAA0BE0E8FEEF1616170667
:1022B000E807F907C0F012161306E407F50798F0CF
:1022C000621B730B840B950B39F40A2661F0232BE8
:1022D000242B252B21F408950A2609F4A140A69564
:1022E0008FEF811D811D089597F99F6780E870E049
:1022F00060E008959F3F31F0915020F487957795E5
:102300006795B795880F911D9695879597F90895CC
:102310009FEF80EC089500240A94161617061806FD
:102320000906089500240A941216130614060506D9
:102330000895092E0394000C11F4882352F0BB0F6A
:1023400040F4BF2B11F460FF04C06F5F7F4F8F4FCD
:102350009F4F089557FD9058440F551F59F05F3F08
:1023600071F04795880F97FB991F61F09F3F79F0B7
:1023700087950895121613061406551FF2CF469539
:10238000F1DF08C0161617061806991FF1CF8695BB
:102390007105610508940895E894BB27662777279F
:1023A000CB0197F908957CDF08F48FEF0895AA1BFD
:1023B000BB1B51E107C0AA1FBB1FA617B70710F030
:1023C000A61BB70B881F991F5A95A9F78095909562
:1023D000BC01CD01089597FB072E16F4009407D099
:1023E00077FD09D00E94D71107FC05D03EF49095E7
:1023F00081959F4F0895709561957F4F0895A1E253
:102400001A2EAA1BBB1BFD010DC0AA1FBB1FEE1F6E
:10241000FF1FA217B307E407F50720F0A21BB30BB9
:10242000E40BF50B661F771F881F991F1A9469F735
:1024300060957095809590959B01AC01BD01CF0191
:102440000895052E97FB1EF400940E94381257FD44
:1024500007D00E94FF1107FC03D04EF40C943812F1
:1024600050954095309521953F4F4F4F5F4F0895C0
:1024700090958095709561957F4F8F4F9F4F0895F0
:102480000E946913B7FF0895821B930B08950E9461
:102490006913A59F900DB49F900DA49F800D911D71
:1024A0001124089597FB57FF0C9462129F938F930A
:1024B0000E9462126E1B7F0BAF91BF918A0B9B0B28
:1024C0000895E894DF93CF93FC01DB010E94691328
:1024D0007F936F93E9019A01AC01BF93AF933F9350
:1024E0002F93DF010E94691326F46C1B7D0B820B76
:1024F000930B9E01EB01FC010E947813AF91BF91F9
:102500002F913F910E947813BE01CF01F9012F91C5
:102510003F91CF91DF910895689401C0E894F92F1D
:10252000F12B12F00C94C012A0E0B0E0EAE9F2E165
:102530000C943213092E059422F40E941C131123CB
:1025400092F4F0E80F26FFEFE094F09400951095D8
:10255000B094C094D094A194BF0ACF0ADF0AEF0AC6
:10256000FF0A0F0B1F0B0E94CB1207FC0E941C13CB
:10257000CDB7DEB7ECE00C944E13689401C0E8943C
:102580008F929F92CF93DF930E94CB12DF91CF91D6
:102590009F908F90089588249924F401E401B0E479
:1025A0009F93AA279A158B049C04ED05FE05CF0581
:1025B000D007A10798F4AD2FDC2FCF2FFE2FE92DE8
:1025C000982C892E982F872F762F652F542F432FE5
:1025D000322F2227B85031F7BF9127C01B2EBF9151
:1025E000BB27220F331F441F551F661F771F881FED
:1025F000991F881C991CEE1FFF1FCC1FDD1FAA1FEF
:10260000BB1F8A149B04EC05FD05CE05DF05A00762
:10261000B10748F08A189B08EC09FD09CE09DF09CB
:10262000A00BB10B21601A94E1F62EF49401AF01D6
:10263000BE01CD01000C0895609570958095909530
:1026400030954095509521953F4F4F4F5F4F6F4FBD
:102650007F4F8F4F9F4F08952F923F924F925F92DF
:102660006F927F928F929F92AF92BF92CF92DF92A2
:10267000EF92FF920F931F93CF93DF93CDB7DEB707
:10268000CA1BDB0B0FB6F894DEBF0FBECDBF09949B
:102690002A88398848885F846E847D848C849B84F2
:1026A000AA84B984C884DF80EE80FD800C811B8100
:1026B000AA81B981CE0FD11D0FB6F894DEBF0FBE2F
:1026C000CDBFED010895EE0FFF1F0590F491E02DB1
:1026D0000994A29FB001B39FC001A39F700D811DFB
:1026E0001124911DB29F700D811D1124911D08951B
:1026F0000E946913460F571FC81FD91F08F431964F
:102700000895CF93DF938230910510F482E090E03A
:10271000E091C303F091C40320E030E0A0E0B0E01A
:10272000309739F14081518148175907B8F048175F
:10273000590771F482819381109729F013969C9325
:102740008E9312972CC09093C4038093C30327C029
:102750002115310531F04217530718F0A901DB01AB
:1027600001C0EF019A01BD01DF010280F381E02D7C
:10277000D7CF21153105F9F0281B390B243031054D
:1027800080F48A819B816115710521F0FB0193839F
:10279000828304C09093C4038093C303FE013296E6
:1027A00044C0FE01E20FF31F81939193225031093F
:1027B000398328833AC02091C1033091C203232B6F
:1027C00041F420910201309103013093C203209320
:1027D000C10320910001309101012115310541F41F
:1027E0002DB73EB74091040150910501241B350BD4
:1027F000E091C103F091C203E217F307A0F42E1B8E
:102800003F0B2817390778F0AC014E5F5F4F241754
:10281000350748F04E0F5F1F5093C2034093C1032A
:102820008193919302C0E0E0F0E0CF01DF91CF917E
:102830000895CF93DF93009709F487C0FC01329786
:1028400013821282C091C303D091C403209781F4F4
:1028500020813181280F391F8091C1039091C203DB
:102860008217930779F5F093C203E093C1036DC01B
:10287000DE0120E030E0AE17BF0750F412964D9114
:102880005C9113979D014115510509F1DA01F3CFD0
:10289000B383A28340815181840F951F8A179B07C0
:1028A00071F48D919C911197840F951F02969183DD
:1028B000808312968D919C91139793838283211527
:1028C000310529F4F093C403E093C3033EC0D9015A
:1028D0001396FC93EE9312974D915D91A40FB51F43
:1028E000EA17FB0779F480819181840F951F029686
:1028F000D90111969C938E938281938113969C9318
:102900008E931297E0E0F0E08A819B81009719F0A6
:10291000FE01EC01F9CFCE01029628813981820FA8
:10292000931F2091C1033091C2032817390769F41E
:10293000309729F41092C4031092C30302C013828B
:102940001282D093C203C093C103DF91CF91089547
:1029500081E090E0F8940C94AD1410E0CAECD0E063
:1029600004C0FE010E9465132296CE3CD107C9F730
:04297000F894FFCF09
:102974000000C503800000000000DA0D0000000024
:10298400D700466F756E64204F626A6563740041B8
:102994006E206F626A6563742077617320666F7559
:1029A4006E6420696E20726F6F6D20004E6F206F11
:1029B400626A6563742077617320666F756E642044
:1029C400696E20726F6F6D200000000000D7000058
:1029D400000000940567053C05440557056605009D
:1029E400000000CF09D60F3B0AAE09210A530A00A2
:1029F4000000005A0ED60FDC0DF50DE70D380E0D54
:102A04000A006E616E00696E66006F7666002E00C5
:00000001FF
