:100000000C9466000C948E000C948E000C94B50930
:100010000C94B5090C94B5090C948E000C948E00C8
:100020000C948E000C9436040C948E000C948E006C
:100030000C948E000C948E000C948E000C948E0008
:100040000C94F7110C948E000C94E6140C94181573
:100050000C948E000C948E000C948E000C948E00E8
:100060000C94CA100C948E000000000800020100DD
:100070000003040700000000000000000102040863
:100080001020408001020408102001020408102002
:10009000040404040404040402020202020203032E
:1000A00003030303000000002300260029000000D2
:1000B0000000250028002B0000000000240027007D
:1000C0002A000501D00BE80F48151E0111241FBEA0
:1000D000CFEFD8E0DEBFCDBF11E0A0E0B1E0E6E4B5
:1000E000F5E302C005900D92AC3AB107D9F723E0D1
:1000F000ACEAB1E001C01D92AD3BB207E1F710E000
:10010000CAECD0E004C02297FE010E945D19C23CF7
:10011000D107C9F70E948C150C94961A0C94000014
:1001200020E041E06DEA71E088ED91E00E94E70790
:100130008CEA91E00E94B20B66E171E08CE193E001
:100140000E94DD1564EF71E080E090E00C94701285
:100150000F931F93CF93DF9300D000D000D0CDB783
:10016000DEB786E0E0E1F1E0DE01119601900D924C
:100170008A95E1F702E020ED37E046E0BE016F5FCF
:100180007F4F88ED91E00E94860800E510E061E075
:1001900088ED91E00E94090764E170E080E090E062
:1001A0000E9470120150110991F726960FB6F8942B
:1001B000DEBF0FBECDBFDF91CF911F910F9108958C
:1001C00026E040E855E260E070E08CE193E00E94B8
:1001D000841440E855E260E070E089EB91E00E9411
:1001E000B80A83E592E00E94AE0F61E08DE00E94C4
:1001F000071361E08DE00E9440130E945A0C0E9498
:10020000A80060E08DE00C94401388EE91E00E941D
:10021000710188ED91E00E94760884E391E090936B
:10022000D9018093D80120E041E060E089EB91E0C2
:100230000E94880A8CEA91E00C94460B89EB91E0CD
:100240000E942F0A88E691E09093D9018093D8010B
:1002500088ED91E00C9498089091EB01E091EF010A
:10026000F091F001992311F0849101C080812FEB6E
:10027000280F2A3110F4805E0895803249F49F01DE
:100280002F5F3F4F3093F0012093EF01EF2B31F7B9
:1002900008951F93CF93DF930E942C01C0E0D0E01C
:1002A0001AE090ED980F9A30B8F49E01129FE00189
:1002B000139FD00D1124C80FD11D87FDDA95E0974B
:1002C0008091EF019091F00101969093F00180935D
:1002D000EF010E942C01E5CFCE01DF91CF911F915C
:1002E000089508951092700081E28093B0008BE031
:1002F0008093B1008AEF8093B3001092B400539AB8
:10030000789408952F923F924F925F926F927F92CE
:100310008F929F92AF92BF92CF92DF92EF92FF9215
:100320000F931F93CF93DF9300D000D01F92CDB7D0
:10033000DEB78C011B014B838091F101811105C057
:1003400081E08093F1010E94720110920F0117FF6A
:1003500004C01F772AE0298302C031E0398398E284
:100360008981899F902D1124A92FB0E0BD83AC8392
:10037000A017B10710F41D830C83B981B13049F483
:10038000EC81FD81E131F74220F080E197E29D832D
:100390008C839981C92ED12CE12CF12C8C819D81EB
:1003A000969587952C01612C712CAC81BD814D01F6
:1003B000A12CB12CA701960160E472E48FE090E0DB
:1003C0000E949C17640D751D861D971DA501940143
:1003D0000E9402188901B2E0BA830F3F110509F1AA
:1003E00000F1EA81EF5FEA83F0E0EE0FFF1FE25BCE
:1003F000FE4F2081318140E050E060E072E18AE709
:1004000090E00E940218C701B6010E949C17640D7B
:10041000751D861D971DA50194010E940218890172
:10042000DCCFF981FA3049F48C819D8105966AE030
:1004300070E00E94B8177D836C832C813D81283E3B
:10044000334061F09101AC81BD810E94211828EEFA
:1004500033E040E050E00E94021819011092700051
:100460008091B100887F9A81892B8093B10000939D
:10047000B3002B81203108F02FE080E190E0821B57
:10048000910902C0169507958A95E2F70093B4008A
:100490003092EE012092ED0187B38FEF87BB81E0B0
:1004A000809370000F900F900F900F900F90DF913E
:1004B000CF911F910F91FF90EF90DF90CF90BF9061
:1004C000AF909F908F907F906F905F904F903F90F4
:1004D0002F900895CF93DF93EB018F3F11F04111DF
:1004E00005C040E0BE0188EE93E043C0813130F0AA
:1004F00050EF580F503618F05FE501C050E0852FDF
:100500006CE00E94AC17682F74EF76039001112401
:10051000250F311D2C30310540F4F901EE0FFF1F7E
:10052000EA5CFE4F2081318102C020E030E087305C
:1005300081F0082E02C0220F331F0A94E2F78230A6
:1005400028F0C90105966AE070E00CC0C901905816
:100550000CC0C90136E0880F991F3A95E1F7029661
:1005600065E070E00E94B817CB01403108F04FE021
:10057000BE01DF91CF910C9482014F925F926F92F6
:100580007F928F929F92AF92BF92CF92DF92EF9223
:10059000FF920F931F93CF93DF9300D0CDB7DEB7B9
:1005A00090900E018091EA01882321F06091E90189
:1005B000611117C077247394B0ECAB2EBDE5BB2E50
:1005C0001AE0612E04E0802E80EDC82E87E0D82E40
:1005D00094E0E92EF12C04EF11E02FE0422E512C93
:1005E00015C070E040E088EE93E00E948201109216
:1005F000E90129C18636D4F5813609F4A9C07CF514
:100600008C3309F460C08E3381F493940E942C01E2
:100610002091EF013091F0012F5F3F4F3093F001B7
:100620002093EF01853631F752C0813209F08BC03B
:1006300080920E01D0920D01C0920C01F0920B013C
:10064000E0920A01109309010093080150920701FA
:10065000409206011092EA01A4E09A2ED7CF833689
:10066000A1F10CF478C010E082E077C08D36C1F1C2
:1006700094F4873691F174F18C3609F064C00E94CD
:100680004901BC0190930B0180930A0180910C01F8
:1006900090910D0151C08237C9F14CF48F3609F0A9
:1006A00052C00E944901982E80930E01AFCF84372B
:1006B00081F1863709F047C00E94490190930701F4
:1006C00080930601A3CF9A94A1CF10E020C010E040
:1006D00084E043C010E085E040C010E087E03DC00A
:1006E0000E942C018C3619F41092EA0104C0709219
:1006F000EA011092E9012091EF013091F0012F5FA2
:100700003F4F3093F0012093EF0180CF11E080E064
:1007100024C00E944901BC01C5010E94B817669E11
:10072000C001679E900D112490930D0180930C01E0
:1007300060910A0170910B010E94B8177093090132
:100740006093080163CF1092F0011092EF017BC01B
:1007500010E089E002C010E08BE0082F9CE0999E39
:10076000000D11240E942C01982F977F933261F481
:100770002091EF013091F0012F5F3F4F3093F00156
:100780002093EF010F5FEECF8D3271F42091EF01D6
:100790003091F0012F5F3F4F3093F0012093EF0134
:1007A00001500E942C01F0CF609108017091090165
:1007B0008153883050F4E0900C01F0900D010E94BC
:1007C0004901BC01C7010E94B8177B01F694E79468
:1007D00069837A830E942C0169817A818E3269F45F
:1007E0002091EF013091F0012F5F3F4F3093F001E6
:1007F0002093EF016E0D7F1DE9CF8091EA018823E0
:1008000039F09B01369527952093E901621B710908
:1008100040910601112311F08FEF01C0802F0F903E
:100820000F90DF91CF911F910F91FF90EF90DF908C
:10083000CF90BF90AF909F908F907F906F905F9080
:100840004F900C946A020F900F90DF91CF911F91FF
:100850000F91FF90EF90DF90CF90BF90AF909F905F
:100860008F907F906F905F904F9008951F920F929E
:100870000FB60F9211242F933F934F935F936F9373
:100880007F938F939F93AF93BF93EF93FF93809149
:10089000ED019091EE019C01215031093093EE0160
:1008A0002093ED01892BE9F41092700078948091E7
:1008B000B100887F83608093B1008AEF8093B3009A
:1008C0001092B40081E080930F018091EF0190912C
:1008D000F001892B31F08091EC01811102C00E945E
:1008E000BD02FF91EF91BF91AF919F918F917F9149
:1008F0006F915F914F913F912F910F900FBE0F908D
:100900001F9018956F927F928F929F92AF92BF9295
:10091000CF92DF92EF92FF920F931F93CF93DF93CB
:10092000EC018B018A859B85892B09F474C0D12C3D
:100930008C85D816E8F4ED2CF12C8E859F85F70177
:10094000EE0FFF1FE00FF11F91838083EA85FB8587
:10095000EE0DFF1D61E080810E944013EA85FB855A
:10096000EE0DFF1D61E080810E940713D394E0CF5C
:100970008AE090E00E949812D12C8C85D816A0F4C1
:10098000ED2CF12CEA85FB85EE0DFF1D60E08081EA
:100990000E940713EA85FB85EE0DFF1D60E0808154
:1009A0000E944013D394E9CF0E944D126B017C0149
:1009B0000E944D126C197D098E099F092E853F8575
:1009C0004901A12CB12C681579058A059B0518F5FC
:1009D0000E944D123B016C187D08912C8C85981655
:1009E00038F7A92CB12CAA85BB85AA0DBB1D8C910B
:1009F0000E947613892B51F4F501EE0FFF1FE00FD3
:100A0000F11F808191816816790610F09394E6CFEA
:100A100071826082FBCFDF91CF911F910F91FF9088
:100A2000EF90DF90CF90BF90AF909F908F907F908E
:100A30006F900895EF92FF920F931F93CF93DF93E0
:100A40001F92CDB7DEB77C018B01DC0113961C929F
:100A50001E92129715961C921E92149717961C922E
:100A60001E92169719961C921E921897413120F0EB
:100A700080E11C968C9302C0FC014487D7011A9632
:100A80008D919C911B97892B11F030E00FC0F701DD
:100A9000848590E029830E946A19D7011B969C9354
:100AA0008E931A972981892B81F715C0F7018485C8
:100AB000381780F4832F90E0F801E80FF91F408188
:100AC000D7011A96ED91FC911B97E80FF91F40830F
:100AD0003F5FECCF25870F90DF91CF911F910F9152
:100AE000FF90EF900895CF93DF93EC018D858F3FBA
:100AF00069F061E00E94071360E08D850E94401359
:100B000088EC90E0DF91CF910C949812DF91CF9117
:100B10000895CF93DF93EC018D858F3F69F061E0FD
:100B20000E94071361E08D850E94401388EC90E0DD
:100B3000DF91CF910C949812DF91CF910895DF92BD
:100B4000EF92FF920F931F93CF93DF93CDB7DEB752
:100B5000A0970FB6F894DEBF0FBECDBF8C017B010E
:100B6000D42E8FEF840F823020F4C8010E948905B3
:100B700003C0C8010E947305D801ED91FC9101905A
:100B8000F081E02DB701C8010995C8010E947305E5
:100B9000B2E0DB122FC0D801ED91FC910190F08101
:100BA000E02DBE016F5F7F4FC801099540E0F8015D
:100BB00084854817F8F4842F90E0880F991FF70177
:100BC000E80FF91F21E030E02C0F3D1F820F931F2B
:100BD000D8011E962D913C911F97DC018D919C911F
:100BE000281B390B80819181820F931F9183808311
:100BF0004F5FDDCFA0960FB6F894DEBF0FBECDBF1E
:100C0000DF91CF911F910F91FF90EF90DF900895AA
:100C10002F923F925F926F927F928F929F92AF92AC
:100C2000BF92CF92DF92EF92FF920F931F93CF93D9
:100C3000DF93CDB7DEB7C056D1090FB6F894DEBF4B
:100C40000FBECDBF8C014B015A01522EDA018D919E
:100C50009C91892B31F0F40180819181892BF1F4F1
:100C600024C0D8011C968C9190E0880F991F0E9497
:100C70006A19F50191838083009709F4B1C0FC01E2
:100C800020E030E0D8011C968C9190E028173907BD
:100C900014F7119211922F5F3F4FF4CFE12CF12CFA
:100CA0006E01B1E2CB0ED11C21C0F801848590E029
:100CB000880F991F0E946A19D4018D939C93009705
:100CC00009F48EC0FC0120E030E0D8011C968C9124
:100CD00090E02817390714F7D8011E968D919C9142
:100CE0001F97819391932F5F3F4FEFCF452DBE010B
:100CF0006F5B7F4FC8010E949F05F8016484712CCF
:100D0000FE01EF5BFF4FC6019E012F5F3F4F1901B0
:100D100020E030E0261537054CF5E114F10489F0A8
:100D2000DC016D917C91408151816417750748F019
:100D3000D1016D917C91408151814617570748F050
:100D40000DC040815181DC014D935C93E114F104AD
:100D500079F740815181D1014D935C932F5F3F4FD3
:100D6000B2E02B0E311C32960296D4CFEFEFEE1A82
:100D7000FE0AFAE0EF16F10409F0B8CF9E012F5FEA
:100D80003F4F7901360180E090E0F801248530E0A2
:100D9000821793072CF5D7012D913D917D01B30169
:100DA0006C197D09D501ED91FC91E60FF71F40818B
:100DB00051814217530710F431832083F3012191AD
:100DC00031913F01D401ED91FC91E60FF71F408175
:100DD00051812417350710F4318320830196D5CF34
:100DE000C05ADF4F0FB6F894DEBF0FBECDBFDF9104
:100DF000CF911F910F91FF90EF90DF90CF90BF9018
:100E0000AF909F908F907F906F905F903F902F90CA
:100E100008951F93CF93DF93EC01162F8FEF860F6A
:100E2000823018F0662369F019C021E0AE014C5FF2
:100E30005F4FBE016E5F7F4FCE010E9408061230E9
:100E400069F4AE01485F5F4FBE016A5F7F4F20E0EB
:100E5000CE01DF91CF911F910C940806DF91CF91C5
:100E60001F910895BF92CF92DF92EF92FF920F935E
:100E70001F93CF93DF93EC018B01B42E842F8D7FD2
:100E800051F48E819F81892B09F497C088859985BB
:100E9000892B09F492C08FEF8B0D823050F48A8138
:100EA0009B81892B09F489C08C819D81892B09F450
:100EB00084C04B2DB801CE010E949F05780100E04F
:100EC00010E0C12CD12C8C8590E0C816D9060CF00E
:100ED00074C081E0B8120AC0EC81FD81E00FF11FFF
:100EE0000190F081E02DAA81BB810DC08E819F8190
:100EF00028853985B1100CC0F901E00FF11F019070
:100F0000F081E02DDC01A00FB11F8D919C9128C0D4
:100F1000FC01E00FF11F40815181EA81FB81E00F6C
:100F2000F11F80819181EE85FF854817590710F4E4
:100F3000CF0104C08E0F9F1F841B950BD901A00FFA
:100F4000B11F2D913C91AC81BD81A00FB11F4D917E
:100F50005C912417350720F0E40FF51FE21BF30B1B
:100F6000E81BF90BA9F0D7012D913C9140E050E02E
:100F7000281B390B41095109A8EEB3E00E9437182C
:100F80009F0140E050E00E94021837FD0AC002C0F5
:100F900020E030E0293EB3E03B072CF028EE33E0C0
:100FA00002C020E030E0F701219331937F01FFEF91
:100FB000CF1ADF0A0E5F1F4F86CFDF91CF911F91AF
:100FC0000F91FF90EF90DF90CF90BF9008952F92F8
:100FD0003F924F925F926F927F928F929F92AF92C9
:100FE000BF92CF92DF92EF92FF920F931F93CF9316
:100FF000DF93EC018B01822E0E9432072C84E801E2
:10100000412C512C320100E010E0C12CD12C760192
:10101000312C912CE8EEAE2EE3E0BE2E921421F19D
:10102000E991F991882021F0C5018E1B9F0BFC01ED
:10103000E93CF10524F4E333F10574F002C03324F4
:101040003394DF01A30192010E944218C60ED71EFD
:10105000E81EF91E0E0F1F1F939498EE490E93E0A1
:10106000591E611C711CDACF31101EC0492D50E091
:101070004150510924EF31E0429FC001439F900D40
:10108000529F900D11242091F2013091F301281705
:101090003907B4F088EE93E0489F9001499F300DE6
:1010A000589F300D11240EC0980140E050E0C70158
:1010B000B6010E94E0173093F3012093F20102C0C1
:1010C00020E030E0C901DF91CF911F910F91FF9097
:1010D000EF90DF90CF90BF90AF909F908F907F90D8
:1010E0006F905F904F903F902F900895FC0188E69D
:1010F00091E0918380831382128215821482178279
:10110000168211861086138612860895EF92FF923A
:101110000F93CF93DF93EC017901202F0E941A05E2
:10112000FF86EE86DF91CF910F91FF90EF900895AB
:10113000CF93DF93EC0182E691E0998388838A85DF
:101140009B85009711F00E94021A8C819D81009767
:1011500011F00E94021A88859985009711F00E946B
:10116000021A8A819B81009711F00E94021A8E81D7
:101170009F81009721F0DF91CF910C94021ADF91AB
:10118000CF91089520913602309137022817390700
:10119000B9F49091F4018091F501981789F0E091EC
:1011A000F401F0E0EA50FE4F80812091F40130E03C
:1011B0002F5F3F4F2F7333272093F40190E0089562
:1011C0008FEF9FEF08951F93CF93DF93DC015C9621
:1011D0008D919C915D97009749F481E090E0139682
:1011E0009C938E93129780E090E03BC05196ED91D6
:1011F000FC91529750962C915097322F30951FB7F3
:101200005E964C915E9741FB772770F941FD6095A2
:10121000F8944081772311F0422B01C0432340838F
:10122000EC012197F1F748E0508160FF02C0522B9A
:1012300001C053235083EC012197F1F7669541508B
:1012400099F78081772311F0832301C0822B80835B
:101250001FBF5C968D919C915D970197F1F781E09E
:1012600090E0DF91CF911F91089520913602309147
:1012700037022817390781F49091F4018091F50124
:10128000981751F0E091F401F0E0EA50FE4F8081B0
:10129000992787FD909508958FEF9FEF08952091EE
:1012A0003602309137022817390771F48091F50121
:1012B0002091F40190E0805C9F4F821B910960E4D3
:1012C00070E00E94CC17089580E090E0089520918E
:1012D0003602309137022817390739F48FB7F8945E
:1012E0001092F5011092F4018FBF0895E09136023B
:1012F000F0913702E817F90769F4A389B4899C9142
:101300008589809589238C9310923702109236023A
:1013100081E0089580E00895CF93DF93EC018A8DFA
:101320009B8D892BF1F080913602909137028C17BA
:101330009D07B9F0009711F00E9476098E8D8E7F7F
:101340008E8F1092F5011092F401D0933702C09362
:101350003602EB89FC8980819D89892B808381E01D
:1013600001C080E0DF91CF9108951F920F920FB6D8
:101370000F9211242F933F934F935F936F937F931B
:101380008F939F93AF93BF93EF93FF93E0913602B8
:10139000F0913702309709F451C0868DA685B78544
:1013A000958581FF04C08C91892329F447C08C91D5
:1013B000892309F043C0A389B4899C9185898095CC
:1013C00089238C93868997890197F1F7208D318D38
:1013D000A685B785758558E040E0C9010197F1F70A
:1013E000842F90E095958795482F6C91672309F09D
:1013F0004068515091F7868D81FD40958091F501AF
:1014000090E001968F7399272091F401281749F0F5
:10141000A091F501B0E0AA50BE4F4C938093F50126
:1014200003C0868D8160868F828D938D0197F1F741
:10143000A389B4898C919589892B8C93FF91EF9125
:10144000BF91AF919F918F917F916F915F914F91DC
:101450003F912F910F900FBE0F901F9018952EE681
:1014600031E0FC01318320830C9476091F93CF93E4
:10147000DF93EC01162F6E8D6695617081E0682711
:10148000812F0E94401361E0812F0E940713812F5A
:1014900090E0FC01E458FF4FE491E88BFC01E05739
:1014A000FF4FE491F0E0EE0FFF1FE255FF4F8591F3
:1014B00094919A8B898BDF91CF911F9108951F93FF
:1014C000CF93DF93EC01162F60E0812F0E9407136A
:1014D0008E8D81FD04C061E0812F0E9440131C8726
:1014E000812F90E0FC01E458FF4FE491ED87FC016F
:1014F000E057FF4FE491F0E0EE0FFF1FEC55FF4F78
:10150000859194919F878E87DF91CF911F91089548
:10151000FF920F931F93CF93DF93EC01F62E522F80
:101520001B821A8208EE13E020E030E00C831D835A
:101530002E833F838EE691E0998388831F8A1E8ADB
:10154000198E188E1B8E1A8E1D8E1C8E8E8D8E7F80
:1015500050FB81F98E8F642FCE010E94360A6F2DC9
:10156000CE01DF91CF911F910F91FF900C945F0AF4
:10157000CF93DF93EC019A01AB011B8E1A8E198E6B
:10158000188E1F8A1E8A60E079E08DE390E00E9449
:101590000218C9012430310520F0B90163507109E6
:1015A00002C061E070E07D8F6C8FEC85E63108F061
:1015B00068C0B901769567956431710518F063517B
:1015C000710902C061E070E07F8B6E8B069718F0A6
:1015D000C901059702C081E090E0998F888FC90109
:1015E000880F991F820F931F9695879596958795DB
:1015F0008D30910510F00C9702C081E090E09B8F38
:101600008A8F20916800E83050F091E0EE3008F4C5
:1016100090E081E001C0880F9A95EAF701C084E06C
:10162000822B809368002C85283038F02E3040F0D3
:10163000263148F48CE690E008C08DE690E005C0C5
:101640008BE690E002C080E090E09C8B8B8B283092
:1016500030F481E001C0880F2A95EAF70DC0822F8F
:1016600090E02E3010F4089701C00E9791E001C071
:10167000990F8A95EAF7892F8D8B8C8D9D8D019717
:10168000F1F7CE01DF91CF910C948C0908954F9220
:101690005F926F927F928F929F92AF92BF92EF92E2
:1016A000FF920F931F93CF934B010E94D80B0E9480
:1016B000E70B0E948C160E94B60C0E945916AA24B1
:1016C00097FCA094BA2C680D791D8A1D9B1D0E9461
:1016D0008C160E94B60C0E9459162B013C010E94E8
:1016E000E70B64197509860997090E948C160E94F8
:1016F000B60C4B015C019F77E12CF12C00E81FE355
:1017000020E030E040E85FEB0E94E60CC82F20E0CC
:1017100030E0A901C501B4010E94981718162CF4F5
:101720006AE67FEF86E990E004C066E970E08AE649
:101730009FEF0E940D0F0E94E70BCC2381F260E027
:1017400070E080E090E0CF911F910F91FF90EF90BB
:10175000BF90AF909F908F907F906F905F904F90D1
:101760000C940D0FCF93DF93EC0166EA7FEF0E949C
:10177000470B6AE570E0CE010E94470B6AE570E016
:10178000CE010E94470B66EA7FEFCE010E94470B15
:1017900064E670E084E690E0DF91CF910C940D0F49
:1017A00089E392E00E940E0D88E392E00C949F0E74
:1017B0000E944D12709347026093460210924C02B1
:1017C00010924D0210924E0210924F0208958F9285
:1017D0009F92AF92BF92CF92DF92EF92FF920F93C0
:1017E0001F9389E392E00E94680D80913D029091E1
:1017F0003E022091480230914902821B930B909344
:101800004B0280934A020E944D1220914602309171
:101810004702AB01421B530B9A017093470260933E
:101820004602A0914A02B0914B020E94301820E07B
:1018300030E040EE50E00E944A18EDE8AE2EF8E3AA
:10184000BF2EACE0CA2EDD24D394E12CF12C00E0B5
:1018500010E00E94861849015A0180914C02909133
:101860004D02A0914E02B0914F02880D991DAA1D04
:10187000BB1D80934C0290934D02A0934E02B093F7
:101880004F029D01552737FD5095452FA8E6B1E041
:101890000E943718BC01992777FD9095892F1F91D9
:1018A0000F91FF90EF90DF90CF90BF90AF909F90FF
:1018B0008F900895CF92DF92EF92FF92CF93DF93B4
:1018C00083E592E00E94AE0F42E050E063E070E0FA
:1018D00089E392E00E94120E4FEF60E289E392E00A
:1018E0000E94170D40E263E289E392E00E94170D27
:1018F00040E064E289E392E00E94170D64EF71E03A
:1019000080E090E00E947012C0E0D4E0C12CD12CA5
:10191000760167E289E392E00E94400D89E392E05C
:101920000E94680D80913D0290913E02AA2797FD8A
:10193000A095BA2FC80ED91EEA1EFB1E219749F7A3
:10194000C701B60120E034E040E050E00E940218F8
:1019500030934902209348020E94D80BDF91CF9127
:10196000FF90EF90DF90CF900C94E70BCF92DF9237
:10197000EF92FF9220E030E044E353E40E94F1153F
:1019800020E030E044EB53E40E94CE166B017C0172
:1019900020E030E0A9010E94551687FF0AC020E030
:1019A00030E044EB53E4C701B6010E94F1156B012E
:1019B0007C0120E030E044E353E4C701B6010E941B
:1019C000F015FF90EF90DF90CF9008958F929F9247
:1019D000AF92BF92CF92DF92EF92FF920F931F933D
:1019E0004B015C01670178010E949817181654F4A6
:1019F000A7019601C501B4010E945516881F8827CA
:101A0000881F01C080E01F910F91FF90EF90DF9041
:101A1000CF90BF90AF909F908F900895FC0183E08E
:101A200090E0908787831386128614860895EF923C
:101A3000FF921F93CF93DF931F92CDB7DEB77C0148
:101A4000162FFC01618583E592E049830E94C80F4F
:101A5000612F83E592E00E946F0F4981642F83E537
:101A600092E00E946F0F83E592E00E94E50FF7017C
:101A700086830F90DF91CF911F91FF90EF90089593
:101A80001F93CF93DF93EC01162F698583E592E0D6
:101A90000E94C80F612F83E592E00E946F0F83E5DB
:101AA00092E00E94E50F8E8341E0698583E592E034
:101AB0000E94C50F83E592E00E941F0FC82F83E5A7
:101AC00092E00E94E50F8C2FDF91CF911F91089536
:101AD0009F92AF92BF92CF92DF92EF92FF920F93BD
:101AE0001F93CF93DF93EC01698583E592E00E9419
:101AF000C80FE0915302F09154020190F081E02D63
:101B000068EA83E592E0099583E592E00E94E50F9B
:101B100046E0698583E592E00E94C50F0E9441126C
:101B20007B0183E592E00E94170F069784F48A8573
:101B30009B85892BB1F30E9441126E197F098A851A
:101B40009B858617970768F781E08C872CC083E513
:101B500092E00E941F0FA82E83E592E00E941F0FC3
:101B6000982E83E592E00E941F0FE82E83E592E015
:101B70000E941F0FB82E83E592E00E941F0FF82EDF
:101B800083E592E00E941F0FD92CC12CCA28D9826C
:101B9000C8821B2D00E00E291B830A83982F8827FB
:101BA0008F299D838C83DF91CF911F910F91FF909F
:101BB000EF90DF90CF90BF90AF909F9008951F93CC
:101BC000CF93DF931F92CDB7DEB7162F83E592E058
:101BD00049830E94C80F4981642F83E592E00E94E7
:101BE0006F0F83E592E00E94E50F811114C041E080
:101BF000612F83E592E00E94C50F83E592E00E9489
:101C0000170F892B41F083E592E00F90DF91CF9180
:101C10001F910C941F0F8FEF9FEF0F90DF91CF91CB
:101C20001F910895EF92FF920F931F93CF93DF932D
:101C30007C01EB018A016330710521F042305105CE
:101C400009F051C0CE010197039758F50115110510
:101C500081F04FE050E06BE6C7010E94DF0D8F3F3F
:101C60002FEF920719F001E010E013C001301105C9
:101C700051F04FE050E06AE6C7010E94DF0D8F3F50
:101C8000EFEF9E0721F4C330D10569F027C000E0D3
:101C900010E0C330D10529F4873D9105F1F5C2E08C
:101CA000D0E02097D9F40115110561F04FE050E024
:101CB00069E6C7010E94DF0D833D910589F101307E
:101CC000110549F04FE050E068E6C7010E94DF0DC2
:101CD000833D910541F1C330D10519F00230110562
:101CE00011F480E025C0F701D087C783209759F011
:101CF000D7FD11C023977CF40130110511F48BE658
:101D000008C08AE606C00130110511F489E601C059
:101D100088E6F701818781E00BC0C1E0D0E0C1CF48
:101D200001E010E002C000E010E0C0E0D0E0D6CF5B
:101D3000DF91CF911F910F91FF90EF90089508953B
:101D400061E08AE00E94071361E089E00E940713C6
:101D500061E088E00E94071361E087E00E940713BA
:101D600080EA8093800081E18093810080E991E0A6
:101D7000909387008093860008958091500281118E
:101D800005C081E0809350020C94A00E0895CF937B
:101D9000DF93EC010E94BD0ED7FF05C0D195C19520
:101DA000D10981E001C080E0C13991E0D90714F088
:101DB000C0E9D1E0D0938B00C0938A009091520289
:101DC000891711F061E001C060E088E0DF91CF91F8
:101DD0000C944013CF93DF93EC010E94BD0ED7FF0C
:101DE00005C0D195C195D10981E001C080E0C1391C
:101DF00091E0D90714F0C0E9D1E0D0938900C093F5
:101E0000880090915102891711F061E001C060E0F3
:101E100087E0DF91CF910C944013CF93DF93EB01D8
:101E20000E94C70ECE01DF91CF910C94EA0E8091F3
:101E3000830290E020918402821B910908952091F1
:101E4000840280918302281750F4E22FF0E0EB57D0
:101E5000FD4F808190E02F5F2093840208958FEFE3
:101E60009FEF0895E091840280918302E81730F497
:101E7000F0E0EB57FD4F808190E008958FEF9FEFEA
:101E800008950895CF92DF92EF92FF920F931F93E0
:101E9000CF93DF937C01CB018A0120915F02222343
:101EA00089F0EB016B01C40ED51ECC15DD0569F080
:101EB0006991D701ED91FC910190F081E02DC7016E
:101EC0000995F3CF642F0E94A110C801DF91CF9133
:101ED0001F910F91FF90EF90DF90CF900895CF93D7
:101EE000DF931F92CDB7DEB7698320915F02222373
:101EF000D1F020916002203240F021E030E0FC017E
:101F00003383228380E090E015C080916102E82F46
:101F1000F0E0EE59FD4F998190838F5F80936102CD
:101F20008093600205C061E0CE0101960E94A1107D
:101F300081E090E00F90DF91CF910895FC01138232
:101F4000128248EE53E060E070E04483558366837C
:101F500077838EE791E091838083089510928402C5
:101F60001092830210926102109260020C94EC0FA6
:101F7000862F413208F040E265E872E00E940A10C4
:101F80001092840280938302089521E00C94B80F8C
:101F900081E080935F02609382021092610210924E
:101FA000600208950F93062F21E04091600262E6DF
:101FB00072E0809182020E944E1010926102109293
:101FC000600210925F020F91089561E00C94D20FAD
:101FD00083E592E00C949E0F1092120381E08093AF
:101FE000100310920F0361E082E10E94401361E050
:101FF00083E10E944013E9EBF0E080818E7F8083D3
:1020000080818D7F808388E48093B80085E480930D
:10201000BC000895413208F03FC090911203911125
:10202000FCCF91E090931203209310032FEF2093A5
:10203000A5021092EA02240F2093E9029093110363
:1020400090911103880F892B8093110380910F03C6
:10205000813041F410920F03809111038093BB00F3
:1020600085EC01C085EE8093BC0080911203813025
:10207000E1F38091EA02841710F44091EA022BEE1A
:1020800032E0FB01D9018A2F821B841718F48D914D
:102090008193F9CF842F089580E008950F93413202
:1020A00008F046C0909112039111FCCF92E09093FA
:1020B0001203009310039FEF9093A5021092EA027F
:1020C0004093E902FB016BEE72E0DB019A2F961B55
:1020D000941718F491919D93F9CF10921103909158
:1020E0001103880F892B8093110380910F03813096
:1020F00041F410920F03809111038093BB0085EC93
:1021000001C085EE8093BC00222321F08091120350
:102110008230E1F38091A5028F3F61F08091A502AA
:10212000803251F08091A502803341F483E007C0F2
:1021300081E005C080E003C082E001C084E00F912F
:102140000895613298F420911203243089F4609349
:10215000C702FC0189EC92E0DC012A2F281B26171C
:1021600018F421912D93F9CF80E0089581E008952E
:1021700082E0089585ED8093BC008091BC0084FDD1
:10218000FCCF10921203089585EC8093BC0010924E
:10219000120308951F920F920FB60F9211242F93DE
:1021A0003F934F935F936F937F938F939F93AF93DF
:1021B000BF93EF93FF938091B900887F803609F435
:1021C0009CC068F5883209F45BC090F4803109F452
:1021D00054C038F4882309F4F5C0883009F44DC0A0
:1021E000F5C0883109F44CC0803209F45DC0EEC0FE
:1021F000803409F468C048F4803309F455C088334A
:1022000009F0E4C08093A502A8C0803509F44FC04E
:10221000883509F45DC0883409F0D8C0D5C0883944
:1022200009F4C6C0A8F4883709F467C038F48836C2
:1022300009F463C0803709F460C0C8C0883809F465
:10224000B7C0803909F45FC0803809F0BFC05BC0F7
:10225000803B09F485C038F4803A09F466C0883AB6
:1022600009F47EC0B3C0803C09F4A6C0883C09F4E0
:10227000A3C0883B09F489C0A9C08091110310C094
:102280009091EA028091E902981770F5E091EA02D4
:1022900081E08E0F8093EA02F0E0E551FD4F8081EE
:1022A0008093BB0085EC85C08093A5028DC0E09132
:1022B000EA0281E08E0F8093EA028091BB00F0E099
:1022C000E551FD4F80839091EA028091E9026DC053
:1022D000E091EA0281E08E0F8093EA028091BB00D8
:1022E000F0E0E551FD4F80838091100381116CC0B7
:1022F00081E080930F0384EA60C083E0809312033F
:102300001092A602CFCF8091A602803208F050C072
:10231000E091A60281E08E0F8093A6028091BB001F
:10232000F0E0E955FD4F8083BDCF8091A602803259
:1023300030F4E091A602F0E0E955FD4F10820E94D2
:10234000BA106091A60270E0E0910B03F0910C03CB
:1023500087EA92E009951092A6020E94C41036C046
:1023600084E0809312031092C8021092C702E09199
:102370000D03F0910E0309958091C702811105C0EC
:1023800081E08093C7021092C902E091C80281E007
:102390008E0F8093C802F0E0E753FD4F8081809359
:1023A000BB009091C8028091C702981708F47ACFB9
:1023B00085E88093BC000AC085EC8093BC00109235
:1023C000120304C01092A5020E94BA10FF91EF916F
:1023D000BF91AF919F918F917F916F915F914F913D
:1023E0003F912F910F900FBE0F901F9018951F9245
:1023F0000F920FB60F9211242F933F938F939F93B9
:10240000AF93BF938091140390911503A09116038D
:10241000B09117033091130323E0230F2D3720F4DD
:102420000196A11DB11D05C026E8230F0296A11D2E
:10243000B11D209313038093140390931503A0936D
:102440001603B09317038091180390911903A0917C
:102450001A03B0911B030196A11DB11D80931803AF
:1024600090931903A0931A03B0931B03BF91AF91EC
:102470009F918F913F912F910F900FBE0F901F90C2
:1024800018952FB7F89460911403709115038091FB
:102490001603909117032FBF08953FB7F8948091CA
:1024A000180390911903A0911A03B0911B0326B54C
:1024B000A89B05C02F3F19F00196A11DB11D3FBF7C
:1024C0006627782F892F9A2F620F711D811D911D0C
:1024D00042E0660F771F881F991F4A95D1F708952C
:1024E000CF92DF92EF92FF92CF93DF936B017C014B
:1024F0000E944D12EB01C114D104E104F10489F0F2
:102500000E94EF150E944D126C1B7D0B683E7340BC
:1025100090F381E0C81AD108E108F108C851DC4FF6
:10252000EACFDF91CF91FF90EF90DF90CF900895A9
:102530008230910538F0880F991F880F991F0597F1
:102540000197F1F70895789484B5826084BD84B5CD
:10255000816084BD85B5826085BD85B5816085BD9E
:10256000EEE6F0E0808181608083E1E8F0E01082B7
:10257000808182608083808181608083E0E8F0E0F8
:10258000808181608083E1EBF0E0808184608083E2
:10259000E0EBF0E0808181608083EAE7F0E0808119
:1025A0008460808380818260808380818160808379
:1025B0008081806880831092C1000895833081F00B
:1025C00028F4813099F08230A1F008958730A9F085
:1025D0008830B9F08430D1F4809180008F7D03C0C1
:1025E000809180008F7780938000089584B58F77E5
:1025F00002C084B58F7D84BD08958091B0008F772F
:1026000003C08091B0008F7D8093B0000895CF9378
:10261000DF9390E0FC01E458FF4F2491FC01E05768
:10262000FF4F8491882349F190E0880F991FFC01A6
:10263000E854FF4FA591B49182559F4FFC01C5917D
:10264000D4919FB7611108C0F8948C912095822392
:102650008C93888182230AC0623051F4F8948C9163
:10266000322F309583238C938881822B888304C0FA
:10267000F8948C91822B8C939FBFDF91CF9108951A
:102680000F931F93CF93DF931F92CDB7DEB7282F01
:1026900030E0F901E859FF4F8491F901E458FF4F08
:1026A0001491F901E057FF4F04910023C9F08823EA
:1026B00021F069830E94DE126981E02FF0E0EE0FC5
:1026C000FF1FE255FF4FA591B4919FB7F8948C91ED
:1026D000611103C01095812301C0812B8C939FBF92
:1026E0000F90DF91CF911F910F910895CF93DF93BA
:1026F000282F30E0F901E859FF4F8491F901E4589F
:10270000FF4FD491F901E057FF4FC491CC2391F0D2
:1027100081110E94DE12EC2FF0E0EE0FFF1FEC554E
:10272000FF4FA591B4912C912D2381E090E021F4ED
:1027300080E002C080E090E0DF91CF9108950E9498
:10274000911AFC01818D228D90E0805C9F4F821B4D
:1027500091098F7399270895FC01918D828D9817A7
:1027600031F0828DE80FF11D858D90E008958FEF97
:102770009FEF0895FC01918D828D981761F0828DF5
:10278000DF01A80FB11D5D968C91928D9F5F9F73A5
:10279000928F90E008958FEF9FEF08958EE395E17B
:1027A000892B49F080E090E0892B29F00E943E15AA
:1027B00081110C9400000895FC01848DDF01A80FA5
:1027C000B11DA35ABF4F2C91848D90E001968F7359
:1027D0009927848FA689B7892C93A089B1898C9178
:1027E00080648C93938D848D981306C00288F3893E
:1027F000E02D80818F7D80830895CF93DF93EC015E
:10280000888D8823C9F0EA89FB89808185FD05C010
:10281000A889B9898C9186FD0FC00FB607FCF5CF4A
:10282000808185FFF2CFA889B9898C9185FFEDCF92
:10283000CE010E94DC13E7CFDF91CF910895CF92B4
:10284000DF92FF920F931F93CF93DF931F92CDB729
:10285000DEB76C0181E0D60158968C9358975B9651
:102860009C915B975C968C915C97981307C05096EF
:10287000ED91FC915197808185FD2EC0F601038D6D
:1028800010E00F5F1F4F0F731127F02EF601848D9C
:10289000F81211C00FB607FCF9CFD6015096ED9192
:1028A000FC915197808185FFF1CFC60169830E9419
:1028B000DC136981EBCF838DE80FF11DE35AFF4FE5
:1028C0006083D6015B960C935B975296ED91FC91D9
:1028D0005397808180620CC0D6015696ED91FC9191
:1028E000579760835096ED91FC9151978081806459
:1028F000808381E090E00F90DF91CF911F910F9145
:10290000FF90DF90CF900895BF92CF92DF92EF9229
:10291000FF92CF93DF93EC016A017B01B22EE8892D
:10292000F98982E08083411581EE580761057105C0
:10293000A1F060E079E08DE390E0A70196010E94AC
:10294000E0172150310941095109569547953795AE
:102950002795211580E1380798F0E889F9891082D8
:1029600060E874E88EE190E0A70196010E94E0170C
:1029700021503109410951095695479537952795B9
:10298000EC85FD853083EE85FF852083188EEC89EC
:10299000FD89B082EA89FB89808180618083EA8930
:1029A000FB89808188608083EA89FB8980818068D7
:1029B0008083EA89FB8980818F7D8083DF91CF913D
:1029C000FF90EF90DF90CF90BF9008951F920F92ED
:1029D0000FB60F9211242F938F939F93EF93FF9332
:1029E000E0912C03F0912D038081E0913203F0916E
:1029F000330382FD12C09081809135038F5F8F7306
:102A000020913603821751F0E0913503F0E0E45E47
:102A1000FC4F958F8093350301C08081FF91EF912A
:102A20009F918F912F910F900FBE0F901F9018952F
:102A30001F920F920FB60F9211242F933F934F9333
:102A40005F936F937F938F939F93AF93BF93EF9316
:102A5000FF938CE193E00E94DC13FF91EF91BF9113
:102A6000AF919F918F917F916F915F914F913F9126
:102A70002F910F900FBE0F901F9018958CE193E04F
:102A80000E94A11321E0892B09F420E0822F0895F0
:102A900010921F0310921E0388EE93E0A0E0B0E0B6
:102AA0008093200390932103A0932203B0932303E8
:102AB0008EE891E090931D0380931C0385EC90E0D9
:102AC000909329038093280384EC90E090932B0348
:102AD00080932A0380EC90E090932D0380932C0345
:102AE00081EC90E090932F0380932E0382EC90E092
:102AF000909331038093300386EC90E090933303FE
:102B000080933203109235031092360310923703EC
:102B100010923803089508950E94A3120E948B1505
:102B20000E94E000CEECD3E10E9490002097E1F3F8
:102B30000E94CE13F9CFCF92DF92EF92FF920F93C4
:102B40001F93CF93DF936C017A01EB01E60EF71E22
:102B500000E010E0CE15DF0561F06991D601ED913E
:102B6000FC910190F081E02DC6010995080F191F15
:102B7000F1CFC801DF91CF911F910F91FF90EF909E
:102B8000DF90CF9008956115710581F0DB010D9004
:102B90000020E9F7AD0141505109461B570BDC01FC
:102BA000ED91FC910280F381E02D099480E090E0AA
:102BB00008956AE971E00C94C3150F931F93CF93A6
:102BC000DF93EC010E94C3158C01CE010E94D91540
:102BD000800F911FDF91CF911F910F91089508955C
:102BE0005058BB27AA270ED069C15AD130F05FD107
:102BF00020F031F49F3F11F41EF44FC10EF4E09524
:102C0000E7FB37C1E92F6BD180F3BA17620773076F
:102C10008407950718F071F49EF583C10EF4E095D2
:102C20000B2EBA2FA02D0B01B90190010C01CA0186
:102C3000A0011124FF27591B99F0593F50F4503E31
:102C400068F11A16F040A22F232F342F4427585F23
:102C5000F3CF469537952795A795F0405395C9F73B
:102C60007EF41F16BA0B620B730B840BBAF09150F3
:102C7000A1F0FF0FBB1F661F771F881FC2F70EC092
:102C8000BA0F621F731F841F48F487957795679565
:102C9000B795F7959E3F08F0B3CF9395880F08F04E
:102CA0009927EE0F979587950895BFD008F481E096
:102CB000089504D06894B11135C1089518D188F0F1
:102CC0009F5790F0B92F9927B751A0F0D1F0660F18
:102CD000771F881F991F1AF0BA95C9F712C0B13033
:102CE00081F01FD1B1E008951CC1672F782F88278C
:102CF000B85F39F0B93FCCF3869577956795B39572
:102D0000D9F73EF490958095709561957F4F8F4FE0
:102D10009F4F0895E89409C097FB3EF490958095E5
:102D2000709561957F4F8F4F9F4F9923A9F0F92F91
:102D300096E9BB279395F695879577956795B7950F
:102D4000F111F8CFFAF4BB0F11F460FF1BC06F5FF5
:102D50007F4F8F4F9F4F16C0882311F096E911C007
:102D6000772321F09EE8872F762F05C0662371F028
:102D700096E8862F70E060E02AF09A95660F771F3C
:102D8000881FDAF7880F9695879597F9089588D068
:102D900018F011F08CD038F480C0C4C0E92F9FD057
:102DA000B0F35523C9F3E7FB621773078407950750
:102DB000A8F199F3E92FFF2788232AF03197660FAE
:102DC000771F881FDAF7952F5527442332F091504B
:102DD0005040220F331F441FD2F7BB27E91BF50BCE
:102DE000621B730B840BB109C1F222F4620F731FD3
:102DF000841FB11D31972AF0660F771F881FBB1FF4
:102E0000EFCF915050405AF041F0882332F0660FD6
:102E1000771F881F91505040C1F7939530C0869519
:102E2000779567959F5FD9F7F8CF990F0008550FF1
:102E3000AA0BE0E8FEEF16161706E807F907C0F040
:102E400012161306E407F50798F0621B730B840B48
:102E5000950B39F40A2661F0232B242B252B21F422
:102E600008950A2609F4A140A6958FEF811D811DC2
:102E7000089597F99F6780E870E060E008959F3FAC
:102E800031F0915020F4879577956795B795880F25
:102E9000911D9695879597F908959FEF80EC089579
:102EA00000240A9416161706180609060895002429
:102EB0000A9412161306140605060895092E0394A3
:102EC000000C11F4882352F0BB0F40F4BF2B11F417
:102ED00060FF04C06F5F7F4F8F4F9F4F089557FD76
:102EE0009058440F551F59F05F3F71F04795880F78
:102EF00097FB991F61F09F3F79F08795089512160F
:102F000013061406551FF2CF4695F1DF08C01616BA
:102F100017061806991FF1CF86957105610508946B
:102F20000895E894BB2766277727CB0197F9089582
:102F30007CDF08F48FEF0895DB018F939F930E944D
:102F40003718BF91AF91A29F800D911DA39F900D47
:102F5000B29F900D11240895991B79E004C0991F28
:102F6000961708F0961B881F7A95C9F780950895E3
:102F7000AA1BBB1B51E107C0AA1FBB1FA617B7079F
:102F800010F0A61BB70B881F991F5A95A9F78095BB
:102F90009095BC01CD01089597FB072E16F400947F
:102FA00007D077FD09D00E94B81707FC05D03EF482
:102FB000909581959F4F0895709561957F4F0895E5
:102FC000A1E21A2EAA1BBB1BFD010DC0AA1FBB1F2D
:102FD000EE1FFF1FA217B307E407F50720F0A21B9F
:102FE000B30BE40BF50B661F771F881F991F1A940C
:102FF00069F760957095809590959B01AC01BD0136
:10300000CF010895052E97FB1EF400940E94191815
:1030100057FD07D00E94E01707FC03D04EF40C9434
:10302000191850954095309521953F4F4F4F5F4F60
:10303000089590958095709561957F4F8F4F9F4F24
:103040000895A29FB001B39FC001A39F700D811D81
:103050001124911DB29F700D811D1124911D0895A1
:103060000E942118B7FF0895821B930B08950E94B8
:103070002118A59F900DB49F900DA49F800D911DC8
:1030800011240895B7FF0C9437180E943718821B3B
:10309000930B089597FB57FF0C945A189F938F93A7
:1030A0000E945A186E1B7F0BAF91BF918A0B9B0B2E
:1030B0000895E894DF93CF93FC01DB010E9421186F
:1030C0007F936F93E9019A01AC01BF93AF933F9354
:1030D0002F93DF010E94211826F46C1B7D0B820BBD
:1030E000930B9E01EB01FC010E946119AF91BF910E
:1030F0002F913F910E946119BE01CF01F9012F91DB
:103100003F91CF91DF910895689401C0E894F92F21
:10311000F12B12F00C94B818A0E0B0E0E2E9F8E16D
:103120000C942A19092E059422F40E9414191123D3
:1031300092F4F0E80F26FFEFE094F09400951095DC
:10314000B094C094D094A194BF0ACF0ADF0AEF0ACA
:10315000FF0A0F0B1F0B0E94C31807FC0E941419D3
:10316000CDB7DEB7ECE00C944619689401C0E89442
:103170008F929F92CF93DF930E94C318DF91CF91DC
:103180009F908F90089588249924F401E401B0E47D
:103190009F93AA279A158B049C04ED05FE05CF0585
:1031A000D007A10798F4AD2FDC2FCF2FFE2FE92DEC
:1031B000982C892E982F872F762F652F542F432FE9
:1031C000322F2227B85031F7BF9127C01B2EBF9155
:1031D000BB27220F331F441F551F661F771F881FF1
:1031E000991F881C991CEE1FFF1FCC1FDD1FAA1FF3
:1031F000BB1F8A149B04EC05FD05CE05DF05A00767
:10320000B10748F08A189B08EC09FD09CE09DF09CF
:10321000A00BB10B21601A94E1F62EF49401AF01DA
:10322000BE01CD01000C0895609570958095909534
:1032300030954095509521953F4F4F4F5F4F6F4FC1
:103240007F4F8F4F9F4F08952F923F924F925F92E3
:103250006F927F928F929F92AF92BF92CF92DF92A6
:10326000EF92FF920F931F93CF93DF93CDB7DEB70B
:10327000CA1BDB0B0FB6F894DEBF0FBECDBF09949F
:103280002A88398848885F846E847D848C849B84F6
:10329000AA84B984C884DF80EE80FD800C811B8104
:1032A000AA81B981CE0FD11D0FB6F894DEBF0FBE33
:1032B000CDBFED010895EE0FFF1F0590F491E02DB5
:1032C00009940E942118460F571FC81FD91F08F4E0
:1032D00031960895CF93DF938230910510F482E008
:1032E00090E0E091BB03F091BC0320E030E0A0E06F
:1032F000B0E0309739F14081518148175907B8F053
:103300004817590771F482819381109729F0139619
:103310009C938E9312972CC09093BC038093BB0315
:1033200027C02115310531F04217530718F0A901C4
:10333000DB0101C0EF019A01BD01DF010280F381D1
:10334000E02DD7CF21153105F9F0281B390B24309A
:10335000310580F48A819B816115710521F0FB01A3
:103360009383828304C09093BC038093BB03FE01CC
:10337000329644C0FE01E20FF31F819391932250D5
:103380003109398328833AC02091B9033091BA03B7
:10339000232B41F420910201309103013093BA03B1
:1033A0002093B903209100013091010121153105CD
:1033B00041F42DB73EB74091040150910501241B03
:1033C000350BE091B903F091BA03E217F307A0F4CB
:1033D0002E1B3F0B2817390778F0AC014E5F5F4F6B
:1033E0002417350748F04E0F5F1F5093BA034093E0
:1033F000B9038193919302C0E0E0F0E0CF01DF9147
:10340000CF910895CF93DF93009709F487C0FC0113
:10341000329713821282C091BB03D091BC032097D4
:1034200081F420813181280F391F8091B903909157
:10343000BA038217930779F5F093BA03E093B903BF
:103440006DC0DE0120E030E0AE17BF0750F41296E9
:103450004D915C9113979D014115510509F1DA01D8
:10346000F3CFB383A28340815181840F951F8A17C4
:103470009B0771F48D919C911197840F951F029673
:103480009183808312968D919C911397938382836D
:103490002115310529F4F093BC03E093BB033EC032
:1034A000D9011396FC93EE9312974D915D91A40F61
:1034B000B51FEA17FB0779F480819181840F951F6E
:1034C0000296D90111969C938E93828193811396D3
:1034D0009C938E931297E0E0F0E08A819B810097A5
:1034E00019F0FE01EC01F9CFCE0102962881398155
:1034F000820F931F2091B9033091BA03281739071F
:1035000069F4309729F41092BC031092BB0302C0F7
:1035100013821282D093BA03C093B903DF91CF9183
:10352000089581E090E0F8940C94961A10E0CAECAB
:10353000D0E004C0FE010E945D192296CC3CD10768
:06354000C9F7F894FFCF6B
:103546000000BD0380000F00F4010400D007040151
:1035560004110B0E10057475726E20636F6D6D612C
:103566006E6420657865637574656400203A200092
:103576000000000082049C01B501CF01EA010702A8
:103586002602470269028E02B502DE020A03000025
:103596000100080020004000800000010004000037
:1035A60000009F1300000000820400000000E308F2
:1035B6009B154F09C20835096709000000006F0F07
:1035C600420F170F1F0F320F410F000000001F148C
:1035D6009B15A113BA13AC13FD130D0A006E616E91
:0C35E60000696E66006F7666002E000023
:00000001FF
